{
  "contractName": "AugurSet",
  "abi": [
    {
      "constant": true,
      "inputs": [
        {
          "name": "",
          "type": "uint256"
        }
      ],
      "name": "outcomeIndexTokens",
      "outputs": [
        {
          "name": "",
          "type": "address"
        }
      ],
      "payable": false,
      "stateMutability": "view",
      "type": "function"
    },
    {
      "inputs": [
        {
          "name": "_markets",
          "type": "address[]"
        },
        {
          "name": "_weights",
          "type": "uint256[]"
        },
        {
          "name": "_numOutcomes",
          "type": "uint256"
        },
        {
          "name": "_completeSets",
          "type": "address"
        },
        {
          "name": "_cash",
          "type": "address"
        },
        {
          "name": "_claimTradingProceeds",
          "type": "address"
        },
        {
          "name": "_augur",
          "type": "address"
        }
      ],
      "payable": false,
      "stateMutability": "nonpayable",
      "type": "constructor"
    },
    {
      "payable": true,
      "stateMutability": "payable",
      "type": "fallback"
    },
    {
      "constant": false,
      "inputs": [],
      "name": "buyCompleteSet",
      "outputs": [],
      "payable": true,
      "stateMutability": "payable",
      "type": "function"
    },
    {
      "constant": true,
      "inputs": [],
      "name": "indexMarketsFinalized",
      "outputs": [
        {
          "name": "resolved",
          "type": "bool"
        }
      ],
      "payable": false,
      "stateMutability": "view",
      "type": "function"
    },
    {
      "constant": false,
      "inputs": [],
      "name": "finalize",
      "outputs": [],
      "payable": false,
      "stateMutability": "nonpayable",
      "type": "function"
    },
    {
      "constant": false,
      "inputs": [],
      "name": "claimProceeds",
      "outputs": [],
      "payable": false,
      "stateMutability": "nonpayable",
      "type": "function"
    },
    {
      "constant": true,
      "inputs": [],
      "name": "getPayoutDistribution",
      "outputs": [
        {
          "name": "",
          "type": "uint256[]"
        }
      ],
      "payable": false,
      "stateMutability": "view",
      "type": "function"
    },
    {
      "constant": true,
      "inputs": [
        {
          "name": "_outcome",
          "type": "uint256"
        },
        {
          "name": "_market",
          "type": "address"
        }
      ],
      "name": "getMarketBalance",
      "outputs": [
        {
          "name": "balances",
          "type": "uint256"
        }
      ],
      "payable": false,
      "stateMutability": "view",
      "type": "function"
    }
  ],
  "bytecode": "0x60806040526127106004556000600a60006101000a81548160ff0219169083151502179055503480156200003257600080fd5b5060405162003a1c38038062003a1c833981018060405262000058919081019062000b54565b60008060008060008a518c511415156200007157600080fd5b6200008b8b620005be640100000000026401000000009004565b15156200009757600080fd5b620000b18c6200062d640100000000026401000000009004565b1515620000bd57600080fd5b600094505b89851015620002eb57620000d56200082f565b604051809103906000f080158015620000f2573d6000803e3d6000fd5b50935060068490806001815401808255809150509060018203906000526020600020016000909192909190916101000a81548173ffffffffffffffffffffffffffffffffffffffff021916908373ffffffffffffffffffffffffffffffffffffffff16021790555050600091505b8b51821015620002a157828c838151811015156200017a57fe5b9060200190602002015173ffffffffffffffffffffffffffffffffffffffff166365957bf5876040518263ffffffff167c0100000000000000000000000000000000000000000000000000000000028152600401620001da919062000d06565b602060405180830381600087803b158015620001f557600080fd5b505af11580156200020a573d6000803e3d6000fd5b505050506040513d601f19601f8201168201806040525062000230919081019062000c5f565b90806001815401808255809150509060018203906000526020600020016000909192909190916101000a81548173ffffffffffffffffffffffffffffffffffffffff021916908373ffffffffffffffffffffffffffffffffffffffff16021790555050818060010192505062000160565b600883908060018154018082558091505090600182039060005260206000200160009091929091909150908054620002db92919062000840565b50508480600101955050620000c2565b600090505b8b518110156200037c578a818151811015156200030957fe5b90602001906020020151600560008e848151811015156200032657fe5b9060200190602002015173ffffffffffffffffffffffffffffffffffffffff1673ffffffffffffffffffffffffffffffffffffffff168152602001908152602001600020819055508080600101915050620002f0565b886000806101000a81548173ffffffffffffffffffffffffffffffffffffffff021916908373ffffffffffffffffffffffffffffffffffffffff16021790555087600160006101000a81548173ffffffffffffffffffffffffffffffffffffffff021916908373ffffffffffffffffffffffffffffffffffffffff16021790555086600260006101000a81548173ffffffffffffffffffffffffffffffffffffffff021916908373ffffffffffffffffffffffffffffffffffffffff16021790555085600360006101000a81548173ffffffffffffffffffffffffffffffffffffffff021916908373ffffffffffffffffffffffffffffffffffffffff160217905550600160009054906101000a900473ffffffffffffffffffffffffffffffffffffffff1673ffffffffffffffffffffffffffffffffffffffff1663095ea7b3600360009054906101000a900473ffffffffffffffffffffffffffffffffffffffff167fffffffffffffffffffffffffffffffffffffffffffffffffffffffffffffffff6040518363ffffffff167c01000000000000000000000000000000000000000000000000000000000281526004016200053c92919062000cd9565b602060405180830381600087803b1580156200055757600080fd5b505af11580156200056c573d6000803e3d6000fd5b505050506040513d601f19601f8201168201806040525062000592919081019062000c33565b508b60079080519060200190620005ab92919062000897565b5050505050505050505050505062000e3f565b6000806000809150600090505b83518110156200062057620006108482815181101515620005e857fe5b906020019060200201518362000812640100000000026200132a179091906401000000009004565b91508080600101915050620005cb565b6064821492505050919050565b6000806000808460008151811015156200064357fe5b9060200190602002015173ffffffffffffffffffffffffffffffffffffffff1663870c426d6040518163ffffffff167c0100000000000000000000000000000000000000000000000000000000028152600401602060405180830381600087803b158015620006b157600080fd5b505af1158015620006c6573d6000803e3d6000fd5b505050506040513d601f19601f82011682018060405250620006ec919081019062000c8b565b9250600191505b8451821015620008055784828151811015156200070c57fe5b9060200190602002015173ffffffffffffffffffffffffffffffffffffffff1663870c426d6040518163ffffffff167c0100000000000000000000000000000000000000000000000000000000028152600401602060405180830381600087803b1580156200077a57600080fd5b505af11580156200078f573d6000803e3d6000fd5b505050506040513d601f19601f82011682018060405250620007b5919081019062000c8b565b90508273ffffffffffffffffffffffffffffffffffffffff168173ffffffffffffffffffffffffffffffffffffffff16141515620007f757600093506200080a565b8180600101925050620006f3565b600193505b505050919050565b600081830190508281101515156200082657fe5b80905092915050565b60405161142380620025f983390190565b828054828255906000526020600020908101928215620008845760005260206000209182015b828111156200088357825482559160010191906001019062000866565b5b50905062000893919062000926565b5090565b82805482825590600052602060002090810192821562000913579160200282015b82811115620009125782518260006101000a81548173ffffffffffffffffffffffffffffffffffffffff021916908373ffffffffffffffffffffffffffffffffffffffff16021790555091602001919060010190620008b8565b5b5090506200092291906200096c565b5090565b6200096991905b808211156200096557600081816101000a81549073ffffffffffffffffffffffffffffffffffffffff0219169055506001016200092d565b5090565b90565b620009af91905b80821115620009ab57600081816101000a81549073ffffffffffffffffffffffffffffffffffffffff02191690555060010162000973565b5090565b90565b6000620009c0825162000dcd565b905092915050565b600082601f8301121515620009dc57600080fd5b8151620009f3620009ed8262000d51565b62000d23565b9150818183526020840193506020810190508385602084028201111562000a1957600080fd5b60005b8381101562000a4d578162000a32888262000afc565b84526020840193506020830192505060018101905062000a1c565b5050505092915050565b600082601f830112151562000a6b57600080fd5b815162000a8262000a7c8262000d7a565b62000d23565b9150818183526020840193506020810190508385602084028201111562000aa857600080fd5b60005b8381101562000adc578162000ac1888262000b3e565b84526020840193506020830192505060018101905062000aab565b5050505092915050565b600062000af4825162000ded565b905092915050565b600062000b0a825162000df9565b905092915050565b600062000b20825162000e0d565b905092915050565b600062000b36825162000e21565b905092915050565b600062000b4c825162000e35565b905092915050565b600080600080600080600060e0888a03121562000b7057600080fd5b600088015167ffffffffffffffff81111562000b8b57600080fd5b62000b998a828b01620009c8565b975050602088015167ffffffffffffffff81111562000bb757600080fd5b62000bc58a828b0162000a57565b965050604062000bd88a828b0162000b3e565b955050606062000beb8a828b01620009b2565b945050608062000bfe8a828b01620009b2565b93505060a062000c118a828b01620009b2565b92505060c062000c248a828b01620009b2565b91505092959891949750929550565b60006020828403121562000c4657600080fd5b600062000c568482850162000ae6565b91505092915050565b60006020828403121562000c7257600080fd5b600062000c828482850162000b12565b91505092915050565b60006020828403121562000c9e57600080fd5b600062000cae8482850162000b28565b91505092915050565b62000cc28162000da3565b82525050565b62000cd38162000dc3565b82525050565b600060408201905062000cf0600083018562000cb7565b62000cff602083018462000cc8565b9392505050565b600060208201905062000d1d600083018462000cc8565b92915050565b6000604051905081810181811067ffffffffffffffff8211171562000d4757600080fd5b8060405250919050565b600067ffffffffffffffff82111562000d6957600080fd5b602082029050602081019050919050565b600067ffffffffffffffff82111562000d9257600080fd5b602082029050602081019050919050565b600073ffffffffffffffffffffffffffffffffffffffff82169050919050565b6000819050919050565b600073ffffffffffffffffffffffffffffffffffffffff82169050919050565b60008115159050919050565b600062000e068262000da3565b9050919050565b600062000e1a8262000da3565b9050919050565b600062000e2e8262000da3565b9050919050565b6000819050919050565b6117aa8062000e4f6000396000f300608060405260043610610083576000357c0100000000000000000000000000000000000000000000000000000000900463ffffffff16806304d552da146100e15780632dc0b4621461011e5780634bb278f3146101495780638c3b0ca8146101605780639c3bfdc814610177578063c9d59d8c146101b4578063e351c4d2146101df575b600160009054906101000a900473ffffffffffffffffffffffffffffffffffffffff1673ffffffffffffffffffffffffffffffffffffffff163373ffffffffffffffffffffffffffffffffffffffff161415156100df57600080fd5b005b3480156100ed57600080fd5b5061010860048036036101039190810190611468565b6101e9565b604051610115919061166f565b60405180910390f35b34801561012a57600080fd5b50610133610227565b60405161014091906115e0565b60405180910390f35b34801561015557600080fd5b5061015e61027f565b005b34801561016c57600080fd5b506101756103fa565b005b34801561018357600080fd5b5061019e600480360361019991908101906114ba565b6106b9565b6040516101ab919061168a565b60405180910390f35b3480156101c057600080fd5b506101c9610810565b6040516101d69190611602565b60405180910390f35b6101e7610925565b005b6006818154811015156101f857fe5b906000526020600020016000915054906101000a900473ffffffffffffffffffffffffffffffffffffffff1681565b6060600980548060200260200160405190810160405280929190818152602001828054801561027557602002820191906000526020600020905b815481526020019060010190808311610261575b5050505050905090565b6000610289610810565b151561029457600080fd5b600a60009054906101000a900460ff161515156102b057600080fd5b6102b8610e45565b600090505b6007805490508110156103dc57600260009054906101000a900473ffffffffffffffffffffffffffffffffffffffff1673ffffffffffffffffffffffffffffffffffffffff1663b53709af60078381548110151561031757fe5b9060005260206000200160009054906101000a900473ffffffffffffffffffffffffffffffffffffffff16306040518363ffffffff167c010000000000000000000000000000000000000000000000000000000002815260040161037c92919061161d565b602060405180830381600087803b15801561039657600080fd5b505af11580156103aa573d6000803e3d6000fd5b505050506040513d601f19601f820116820180604052506103ce91908101906113ed565b5080806001019150506102bd565b6001600a60006101000a81548160ff02191690831515021790555050565b6000806000806000600a60009054906101000a900460ff16151561041d57600080fd5b60009450600093505b60068054905084101561066b5760068481548110151561044257fe5b9060005260206000200160009054906101000a900473ffffffffffffffffffffffffffffffffffffffff1673ffffffffffffffffffffffffffffffffffffffff166370a08231336040518263ffffffff167c01000000000000000000000000000000000000000000000000000000000281526004016104c1919061159c565b602060405180830381600087803b1580156104db57600080fd5b505af11580156104ef573d6000803e3d6000fd5b505050506040513d601f19601f820116820180604052506105139190810190611491565b9250600083111561065e5760098481548110151561052d57fe5b9060005260206000200154915060008214151561059b5761055f61055a838561103090919063ffffffff16565b611068565b90506105988161058a61057b858761103090919063ffffffff16565b8861132a90919063ffffffff16565b61134690919063ffffffff16565b94505b6006848154811015156105aa57fe5b9060005260206000200160009054906101000a900473ffffffffffffffffffffffffffffffffffffffff1673ffffffffffffffffffffffffffffffffffffffff1663cdf0b06433856040518363ffffffff167c010000000000000000000000000000000000000000000000000000000002815260040161062b9291906115b7565b600060405180830381600087803b15801561064557600080fd5b505af1158015610659573d6000803e3d6000fd5b505050505b8380600101945050610426565b3373ffffffffffffffffffffffffffffffffffffffff166108fc869081150290604051600060405180830381858888f193505050501580156106b1573d6000803e3d6000fd5b505050505050565b60008173ffffffffffffffffffffffffffffffffffffffff166365957bf5846040518263ffffffff167c0100000000000000000000000000000000000000000000000000000000028152600401610710919061168a565b602060405180830381600087803b15801561072a57600080fd5b505af115801561073e573d6000803e3d6000fd5b505050506040513d601f19601f820116820180604052506107629190810190611416565b73ffffffffffffffffffffffffffffffffffffffff166370a08231306040518263ffffffff167c01000000000000000000000000000000000000000000000000000000000281526004016107b6919061159c565b602060405180830381600087803b1580156107d057600080fd5b505af11580156107e4573d6000803e3d6000fd5b505050506040513d601f19601f820116820180604052506108089190810190611491565b905092915050565b600080600090505b60078054905081101561091c576000151560078281548110151561083857fe5b9060005260206000200160009054906101000a900473ffffffffffffffffffffffffffffffffffffffff1673ffffffffffffffffffffffffffffffffffffffff16638d4e40836040518163ffffffff167c0100000000000000000000000000000000000000000000000000000000028152600401602060405180830381600087803b1580156108c657600080fd5b505af11580156108da573d6000803e3d6000fd5b505050506040513d601f19601f820116820180604052506108fe91908101906113ed565b1515141561090f5760009150610921565b8080600101915050610818565b600191505b5090565b60008060008060006004543411151561093d57600080fd5b60001515610949610810565b151514151561095757600080fd5b60009450600093505b600780549050841015610d0057610a0b60646109fd6005600060078981548110151561098857fe5b9060005260206000200160009054906101000a900473ffffffffffffffffffffffffffffffffffffffff1673ffffffffffffffffffffffffffffffffffffffff1673ffffffffffffffffffffffffffffffffffffffff168152602001908152602001600020543461103090919063ffffffff16565b61135f90919063ffffffff16565b9250610af4600785815481101515610a1f57fe5b9060005260206000200160009054906101000a900473ffffffffffffffffffffffffffffffffffffffff1673ffffffffffffffffffffffffffffffffffffffff1663bad84c9e6040518163ffffffff167c0100000000000000000000000000000000000000000000000000000000028152600401602060405180830381600087803b158015610aad57600080fd5b505af1158015610ac1573d6000803e3d6000fd5b505050506040513d601f19601f82011682018060405250610ae59190810190611491565b8461135f90919063ffffffff16565b9150610b09828661132a90919063ffffffff16565b9450600784815481101515610b1a57fe5b9060005260206000200160009054906101000a900473ffffffffffffffffffffffffffffffffffffffff1673ffffffffffffffffffffffffffffffffffffffff1663bad84c9e6040518163ffffffff167c0100000000000000000000000000000000000000000000000000000000028152600401602060405180830381600087803b158015610ba857600080fd5b505af1158015610bbc573d6000803e3d6000fd5b505050506040513d601f19601f82011682018060405250610be09190810190611491565b8310151515610bee57600080fd5b6000809054906101000a900473ffffffffffffffffffffffffffffffffffffffff1673ffffffffffffffffffffffffffffffffffffffff1663abb60c8084600787815481101515610c3b57fe5b9060005260206000200160009054906101000a900473ffffffffffffffffffffffffffffffffffffffff16856040518463ffffffff167c0100000000000000000000000000000000000000000000000000000000028152600401610ca0929190611646565b6020604051808303818588803b158015610cb957600080fd5b505af1158015610ccd573d6000803e3d6000fd5b50505050506040513d601f19601f82011682018060405250610cf291908101906113ed565b508380600101945050610960565b600090505b600680549050811015610de157600681815481101515610d2157fe5b9060005260206000200160009054906101000a900473ffffffffffffffffffffffffffffffffffffffff1673ffffffffffffffffffffffffffffffffffffffff1663ce6df2b933876040518363ffffffff167c0100000000000000000000000000000000000000000000000000000000028152600401610da29291906115b7565b600060405180830381600087803b158015610dbc57600080fd5b505af1158015610dd0573d6000803e3d6000fd5b505050508080600101915050610d05565b3373ffffffffffffffffffffffffffffffffffffffff166108fc610e106004548861103090919063ffffffff16565b34039081150290604051600060405180830381858888f19350505050158015610e3d573d6000803e3d6000fd5b505050505050565b600080600080600080600095505b6006805490508610156110285760009450600093505b600780549050841015610fef57600784815481101515610e8557fe5b9060005260206000200160009054906101000a900473ffffffffffffffffffffffffffffffffffffffff1692508273ffffffffffffffffffffffffffffffffffffffff16633c264820876040518263ffffffff167c0100000000000000000000000000000000000000000000000000000000028152600401610f07919061168a565b602060405180830381600087803b158015610f2157600080fd5b505af1158015610f35573d6000803e3d6000fd5b505050506040513d601f19601f82011682018060405250610f599190810190611491565b9150600082141515610fe257610fca6064610fbc600560008773ffffffffffffffffffffffffffffffffffffffff1673ffffffffffffffffffffffffffffffffffffffff168152602001908152602001600020548561103090919063ffffffff16565b61135f90919063ffffffff16565b9050610fdf818661132a90919063ffffffff16565b94505b8380600101945050610e69565b60098590806001815401808255809150509060018203906000526020600020016000909192909190915055508580600101965050610e53565b505050505050565b6000808314156110435760009050611062565b818302905081838281151561105457fe5b0414151561105e57fe5b8090505b92915050565b60008060008060009250600091505b6007805490508210156111855761117660078381548110151561109657fe5b9060005260206000200160009054906101000a900473ffffffffffffffffffffffffffffffffffffffff1673ffffffffffffffffffffffffffffffffffffffff1663f8c52125876040518263ffffffff167c0100000000000000000000000000000000000000000000000000000000028152600401611115919061168a565b602060405180830381600087803b15801561112f57600080fd5b505af1158015611143573d6000803e3d6000fd5b505050506040513d601f19601f820116820180604052506111679190810190611491565b8461132a90919063ffffffff16565b92508180600101925050611077565b6007600081548110151561119557fe5b9060005260206000200160009054906101000a900473ffffffffffffffffffffffffffffffffffffffff1673ffffffffffffffffffffffffffffffffffffffff1663870c426d6040518163ffffffff167c0100000000000000000000000000000000000000000000000000000000028152600401602060405180830381600087803b15801561122357600080fd5b505af1158015611237573d6000803e3d6000fd5b505050506040513d601f19601f8201168201806040525061125b919081019061143f565b73ffffffffffffffffffffffffffffffffffffffff16638f93bffe6040518163ffffffff167c0100000000000000000000000000000000000000000000000000000000028152600401602060405180830381600087803b1580156112be57600080fd5b505af11580156112d2573d6000803e3d6000fd5b505050506040513d601f19601f820116820180604052506112f69190810190611491565b905061131d61130e828761135f90919063ffffffff16565b8461132a90919063ffffffff16565b9250829350505050919050565b6000818301905082811015151561133d57fe5b80905092915050565b600082821115151561135457fe5b818303905092915050565b6000818381151561136c57fe5b04905092915050565b60006113818251611700565b905092915050565b6000611395823561170c565b905092915050565b60006113a9825161171e565b905092915050565b60006113bd8251611730565b905092915050565b60006113d18235611742565b905092915050565b60006113e58251611742565b905092915050565b6000602082840312156113ff57600080fd5b600061140d84828501611375565b91505092915050565b60006020828403121561142857600080fd5b60006114368482850161139d565b91505092915050565b60006020828403121561145157600080fd5b600061145f848285016113b1565b91505092915050565b60006020828403121561147a57600080fd5b6000611488848285016113c5565b91505092915050565b6000602082840312156114a357600080fd5b60006114b1848285016113d9565b91505092915050565b600080604083850312156114cd57600080fd5b60006114db858286016113c5565b92505060206114ec85828601611389565b9150509250929050565b6114ff816116ca565b82525050565b6000611510826116b2565b808452602084019350611522836116a5565b60005b828110156115545761153886835161158d565b611541826116bd565b9150602086019550600181019050611525565b50849250505092915050565b611569816116ea565b82525050565b6115788161174c565b82525050565b6115878161175e565b82525050565b611596816116f6565b82525050565b60006020820190506115b160008301846114f6565b92915050565b60006040820190506115cc60008301856114f6565b6115d9602083018461158d565b9392505050565b600060208201905081810360008301526115fa8184611505565b905092915050565b60006020820190506116176000830184611560565b92915050565b6000604082019050611632600083018561156f565b61163f60208301846114f6565b9392505050565b600060408201905061165b600083018561156f565b611668602083018461158d565b9392505050565b6000602082019050611684600083018461157e565b92915050565b600060208201905061169f600083018461158d565b92915050565b6000602082019050919050565b600081519050919050565b6000602082019050919050565b600073ffffffffffffffffffffffffffffffffffffffff82169050919050565b60008115159050919050565b6000819050919050565b60008115159050919050565b6000611717826116ca565b9050919050565b6000611729826116ca565b9050919050565b600061173b826116ca565b9050919050565b6000819050919050565b6000611757826116ca565b9050919050565b6000611769826116ca565b90509190505600a265627a7a723058202344db459ce41afb46e8354d9b15b3558680592227a7e24911ba8b7eba9105d36c6578706572696d656e74616cf5003760806040526040805190810160405280601381526020017f4f7574636f6d6520496e64657820546f6b656e000000000000000000000000008152506003908051906020019062000051929190620000fa565b506040805190810160405280600381526020017f4f49540000000000000000000000000000000000000000000000000000000000815250600490805190602001906200009f929190620000fa565b506012600555348015620000b257600080fd5b5033600660006101000a81548173ffffffffffffffffffffffffffffffffffffffff021916908373ffffffffffffffffffffffffffffffffffffffff160217905550620001a9565b828054600181600116156101000203166002900490600052602060002090601f016020900481019282601f106200013d57805160ff19168380011785556200016e565b828001600101855582156200016e579182015b828111156200016d57825182559160200191906001019062000150565b5b5090506200017d919062000181565b5090565b620001a691905b80821115620001a257600081600090555060010162000188565b5090565b90565b61126a80620001b96000396000f3006080604052600436106100af576000357c0100000000000000000000000000000000000000000000000000000000900463ffffffff16806306fdde03146100b4578063095ea7b31461014457806318160ddd146101a957806323b872dd146101d4578063313ce5671461025957806370a082311461028457806395d89b41146102db578063a9059cbb1461036b578063cdf0b064146103d0578063ce6df2b91461041d578063dd62ed3e1461046a575b600080fd5b3480156100c057600080fd5b506100c96104e1565b6040518080602001828103825283818151815260200191508051906020019080838360005b838110156101095780820151818401526020810190506100ee565b50505050905090810190601f1680156101365780820380516001836020036101000a031916815260200191505b509250505060405180910390f35b34801561015057600080fd5b5061018f600480360381019080803573ffffffffffffffffffffffffffffffffffffffff1690602001909291908035906020019092919050505061057f565b604051808215151515815260200191505060405180910390f35b3480156101b557600080fd5b506101be610671565b6040518082815260200191505060405180910390f35b3480156101e057600080fd5b5061023f600480360381019080803573ffffffffffffffffffffffffffffffffffffffff169060200190929190803573ffffffffffffffffffffffffffffffffffffffff1690602001909291908035906020019092919050505061067b565b604051808215151515815260200191505060405180910390f35b34801561026557600080fd5b5061026e610add565b6040518082815260200191505060405180910390f35b34801561029057600080fd5b506102c5600480360381019080803573ffffffffffffffffffffffffffffffffffffffff169060200190929190505050610ae3565b6040518082815260200191505060405180910390f35b3480156102e757600080fd5b506102f0610b2b565b6040518080602001828103825283818151815260200191508051906020019080838360005b83811015610330578082015181840152602081019050610315565b50505050905090810190601f16801561035d5780820380516001836020036101000a031916815260200191505b509250505060405180910390f35b34801561037757600080fd5b506103b6600480360381019080803573ffffffffffffffffffffffffffffffffffffffff16906020019092919080359060200190929190505050610bc9565b604051808215151515815260200191505060405180910390f35b3480156103dc57600080fd5b5061041b600480360381019080803573ffffffffffffffffffffffffffffffffffffffff16906020019092919080359060200190929190505050610e7e565b005b34801561042957600080fd5b50610468600480360381019080803573ffffffffffffffffffffffffffffffffffffffff16906020019092919080359060200190929190505050610ee8565b005b34801561047657600080fd5b506104cb600480360381019080803573ffffffffffffffffffffffffffffffffffffffff169060200190929190803573ffffffffffffffffffffffffffffffffffffffff169060200190929190505050610f52565b6040518082815260200191505060405180910390f35b60038054600181600116156101000203166002900480601f0160208091040260200160405190810160405280929190818152602001828054600181600116156101000203166002900480156105775780601f1061054c57610100808354040283529160200191610577565b820191906000526020600020905b81548152906001019060200180831161055a57829003601f168201915b505050505081565b600081600160003373ffffffffffffffffffffffffffffffffffffffff1673ffffffffffffffffffffffffffffffffffffffff16815260200190815260200160002060008573ffffffffffffffffffffffffffffffffffffffff1673ffffffffffffffffffffffffffffffffffffffff168152602001908152602001600020819055508273ffffffffffffffffffffffffffffffffffffffff163373ffffffffffffffffffffffffffffffffffffffff167f8c5be1e5ebec7d5bd14f71427d1e84f3dd0314c0f7b2291e5b200ac8c7c3b925846040518082815260200191505060405180910390a36001905092915050565b6000600254905090565b600080600160008673ffffffffffffffffffffffffffffffffffffffff1673ffffffffffffffffffffffffffffffffffffffff16815260200190815260200160002060003373ffffffffffffffffffffffffffffffffffffffff1673ffffffffffffffffffffffffffffffffffffffff168152602001908152602001600020549050826000808773ffffffffffffffffffffffffffffffffffffffff1673ffffffffffffffffffffffffffffffffffffffff16815260200190815260200160002054101515156107b3576040517f08c379a000000000000000000000000000000000000000000000000000000000815260040180806020018281038252601a8152602001807f45524332305f494e53554646494349454e545f42414c414e434500000000000081525060200191505060405180910390fd5b82811015151561082b576040517f08c379a000000000000000000000000000000000000000000000000000000000815260040180806020018281038252601c8152602001807f45524332305f494e53554646494349454e545f414c4c4f57414e43450000000081525060200191505060405180910390fd5b6000808573ffffffffffffffffffffffffffffffffffffffff1673ffffffffffffffffffffffffffffffffffffffff16815260200190815260200160002054836000808773ffffffffffffffffffffffffffffffffffffffff1673ffffffffffffffffffffffffffffffffffffffff168152602001908152602001600020540110151515610921576040517f08c379a00000000000000000000000000000000000000000000000000000000081526004018080602001828103825260108152602001807f55494e543235365f4f564552464c4f570000000000000000000000000000000081525060200191505060405180910390fd5b826000808673ffffffffffffffffffffffffffffffffffffffff1673ffffffffffffffffffffffffffffffffffffffff16815260200190815260200160002060008282540192505081905550826000808773ffffffffffffffffffffffffffffffffffffffff1673ffffffffffffffffffffffffffffffffffffffff168152602001908152602001600020600082825403925050819055507fffffffffffffffffffffffffffffffffffffffffffffffffffffffffffffffff811015610a6c5782600160008773ffffffffffffffffffffffffffffffffffffffff1673ffffffffffffffffffffffffffffffffffffffff16815260200190815260200160002060003373ffffffffffffffffffffffffffffffffffffffff1673ffffffffffffffffffffffffffffffffffffffff168152602001908152602001600020600082825403925050819055505b8373ffffffffffffffffffffffffffffffffffffffff168573ffffffffffffffffffffffffffffffffffffffff167fddf252ad1be2c89b69c2b068fc378daa952ba7f163c4a11628f55a4df523b3ef856040518082815260200191505060405180910390a360019150509392505050565b60055481565b60008060008373ffffffffffffffffffffffffffffffffffffffff1673ffffffffffffffffffffffffffffffffffffffff168152602001908152602001600020549050919050565b60048054600181600116156101000203166002900480601f016020809104026020016040519081016040528092919081815260200182805460018160011615610100020316600290048015610bc15780601f10610b9657610100808354040283529160200191610bc1565b820191906000526020600020905b815481529060010190602001808311610ba457829003601f168201915b505050505081565b6000816000803373ffffffffffffffffffffffffffffffffffffffff1673ffffffffffffffffffffffffffffffffffffffff1681526020019081526020016000205410151515610c81576040517f08c379a000000000000000000000000000000000000000000000000000000000815260040180806020018281038252601a8152602001807f45524332305f494e53554646494349454e545f42414c414e434500000000000081525060200191505060405180910390fd5b6000808473ffffffffffffffffffffffffffffffffffffffff1673ffffffffffffffffffffffffffffffffffffffff16815260200190815260200160002054826000808673ffffffffffffffffffffffffffffffffffffffff1673ffffffffffffffffffffffffffffffffffffffff168152602001908152602001600020540110151515610d77576040517f08c379a00000000000000000000000000000000000000000000000000000000081526004018080602001828103825260108152602001807f55494e543235365f4f564552464c4f570000000000000000000000000000000081525060200191505060405180910390fd5b816000803373ffffffffffffffffffffffffffffffffffffffff1673ffffffffffffffffffffffffffffffffffffffff16815260200190815260200160002060008282540392505081905550816000808573ffffffffffffffffffffffffffffffffffffffff1673ffffffffffffffffffffffffffffffffffffffff168152602001908152602001600020600082825401925050819055508273ffffffffffffffffffffffffffffffffffffffff163373ffffffffffffffffffffffffffffffffffffffff167fddf252ad1be2c89b69c2b068fc378daa952ba7f163c4a11628f55a4df523b3ef846040518082815260200191505060405180910390a36001905092915050565b600660009054906101000a900473ffffffffffffffffffffffffffffffffffffffff1673ffffffffffffffffffffffffffffffffffffffff163373ffffffffffffffffffffffffffffffffffffffff16141515610eda57600080fd5b610ee48282610fd9565b5050565b600660009054906101000a900473ffffffffffffffffffffffffffffffffffffffff1673ffffffffffffffffffffffffffffffffffffffff163373ffffffffffffffffffffffffffffffffffffffff16141515610f4457600080fd5b610f4e82826110f1565b5050565b6000600160008473ffffffffffffffffffffffffffffffffffffffff1673ffffffffffffffffffffffffffffffffffffffff16815260200190815260200160002060008373ffffffffffffffffffffffffffffffffffffffff1673ffffffffffffffffffffffffffffffffffffffff16815260200190815260200160002054905092915050565b61102a816000808573ffffffffffffffffffffffffffffffffffffffff1673ffffffffffffffffffffffffffffffffffffffff1681526020019081526020016000205461120990919063ffffffff16565b6000808473ffffffffffffffffffffffffffffffffffffffff1673ffffffffffffffffffffffffffffffffffffffff168152602001908152602001600020819055506110818160025461120990919063ffffffff16565b600281905550600073ffffffffffffffffffffffffffffffffffffffff168273ffffffffffffffffffffffffffffffffffffffff167fddf252ad1be2c89b69c2b068fc378daa952ba7f163c4a11628f55a4df523b3ef836040518082815260200191505060405180910390a35050565b611142816000808573ffffffffffffffffffffffffffffffffffffffff1673ffffffffffffffffffffffffffffffffffffffff1681526020019081526020016000205461122290919063ffffffff16565b6000808473ffffffffffffffffffffffffffffffffffffffff1673ffffffffffffffffffffffffffffffffffffffff168152602001908152602001600020819055506111998160025461122290919063ffffffff16565b6002819055508173ffffffffffffffffffffffffffffffffffffffff16600073ffffffffffffffffffffffffffffffffffffffff167fddf252ad1be2c89b69c2b068fc378daa952ba7f163c4a11628f55a4df523b3ef836040518082815260200191505060405180910390a35050565b600082821115151561121757fe5b818303905092915050565b6000818301905082811015151561123557fe5b809050929150505600a165627a7a72305820d790d0d839e119f807d709bb62d9f4d6c9939d0998fc5652c9b53105fa4fc5b00029",
  "source": "pragma solidity >= 0.4.22;\npragma experimental ABIEncoderV2;\n\nimport \"./OutcomeIndexToken.sol\";\n\nimport \"./../libraries/augur/source/contracts/reporting/IMarket.sol\";\nimport \"./../libraries/augur/source/contracts/trading/IShareToken.sol\";\nimport \"./../libraries/augur/source/contracts/trading/CompleteSets.sol\";\nimport \"./../libraries/augur/source/contracts/trading/ICash.sol\";\nimport \"./../libraries/augur/source/contracts/trading/ClaimTradingProceeds.sol\";\n\nimport \"./../libraries/openzeppelin-solidity/SafeMathLib.sol\";\n \ncontract AugurSet {\n\tusing SafeMathLib for uint256;\n\n\tCompleteSets internal completeSets;\n\tICash internal cash;\n\tClaimTradingProceeds internal claimTradingProceeds;\n\taddress internal augur;\n\n\tuint256 NUM_TICKS = 10000;\n\n\tmapping(address => uint256) marketsToWeight;\n\tOutcomeIndexToken[] public outcomeIndexTokens;\n\tIMarket[] markets;\n\tIShareToken[][] indexes;\n\t\n\tuint256[] internal payoutDistribution;\n\tbool augurSetFinalized = false;\n\n\tconstructor (\n\t\tIMarket[] _markets,\n\t\tuint256[] _weights,\n\t\tuint256 _numOutcomes,\n\t\taddress _completeSets,\n\t\taddress _cash,\n\t\taddress _claimTradingProceeds,\n\t\taddress _augur\n\t)  \n\tpublic \n\t{\n\t\trequire(_markets.length == _weights.length);\n\t\t// Make sure all weights add up to 100\n\t\trequire(validateWeights(_weights));\n\t\t// Make sure all markets are within the same universe\n\t\trequire(validateMarketUniverses(_markets));\n\n\t\tfor (uint256 outcome = 0; outcome < _numOutcomes; outcome++) {\n\t\t\t// Create ERC20 token representing an index of outcomes\n\t\t\tOutcomeIndexToken outcomeIndexToken = new OutcomeIndexToken();\n\t\t\toutcomeIndexTokens.push(outcomeIndexToken);\n\n\t\t\t// Create an array with all ShareTokens\n\t\t\tIShareToken[] storage index;\n\t\t\tfor (uint256 x = 0; x < _markets.length; x++) {\n\t\t\t\tindex.push(_markets[x].getShareToken(outcome));\n\t\t\t}\n\t\t\t// Push the index array to an array containing all indexes\n\t\t\tindexes.push(index);\n\t\t}\n\n\t\t// Map weights to markets\n\t\tfor (uint256 y = 0; y < _markets.length; y++) {\n\t\t\tmarketsToWeight[_markets[y]] = _weights[y];\n\t\t}\n\t\t\n\t\t// Set contract addresses to network instances\n\t\tcompleteSets = CompleteSets(_completeSets);\n\t\tcash = ICash(_cash);\n\t\tclaimTradingProceeds = ClaimTradingProceeds(_claimTradingProceeds);\n\t\taugur = _augur;\n\t\t\n\t\t// Approve augur to trade Cash for this contract\n\t\tcash.approve(augur, uint256(-1));\n\n\t\tmarkets = _markets;\n\t}\n\n\t// Needs to have a payable function to receive Ether on payouts, checks if the sender is the Cash contract.\n\tfunction () public payable {\n\t\trequire(msg.sender == address(cash));\n\t}\n\n\tfunction buyCompleteSet()\n\tpublic\n\tpayable {\n\t\trequire(msg.value > NUM_TICKS);\n\t\trequire(indexMarketsFinalized() == false);\n\n\t\t// Because NUM_TICKS are into play there sometimes is dust leftover after purchasing shares, keep track of the actual ether spend so that the dust can be returned to the sender. \n\t\tuint256 totalSharesBought = 0;\n\t\t// Buy a complete set of shares for each market\n\t\tfor (uint256 i = 0; i < markets.length; i++) {\n\t\t\t// Calculate the weighted amount of shares that need to be bought by the \n\t\t\tuint256 weightedAmountInEth = msg.value.mul(marketsToWeight[markets[i]]).div(100);\n\t\t\tuint256 weightedAmountInAttoEth = weightedAmountInEth.div(markets[i].getNumTicks());\n\t\t\ttotalSharesBought = totalSharesBought.add(weightedAmountInAttoEth);\n\t\t\trequire(weightedAmountInEth >= markets[i].getNumTicks());\n\t\t\tcompleteSets.publicBuyCompleteSets.value(weightedAmountInEth)(markets[i], weightedAmountInAttoEth);\n\t\t}\n\t\t// For each existing index token mint the amount in eth for the sender\n\t\tfor (uint256 x = 0; x < outcomeIndexTokens.length; x++){\n\t\t\toutcomeIndexTokens[x].publicMint(msg.sender, totalSharesBought);\n\t\t}\n\n\t\t// Transfer back all eth that's left over\n\t\tmsg.sender.transfer(msg.value - totalSharesBought.mul(NUM_TICKS));\n\t}\n\n\t// Check if each market in the index is finalized\n\tfunction indexMarketsFinalized() \n\tpublic \n\tview \n\treturns (bool resolved) \n\t{\n\t\tfor (uint i = 0; i < markets.length; i++) {\n\t\t\tif (markets[i].isFinalized() == false) {\n\t\t\t\treturn false;\n\t\t\t}\n\t\t}\n\t\treturn true;\n\t}\n\n\t// If each market is finalized, this Index can be finalized, the contract will claim all winnings and distribute to the winning outcome holders\n\tfunction finalize() \n\tpublic \n\t{\n\t\trequire(indexMarketsFinalized());\n\t\trequire(!augurSetFinalized);\n\t\tcalculatePayoutDistribution();\n\t\tfor (uint i = 0; i < markets.length; i++) {\n\t\t\tclaimTradingProceeds.claimTradingProceeds(markets[i], address(this));\n\t\t}\t\t\n\t\taugurSetFinalized = true;\n\t}\n\n\t// Calculates and sets weighted payout distribution\n\tfunction calculatePayoutDistribution()\n\tprivate \n\t{\n\t\tfor (uint256 outcome = 0; outcome < outcomeIndexTokens.length; outcome++) {\n\t\t\tuint256 payoutForOutcome = 0;\n\t\t\tfor (uint256 i = 0; i <  markets.length; i++) {\n\t\t\t\tIMarket market = markets[i];\n\t\t\t\tuint256 payoutNumerator = market.getWinningPayoutNumerator(outcome);\n\t\t\t\tif(payoutNumerator != 0) {\n\t\t\t\t\t\tuint256 weightedValue = payoutNumerator.mul(marketsToWeight[address(market)]).div(100);\n\t\t\t\t\t\tpayoutForOutcome = payoutForOutcome.add(weightedValue);\n\t\t\t\t}\n\t\t\t}\n\t\t\tpayoutDistribution.push(payoutForOutcome);\n\t\t}\n\t}\n\n\t// Calculate a flat fee per outcome\n\tfunction calculateFees(uint256 proceeds) \n\tinternal \n\treturns(uint256) \n\t{\n\t\tuint256 flatFee = 0;\n\t\tfor (uint256 i = 0; i < markets.length; i++) {\n\t\t\tflatFee = flatFee.add(markets[i].deriveMarketCreatorFeeAmount(proceeds));\n\t\t}\n\t\tuint256 reportingFeeDevisor = markets[0].getUniverse().getOrCacheReportingFeeDivisor();\n\t\tflatFee = flatFee.add(proceeds.div(reportingFeeDevisor));\n\t\treturn flatFee;\n\t}\n\n\t// Distributes a users proceeds.\n\tfunction claimProceeds() \n\tpublic \n\t{\n\t\trequire(augurSetFinalized);\n\t\tuint256 totalProceeds = 0;\n\t\t\n\t\tfor (uint256 i = 0; i < outcomeIndexTokens.length; i++) {\n\t\t\tuint256 balance = outcomeIndexTokens[i].balanceOf(msg.sender);\n\t\t\tif (balance > 0) {\n\t\t\t\tuint256 payoutNumerator = payoutDistribution[i];\n\t\t\t\tif (payoutNumerator != 0) {\n\t\t\t\t\tuint256 totalFee = calculateFees(balance.mul(payoutNumerator));\n\t\t\t\t\ttotalProceeds = totalProceeds.add(balance.mul(payoutNumerator)).sub(totalFee);\n\t\t\t\t}\n\t\t\t\toutcomeIndexTokens[i].publicBurn(msg.sender, balance);\n\t\t\t}\n\t\t}\n\t\tmsg.sender.transfer(totalProceeds);\n\t}\n\n\t// Returns an array representing the payout distribution\n\tfunction getPayoutDistribution() \n\tpublic\n\tview \n\treturns(uint256[])\n\t{\n\t\treturn payoutDistribution;\n\t}\n\n\t// Returns true if an array of markets are all active in the same universe.\n\tfunction validateMarketUniverses(IMarket[] _markets) \n\tprivate \n\tview \n\treturns (bool) \n\t{\n\t\taddress universe = address(_markets[0].getUniverse());\n\t\tfor (uint256 i = 1; i < _markets.length; i++) {\n\t\t\taddress marketUniverse = address(_markets[i].getUniverse());\n\t\t\tif (marketUniverse != universe) return false;\n\t\t}\n\t\treturn true;\n\t}\n\n\t// Returns true if an array of integers adds up to 100\n\tfunction validateWeights(uint256[] _weights) \n\tprivate \n\tview \n\treturns(bool) \n\t{\n\t\tuint256 totalWeight = 0;\n\t\tfor (uint256 i = 0; i < _weights.length; i++) {\n\t\t\ttotalWeight = totalWeight.add(_weights[i]);\n\t\t}\n\t\treturn totalWeight == 100;\n\t}\n\t\t\n\t// Returns the set's balance of a certain outcome within a market\n\tfunction getMarketBalance(\n\t\tuint256 _outcome,\n\t\tIMarket _market\n\t) \n\tpublic \n\tview \n\treturns(uint256 balances)\n\t{\n\t\treturn _market.getShareToken(_outcome).balanceOf(address(this));\n\t}\n}",
  "sourcePath": "/Users/jasperdegooijer/augurSetsTest/AugurSets/augur-sets/contracts/AugurSet.sol",
  "compiler": {
    "name": "solc",
    "version": "0.4.22+commit.4cb486ee.Emscripten.clang"
  },
  "schemaVersion": "3.0.1",
  "updatedAt": "2019-07-22T15:25:21.322Z",
  "devdoc": {
    "methods": {}
  },
  "userdoc": {
    "methods": {}
  }
}