{
  "contractName": "AugurSet",
  "abi": [
    {
      "constant": true,
      "inputs": [
        {
          "name": "",
          "type": "uint256"
        }
      ],
      "name": "outcomeIndexTokens",
      "outputs": [
        {
          "name": "",
          "type": "address"
        }
      ],
      "payable": false,
      "stateMutability": "view",
      "type": "function"
    },
    {
      "constant": false,
      "inputs": [
        {
          "name": "_spender",
          "type": "address"
        },
        {
          "name": "_value",
          "type": "uint256"
        }
      ],
      "name": "approve",
      "outputs": [
        {
          "name": "",
          "type": "bool"
        }
      ],
      "payable": false,
      "stateMutability": "nonpayable",
      "type": "function"
    },
    {
      "constant": true,
      "inputs": [],
      "name": "totalSupply",
      "outputs": [
        {
          "name": "",
          "type": "uint256"
        }
      ],
      "payable": false,
      "stateMutability": "view",
      "type": "function"
    },
    {
      "constant": false,
      "inputs": [
        {
          "name": "_from",
          "type": "address"
        },
        {
          "name": "_to",
          "type": "address"
        },
        {
          "name": "_value",
          "type": "uint256"
        }
      ],
      "name": "transferFrom",
      "outputs": [
        {
          "name": "",
          "type": "bool"
        }
      ],
      "payable": false,
      "stateMutability": "nonpayable",
      "type": "function"
    },
    {
      "constant": true,
      "inputs": [
        {
          "name": "_owner",
          "type": "address"
        }
      ],
      "name": "balanceOf",
      "outputs": [
        {
          "name": "",
          "type": "uint256"
        }
      ],
      "payable": false,
      "stateMutability": "view",
      "type": "function"
    },
    {
      "constant": false,
      "inputs": [
        {
          "name": "_to",
          "type": "address"
        },
        {
          "name": "_value",
          "type": "uint256"
        }
      ],
      "name": "transfer",
      "outputs": [
        {
          "name": "",
          "type": "bool"
        }
      ],
      "payable": false,
      "stateMutability": "nonpayable",
      "type": "function"
    },
    {
      "constant": true,
      "inputs": [
        {
          "name": "_owner",
          "type": "address"
        },
        {
          "name": "_spender",
          "type": "address"
        }
      ],
      "name": "allowance",
      "outputs": [
        {
          "name": "",
          "type": "uint256"
        }
      ],
      "payable": false,
      "stateMutability": "view",
      "type": "function"
    },
    {
      "inputs": [
        {
          "name": "_markets",
          "type": "address[]"
        },
        {
          "name": "_weights",
          "type": "uint256[]"
        },
        {
          "name": "_numOutcomes",
          "type": "uint256"
        },
        {
          "name": "_completeSets",
          "type": "address"
        },
        {
          "name": "_cash",
          "type": "address"
        },
        {
          "name": "_claimTradingProceeds",
          "type": "address"
        },
        {
          "name": "_augur",
          "type": "address"
        }
      ],
      "payable": false,
      "stateMutability": "nonpayable",
      "type": "constructor"
    },
    {
      "payable": true,
      "stateMutability": "payable",
      "type": "fallback"
    },
    {
      "anonymous": false,
      "inputs": [
        {
          "indexed": true,
          "name": "_from",
          "type": "address"
        },
        {
          "indexed": true,
          "name": "_to",
          "type": "address"
        },
        {
          "indexed": false,
          "name": "_value",
          "type": "uint256"
        }
      ],
      "name": "Transfer",
      "type": "event"
    },
    {
      "anonymous": false,
      "inputs": [
        {
          "indexed": true,
          "name": "_owner",
          "type": "address"
        },
        {
          "indexed": true,
          "name": "_spender",
          "type": "address"
        },
        {
          "indexed": false,
          "name": "_value",
          "type": "uint256"
        }
      ],
      "name": "Approval",
      "type": "event"
    },
    {
      "constant": false,
      "inputs": [],
      "name": "buyCompleteSet",
      "outputs": [],
      "payable": true,
      "stateMutability": "payable",
      "type": "function"
    },
    {
      "constant": true,
      "inputs": [],
      "name": "indexMarketsFinalized",
      "outputs": [
        {
          "name": "resolved",
          "type": "bool"
        }
      ],
      "payable": false,
      "stateMutability": "view",
      "type": "function"
    },
    {
      "constant": false,
      "inputs": [],
      "name": "finalize",
      "outputs": [],
      "payable": false,
      "stateMutability": "nonpayable",
      "type": "function"
    },
    {
      "constant": false,
      "inputs": [],
      "name": "claimProceeds",
      "outputs": [],
      "payable": false,
      "stateMutability": "nonpayable",
      "type": "function"
    },
    {
      "constant": true,
      "inputs": [],
      "name": "getPayoutDistribution",
      "outputs": [
        {
          "name": "",
          "type": "uint256[]"
        }
      ],
      "payable": false,
      "stateMutability": "view",
      "type": "function"
    },
    {
      "constant": true,
      "inputs": [
        {
          "name": "_outcome",
          "type": "uint256"
        },
        {
          "name": "_market",
          "type": "address"
        }
      ],
      "name": "getMarketBalance",
      "outputs": [
        {
          "name": "balances",
          "type": "uint256"
        }
      ],
      "payable": false,
      "stateMutability": "view",
      "type": "function"
    }
  ],
  "bytecode": "0x60806040526127106007556000600d60006101000a81548160ff0219169083151502179055503480156200003257600080fd5b506040516200467e3803806200467e833981018060405262000058919081019062000b55565b60008060008060008a518c511415156200007157600080fd5b6200008b8b620005bf640100000000026401000000009004565b15156200009757600080fd5b620000b18c6200062e640100000000026401000000009004565b1515620000bd57600080fd5b600094505b89851015620002eb57620000d562000830565b604051809103906000f080158015620000f2573d6000803e3d6000fd5b50935060098490806001815401808255809150509060018203906000526020600020016000909192909190916101000a81548173ffffffffffffffffffffffffffffffffffffffff021916908373ffffffffffffffffffffffffffffffffffffffff16021790555050600091505b8b51821015620002a157828c838151811015156200017a57fe5b9060200190602002015173ffffffffffffffffffffffffffffffffffffffff166365957bf5876040518263ffffffff167c0100000000000000000000000000000000000000000000000000000000028152600401620001da919062000d07565b602060405180830381600087803b158015620001f557600080fd5b505af11580156200020a573d6000803e3d6000fd5b505050506040513d601f19601f8201168201806040525062000230919081019062000c60565b90806001815401808255809150509060018203906000526020600020016000909192909190916101000a81548173ffffffffffffffffffffffffffffffffffffffff021916908373ffffffffffffffffffffffffffffffffffffffff16021790555050818060010192505062000160565b600b83908060018154018082558091505090600182039060005260206000200160009091929091909150908054620002db92919062000841565b50508480600101955050620000c2565b600090505b8b518110156200037c578a818151811015156200030957fe5b90602001906020020151600860008e848151811015156200032657fe5b9060200190602002015173ffffffffffffffffffffffffffffffffffffffff1673ffffffffffffffffffffffffffffffffffffffff168152602001908152602001600020819055508080600101915050620002f0565b88600360006101000a81548173ffffffffffffffffffffffffffffffffffffffff021916908373ffffffffffffffffffffffffffffffffffffffff16021790555087600460006101000a81548173ffffffffffffffffffffffffffffffffffffffff021916908373ffffffffffffffffffffffffffffffffffffffff16021790555086600560006101000a81548173ffffffffffffffffffffffffffffffffffffffff021916908373ffffffffffffffffffffffffffffffffffffffff16021790555085600660006101000a81548173ffffffffffffffffffffffffffffffffffffffff021916908373ffffffffffffffffffffffffffffffffffffffff160217905550600460009054906101000a900473ffffffffffffffffffffffffffffffffffffffff1673ffffffffffffffffffffffffffffffffffffffff1663095ea7b3600660009054906101000a900473ffffffffffffffffffffffffffffffffffffffff167fffffffffffffffffffffffffffffffffffffffffffffffffffffffffffffffff6040518363ffffffff167c01000000000000000000000000000000000000000000000000000000000281526004016200053d92919062000cda565b602060405180830381600087803b1580156200055857600080fd5b505af11580156200056d573d6000803e3d6000fd5b505050506040513d601f19601f8201168201806040525062000593919081019062000c34565b508b600a9080519060200190620005ac92919062000898565b5050505050505050505050505062000e40565b6000806000809150600090505b83518110156200062157620006118482815181101515620005e957fe5b9060200190602002015183620008136401000000000262001cac179091906401000000009004565b91508080600101915050620005cc565b6064821492505050919050565b6000806000808460008151811015156200064457fe5b9060200190602002015173ffffffffffffffffffffffffffffffffffffffff1663870c426d6040518163ffffffff167c0100000000000000000000000000000000000000000000000000000000028152600401602060405180830381600087803b158015620006b257600080fd5b505af1158015620006c7573d6000803e3d6000fd5b505050506040513d601f19601f82011682018060405250620006ed919081019062000c8c565b9250600191505b8451821015620008065784828151811015156200070d57fe5b9060200190602002015173ffffffffffffffffffffffffffffffffffffffff1663870c426d6040518163ffffffff167c0100000000000000000000000000000000000000000000000000000000028152600401602060405180830381600087803b1580156200077b57600080fd5b505af115801562000790573d6000803e3d6000fd5b505050506040513d601f19601f82011682018060405250620007b6919081019062000c8c565b90508273ffffffffffffffffffffffffffffffffffffffff168173ffffffffffffffffffffffffffffffffffffffff16141515620007f857600093506200080b565b8180600101925050620006f4565b600193505b505050919050565b600081830190508281101515156200082757fe5b80905092915050565b6040516114d980620031a583390190565b828054828255906000526020600020908101928215620008855760005260206000209182015b828111156200088457825482559160010191906001019062000867565b5b50905062000894919062000927565b5090565b82805482825590600052602060002090810192821562000914579160200282015b82811115620009135782518260006101000a81548173ffffffffffffffffffffffffffffffffffffffff021916908373ffffffffffffffffffffffffffffffffffffffff16021790555091602001919060010190620008b9565b5b5090506200092391906200096d565b5090565b6200096a91905b808211156200096657600081816101000a81549073ffffffffffffffffffffffffffffffffffffffff0219169055506001016200092e565b5090565b90565b620009b091905b80821115620009ac57600081816101000a81549073ffffffffffffffffffffffffffffffffffffffff02191690555060010162000974565b5090565b90565b6000620009c1825162000dce565b905092915050565b600082601f8301121515620009dd57600080fd5b8151620009f4620009ee8262000d52565b62000d24565b9150818183526020840193506020810190508385602084028201111562000a1a57600080fd5b60005b8381101562000a4e578162000a33888262000afd565b84526020840193506020830192505060018101905062000a1d565b5050505092915050565b600082601f830112151562000a6c57600080fd5b815162000a8362000a7d8262000d7b565b62000d24565b9150818183526020840193506020810190508385602084028201111562000aa957600080fd5b60005b8381101562000add578162000ac2888262000b3f565b84526020840193506020830192505060018101905062000aac565b5050505092915050565b600062000af5825162000dee565b905092915050565b600062000b0b825162000dfa565b905092915050565b600062000b21825162000e0e565b905092915050565b600062000b37825162000e22565b905092915050565b600062000b4d825162000e36565b905092915050565b600080600080600080600060e0888a03121562000b7157600080fd5b600088015167ffffffffffffffff81111562000b8c57600080fd5b62000b9a8a828b01620009c9565b975050602088015167ffffffffffffffff81111562000bb857600080fd5b62000bc68a828b0162000a58565b965050604062000bd98a828b0162000b3f565b955050606062000bec8a828b01620009b3565b945050608062000bff8a828b01620009b3565b93505060a062000c128a828b01620009b3565b92505060c062000c258a828b01620009b3565b91505092959891949750929550565b60006020828403121562000c4757600080fd5b600062000c578482850162000ae7565b91505092915050565b60006020828403121562000c7357600080fd5b600062000c838482850162000b13565b91505092915050565b60006020828403121562000c9f57600080fd5b600062000caf8482850162000b29565b91505092915050565b62000cc38162000da4565b82525050565b62000cd48162000dc4565b82525050565b600060408201905062000cf1600083018562000cb8565b62000d00602083018462000cc9565b9392505050565b600060208201905062000d1e600083018462000cc9565b92915050565b6000604051905081810181811067ffffffffffffffff8211171562000d4857600080fd5b8060405250919050565b600067ffffffffffffffff82111562000d6a57600080fd5b602082029050602081019050919050565b600067ffffffffffffffff82111562000d9357600080fd5b602082029050602081019050919050565b600073ffffffffffffffffffffffffffffffffffffffff82169050919050565b6000819050919050565b600073ffffffffffffffffffffffffffffffffffffffff82169050919050565b60008115159050919050565b600062000e078262000da4565b9050919050565b600062000e1b8262000da4565b9050919050565b600062000e2f8262000da4565b9050919050565b6000819050919050565b6123558062000e506000396000f3006080604052600436106100c5576000357c0100000000000000000000000000000000000000000000000000000000900463ffffffff16806304d552da14610123578063095ea7b31461016057806318160ddd1461019d57806323b872dd146101c85780632dc0b462146102055780634bb278f31461023057806370a08231146102475780638c3b0ca8146102845780639c3bfdc81461029b578063a9059cbb146102d8578063c9d59d8c14610315578063dd62ed3e14610340578063e351c4d21461037d575b600460009054906101000a900473ffffffffffffffffffffffffffffffffffffffff1673ffffffffffffffffffffffffffffffffffffffff163373ffffffffffffffffffffffffffffffffffffffff1614151561012157600080fd5b005b34801561012f57600080fd5b5061014a60048036036101459190810190611eee565b610387565b604051610157919061219a565b60405180910390f35b34801561016c57600080fd5b5061018760048036036101829190810190611e37565b6103c5565b604051610194919061212d565b60405180910390f35b3480156101a957600080fd5b506101b26104b7565b6040516101bf9190612215565b60405180910390f35b3480156101d457600080fd5b506101ef60048036036101ea9190810190611de8565b6104c1565b6040516101fc919061212d565b60405180910390f35b34801561021157600080fd5b5061021a61088a565b604051610227919061210b565b60405180910390f35b34801561023c57600080fd5b506102456108e2565b005b34801561025357600080fd5b5061026e60048036036102699190810190611d83565b610a5d565b60405161027b9190612215565b60405180910390f35b34801561029057600080fd5b50610299610aa5565b005b3480156102a757600080fd5b506102c260048036036102bd9190810190611f40565b610d64565b6040516102cf9190612215565b60405180910390f35b3480156102e457600080fd5b506102ff60048036036102fa9190810190611e37565b610ebb565b60405161030c919061212d565b60405180910390f35b34801561032157600080fd5b5061032a61110a565b604051610337919061212d565b60405180910390f35b34801561034c57600080fd5b5061036760048036036103629190810190611dac565b61121f565b6040516103749190612215565b60405180910390f35b6103856112a6565b005b60098181548110151561039657fe5b906000526020600020016000915054906101000a900473ffffffffffffffffffffffffffffffffffffffff1681565b600081600160003373ffffffffffffffffffffffffffffffffffffffff1673ffffffffffffffffffffffffffffffffffffffff16815260200190815260200160002060008573ffffffffffffffffffffffffffffffffffffffff1673ffffffffffffffffffffffffffffffffffffffff168152602001908152602001600020819055508273ffffffffffffffffffffffffffffffffffffffff163373ffffffffffffffffffffffffffffffffffffffff167f8c5be1e5ebec7d5bd14f71427d1e84f3dd0314c0f7b2291e5b200ac8c7c3b925846040516104a59190612215565b60405180910390a36001905092915050565b6000600254905090565b600080600160008673ffffffffffffffffffffffffffffffffffffffff1673ffffffffffffffffffffffffffffffffffffffff16815260200190815260200160002060003373ffffffffffffffffffffffffffffffffffffffff1673ffffffffffffffffffffffffffffffffffffffff168152602001908152602001600020549050826000808773ffffffffffffffffffffffffffffffffffffffff1673ffffffffffffffffffffffffffffffffffffffff16815260200190815260200160002054101515156105c6576040517f08c379a00000000000000000000000000000000000000000000000000000000081526004016105bd906121b5565b60405180910390fd5b82811015151561060b576040517f08c379a0000000000000000000000000000000000000000000000000000000008152600401610602906121d5565b60405180910390fd5b6000808573ffffffffffffffffffffffffffffffffffffffff1673ffffffffffffffffffffffffffffffffffffffff16815260200190815260200160002054836000808773ffffffffffffffffffffffffffffffffffffffff1673ffffffffffffffffffffffffffffffffffffffff1681526020019081526020016000205401101515156106ce576040517f08c379a00000000000000000000000000000000000000000000000000000000081526004016106c5906121f5565b60405180910390fd5b826000808673ffffffffffffffffffffffffffffffffffffffff1673ffffffffffffffffffffffffffffffffffffffff16815260200190815260200160002060008282540192505081905550826000808773ffffffffffffffffffffffffffffffffffffffff1673ffffffffffffffffffffffffffffffffffffffff168152602001908152602001600020600082825403925050819055507fffffffffffffffffffffffffffffffffffffffffffffffffffffffffffffffff8110156108195782600160008773ffffffffffffffffffffffffffffffffffffffff1673ffffffffffffffffffffffffffffffffffffffff16815260200190815260200160002060003373ffffffffffffffffffffffffffffffffffffffff1673ffffffffffffffffffffffffffffffffffffffff168152602001908152602001600020600082825403925050819055505b8373ffffffffffffffffffffffffffffffffffffffff168573ffffffffffffffffffffffffffffffffffffffff167fddf252ad1be2c89b69c2b068fc378daa952ba7f163c4a11628f55a4df523b3ef856040516108769190612215565b60405180910390a360019150509392505050565b6060600c8054806020026020016040519081016040528092919081815260200182805480156108d857602002820191906000526020600020905b8154815260200190600101908083116108c4575b5050505050905090565b60006108ec61110a565b15156108f757600080fd5b600d60009054906101000a900460ff1615151561091357600080fd5b61091b6117c7565b600090505b600a80549050811015610a3f57600560009054906101000a900473ffffffffffffffffffffffffffffffffffffffff1673ffffffffffffffffffffffffffffffffffffffff1663b53709af600a8381548110151561097a57fe5b9060005260206000200160009054906101000a900473ffffffffffffffffffffffffffffffffffffffff16306040518363ffffffff167c01000000000000000000000000000000000000000000000000000000000281526004016109df929190612148565b602060405180830381600087803b1580156109f957600080fd5b505af1158015610a0d573d6000803e3d6000fd5b505050506040513d601f19601f82011682018060405250610a319190810190611e73565b508080600101915050610920565b6001600d60006101000a81548160ff02191690831515021790555050565b60008060008373ffffffffffffffffffffffffffffffffffffffff1673ffffffffffffffffffffffffffffffffffffffff168152602001908152602001600020549050919050565b6000806000806000600d60009054906101000a900460ff161515610ac857600080fd5b60009450600093505b600980549050841015610d1657600984815481101515610aed57fe5b9060005260206000200160009054906101000a900473ffffffffffffffffffffffffffffffffffffffff1673ffffffffffffffffffffffffffffffffffffffff166370a08231336040518263ffffffff167c0100000000000000000000000000000000000000000000000000000000028152600401610b6c91906120c7565b602060405180830381600087803b158015610b8657600080fd5b505af1158015610b9a573d6000803e3d6000fd5b505050506040513d601f19601f82011682018060405250610bbe9190810190611f17565b92506000831115610d0957600c84815481101515610bd857fe5b90600052602060002001549150600082141515610c4657610c0a610c0583856119b290919063ffffffff16565b6119ea565b9050610c4381610c35610c2685876119b290919063ffffffff16565b88611cac90919063ffffffff16565b611cc890919063ffffffff16565b94505b600984815481101515610c5557fe5b9060005260206000200160009054906101000a900473ffffffffffffffffffffffffffffffffffffffff1673ffffffffffffffffffffffffffffffffffffffff16639dc29fac33856040518363ffffffff167c0100000000000000000000000000000000000000000000000000000000028152600401610cd69291906120e2565b600060405180830381600087803b158015610cf057600080fd5b505af1158015610d04573d6000803e3d6000fd5b505050505b8380600101945050610ad1565b3373ffffffffffffffffffffffffffffffffffffffff166108fc869081150290604051600060405180830381858888f19350505050158015610d5c573d6000803e3d6000fd5b505050505050565b60008173ffffffffffffffffffffffffffffffffffffffff166365957bf5846040518263ffffffff167c0100000000000000000000000000000000000000000000000000000000028152600401610dbb9190612215565b602060405180830381600087803b158015610dd557600080fd5b505af1158015610de9573d6000803e3d6000fd5b505050506040513d601f19601f82011682018060405250610e0d9190810190611e9c565b73ffffffffffffffffffffffffffffffffffffffff166370a08231306040518263ffffffff167c0100000000000000000000000000000000000000000000000000000000028152600401610e6191906120c7565b602060405180830381600087803b158015610e7b57600080fd5b505af1158015610e8f573d6000803e3d6000fd5b505050506040513d601f19601f82011682018060405250610eb39190810190611f17565b905092915050565b6000816000803373ffffffffffffffffffffffffffffffffffffffff1673ffffffffffffffffffffffffffffffffffffffff1681526020019081526020016000205410151515610f40576040517f08c379a0000000000000000000000000000000000000000000000000000000008152600401610f37906121b5565b60405180910390fd5b6000808473ffffffffffffffffffffffffffffffffffffffff1673ffffffffffffffffffffffffffffffffffffffff16815260200190815260200160002054826000808673ffffffffffffffffffffffffffffffffffffffff1673ffffffffffffffffffffffffffffffffffffffff168152602001908152602001600020540110151515611003576040517f08c379a0000000000000000000000000000000000000000000000000000000008152600401610ffa906121f5565b60405180910390fd5b816000803373ffffffffffffffffffffffffffffffffffffffff1673ffffffffffffffffffffffffffffffffffffffff16815260200190815260200160002060008282540392505081905550816000808573ffffffffffffffffffffffffffffffffffffffff1673ffffffffffffffffffffffffffffffffffffffff168152602001908152602001600020600082825401925050819055508273ffffffffffffffffffffffffffffffffffffffff163373ffffffffffffffffffffffffffffffffffffffff167fddf252ad1be2c89b69c2b068fc378daa952ba7f163c4a11628f55a4df523b3ef846040516110f89190612215565b60405180910390a36001905092915050565b600080600090505b600a805490508110156112165760001515600a8281548110151561113257fe5b9060005260206000200160009054906101000a900473ffffffffffffffffffffffffffffffffffffffff1673ffffffffffffffffffffffffffffffffffffffff16638d4e40836040518163ffffffff167c0100000000000000000000000000000000000000000000000000000000028152600401602060405180830381600087803b1580156111c057600080fd5b505af11580156111d4573d6000803e3d6000fd5b505050506040513d601f19601f820116820180604052506111f89190810190611e73565b15151415611209576000915061121b565b8080600101915050611112565b600191505b5090565b6000600160008473ffffffffffffffffffffffffffffffffffffffff1673ffffffffffffffffffffffffffffffffffffffff16815260200190815260200160002060008373ffffffffffffffffffffffffffffffffffffffff1673ffffffffffffffffffffffffffffffffffffffff16815260200190815260200160002054905092915050565b6000806000806000600754341115156112be57600080fd5b600015156112ca61110a565b15151415156112d857600080fd5b60009450600093505b600a805490508410156116825761138c606461137e60086000600a8981548110151561130957fe5b9060005260206000200160009054906101000a900473ffffffffffffffffffffffffffffffffffffffff1673ffffffffffffffffffffffffffffffffffffffff1673ffffffffffffffffffffffffffffffffffffffff16815260200190815260200160002054346119b290919063ffffffff16565b611ce190919063ffffffff16565b9250611475600a858154811015156113a057fe5b9060005260206000200160009054906101000a900473ffffffffffffffffffffffffffffffffffffffff1673ffffffffffffffffffffffffffffffffffffffff1663bad84c9e6040518163ffffffff167c0100000000000000000000000000000000000000000000000000000000028152600401602060405180830381600087803b15801561142e57600080fd5b505af1158015611442573d6000803e3d6000fd5b505050506040513d601f19601f820116820180604052506114669190810190611f17565b84611ce190919063ffffffff16565b915061148a8286611cac90919063ffffffff16565b9450600a8481548110151561149b57fe5b9060005260206000200160009054906101000a900473ffffffffffffffffffffffffffffffffffffffff1673ffffffffffffffffffffffffffffffffffffffff1663bad84c9e6040518163ffffffff167c0100000000000000000000000000000000000000000000000000000000028152600401602060405180830381600087803b15801561152957600080fd5b505af115801561153d573d6000803e3d6000fd5b505050506040513d601f19601f820116820180604052506115619190810190611f17565b831015151561156f57600080fd5b600360009054906101000a900473ffffffffffffffffffffffffffffffffffffffff1673ffffffffffffffffffffffffffffffffffffffff1663abb60c8084600a878154811015156115bd57fe5b9060005260206000200160009054906101000a900473ffffffffffffffffffffffffffffffffffffffff16856040518463ffffffff167c0100000000000000000000000000000000000000000000000000000000028152600401611622929190612171565b6020604051808303818588803b15801561163b57600080fd5b505af115801561164f573d6000803e3d6000fd5b50505050506040513d601f19601f820116820180604052506116749190810190611e73565b5083806001019450506112e1565b600090505b600980549050811015611763576009818154811015156116a357fe5b9060005260206000200160009054906101000a900473ffffffffffffffffffffffffffffffffffffffff1673ffffffffffffffffffffffffffffffffffffffff166340c10f1933876040518363ffffffff167c01000000000000000000000000000000000000000000000000000000000281526004016117249291906120e2565b600060405180830381600087803b15801561173e57600080fd5b505af1158015611752573d6000803e3d6000fd5b505050508080600101915050611687565b3373ffffffffffffffffffffffffffffffffffffffff166108fc611792600754886119b290919063ffffffff16565b34039081150290604051600060405180830381858888f193505050501580156117bf573d6000803e3d6000fd5b505050505050565b600080600080600080600095505b6009805490508610156119aa5760009450600093505b600a8054905084101561197157600a8481548110151561180757fe5b9060005260206000200160009054906101000a900473ffffffffffffffffffffffffffffffffffffffff1692508273ffffffffffffffffffffffffffffffffffffffff16633c264820876040518263ffffffff167c01000000000000000000000000000000000000000000000000000000000281526004016118899190612215565b602060405180830381600087803b1580156118a357600080fd5b505af11580156118b7573d6000803e3d6000fd5b505050506040513d601f19601f820116820180604052506118db9190810190611f17565b91506000821415156119645761194c606461193e600860008773ffffffffffffffffffffffffffffffffffffffff1673ffffffffffffffffffffffffffffffffffffffff16815260200190815260200160002054856119b290919063ffffffff16565b611ce190919063ffffffff16565b90506119618186611cac90919063ffffffff16565b94505b83806001019450506117eb565b600c85908060018154018082558091505090600182039060005260206000200160009091929091909150555085806001019650506117d5565b505050505050565b6000808314156119c557600090506119e4565b81830290508183828115156119d657fe5b041415156119e057fe5b8090505b92915050565b60008060008060009250600091505b600a80549050821015611b0757611af8600a83815481101515611a1857fe5b9060005260206000200160009054906101000a900473ffffffffffffffffffffffffffffffffffffffff1673ffffffffffffffffffffffffffffffffffffffff1663f8c52125876040518263ffffffff167c0100000000000000000000000000000000000000000000000000000000028152600401611a979190612215565b602060405180830381600087803b158015611ab157600080fd5b505af1158015611ac5573d6000803e3d6000fd5b505050506040513d601f19601f82011682018060405250611ae99190810190611f17565b84611cac90919063ffffffff16565b925081806001019250506119f9565b600a6000815481101515611b1757fe5b9060005260206000200160009054906101000a900473ffffffffffffffffffffffffffffffffffffffff1673ffffffffffffffffffffffffffffffffffffffff1663870c426d6040518163ffffffff167c0100000000000000000000000000000000000000000000000000000000028152600401602060405180830381600087803b158015611ba557600080fd5b505af1158015611bb9573d6000803e3d6000fd5b505050506040513d601f19601f82011682018060405250611bdd9190810190611ec5565b73ffffffffffffffffffffffffffffffffffffffff16638f93bffe6040518163ffffffff167c0100000000000000000000000000000000000000000000000000000000028152600401602060405180830381600087803b158015611c4057600080fd5b505af1158015611c54573d6000803e3d6000fd5b505050506040513d601f19601f82011682018060405250611c789190810190611f17565b9050611c9f611c908287611ce190919063ffffffff16565b84611cac90919063ffffffff16565b9250829350505050919050565b60008183019050828110151515611cbf57fe5b80905092915050565b6000828211151515611cd657fe5b818303905092915050565b60008183811515611cee57fe5b04905092915050565b6000611d03823561228b565b905092915050565b6000611d1782516122ab565b905092915050565b6000611d2b82356122b7565b905092915050565b6000611d3f82516122c9565b905092915050565b6000611d5382516122db565b905092915050565b6000611d6782356122ed565b905092915050565b6000611d7b82516122ed565b905092915050565b600060208284031215611d9557600080fd5b6000611da384828501611cf7565b91505092915050565b60008060408385031215611dbf57600080fd5b6000611dcd85828601611cf7565b9250506020611dde85828601611cf7565b9150509250929050565b600080600060608486031215611dfd57600080fd5b6000611e0b86828701611cf7565b9350506020611e1c86828701611cf7565b9250506040611e2d86828701611d5b565b9150509250925092565b60008060408385031215611e4a57600080fd5b6000611e5885828601611cf7565b9250506020611e6985828601611d5b565b9150509250929050565b600060208284031215611e8557600080fd5b6000611e9384828501611d0b565b91505092915050565b600060208284031215611eae57600080fd5b6000611ebc84828501611d33565b91505092915050565b600060208284031215611ed757600080fd5b6000611ee584828501611d47565b91505092915050565b600060208284031215611f0057600080fd5b6000611f0e84828501611d5b565b91505092915050565b600060208284031215611f2957600080fd5b6000611f3784828501611d6f565b91505092915050565b60008060408385031215611f5357600080fd5b6000611f6185828601611d5b565b9250506020611f7285828601611d1f565b9150509250929050565b611f8581612255565b82525050565b6000611f968261223d565b808452602084019350611fa883612230565b60005b82811015611fda57611fbe8683516120b8565b611fc782612248565b9150602086019550600181019050611fab565b50849250505092915050565b611fef81612275565b82525050565b611ffe816122f7565b82525050565b61200d81612309565b82525050565b6000601a82527f45524332305f494e53554646494349454e545f42414c414e43450000000000006020830152604082019050919050565b6000601c82527f45524332305f494e53554646494349454e545f414c4c4f57414e4345000000006020830152604082019050919050565b6000601082527f55494e543235365f4f564552464c4f57000000000000000000000000000000006020830152604082019050919050565b6120c181612281565b82525050565b60006020820190506120dc6000830184611f7c565b92915050565b60006040820190506120f76000830185611f7c565b61210460208301846120b8565b9392505050565b600060208201905081810360008301526121258184611f8b565b905092915050565b60006020820190506121426000830184611fe6565b92915050565b600060408201905061215d6000830185611ff5565b61216a6020830184611f7c565b9392505050565b60006040820190506121866000830185611ff5565b61219360208301846120b8565b9392505050565b60006020820190506121af6000830184612004565b92915050565b600060208201905081810360008301526121ce81612013565b9050919050565b600060208201905081810360008301526121ee8161204a565b9050919050565b6000602082019050818103600083015261220e81612081565b9050919050565b600060208201905061222a60008301846120b8565b92915050565b6000602082019050919050565b600081519050919050565b6000602082019050919050565b600073ffffffffffffffffffffffffffffffffffffffff82169050919050565b60008115159050919050565b6000819050919050565b600073ffffffffffffffffffffffffffffffffffffffff82169050919050565b60008115159050919050565b60006122c282612255565b9050919050565b60006122d482612255565b9050919050565b60006122e682612255565b9050919050565b6000819050919050565b600061230282612255565b9050919050565b600061231482612255565b90509190505600a265627a7a72305820d647b8e768b8c41b2b6791fc7c0c08774ebe6734184438d4153ad9ab9055ac5a6c6578706572696d656e74616cf5003760806040526040805190810160405280600881526020017f41756775725365740000000000000000000000000000000000000000000000008152506003908051906020019062000051929190620000fa565b506040805190810160405280600281526020017f4153000000000000000000000000000000000000000000000000000000000000815250600490805190602001906200009f929190620000fa565b506012600555348015620000b257600080fd5b5033600660006101000a81548173ffffffffffffffffffffffffffffffffffffffff021916908373ffffffffffffffffffffffffffffffffffffffff160217905550620001a9565b828054600181600116156101000203166002900490600052602060002090601f016020900481019282601f106200013d57805160ff19168380011785556200016e565b828001600101855582156200016e579182015b828111156200016d57825182559160200191906001019062000150565b5b5090506200017d919062000181565b5090565b620001a691905b80821115620001a257600081600090555060010162000188565b5090565b90565b61132080620001b96000396000f3006080604052600436106100af576000357c0100000000000000000000000000000000000000000000000000000000900463ffffffff16806306fdde03146100b4578063095ea7b31461014457806318160ddd146101a957806323b872dd146101d4578063313ce5671461025957806340c10f191461028457806370a08231146102d157806395d89b41146103285780639dc29fac146103b8578063a9059cbb14610405578063dd62ed3e1461046a575b600080fd5b3480156100c057600080fd5b506100c96104e1565b6040518080602001828103825283818151815260200191508051906020019080838360005b838110156101095780820151818401526020810190506100ee565b50505050905090810190601f1680156101365780820380516001836020036101000a031916815260200191505b509250505060405180910390f35b34801561015057600080fd5b5061018f600480360381019080803573ffffffffffffffffffffffffffffffffffffffff1690602001909291908035906020019092919050505061057f565b604051808215151515815260200191505060405180910390f35b3480156101b557600080fd5b506101be610671565b6040518082815260200191505060405180910390f35b3480156101e057600080fd5b5061023f600480360381019080803573ffffffffffffffffffffffffffffffffffffffff169060200190929190803573ffffffffffffffffffffffffffffffffffffffff1690602001909291908035906020019092919050505061067b565b604051808215151515815260200191505060405180910390f35b34801561026557600080fd5b5061026e610add565b6040518082815260200191505060405180910390f35b34801561029057600080fd5b506102cf600480360381019080803573ffffffffffffffffffffffffffffffffffffffff16906020019092919080359060200190929190505050610ae3565b005b3480156102dd57600080fd5b50610312600480360381019080803573ffffffffffffffffffffffffffffffffffffffff169060200190929190505050610b4d565b6040518082815260200191505060405180910390f35b34801561033457600080fd5b5061033d610b95565b6040518080602001828103825283818151815260200191508051906020019080838360005b8381101561037d578082015181840152602081019050610362565b50505050905090810190601f1680156103aa5780820380516001836020036101000a031916815260200191505b509250505060405180910390f35b3480156103c457600080fd5b50610403600480360381019080803573ffffffffffffffffffffffffffffffffffffffff16906020019092919080359060200190929190505050610c33565b005b34801561041157600080fd5b50610450600480360381019080803573ffffffffffffffffffffffffffffffffffffffff16906020019092919080359060200190929190505050610c9d565b604051808215151515815260200191505060405180910390f35b34801561047657600080fd5b506104cb600480360381019080803573ffffffffffffffffffffffffffffffffffffffff169060200190929190803573ffffffffffffffffffffffffffffffffffffffff169060200190929190505050610f52565b6040518082815260200191505060405180910390f35b60038054600181600116156101000203166002900480601f0160208091040260200160405190810160405280929190818152602001828054600181600116156101000203166002900480156105775780601f1061054c57610100808354040283529160200191610577565b820191906000526020600020905b81548152906001019060200180831161055a57829003601f168201915b505050505081565b600081600160003373ffffffffffffffffffffffffffffffffffffffff1673ffffffffffffffffffffffffffffffffffffffff16815260200190815260200160002060008573ffffffffffffffffffffffffffffffffffffffff1673ffffffffffffffffffffffffffffffffffffffff168152602001908152602001600020819055508273ffffffffffffffffffffffffffffffffffffffff163373ffffffffffffffffffffffffffffffffffffffff167f8c5be1e5ebec7d5bd14f71427d1e84f3dd0314c0f7b2291e5b200ac8c7c3b925846040518082815260200191505060405180910390a36001905092915050565b6000600254905090565b600080600160008673ffffffffffffffffffffffffffffffffffffffff1673ffffffffffffffffffffffffffffffffffffffff16815260200190815260200160002060003373ffffffffffffffffffffffffffffffffffffffff1673ffffffffffffffffffffffffffffffffffffffff168152602001908152602001600020549050826000808773ffffffffffffffffffffffffffffffffffffffff1673ffffffffffffffffffffffffffffffffffffffff16815260200190815260200160002054101515156107b3576040517f08c379a000000000000000000000000000000000000000000000000000000000815260040180806020018281038252601a8152602001807f45524332305f494e53554646494349454e545f42414c414e434500000000000081525060200191505060405180910390fd5b82811015151561082b576040517f08c379a000000000000000000000000000000000000000000000000000000000815260040180806020018281038252601c8152602001807f45524332305f494e53554646494349454e545f414c4c4f57414e43450000000081525060200191505060405180910390fd5b6000808573ffffffffffffffffffffffffffffffffffffffff1673ffffffffffffffffffffffffffffffffffffffff16815260200190815260200160002054836000808773ffffffffffffffffffffffffffffffffffffffff1673ffffffffffffffffffffffffffffffffffffffff168152602001908152602001600020540110151515610921576040517f08c379a00000000000000000000000000000000000000000000000000000000081526004018080602001828103825260108152602001807f55494e543235365f4f564552464c4f570000000000000000000000000000000081525060200191505060405180910390fd5b826000808673ffffffffffffffffffffffffffffffffffffffff1673ffffffffffffffffffffffffffffffffffffffff16815260200190815260200160002060008282540192505081905550826000808773ffffffffffffffffffffffffffffffffffffffff1673ffffffffffffffffffffffffffffffffffffffff168152602001908152602001600020600082825403925050819055507fffffffffffffffffffffffffffffffffffffffffffffffffffffffffffffffff811015610a6c5782600160008773ffffffffffffffffffffffffffffffffffffffff1673ffffffffffffffffffffffffffffffffffffffff16815260200190815260200160002060003373ffffffffffffffffffffffffffffffffffffffff1673ffffffffffffffffffffffffffffffffffffffff168152602001908152602001600020600082825403925050819055505b8373ffffffffffffffffffffffffffffffffffffffff168573ffffffffffffffffffffffffffffffffffffffff167fddf252ad1be2c89b69c2b068fc378daa952ba7f163c4a11628f55a4df523b3ef856040518082815260200191505060405180910390a360019150509392505050565b60055481565b600660009054906101000a900473ffffffffffffffffffffffffffffffffffffffff1673ffffffffffffffffffffffffffffffffffffffff163373ffffffffffffffffffffffffffffffffffffffff16141515610b3f57600080fd5b610b498282610fd9565b5050565b60008060008373ffffffffffffffffffffffffffffffffffffffff1673ffffffffffffffffffffffffffffffffffffffff168152602001908152602001600020549050919050565b60048054600181600116156101000203166002900480601f016020809104026020016040519081016040528092919081815260200182805460018160011615610100020316600290048015610c2b5780601f10610c0057610100808354040283529160200191610c2b565b820191906000526020600020905b815481529060010190602001808311610c0e57829003601f168201915b505050505081565b600660009054906101000a900473ffffffffffffffffffffffffffffffffffffffff1673ffffffffffffffffffffffffffffffffffffffff163373ffffffffffffffffffffffffffffffffffffffff16141515610c8f57600080fd5b610c9982826110df565b5050565b6000816000803373ffffffffffffffffffffffffffffffffffffffff1673ffffffffffffffffffffffffffffffffffffffff1681526020019081526020016000205410151515610d55576040517f08c379a000000000000000000000000000000000000000000000000000000000815260040180806020018281038252601a8152602001807f45524332305f494e53554646494349454e545f42414c414e434500000000000081525060200191505060405180910390fd5b6000808473ffffffffffffffffffffffffffffffffffffffff1673ffffffffffffffffffffffffffffffffffffffff16815260200190815260200160002054826000808673ffffffffffffffffffffffffffffffffffffffff1673ffffffffffffffffffffffffffffffffffffffff168152602001908152602001600020540110151515610e4b576040517f08c379a00000000000000000000000000000000000000000000000000000000081526004018080602001828103825260108152602001807f55494e543235365f4f564552464c4f570000000000000000000000000000000081525060200191505060405180910390fd5b816000803373ffffffffffffffffffffffffffffffffffffffff1673ffffffffffffffffffffffffffffffffffffffff16815260200190815260200160002060008282540392505081905550816000808573ffffffffffffffffffffffffffffffffffffffff1673ffffffffffffffffffffffffffffffffffffffff168152602001908152602001600020600082825401925050819055508273ffffffffffffffffffffffffffffffffffffffff163373ffffffffffffffffffffffffffffffffffffffff167fddf252ad1be2c89b69c2b068fc378daa952ba7f163c4a11628f55a4df523b3ef846040518082815260200191505060405180910390a36001905092915050565b6000600160008473ffffffffffffffffffffffffffffffffffffffff1673ffffffffffffffffffffffffffffffffffffffff16815260200190815260200160002060008373ffffffffffffffffffffffffffffffffffffffff1673ffffffffffffffffffffffffffffffffffffffff16815260200190815260200160002054905092915050565b611021816000808573ffffffffffffffffffffffffffffffffffffffff1673ffffffffffffffffffffffffffffffffffffffff168152602001908152602001600020546111e5565b6000808473ffffffffffffffffffffffffffffffffffffffff1673ffffffffffffffffffffffffffffffffffffffff1681526020019081526020016000208190555061106f600254826111e5565b6002819055508173ffffffffffffffffffffffffffffffffffffffff16600073ffffffffffffffffffffffffffffffffffffffff167fddf252ad1be2c89b69c2b068fc378daa952ba7f163c4a11628f55a4df523b3ef836040518082815260200191505060405180910390a35050565b6111276000808473ffffffffffffffffffffffffffffffffffffffff1673ffffffffffffffffffffffffffffffffffffffff168152602001908152602001600020548261126f565b6000808473ffffffffffffffffffffffffffffffffffffffff1673ffffffffffffffffffffffffffffffffffffffff168152602001908152602001600020819055506111756002548261126f565b600281905550600073ffffffffffffffffffffffffffffffffffffffff168273ffffffffffffffffffffffffffffffffffffffff167fddf252ad1be2c89b69c2b068fc378daa952ba7f163c4a11628f55a4df523b3ef836040518082815260200191505060405180910390a35050565b6000808284019050838110151515611265576040517f08c379a00000000000000000000000000000000000000000000000000000000081526004018080602001828103825260108152602001807f55494e543235365f4f564552464c4f570000000000000000000000000000000081525060200191505060405180910390fd5b8091505092915050565b60008282111515156112e9576040517f08c379a00000000000000000000000000000000000000000000000000000000081526004018080602001828103825260118152602001807f55494e543235365f554e444552464c4f5700000000000000000000000000000081525060200191505060405180910390fd5b8183039050929150505600a165627a7a72305820088106c011f91d67a925ce24288b166ce5a81d8988393940dff23846a609af140029",
  "source": "pragma solidity >= 0.4.22;\npragma experimental ABIEncoderV2;\n\nimport \"./OutcomeIndexToken.sol\";\n\nimport \"./../libraries/0x/contracts/erc20/contracts/src/MintableERC20Token.sol\";\n\nimport \"./../libraries/augur/source/contracts/reporting/IMarket.sol\";\nimport \"./../libraries/augur/source/contracts/trading/IShareToken.sol\";\nimport \"./../libraries/augur/source/contracts/trading/CompleteSets.sol\";\nimport \"./../libraries/augur/source/contracts/trading/ICash.sol\";\nimport \"./../libraries/augur/source/contracts/trading/ClaimTradingProceeds.sol\";\n\nimport \"./../libraries/openzeppelin-solidity/SafeMathLib.sol\";\n \ncontract AugurSet is MintableERC20Token {\n\tusing SafeMathLib for uint256;\n\n\tCompleteSets internal completeSets;\n\tICash internal cash;\n\tClaimTradingProceeds internal claimTradingProceeds;\n\taddress internal augur;\n\n\tuint256 NUM_TICKS = 10000;\n\n\tmapping(address => uint256) marketsToWeight;\n\tOutcomeIndexToken[] public outcomeIndexTokens;\n\tIMarket[] markets;\n\tIShareToken[][] indexes;\n\t\n\tuint256[] internal payoutDistribution;\n\tbool augurSetFinalized = false;\n\n\tconstructor (\n\t\tIMarket[] _markets,\n\t\tuint256[] _weights,\n\t\tuint256 _numOutcomes,\n\t\taddress _completeSets,\n\t\taddress _cash,\n\t\taddress _claimTradingProceeds,\n\t\taddress _augur\n\t)  \n\tpublic \n\t{\n\t\trequire(_markets.length == _weights.length);\n\t\t// Make sure all weights add up to 100\n\t\trequire(validateWeights(_weights));\n\t\t// Make sure all markets are within the same universe\n\t\trequire(validateMarketUniverses(_markets));\n\n\t\tfor (uint256 outcome = 0; outcome < _numOutcomes; outcome++) {\n\t\t\t// Create ERC20 token representing an index of outcomes\n\t\t\tOutcomeIndexToken outcomeIndexToken = new OutcomeIndexToken();\n\t\t\toutcomeIndexTokens.push(outcomeIndexToken);\n\n\t\t\t// Create an array with all ShareTokens\n\t\t\tIShareToken[] storage index;\n\t\t\tfor (uint256 x = 0; x < _markets.length; x++) {\n\t\t\t\tindex.push(_markets[x].getShareToken(outcome));\n\t\t\t}\n\t\t\t// Push the index array to an array containing all indexes\n\t\t\tindexes.push(index);\n\t\t}\n\n\t\t// Map weights to market\n\t\tfor (uint256 y = 0; y < _markets.length; y++) {\n\t\t\tmarketsToWeight[_markets[y]] = _weights[y];\n\t\t}\n\t\t\n\t\t// Set contract addresses to network instances\n\t\tcompleteSets = CompleteSets(_completeSets);\n\t\tcash = ICash(_cash);\n\t\tclaimTradingProceeds = ClaimTradingProceeds(_claimTradingProceeds);\n\t\taugur = _augur;\n\t\t\n\t\t// Approve augur to trade Cash for this contract\n\t\tcash.approve(augur, uint256(-1));\n\n\t\tmarkets = _markets;\n\t}\n\n\t// Needs to have a payable function to receive Ether on payouts, checks if the sender is the Cash contract.\n\tfunction () public payable {\n\t\trequire(msg.sender == address(cash));\n\t}\n\n\tfunction buyCompleteSet()\n\tpublic\n\tpayable {\n\t\trequire(msg.value > NUM_TICKS);\n\t\trequire(indexMarketsFinalized() == false);\n\n\t\t// Because NUM_TICKS are into play there sometimes is dust leftover after purchasing shares, keep track of the actual ether spend so that the dust can be returned to the sender. \n\t\tuint256 totalSharesBought = 0;\n\t\t// Buy a complete set of shares for each market\n\t\tfor (uint256 i = 0; i < markets.length; i++) {\n\t\t\t// Calculate the weighted amount of shares that need to be bought by the \n\t\t\tuint256 weightedAmountInEth = msg.value.mul(marketsToWeight[markets[i]]).div(100);\n\t\t\tuint256 weightedAmountInAttoEth = weightedAmountInEth.div(markets[i].getNumTicks());\n\t\t\ttotalSharesBought = totalSharesBought.add(weightedAmountInAttoEth);\n\t\t\trequire(weightedAmountInEth >= markets[i].getNumTicks());\n\t\t\tcompleteSets.publicBuyCompleteSets.value(weightedAmountInEth)(markets[i], weightedAmountInAttoEth);\n\t\t}\n\t\t// For each existing index token mint the amount in eth for the sender\n\t\tfor (uint256 x = 0; x < outcomeIndexTokens.length; x++){\n\t\t\toutcomeIndexTokens[x].mint(msg.sender, totalSharesBought);\n\t\t}\n\n\t\t// Transfer back all eth that's left over\n\t\tmsg.sender.transfer(msg.value - totalSharesBought.mul(NUM_TICKS));\n\t}\n\n\t// Check if each market in the index is finalized\n\tfunction indexMarketsFinalized() \n\tpublic \n\tview \n\treturns (bool resolved) \n\t{\n\t\tfor (uint i = 0; i < markets.length; i++) {\n\t\t\tif (markets[i].isFinalized() == false) {\n\t\t\t\treturn false;\n\t\t\t}\n\t\t}\n\t\treturn true;\n\t}\n\n\t// If each market is finalized, this Index can be finalized, the contract will claim all winnings and distribute to the winning outcome holders\n\tfunction finalize() \n\tpublic \n\t{\n\t\trequire(indexMarketsFinalized());\n\t\trequire(!augurSetFinalized);\n\t\tcalculatePayoutDistribution();\n\t\tfor (uint i = 0; i < markets.length; i++) {\n\t\t\tclaimTradingProceeds.claimTradingProceeds(markets[i], address(this));\n\t\t}\t\t\n\t\taugurSetFinalized = true;\n\t}\n\n\t// Calculates weighted payout distribution\n\tfunction calculatePayoutDistribution()\n\tprivate \n\t{\n\t\tfor (uint256 outcome = 0; outcome < outcomeIndexTokens.length; outcome++) {\n\t\t\tuint256 payoutForOutcome = 0;\n\t\t\tfor (uint256 i = 0; i <  markets.length; i++) {\n\t\t\t\tIMarket market = markets[i];\n\t\t\t\tuint256 payoutNumerator = market.getWinningPayoutNumerator(outcome);\n\t\t\t\tif(payoutNumerator != 0) {\n\t\t\t\t\t\tuint256 weightedValue = payoutNumerator.mul(marketsToWeight[address(market)]).div(100);\n\t\t\t\t\t\tpayoutForOutcome = payoutForOutcome.add(weightedValue);\n\t\t\t\t}\n\t\t\t}\n\t\t\tpayoutDistribution.push(payoutForOutcome);\n\t\t}\n\t}\n\n\t// Calculate a flat fee per outcome\n\tfunction calculateFees(uint256 proceeds) \n\tinternal \n\treturns(uint256) \n\t{\n\t\tuint256 flatFee = 0;\n\t\tfor (uint256 i = 0; i < markets.length; i++) {\n\t\t\tflatFee = flatFee.add(markets[i].deriveMarketCreatorFeeAmount(proceeds));\n\t\t}\n\t\tuint256 reportingFeeDevisor = markets[0].getUniverse().getOrCacheReportingFeeDivisor();\n\t\tflatFee = flatFee.add(proceeds.div(reportingFeeDevisor));\n\t\treturn flatFee;\n\t}\n\n\t// Distributes a users proceeds.\n\tfunction claimProceeds() \n\tpublic \n\t{\n\t\trequire(augurSetFinalized);\n\t\tuint256 totalProceeds = 0;\n\t\t\n\t\tfor (uint256 i = 0; i < outcomeIndexTokens.length; i++) {\n\t\t\tuint256 balance = outcomeIndexTokens[i].balanceOf(msg.sender);\n\t\t\tif (balance > 0) {\n\t\t\t\tuint256 payoutNumerator = payoutDistribution[i];\n\t\t\t\tif (payoutNumerator != 0) {\n\t\t\t\t\tuint256 totalFee = calculateFees(balance.mul(payoutNumerator));\n\t\t\t\t\ttotalProceeds = totalProceeds.add(balance.mul(payoutNumerator)).sub(totalFee);\n\t\t\t\t}\n\t\t\t\toutcomeIndexTokens[i].burn(msg.sender, balance);\n\t\t\t}\n\t\t}\n\t\tmsg.sender.transfer(totalProceeds);\n\t}\n\n\t// Returns an array representing the payout distribution\n\tfunction getPayoutDistribution() \n\tpublic\n\tview \n\treturns(uint256[])\n\t{\n\t\treturn payoutDistribution;\n\t}\n\n\t// Returns true if an array of markets are all active in the same universe.\n\tfunction validateMarketUniverses(IMarket[] _markets) \n\tprivate \n\tview \n\treturns (bool) \n\t{\n\t\taddress universe = address(_markets[0].getUniverse());\n\t\tfor (uint256 i = 1; i < _markets.length; i++) {\n\t\t\taddress marketUniverse = address(_markets[i].getUniverse());\n\t\t\tif (marketUniverse != universe) return false;\n\t\t}\n\t\treturn true;\n\t}\n\n\t// Returns true if an array of integers adds up to 100\n\tfunction validateWeights(uint256[] _weights) \n\tprivate \n\tview \n\treturns(bool) \n\t{\n\t\tuint256 totalWeight = 0;\n\t\tfor (uint256 i = 0; i < _weights.length; i++) {\n\t\t\ttotalWeight = totalWeight.add(_weights[i]);\n\t\t}\n\t\treturn totalWeight == 100;\n\t}\n\t\t\n\t// Returns the set's balance of a certain outcome within a market\n\tfunction getMarketBalance(\n\t\tuint256 _outcome,\n\t\tIMarket _market\n\t) \n\tpublic \n\tview \n\treturns(uint256 balances)\n\t{\n\t\treturn _market.getShareToken(_outcome).balanceOf(address(this));\n\t}\n\n\n}",
  "sourcePath": "/Users/jasperdegooijer/Documents/AugurSets/AugurSets/contracts/AugurSet.sol",
  "compiler": {
    "name": "solc",
    "version": "0.4.22+commit.4cb486ee.Emscripten.clang"
  },
  "schemaVersion": "3.0.1",
  "updatedAt": "2019-07-22T13:20:17.682Z",
  "devdoc": {
    "methods": {
      "allowance(address,address)": {
        "params": {
          "_owner": "The address of the account owning tokens",
          "_spender": "The address of the account able to transfer the tokens"
        },
        "return": "Amount of remaining tokens allowed to spent"
      },
      "approve(address,uint256)": {
        "details": "`msg.sender` approves `_spender` to spend `_value` tokens",
        "params": {
          "_spender": "The address of the account able to transfer the tokens",
          "_value": "The amount of wei to be approved for transfer"
        },
        "return": "Always true if the call has enough gas to complete execution"
      },
      "balanceOf(address)": {
        "details": "Query the balance of owner",
        "params": {
          "_owner": "The address from which the balance will be retrieved"
        },
        "return": "Balance of owner"
      },
      "totalSupply()": {
        "details": "Query total supply of token",
        "return": "Total supply of token"
      },
      "transfer(address,uint256)": {
        "details": "send `value` token to `to` from `msg.sender`",
        "params": {
          "_to": "The address of the recipient",
          "_value": "The amount of token to be transferred"
        },
        "return": "True if transfer was successful"
      },
      "transferFrom(address,address,uint256)": {
        "details": "ERC20 transferFrom, modified such that an allowance of MAX_UINT represents an unlimited allowance. See https://github.com/ethereum/EIPs/issues/717",
        "params": {
          "_from": "Address to transfer from.",
          "_to": "Address to transfer to.",
          "_value": "Amount to transfer."
        },
        "return": "Success of transfer."
      }
    }
  },
  "userdoc": {
    "methods": {}
  }
}