{
  "contractName": "CashAutoConverter",
  "abi": [
    {
      "constant": true,
      "inputs": [],
      "name": "getController",
      "outputs": [
        {
          "name": "",
          "type": "address"
        }
      ],
      "payable": false,
      "stateMutability": "view",
      "type": "function"
    },
    {
      "constant": false,
      "inputs": [
        {
          "name": "_controller",
          "type": "address"
        }
      ],
      "name": "setController",
      "outputs": [
        {
          "name": "",
          "type": "bool"
        }
      ],
      "payable": false,
      "stateMutability": "nonpayable",
      "type": "function"
    }
  ],
  "bytecode": "0x6080604052336000806101000a81548173ffffffffffffffffffffffffffffffffffffffff021916908373ffffffffffffffffffffffffffffffffffffffff1602179055506101fe806100536000396000f30060806040526004361061004c576000357c0100000000000000000000000000000000000000000000000000000000900463ffffffff1680633018205f1461005157806392eefe9b146100a8575b600080fd5b34801561005d57600080fd5b50610066610103565b604051808273ffffffffffffffffffffffffffffffffffffffff1673ffffffffffffffffffffffffffffffffffffffff16815260200191505060405180910390f35b3480156100b457600080fd5b506100e9600480360381019080803573ffffffffffffffffffffffffffffffffffffffff16906020019092919050505061012c565b604051808215151515815260200191505060405180910390f35b60008060009054906101000a900473ffffffffffffffffffffffffffffffffffffffff16905090565b60008060009054906101000a900473ffffffffffffffffffffffffffffffffffffffff1673ffffffffffffffffffffffffffffffffffffffff163373ffffffffffffffffffffffffffffffffffffffff1614151561018957600080fd5b816000806101000a81548173ffffffffffffffffffffffffffffffffffffffff021916908373ffffffffffffffffffffffffffffffffffffffff160217905550600190509190505600a165627a7a7230582086c3b75a55b86eee0dbb989795389f6e3673f700a62e467fed0fdfd9013c87830029",
  "source": "pragma solidity ^0.4.22;\n\n\nimport './../trading/ICash.sol';\nimport './../Controlled.sol';\nimport './../IAugur.sol';\n\n\n/**\n * @title Provides modifiers which take care of Cash/ETH conversion\n */\ncontract CashAutoConverter is Controlled {\n    /**\n     * @dev Convert any ETH provided in the transaction into Cash before the function executes and convert any remaining Cash balance into ETH after the function completes\n     */\n    modifier convertToAndFromCash() {\n        ethToCash();\n        _;\n        cashToEth();\n    }\n\n    function ethToCash() private returns (bool) {\n        if (msg.value > 0) {\n            ICash(controller.lookup(\"Cash\")).depositEtherFor.value(msg.value)(msg.sender);\n        }\n        return true;\n    }\n\n    function cashToEth() private returns (bool) {\n        ICash _cash = ICash(controller.lookup(\"Cash\"));\n        uint256 _tokenBalance = _cash.balanceOf(msg.sender);\n        if (_tokenBalance > 0) {\n            IAugur augur = controller.getAugur();\n            augur.trustedTransfer(_cash, msg.sender, this, _tokenBalance);\n            _cash.withdrawEtherTo(msg.sender, _tokenBalance);\n        }\n        return true;\n    }\n}\n",
  "sourcePath": "/Users/jasperdegooijer/augurSetsTest/AugurSets/augur-sets/libraries/augur/source/contracts/libraries/CashAutoConverter.sol",
  "compiler": {
    "name": "solc",
    "version": "0.4.22+commit.4cb486ee.Emscripten.clang"
  },
  "schemaVersion": "3.0.1",
  "updatedAt": "2019-07-22T15:25:21.389Z",
  "devdoc": {
    "methods": {},
    "title": "Provides modifiers which take care of Cash/ETH conversion"
  },
  "userdoc": {
    "methods": {}
  }
}