{
  "contractName": "Controller",
  "abi": [
    {
      "constant": true,
      "inputs": [],
      "name": "stopped",
      "outputs": [
        {
          "name": "",
          "type": "bool"
        }
      ],
      "payable": false,
      "stateMutability": "view",
      "type": "function"
    },
    {
      "constant": true,
      "inputs": [
        {
          "name": "",
          "type": "bytes32"
        }
      ],
      "name": "registry",
      "outputs": [
        {
          "name": "name",
          "type": "bytes32"
        },
        {
          "name": "contractAddress",
          "type": "address"
        },
        {
          "name": "commitHash",
          "type": "bytes20"
        },
        {
          "name": "bytecodeHash",
          "type": "bytes32"
        }
      ],
      "payable": false,
      "stateMutability": "view",
      "type": "function"
    },
    {
      "constant": true,
      "inputs": [],
      "name": "owner",
      "outputs": [
        {
          "name": "",
          "type": "address"
        }
      ],
      "payable": false,
      "stateMutability": "view",
      "type": "function"
    },
    {
      "constant": true,
      "inputs": [
        {
          "name": "",
          "type": "address"
        }
      ],
      "name": "whitelist",
      "outputs": [
        {
          "name": "",
          "type": "bool"
        }
      ],
      "payable": false,
      "stateMutability": "view",
      "type": "function"
    },
    {
      "inputs": [],
      "payable": false,
      "stateMutability": "nonpayable",
      "type": "constructor"
    },
    {
      "constant": false,
      "inputs": [
        {
          "name": "_target",
          "type": "address"
        }
      ],
      "name": "addToWhitelist",
      "outputs": [
        {
          "name": "",
          "type": "bool"
        }
      ],
      "payable": false,
      "stateMutability": "nonpayable",
      "type": "function"
    },
    {
      "constant": false,
      "inputs": [
        {
          "name": "_target",
          "type": "address"
        }
      ],
      "name": "removeFromWhitelist",
      "outputs": [
        {
          "name": "",
          "type": "bool"
        }
      ],
      "payable": false,
      "stateMutability": "nonpayable",
      "type": "function"
    },
    {
      "constant": true,
      "inputs": [
        {
          "name": "_target",
          "type": "address"
        }
      ],
      "name": "assertIsWhitelisted",
      "outputs": [
        {
          "name": "",
          "type": "bool"
        }
      ],
      "payable": false,
      "stateMutability": "view",
      "type": "function"
    },
    {
      "constant": false,
      "inputs": [
        {
          "name": "_key",
          "type": "bytes32"
        },
        {
          "name": "_address",
          "type": "address"
        },
        {
          "name": "_commitHash",
          "type": "bytes20"
        },
        {
          "name": "_bytecodeHash",
          "type": "bytes32"
        }
      ],
      "name": "registerContract",
      "outputs": [
        {
          "name": "",
          "type": "bool"
        }
      ],
      "payable": false,
      "stateMutability": "nonpayable",
      "type": "function"
    },
    {
      "constant": true,
      "inputs": [
        {
          "name": "_key",
          "type": "bytes32"
        }
      ],
      "name": "getContractDetails",
      "outputs": [
        {
          "name": "",
          "type": "address"
        },
        {
          "name": "",
          "type": "bytes20"
        },
        {
          "name": "",
          "type": "bytes32"
        }
      ],
      "payable": false,
      "stateMutability": "view",
      "type": "function"
    },
    {
      "constant": true,
      "inputs": [
        {
          "name": "_key",
          "type": "bytes32"
        }
      ],
      "name": "lookup",
      "outputs": [
        {
          "name": "",
          "type": "address"
        }
      ],
      "payable": false,
      "stateMutability": "view",
      "type": "function"
    },
    {
      "constant": false,
      "inputs": [
        {
          "name": "_newOwner",
          "type": "address"
        }
      ],
      "name": "transferOwnership",
      "outputs": [
        {
          "name": "",
          "type": "bool"
        }
      ],
      "payable": false,
      "stateMutability": "nonpayable",
      "type": "function"
    },
    {
      "constant": false,
      "inputs": [],
      "name": "emergencyStop",
      "outputs": [
        {
          "name": "",
          "type": "bool"
        }
      ],
      "payable": false,
      "stateMutability": "nonpayable",
      "type": "function"
    },
    {
      "constant": true,
      "inputs": [],
      "name": "stopInEmergency",
      "outputs": [
        {
          "name": "",
          "type": "bool"
        }
      ],
      "payable": false,
      "stateMutability": "view",
      "type": "function"
    },
    {
      "constant": true,
      "inputs": [],
      "name": "onlyInEmergency",
      "outputs": [
        {
          "name": "",
          "type": "bool"
        }
      ],
      "payable": false,
      "stateMutability": "view",
      "type": "function"
    },
    {
      "constant": true,
      "inputs": [],
      "name": "getAugur",
      "outputs": [
        {
          "name": "",
          "type": "address"
        }
      ],
      "payable": false,
      "stateMutability": "view",
      "type": "function"
    },
    {
      "constant": true,
      "inputs": [],
      "name": "getTimestamp",
      "outputs": [
        {
          "name": "",
          "type": "uint256"
        }
      ],
      "payable": false,
      "stateMutability": "view",
      "type": "function"
    }
  ],
  "bytecode": "0x60806040526000600360006101000a81548160ff02191690831515021790555034801561002b57600080fd5b50336000806101000a81548173ffffffffffffffffffffffffffffffffffffffff021916908373ffffffffffffffffffffffffffffffffffffffff16021790555060018060003373ffffffffffffffffffffffffffffffffffffffff1673ffffffffffffffffffffffffffffffffffffffff16815260200190815260200160002060006101000a81548160ff021916908315150217905550610f63806100d26000396000f3006080604052600436106100e6576000357c0100000000000000000000000000000000000000000000000000000000900463ffffffff168063185e9969146100eb578063188ec3561461019057806322763ae1146101bb5780632d6d8523146101ea5780633b0481231461027a5780633f08882f146102a95780634e94c8291461030457806363a599a41461035b57806375f12b211461038a5780637ef50298146103b95780638ab1d6811461046d5780638da5cb5b146104c85780639b19251a1461051f578063e43252d71461057a578063f2fde38b146105d5578063f39ec1f714610630575b600080fd5b3480156100f757600080fd5b5061011a60048036038101908080356000191690602001909291905050506106a1565b604051808473ffffffffffffffffffffffffffffffffffffffff1673ffffffffffffffffffffffffffffffffffffffff168152602001836bffffffffffffffffffffffff19166bffffffffffffffffffffffff191681526020018260001916600019168152602001935050505060405180910390f35b34801561019c57600080fd5b506101a561071a565b6040518082815260200191505060405180910390f35b3480156101c757600080fd5b506101d06107e8565b604051808215151515815260200191505060405180910390f35b3480156101f657600080fd5b506102606004803603810190808035600019169060200190929190803573ffffffffffffffffffffffffffffffffffffffff16906020019092919080356bffffffffffffffffffffffff19169060200190929190803560001916906020019092919050505061080d565b604051808215151515815260200191505060405180910390f35b34801561028657600080fd5b5061028f610a04565b604051808215151515815260200191505060405180910390f35b3480156102b557600080fd5b506102ea600480360381019080803573ffffffffffffffffffffffffffffffffffffffff169060200190929190505050610a28565b604051808215151515815260200191505060405180910390f35b34801561031057600080fd5b50610319610a8b565b604051808273ffffffffffffffffffffffffffffffffffffffff1673ffffffffffffffffffffffffffffffffffffffff16815260200191505060405180910390f35b34801561036757600080fd5b50610370610abb565b604051808215151515815260200191505060405180910390f35b34801561039657600080fd5b5061039f610c0d565b604051808215151515815260200191505060405180910390f35b3480156103c557600080fd5b506103e86004803603810190808035600019169060200190929190505050610c20565b6040518085600019166000191681526020018473ffffffffffffffffffffffffffffffffffffffff1673ffffffffffffffffffffffffffffffffffffffff168152602001836bffffffffffffffffffffffff19166bffffffffffffffffffffffff19168152602001826000191660001916815260200194505050505060405180910390f35b34801561047957600080fd5b506104ae600480360381019080803573ffffffffffffffffffffffffffffffffffffffff169060200190929190505050610c89565b604051808215151515815260200191505060405180910390f35b3480156104d457600080fd5b506104dd610d47565b604051808273ffffffffffffffffffffffffffffffffffffffff1673ffffffffffffffffffffffffffffffffffffffff16815260200191505060405180910390f35b34801561052b57600080fd5b50610560600480360381019080803573ffffffffffffffffffffffffffffffffffffffff169060200190929190505050610d6c565b604051808215151515815260200191505060405180910390f35b34801561058657600080fd5b506105bb600480360381019080803573ffffffffffffffffffffffffffffffffffffffff169060200190929190505050610d8c565b604051808215151515815260200191505060405180910390f35b3480156105e157600080fd5b50610616600480360381019080803573ffffffffffffffffffffffffffffffffffffffff169060200190929190505050610e49565b604051808215151515815260200191505060405180910390f35b34801561063c57600080fd5b5061065f6004803603810190808035600019169060200190929190505050610eef565b604051808273ffffffffffffffffffffffffffffffffffffffff1673ffffffffffffffffffffffffffffffffffffffff16815260200191505060405180910390f35b60008060008060026000866000191660001916815260200190815260200160002090508060010160009054906101000a900473ffffffffffffffffffffffffffffffffffffffff168160020160009054906101000a90046c01000000000000000000000000028260030154935093509350509193909250565b60006107457f54696d6500000000000000000000000000000000000000000000000000000000610eef565b73ffffffffffffffffffffffffffffffffffffffff1663188ec3566040518163ffffffff167c0100000000000000000000000000000000000000000000000000000000028152600401602060405180830381600087803b1580156107a857600080fd5b505af11580156107bc573d6000803e3d6000fd5b505050506040513d60208110156107d257600080fd5b8101908080519060200190929190505050905090565b6000600360009054906101000a900460ff1615151561080657600080fd5b6001905090565b60008060009054906101000a900473ffffffffffffffffffffffffffffffffffffffff1673ffffffffffffffffffffffffffffffffffffffff163373ffffffffffffffffffffffffffffffffffffffff1614151561086a57600080fd5b600073ffffffffffffffffffffffffffffffffffffffff1660026000876000191660001916815260200190815260200160002060010160009054906101000a900473ffffffffffffffffffffffffffffffffffffffff1673ffffffffffffffffffffffffffffffffffffffff161415156108e357600080fd5b608060405190810160405280866000191681526020018573ffffffffffffffffffffffffffffffffffffffff168152602001846bffffffffffffffffffffffff1916815260200183600019168152506002600087600019166000191681526020019081526020016000206000820151816000019060001916905560208201518160010160006101000a81548173ffffffffffffffffffffffffffffffffffffffff021916908373ffffffffffffffffffffffffffffffffffffffff16021790555060408201518160020160006101000a81548173ffffffffffffffffffffffffffffffffffffffff02191690836c01000000000000000000000000900402179055506060820151816003019060001916905590505060019050949350505050565b6000600360009054906101000a900460ff161515610a2157600080fd5b6001905090565b6000600160008373ffffffffffffffffffffffffffffffffffffffff1673ffffffffffffffffffffffffffffffffffffffff16815260200190815260200160002060009054906101000a900460ff161515610a8257600080fd5b60019050919050565b6000610ab67f4175677572000000000000000000000000000000000000000000000000000000610eef565b905090565b60008060009054906101000a900473ffffffffffffffffffffffffffffffffffffffff1673ffffffffffffffffffffffffffffffffffffffff163373ffffffffffffffffffffffffffffffffffffffff16141515610b1857600080fd5b600360009054906101000a900460ff16151515610b3457600080fd5b610b3c610a8b565b73ffffffffffffffffffffffffffffffffffffffff1663a3b1dc5260016040518263ffffffff167c01000000000000000000000000000000000000000000000000000000000281526004018082151515158152602001915050602060405180830381600087803b158015610baf57600080fd5b505af1158015610bc3573d6000803e3d6000fd5b505050506040513d6020811015610bd957600080fd5b8101908080519060200190929190505050506001600360006101000a81548160ff0219169083151502179055506001905090565b600360009054906101000a900460ff1681565b60026020528060005260406000206000915090508060000154908060010160009054906101000a900473ffffffffffffffffffffffffffffffffffffffff16908060020160009054906101000a90046c0100000000000000000000000002908060030154905084565b60008060009054906101000a900473ffffffffffffffffffffffffffffffffffffffff1673ffffffffffffffffffffffffffffffffffffffff163373ffffffffffffffffffffffffffffffffffffffff16141515610ce657600080fd5b6000600160008473ffffffffffffffffffffffffffffffffffffffff1673ffffffffffffffffffffffffffffffffffffffff16815260200190815260200160002060006101000a81548160ff02191690831515021790555060019050919050565b6000809054906101000a900473ffffffffffffffffffffffffffffffffffffffff1681565b60016020528060005260406000206000915054906101000a900460ff1681565b60008060009054906101000a900473ffffffffffffffffffffffffffffffffffffffff1673ffffffffffffffffffffffffffffffffffffffff163373ffffffffffffffffffffffffffffffffffffffff16141515610de957600080fd5b60018060008473ffffffffffffffffffffffffffffffffffffffff1673ffffffffffffffffffffffffffffffffffffffff16815260200190815260200160002060006101000a81548160ff02191690831515021790555060019050919050565b60008060009054906101000a900473ffffffffffffffffffffffffffffffffffffffff1673ffffffffffffffffffffffffffffffffffffffff163373ffffffffffffffffffffffffffffffffffffffff16141515610ea657600080fd5b816000806101000a81548173ffffffffffffffffffffffffffffffffffffffff021916908373ffffffffffffffffffffffffffffffffffffffff16021790555060019050919050565b600060026000836000191660001916815260200190815260200160002060010160009054906101000a900473ffffffffffffffffffffffffffffffffffffffff1690509190505600a165627a7a7230582044ba9f20140033da454a8398929a53afbe000d835ef2dccd2b12e4253a7836470029",
  "source": "pragma solidity ^0.4.22;\n\n/**\n * The Controller is used to manage whitelisting of contracts and and halt the normal use of Augur’s contracts (e.g., if there is a vulnerability found in Augur).  There is only one instance of the Controller, and it gets uploaded to the blockchain before all of the other contracts.  The `owner` attribute of the Controller is set to the address that called the constructor of the Controller.  The Augur team can then call functions from this address to interact with the Controller.\n *\n * Initially, Augur will have a “dev mode” that that can be enabled to allow Augur’s team to suicide funds, extract Ether or Tokens from a specific contract (in case funds inadvertently get sent somewhere they shouldn’t have), and update the Controller of a target contract to a new Controller.  Eventually, the plan is to remove this mode so that this functionality will no longer be available to anyone, including the Augur team.  At that point, the `owner` address will only be able to the `emergencyStop` and `release` functions.\n */\n\nimport './IAugur.sol';\nimport './IController.sol';\nimport './IControlled.sol';\nimport './libraries/token/ERC20Basic.sol';\nimport './ITime.sol';\n\n\ncontract Controller is IController {\n    struct ContractDetails {\n        bytes32 name;\n        address contractAddress;\n        bytes20 commitHash;\n        bytes32 bytecodeHash;\n    }\n\n    address public owner;\n    mapping(address => bool) public whitelist;\n    mapping(bytes32 => ContractDetails) public registry;\n    bool public stopped = false;\n\n    modifier onlyOwnerCaller {\n        require(msg.sender == owner);\n        _;\n    }\n\n    modifier onlyInBadTimes {\n        require(stopped);\n        _;\n    }\n\n    modifier onlyInGoodTimes {\n        require(!stopped);\n        _;\n    }\n\n    function Controller() public {\n        owner = msg.sender;\n        whitelist[msg.sender] = true;\n    }\n\n    /*\n     * Contract Administration\n     */\n\n    function addToWhitelist(address _target) public onlyOwnerCaller returns (bool) {\n        whitelist[_target] = true;\n        return true;\n    }\n\n    function removeFromWhitelist(address _target) public onlyOwnerCaller returns (bool) {\n        whitelist[_target] = false;\n        return true;\n    }\n\n    function assertIsWhitelisted(address _target) public view returns (bool) {\n        require(whitelist[_target]);\n        return true;\n    }\n\n    function registerContract(bytes32 _key, address _address, bytes20 _commitHash, bytes32 _bytecodeHash) public onlyOwnerCaller returns (bool) {\n        require(registry[_key].contractAddress == address(0));\n        registry[_key] = ContractDetails(_key, _address, _commitHash, _bytecodeHash);\n        return true;\n    }\n\n    function getContractDetails(bytes32 _key) public view returns (address, bytes20, bytes32) {\n        ContractDetails storage _details = registry[_key];\n        return (_details.contractAddress, _details.commitHash, _details.bytecodeHash);\n    }\n\n    function lookup(bytes32 _key) public view returns (address) {\n        return registry[_key].contractAddress;\n    }\n\n    function transferOwnership(address _newOwner) public onlyOwnerCaller returns (bool) {\n        owner = _newOwner;\n        return true;\n    }\n\n    function emergencyStop() public onlyOwnerCaller onlyInGoodTimes returns (bool) {\n        getAugur().logEscapeHatchChanged(true);\n        stopped = true;\n        return true;\n    }\n\n    function stopInEmergency() public view onlyInGoodTimes returns (bool) {\n        return true;\n    }\n\n    function onlyInEmergency() public view onlyInBadTimes returns (bool) {\n        return true;\n    }\n\n    /*\n     * Helper functions\n     */\n\n    function getAugur() public view returns (IAugur) {\n        return IAugur(lookup(\"Augur\"));\n    }\n\n    function getTimestamp() public view returns (uint256) {\n        return ITime(lookup(\"Time\")).getTimestamp();\n    }\n}\n",
  "sourcePath": "/Users/jasperdegooijer/Documents/flux/augurSets/AugurSets/libraries/augur/source/contracts/Controller.sol",
  "compiler": {
    "name": "solc",
    "version": "0.4.22+commit.4cb486ee.Emscripten.clang"
  },
  "schemaVersion": "3.0.1",
  "updatedAt": "2019-07-15T12:03:29.479Z",
  "devdoc": {
    "methods": {}
  },
  "userdoc": {
    "methods": {}
  }
}