{
  "contractName": "Delegator",
  "abi": [
    {
      "constant": true,
      "inputs": [],
      "name": "getController",
      "outputs": [
        {
          "name": "",
          "type": "address"
        }
      ],
      "payable": false,
      "stateMutability": "view",
      "type": "function"
    },
    {
      "constant": false,
      "inputs": [
        {
          "name": "_controller",
          "type": "address"
        }
      ],
      "name": "setController",
      "outputs": [
        {
          "name": "",
          "type": "bool"
        }
      ],
      "payable": false,
      "stateMutability": "nonpayable",
      "type": "function"
    },
    {
      "constant": true,
      "inputs": [],
      "name": "controllerLookupName",
      "outputs": [
        {
          "name": "",
          "type": "bytes32"
        }
      ],
      "payable": false,
      "stateMutability": "view",
      "type": "function"
    },
    {
      "inputs": [
        {
          "name": "_controller",
          "type": "address"
        },
        {
          "name": "_controllerLookupName",
          "type": "bytes32"
        }
      ],
      "payable": false,
      "stateMutability": "nonpayable",
      "type": "constructor"
    },
    {
      "payable": true,
      "stateMutability": "payable",
      "type": "fallback"
    }
  ],
  "bytecode": "0x608060405234801561001057600080fd5b506040516040806104468339810180604052810190808051906020019092919080519060200190929190505050336000806101000a81548173ffffffffffffffffffffffffffffffffffffffff021916908373ffffffffffffffffffffffffffffffffffffffff160217905550816000806101000a81548173ffffffffffffffffffffffffffffffffffffffff021916908373ffffffffffffffffffffffffffffffffffffffff1602179055508060018160001916905550505061036d806100d96000396000f300608060405260043610610057576000357c0100000000000000000000000000000000000000000000000000000000900463ffffffff1680633018205f1461018757806392eefe9b146101de578063bef72fa214610239575b60008060010260015460001916141561006f57610184565b6000809054906101000a900473ffffffffffffffffffffffffffffffffffffffff1673ffffffffffffffffffffffffffffffffffffffff1663f39ec1f76001546040518263ffffffff167c0100000000000000000000000000000000000000000000000000000000028152600401808260001916600019168152602001915050602060405180830381600087803b15801561010957600080fd5b505af115801561011d573d6000803e3d6000fd5b505050506040513d602081101561013357600080fd5b81019080805190602001909291905050509050604051601f19601f36011680820160405236600083376000803684865af4806000811461017f576040513d81016040523d6000823e3d81f35b600080fd5b50005b34801561019357600080fd5b5061019c61026c565b604051808273ffffffffffffffffffffffffffffffffffffffff1673ffffffffffffffffffffffffffffffffffffffff16815260200191505060405180910390f35b3480156101ea57600080fd5b5061021f600480360381019080803573ffffffffffffffffffffffffffffffffffffffff169060200190929190505050610295565b604051808215151515815260200191505060405180910390f35b34801561024557600080fd5b5061024e61033b565b60405180826000191660001916815260200191505060405180910390f35b60008060009054906101000a900473ffffffffffffffffffffffffffffffffffffffff16905090565b60008060009054906101000a900473ffffffffffffffffffffffffffffffffffffffff1673ffffffffffffffffffffffffffffffffffffffff163373ffffffffffffffffffffffffffffffffffffffff161415156102f257600080fd5b816000806101000a81548173ffffffffffffffffffffffffffffffffffffffff021916908373ffffffffffffffffffffffffffffffffffffffff16021790555060019050919050565b600154815600a165627a7a723058202e512e870db6d069790c0e290c4f3ba94fb16fb97b62f0de6095bd5ff18551c60029",
  "source": "pragma solidity ^0.4.22;\n\n\nimport './../IController.sol';\nimport './../libraries/DelegationTarget.sol';\n\n\ncontract Delegator is DelegationTarget {\n    function Delegator(IController _controller, bytes32 _controllerLookupName) public {\n        controller = _controller;\n        controllerLookupName = _controllerLookupName;\n    }\n\n    function() external payable {\n        // Do nothing if we haven't properly set up the delegator to delegate calls\n        if (controllerLookupName == 0) {\n            return;\n        }\n\n        // Get the delegation target contract\n        address _target = controller.lookup(controllerLookupName);\n\n        assembly {\n            //0x40 is the address where the next free memory slot is stored in Solidity\n            let _calldataMemoryOffset := mload(0x40)\n            // new \"memory end\" including padding. The bitwise operations here ensure we get rounded up to the nearest 32 byte boundary\n            let _size := and(add(calldatasize, 0x1f), not(0x1f))\n            // Update the pointer at 0x40 to point at new free memory location so any theoretical allocation doesn't stomp our memory in this call\n            mstore(0x40, add(_calldataMemoryOffset, _size))\n            // Copy method signature and parameters of this call into memory\n            calldatacopy(_calldataMemoryOffset, 0x0, calldatasize)\n            // Call the actual method via delegation\n            let _retval := delegatecall(gas, _target, _calldataMemoryOffset, calldatasize, 0, 0)\n            switch _retval\n            case 0 {\n                // 0 == it threw, so we revert\n                revert(0,0)\n            } default {\n                // If the call succeeded return the return data from the delegate call\n                let _returndataMemoryOffset := mload(0x40)\n                // Update the pointer at 0x40 again to point at new free memory location so any theoretical allocation doesn't stomp our memory in this call\n                mstore(0x40, add(_returndataMemoryOffset, returndatasize))\n                returndatacopy(_returndataMemoryOffset, 0x0, returndatasize)\n                return(_returndataMemoryOffset, returndatasize)\n            }\n        }\n    }\n}\n",
  "sourcePath": "/Users/jasperdegooijer/Documents/flux/augurSets/AugurSets/libraries/augur/source/contracts/libraries/Delegator.sol",
  "compiler": {
    "name": "solc",
    "version": "0.4.22+commit.4cb486ee.Emscripten.clang"
  },
  "schemaVersion": "3.0.1",
  "updatedAt": "2019-07-15T12:03:29.490Z",
  "devdoc": {
    "methods": {}
  },
  "userdoc": {
    "methods": {}
  }
}