{
  "contractName": "DisputeCrowdsourcerFactory",
  "abi": [
    {
      "constant": false,
      "inputs": [
        {
          "name": "_controller",
          "type": "address"
        },
        {
          "name": "_market",
          "type": "address"
        },
        {
          "name": "_size",
          "type": "uint256"
        },
        {
          "name": "_payoutDistributionHash",
          "type": "bytes32"
        },
        {
          "name": "_payoutNumerators",
          "type": "uint256[]"
        },
        {
          "name": "_invalid",
          "type": "bool"
        }
      ],
      "name": "createDisputeCrowdsourcer",
      "outputs": [
        {
          "name": "",
          "type": "address"
        }
      ],
      "payable": false,
      "stateMutability": "nonpayable",
      "type": "function"
    }
  ],
  "bytecode": "0x608060405234801561001057600080fd5b506107b3806100206000396000f300608060405260043610610041576000357c0100000000000000000000000000000000000000000000000000000000900463ffffffff1680634b841ddf14610046575b600080fd5b34801561005257600080fd5b5061010e600480360381019080803573ffffffffffffffffffffffffffffffffffffffff169060200190929190803573ffffffffffffffffffffffffffffffffffffffff16906020019092919080359060200190929190803560001916906020019092919080359060200190820180359060200190808060200260200160405190810160405280939291908181526020018383602002808284378201915050505050509192919290803515159060200190929190505050610150565b604051808273ffffffffffffffffffffffffffffffffffffffff1673ffffffffffffffffffffffffffffffffffffffff16815260200191505060405180910390f35b60008060008861015e610331565b808273ffffffffffffffffffffffffffffffffffffffff1673ffffffffffffffffffffffffffffffffffffffff168152602001807f4469737075746543726f7764736f757263657200000000000000000000000000815250602001915050604051809103906000f0801580156101d8573d6000803e3d6000fd5b5091508190508073ffffffffffffffffffffffffffffffffffffffff16638fb1406189898989896040518663ffffffff167c0100000000000000000000000000000000000000000000000000000000028152600401808673ffffffffffffffffffffffffffffffffffffffff1673ffffffffffffffffffffffffffffffffffffffff16815260200185815260200184600019166000191681526020018060200183151515158152602001828103825284818151815260200191508051906020019060200280838360005b838110156102bd5780820151818401526020810190506102a2565b505050509050019650505050505050602060405180830381600087803b1580156102e657600080fd5b505af11580156102fa573d6000803e3d6000fd5b505050506040513d602081101561031057600080fd5b81019080805190602001909291905050505080925050509695505050505050565b60405161044680610342833901905600608060405234801561001057600080fd5b506040516040806104468339810180604052810190808051906020019092919080519060200190929190505050336000806101000a81548173ffffffffffffffffffffffffffffffffffffffff021916908373ffffffffffffffffffffffffffffffffffffffff160217905550816000806101000a81548173ffffffffffffffffffffffffffffffffffffffff021916908373ffffffffffffffffffffffffffffffffffffffff1602179055508060018160001916905550505061036d806100d96000396000f300608060405260043610610057576000357c0100000000000000000000000000000000000000000000000000000000900463ffffffff1680633018205f1461018757806392eefe9b146101de578063bef72fa214610239575b60008060010260015460001916141561006f57610184565b6000809054906101000a900473ffffffffffffffffffffffffffffffffffffffff1673ffffffffffffffffffffffffffffffffffffffff1663f39ec1f76001546040518263ffffffff167c0100000000000000000000000000000000000000000000000000000000028152600401808260001916600019168152602001915050602060405180830381600087803b15801561010957600080fd5b505af115801561011d573d6000803e3d6000fd5b505050506040513d602081101561013357600080fd5b81019080805190602001909291905050509050604051601f19601f36011680820160405236600083376000803684865af4806000811461017f576040513d81016040523d6000823e3d81f35b600080fd5b50005b34801561019357600080fd5b5061019c61026c565b604051808273ffffffffffffffffffffffffffffffffffffffff1673ffffffffffffffffffffffffffffffffffffffff16815260200191505060405180910390f35b3480156101ea57600080fd5b5061021f600480360381019080803573ffffffffffffffffffffffffffffffffffffffff169060200190929190505050610295565b604051808215151515815260200191505060405180910390f35b34801561024557600080fd5b5061024e61033b565b60405180826000191660001916815260200191505060405180910390f35b60008060009054906101000a900473ffffffffffffffffffffffffffffffffffffffff16905090565b60008060009054906101000a900473ffffffffffffffffffffffffffffffffffffffff1673ffffffffffffffffffffffffffffffffffffffff163373ffffffffffffffffffffffffffffffffffffffff161415156102f257600080fd5b816000806101000a81548173ffffffffffffffffffffffffffffffffffffffff021916908373ffffffffffffffffffffffffffffffffffffffff16021790555060019050919050565b600154815600a165627a7a723058202e512e870db6d069790c0e290c4f3ba94fb16fb97b62f0de6095bd5ff18551c60029a165627a7a72305820506996fd39048de2ef30e9551ac6000432e456c1e06fc58629902cf3edc3635c0029",
  "source": "pragma solidity ^0.4.22;\n\nimport './../libraries/Delegator.sol';\nimport './../reporting/IDisputeCrowdsourcer.sol';\nimport './../reporting/IMarket.sol';\nimport './../IController.sol';\n\n\ncontract DisputeCrowdsourcerFactory {\n    function createDisputeCrowdsourcer(IController _controller, IMarket _market, uint256 _size, bytes32 _payoutDistributionHash, uint256[] _payoutNumerators, bool _invalid) public returns (IDisputeCrowdsourcer) {\n        Delegator _delegator = new Delegator(_controller, \"DisputeCrowdsourcer\");\n        IDisputeCrowdsourcer _disputeCrowdsourcer = IDisputeCrowdsourcer(_delegator);\n        _disputeCrowdsourcer.initialize(_market, _size, _payoutDistributionHash, _payoutNumerators, _invalid);\n        return _disputeCrowdsourcer;\n    }\n}\n",
  "sourcePath": "/Users/jasperdegooijer/Documents/flux/augurSets/AugurSets/libraries/augur/source/contracts/factories/DisputeCrowdsourcerFactory.sol",
  "compiler": {
    "name": "solc",
    "version": "0.4.22+commit.4cb486ee.Emscripten.clang"
  },
  "schemaVersion": "3.0.1",
  "updatedAt": "2019-07-15T12:03:29.484Z",
  "devdoc": {
    "methods": {}
  },
  "userdoc": {
    "methods": {}
  }
}