{
  "contractName": "ERC20Token",
  "abi": [
    {
      "anonymous": false,
      "inputs": [
        {
          "indexed": true,
          "name": "_from",
          "type": "address"
        },
        {
          "indexed": true,
          "name": "_to",
          "type": "address"
        },
        {
          "indexed": false,
          "name": "_value",
          "type": "uint256"
        }
      ],
      "name": "Transfer",
      "type": "event"
    },
    {
      "anonymous": false,
      "inputs": [
        {
          "indexed": true,
          "name": "_owner",
          "type": "address"
        },
        {
          "indexed": true,
          "name": "_spender",
          "type": "address"
        },
        {
          "indexed": false,
          "name": "_value",
          "type": "uint256"
        }
      ],
      "name": "Approval",
      "type": "event"
    },
    {
      "constant": false,
      "inputs": [
        {
          "name": "_to",
          "type": "address"
        },
        {
          "name": "_value",
          "type": "uint256"
        }
      ],
      "name": "transfer",
      "outputs": [
        {
          "name": "",
          "type": "bool"
        }
      ],
      "payable": false,
      "stateMutability": "nonpayable",
      "type": "function"
    },
    {
      "constant": false,
      "inputs": [
        {
          "name": "_from",
          "type": "address"
        },
        {
          "name": "_to",
          "type": "address"
        },
        {
          "name": "_value",
          "type": "uint256"
        }
      ],
      "name": "transferFrom",
      "outputs": [
        {
          "name": "",
          "type": "bool"
        }
      ],
      "payable": false,
      "stateMutability": "nonpayable",
      "type": "function"
    },
    {
      "constant": false,
      "inputs": [
        {
          "name": "_spender",
          "type": "address"
        },
        {
          "name": "_value",
          "type": "uint256"
        }
      ],
      "name": "approve",
      "outputs": [
        {
          "name": "",
          "type": "bool"
        }
      ],
      "payable": false,
      "stateMutability": "nonpayable",
      "type": "function"
    },
    {
      "constant": true,
      "inputs": [],
      "name": "totalSupply",
      "outputs": [
        {
          "name": "",
          "type": "uint256"
        }
      ],
      "payable": false,
      "stateMutability": "view",
      "type": "function"
    },
    {
      "constant": true,
      "inputs": [
        {
          "name": "_owner",
          "type": "address"
        }
      ],
      "name": "balanceOf",
      "outputs": [
        {
          "name": "",
          "type": "uint256"
        }
      ],
      "payable": false,
      "stateMutability": "view",
      "type": "function"
    },
    {
      "constant": true,
      "inputs": [
        {
          "name": "_owner",
          "type": "address"
        },
        {
          "name": "_spender",
          "type": "address"
        }
      ],
      "name": "allowance",
      "outputs": [
        {
          "name": "",
          "type": "uint256"
        }
      ],
      "payable": false,
      "stateMutability": "view",
      "type": "function"
    }
  ],
  "bytecode": "0x608060405234801561001057600080fd5b50610ba5806100206000396000f300608060405260043610610078576000357c0100000000000000000000000000000000000000000000000000000000900463ffffffff168063095ea7b31461007d57806318160ddd146100e257806323b872dd1461010d57806370a0823114610192578063a9059cbb146101e9578063dd62ed3e1461024e575b600080fd5b34801561008957600080fd5b506100c8600480360381019080803573ffffffffffffffffffffffffffffffffffffffff169060200190929190803590602001909291905050506102c5565b604051808215151515815260200191505060405180910390f35b3480156100ee57600080fd5b506100f76103b7565b6040518082815260200191505060405180910390f35b34801561011957600080fd5b50610178600480360381019080803573ffffffffffffffffffffffffffffffffffffffff169060200190929190803573ffffffffffffffffffffffffffffffffffffffff169060200190929190803590602001909291905050506103c1565b604051808215151515815260200191505060405180910390f35b34801561019e57600080fd5b506101d3600480360381019080803573ffffffffffffffffffffffffffffffffffffffff1690602001909291905050506107f5565b6040518082815260200191505060405180910390f35b3480156101f557600080fd5b50610234600480360381019080803573ffffffffffffffffffffffffffffffffffffffff1690602001909291908035906020019092919050505061083d565b604051808215151515815260200191505060405180910390f35b34801561025a57600080fd5b506102af600480360381019080803573ffffffffffffffffffffffffffffffffffffffff169060200190929190803573ffffffffffffffffffffffffffffffffffffffff169060200190929190505050610af2565b6040518082815260200191505060405180910390f35b600081600160003373ffffffffffffffffffffffffffffffffffffffff1673ffffffffffffffffffffffffffffffffffffffff16815260200190815260200160002060008573ffffffffffffffffffffffffffffffffffffffff1673ffffffffffffffffffffffffffffffffffffffff168152602001908152602001600020819055508273ffffffffffffffffffffffffffffffffffffffff163373ffffffffffffffffffffffffffffffffffffffff167f8c5be1e5ebec7d5bd14f71427d1e84f3dd0314c0f7b2291e5b200ac8c7c3b925846040518082815260200191505060405180910390a36001905092915050565b6000600254905090565b6000816000808673ffffffffffffffffffffffffffffffffffffffff1673ffffffffffffffffffffffffffffffffffffffff1681526020019081526020016000205410151515610479576040517f08c379a000000000000000000000000000000000000000000000000000000000815260040180806020018281038252601a8152602001807f45524332305f494e53554646494349454e545f42414c414e434500000000000081525060200191505060405180910390fd5b81600160008673ffffffffffffffffffffffffffffffffffffffff1673ffffffffffffffffffffffffffffffffffffffff16815260200190815260200160002060003373ffffffffffffffffffffffffffffffffffffffff1673ffffffffffffffffffffffffffffffffffffffff168152602001908152602001600020541015151561056d576040517f08c379a000000000000000000000000000000000000000000000000000000000815260040180806020018281038252601c8152602001807f45524332305f494e53554646494349454e545f414c4c4f57414e43450000000081525060200191505060405180910390fd5b6000808473ffffffffffffffffffffffffffffffffffffffff1673ffffffffffffffffffffffffffffffffffffffff16815260200190815260200160002054826000808673ffffffffffffffffffffffffffffffffffffffff1673ffffffffffffffffffffffffffffffffffffffff168152602001908152602001600020540110151515610663576040517f08c379a00000000000000000000000000000000000000000000000000000000081526004018080602001828103825260108152602001807f55494e543235365f4f564552464c4f570000000000000000000000000000000081525060200191505060405180910390fd5b816000808573ffffffffffffffffffffffffffffffffffffffff1673ffffffffffffffffffffffffffffffffffffffff16815260200190815260200160002060008282540192505081905550816000808673ffffffffffffffffffffffffffffffffffffffff1673ffffffffffffffffffffffffffffffffffffffff1681526020019081526020016000206000828254039250508190555081600160008673ffffffffffffffffffffffffffffffffffffffff1673ffffffffffffffffffffffffffffffffffffffff16815260200190815260200160002060003373ffffffffffffffffffffffffffffffffffffffff1673ffffffffffffffffffffffffffffffffffffffff168152602001908152602001600020600082825403925050819055508273ffffffffffffffffffffffffffffffffffffffff168473ffffffffffffffffffffffffffffffffffffffff167fddf252ad1be2c89b69c2b068fc378daa952ba7f163c4a11628f55a4df523b3ef846040518082815260200191505060405180910390a3600190509392505050565b60008060008373ffffffffffffffffffffffffffffffffffffffff1673ffffffffffffffffffffffffffffffffffffffff168152602001908152602001600020549050919050565b6000816000803373ffffffffffffffffffffffffffffffffffffffff1673ffffffffffffffffffffffffffffffffffffffff16815260200190815260200160002054101515156108f5576040517f08c379a000000000000000000000000000000000000000000000000000000000815260040180806020018281038252601a8152602001807f45524332305f494e53554646494349454e545f42414c414e434500000000000081525060200191505060405180910390fd5b6000808473ffffffffffffffffffffffffffffffffffffffff1673ffffffffffffffffffffffffffffffffffffffff16815260200190815260200160002054826000808673ffffffffffffffffffffffffffffffffffffffff1673ffffffffffffffffffffffffffffffffffffffff1681526020019081526020016000205401101515156109eb576040517f08c379a00000000000000000000000000000000000000000000000000000000081526004018080602001828103825260108152602001807f55494e543235365f4f564552464c4f570000000000000000000000000000000081525060200191505060405180910390fd5b816000803373ffffffffffffffffffffffffffffffffffffffff1673ffffffffffffffffffffffffffffffffffffffff16815260200190815260200160002060008282540392505081905550816000808573ffffffffffffffffffffffffffffffffffffffff1673ffffffffffffffffffffffffffffffffffffffff168152602001908152602001600020600082825401925050819055508273ffffffffffffffffffffffffffffffffffffffff163373ffffffffffffffffffffffffffffffffffffffff167fddf252ad1be2c89b69c2b068fc378daa952ba7f163c4a11628f55a4df523b3ef846040518082815260200191505060405180910390a36001905092915050565b6000600160008473ffffffffffffffffffffffffffffffffffffffff1673ffffffffffffffffffffffffffffffffffffffff16815260200190815260200160002060008373ffffffffffffffffffffffffffffffffffffffff1673ffffffffffffffffffffffffffffffffffffffff168152602001908152602001600020549050929150505600a165627a7a723058209a79e35b2c6afcb1b24d24207456efa1ceaf991dba630a48ec0d2cc9fc0986e20029",
  "source": "/*\n\n  Copyright 2018 ZeroEx Intl.\n\n  Licensed under the Apache License, Version 2.0 (the \"License\");\n  you may not use this file except in compliance with the License.\n  You may obtain a copy of the License at\n\n    http://www.apache.org/licenses/LICENSE-2.0\n\n  Unless required by applicable law or agreed to in writing, software\n  distributed under the License is distributed on an \"AS IS\" BASIS,\n  WITHOUT WARRANTIES OR CONDITIONS OF ANY KIND, either express or implied.\n  See the License for the specific language governing permissions and\n  limitations under the License.\n\n*/\n\npragma solidity ^0.4.22;\n\nimport \"./interfaces/IERC20Token.sol\";\n\n\ncontract ERC20Token is\n    IERC20Token\n{\n    mapping (address => uint256) internal balances;\n    mapping (address => mapping (address => uint256)) internal allowed;\n\n    uint256 internal _totalSupply;\n\n    /// @dev send `value` token to `to` from `msg.sender`\n    /// @param _to The address of the recipient\n    /// @param _value The amount of token to be transferred\n    /// @return True if transfer was successful\n    function transfer(address _to, uint256 _value)\n        external\n        returns (bool)\n    {\n        require(\n            balances[msg.sender] >= _value,\n            \"ERC20_INSUFFICIENT_BALANCE\"\n        );\n        require(\n            balances[_to] + _value >= balances[_to],\n            \"UINT256_OVERFLOW\"\n        );\n\n        balances[msg.sender] -= _value;\n        balances[_to] += _value;\n\n         Transfer(\n            msg.sender,\n            _to,\n            _value\n        );\n\n        return true;\n    }\n\n    /// @dev send `value` token to `to` from `from` on the condition it is approved by `from`\n    /// @param _from The address of the sender\n    /// @param _to The address of the recipient\n    /// @param _value The amount of token to be transferred\n    /// @return True if transfer was successful\n    function transferFrom(\n        address _from,\n        address _to,\n        uint256 _value\n    )\n        external\n        returns (bool)\n    {\n        require(\n            balances[_from] >= _value,\n            \"ERC20_INSUFFICIENT_BALANCE\"\n        );\n        require(\n            allowed[_from][msg.sender] >= _value,\n            \"ERC20_INSUFFICIENT_ALLOWANCE\"\n        );\n        require(\n            balances[_to] + _value >= balances[_to],\n            \"UINT256_OVERFLOW\"\n        );\n\n        balances[_to] += _value;\n        balances[_from] -= _value;\n        allowed[_from][msg.sender] -= _value;\n    \n         Transfer(\n            _from,\n            _to,\n            _value\n        );\n    \n        return true;\n    }\n\n    /// @dev `msg.sender` approves `_spender` to spend `_value` tokens\n    /// @param _spender The address of the account able to transfer the tokens\n    /// @param _value The amount of wei to be approved for transfer\n    /// @return Always true if the call has enough gas to complete execution\n    function approve(address _spender, uint256 _value)\n        external\n        returns (bool)\n    {\n        allowed[msg.sender][_spender] = _value;\n         Approval(\n            msg.sender,\n            _spender,\n            _value\n        );\n        return true;\n    }\n\n    /// @dev Query total supply of token\n    /// @return Total supply of token\n    function totalSupply()\n        external\n        view\n        returns (uint256)\n    {\n        return _totalSupply;\n    }\n\n    /// @dev Query the balance of owner\n    /// @param _owner The address from which the balance will be retrieved\n    /// @return Balance of owner\n    function balanceOf(address _owner)\n        external\n        view\n        returns (uint256)\n    {\n        return balances[_owner];\n    }\n\n    /// @param _owner The address of the account owning tokens\n    /// @param _spender The address of the account able to transfer the tokens\n    /// @return Amount of remaining tokens allowed to spent\n    function allowance(address _owner, address _spender)\n        external\n        view\n        returns (uint256)\n    {\n        return allowed[_owner][_spender];\n    }\n}\n",
  "sourcePath": "/Users/jasperdegooijer/Documents/AugurSets/AugurSets/libraries/0x/contracts/erc20/contracts/src/ERC20Token.sol",
  "compiler": {
    "name": "solc",
    "version": "0.4.22+commit.4cb486ee.Emscripten.clang"
  },
  "schemaVersion": "3.0.1",
  "updatedAt": "2019-07-22T13:06:58.195Z",
  "devdoc": {
    "methods": {
      "allowance(address,address)": {
        "params": {
          "_owner": "The address of the account owning tokens",
          "_spender": "The address of the account able to transfer the tokens"
        },
        "return": "Amount of remaining tokens allowed to spent"
      },
      "approve(address,uint256)": {
        "details": "`msg.sender` approves `_spender` to spend `_value` tokens",
        "params": {
          "_spender": "The address of the account able to transfer the tokens",
          "_value": "The amount of wei to be approved for transfer"
        },
        "return": "Always true if the call has enough gas to complete execution"
      },
      "balanceOf(address)": {
        "details": "Query the balance of owner",
        "params": {
          "_owner": "The address from which the balance will be retrieved"
        },
        "return": "Balance of owner"
      },
      "totalSupply()": {
        "details": "Query total supply of token",
        "return": "Total supply of token"
      },
      "transfer(address,uint256)": {
        "details": "send `value` token to `to` from `msg.sender`",
        "params": {
          "_to": "The address of the recipient",
          "_value": "The amount of token to be transferred"
        },
        "return": "True if transfer was successful"
      },
      "transferFrom(address,address,uint256)": {
        "details": "send `value` token to `to` from `from` on the condition it is approved by `from`",
        "params": {
          "_from": "The address of the sender",
          "_to": "The address of the recipient",
          "_value": "The amount of token to be transferred"
        },
        "return": "True if transfer was successful"
      }
    }
  },
  "userdoc": {
    "methods": {}
  }
}