{
  "contractName": "FeeWindow",
  "abi": [
    {
      "constant": true,
      "inputs": [],
      "name": "name",
      "outputs": [
        {
          "name": "",
          "type": "string"
        }
      ],
      "payable": false,
      "stateMutability": "view",
      "type": "function"
    },
    {
      "constant": false,
      "inputs": [
        {
          "name": "_spender",
          "type": "address"
        },
        {
          "name": "_value",
          "type": "uint256"
        }
      ],
      "name": "approve",
      "outputs": [
        {
          "name": "",
          "type": "bool"
        }
      ],
      "payable": false,
      "stateMutability": "nonpayable",
      "type": "function"
    },
    {
      "constant": true,
      "inputs": [],
      "name": "totalSupply",
      "outputs": [
        {
          "name": "",
          "type": "uint256"
        }
      ],
      "payable": false,
      "stateMutability": "view",
      "type": "function"
    },
    {
      "constant": false,
      "inputs": [
        {
          "name": "_from",
          "type": "address"
        },
        {
          "name": "_to",
          "type": "address"
        },
        {
          "name": "_value",
          "type": "uint256"
        }
      ],
      "name": "transferFrom",
      "outputs": [
        {
          "name": "",
          "type": "bool"
        }
      ],
      "payable": false,
      "stateMutability": "nonpayable",
      "type": "function"
    },
    {
      "constant": true,
      "inputs": [],
      "name": "getController",
      "outputs": [
        {
          "name": "",
          "type": "address"
        }
      ],
      "payable": false,
      "stateMutability": "view",
      "type": "function"
    },
    {
      "constant": true,
      "inputs": [],
      "name": "decimals",
      "outputs": [
        {
          "name": "",
          "type": "uint8"
        }
      ],
      "payable": false,
      "stateMutability": "view",
      "type": "function"
    },
    {
      "constant": true,
      "inputs": [],
      "name": "ETERNAL_APPROVAL_VALUE",
      "outputs": [
        {
          "name": "",
          "type": "uint256"
        }
      ],
      "payable": false,
      "stateMutability": "view",
      "type": "function"
    },
    {
      "constant": false,
      "inputs": [
        {
          "name": "_spender",
          "type": "address"
        },
        {
          "name": "_subtractedValue",
          "type": "uint256"
        }
      ],
      "name": "decreaseApproval",
      "outputs": [
        {
          "name": "",
          "type": "bool"
        }
      ],
      "payable": false,
      "stateMutability": "nonpayable",
      "type": "function"
    },
    {
      "constant": true,
      "inputs": [
        {
          "name": "_owner",
          "type": "address"
        }
      ],
      "name": "balanceOf",
      "outputs": [
        {
          "name": "",
          "type": "uint256"
        }
      ],
      "payable": false,
      "stateMutability": "view",
      "type": "function"
    },
    {
      "constant": false,
      "inputs": [
        {
          "name": "_controller",
          "type": "address"
        }
      ],
      "name": "setController",
      "outputs": [
        {
          "name": "",
          "type": "bool"
        }
      ],
      "payable": false,
      "stateMutability": "nonpayable",
      "type": "function"
    },
    {
      "constant": true,
      "inputs": [],
      "name": "symbol",
      "outputs": [
        {
          "name": "",
          "type": "string"
        }
      ],
      "payable": false,
      "stateMutability": "view",
      "type": "function"
    },
    {
      "constant": false,
      "inputs": [
        {
          "name": "_to",
          "type": "address"
        },
        {
          "name": "_value",
          "type": "uint256"
        }
      ],
      "name": "transfer",
      "outputs": [
        {
          "name": "",
          "type": "bool"
        }
      ],
      "payable": false,
      "stateMutability": "nonpayable",
      "type": "function"
    },
    {
      "constant": true,
      "inputs": [],
      "name": "controllerLookupName",
      "outputs": [
        {
          "name": "",
          "type": "bytes32"
        }
      ],
      "payable": false,
      "stateMutability": "view",
      "type": "function"
    },
    {
      "constant": false,
      "inputs": [
        {
          "name": "_spender",
          "type": "address"
        },
        {
          "name": "_addedValue",
          "type": "uint256"
        }
      ],
      "name": "increaseApproval",
      "outputs": [
        {
          "name": "",
          "type": "bool"
        }
      ],
      "payable": false,
      "stateMutability": "nonpayable",
      "type": "function"
    },
    {
      "constant": true,
      "inputs": [
        {
          "name": "_owner",
          "type": "address"
        },
        {
          "name": "_spender",
          "type": "address"
        }
      ],
      "name": "allowance",
      "outputs": [
        {
          "name": "remaining",
          "type": "uint256"
        }
      ],
      "payable": false,
      "stateMutability": "view",
      "type": "function"
    },
    {
      "constant": true,
      "inputs": [],
      "name": "getInitialized",
      "outputs": [
        {
          "name": "",
          "type": "bool"
        }
      ],
      "payable": false,
      "stateMutability": "view",
      "type": "function"
    },
    {
      "anonymous": false,
      "inputs": [
        {
          "indexed": true,
          "name": "target",
          "type": "address"
        },
        {
          "indexed": false,
          "name": "value",
          "type": "uint256"
        }
      ],
      "name": "Mint",
      "type": "event"
    },
    {
      "anonymous": false,
      "inputs": [
        {
          "indexed": true,
          "name": "target",
          "type": "address"
        },
        {
          "indexed": false,
          "name": "value",
          "type": "uint256"
        }
      ],
      "name": "Burn",
      "type": "event"
    },
    {
      "anonymous": false,
      "inputs": [
        {
          "indexed": true,
          "name": "owner",
          "type": "address"
        },
        {
          "indexed": true,
          "name": "spender",
          "type": "address"
        },
        {
          "indexed": false,
          "name": "value",
          "type": "uint256"
        }
      ],
      "name": "Approval",
      "type": "event"
    },
    {
      "anonymous": false,
      "inputs": [
        {
          "indexed": true,
          "name": "from",
          "type": "address"
        },
        {
          "indexed": true,
          "name": "to",
          "type": "address"
        },
        {
          "indexed": false,
          "name": "value",
          "type": "uint256"
        }
      ],
      "name": "Transfer",
      "type": "event"
    },
    {
      "constant": false,
      "inputs": [
        {
          "name": "_universe",
          "type": "address"
        },
        {
          "name": "_feeWindowId",
          "type": "uint256"
        }
      ],
      "name": "initialize",
      "outputs": [
        {
          "name": "",
          "type": "bool"
        }
      ],
      "payable": false,
      "stateMutability": "nonpayable",
      "type": "function"
    },
    {
      "constant": false,
      "inputs": [],
      "name": "onMarketFinalized",
      "outputs": [
        {
          "name": "",
          "type": "bool"
        }
      ],
      "payable": false,
      "stateMutability": "nonpayable",
      "type": "function"
    },
    {
      "constant": false,
      "inputs": [
        {
          "name": "_attotokens",
          "type": "uint256"
        }
      ],
      "name": "buy",
      "outputs": [
        {
          "name": "",
          "type": "bool"
        }
      ],
      "payable": false,
      "stateMutability": "nonpayable",
      "type": "function"
    },
    {
      "constant": false,
      "inputs": [
        {
          "name": "_buyer",
          "type": "address"
        },
        {
          "name": "_attotokens",
          "type": "uint256"
        }
      ],
      "name": "trustedUniverseBuy",
      "outputs": [
        {
          "name": "",
          "type": "bool"
        }
      ],
      "payable": false,
      "stateMutability": "nonpayable",
      "type": "function"
    },
    {
      "constant": false,
      "inputs": [],
      "name": "redeemForReportingParticipant",
      "outputs": [
        {
          "name": "",
          "type": "bool"
        }
      ],
      "payable": false,
      "stateMutability": "nonpayable",
      "type": "function"
    },
    {
      "constant": false,
      "inputs": [
        {
          "name": "_sender",
          "type": "address"
        }
      ],
      "name": "redeem",
      "outputs": [
        {
          "name": "",
          "type": "bool"
        }
      ],
      "payable": false,
      "stateMutability": "nonpayable",
      "type": "function"
    },
    {
      "constant": false,
      "inputs": [],
      "name": "withdrawInEmergency",
      "outputs": [
        {
          "name": "",
          "type": "bool"
        }
      ],
      "payable": false,
      "stateMutability": "nonpayable",
      "type": "function"
    },
    {
      "constant": false,
      "inputs": [
        {
          "name": "_amount",
          "type": "uint256"
        }
      ],
      "name": "mintFeeTokens",
      "outputs": [
        {
          "name": "",
          "type": "bool"
        }
      ],
      "payable": false,
      "stateMutability": "nonpayable",
      "type": "function"
    },
    {
      "constant": true,
      "inputs": [],
      "name": "getTotalFeeStake",
      "outputs": [
        {
          "name": "",
          "type": "uint256"
        }
      ],
      "payable": false,
      "stateMutability": "view",
      "type": "function"
    },
    {
      "constant": true,
      "inputs": [],
      "name": "getTypeName",
      "outputs": [
        {
          "name": "",
          "type": "bytes32"
        }
      ],
      "payable": false,
      "stateMutability": "view",
      "type": "function"
    },
    {
      "constant": true,
      "inputs": [],
      "name": "getUniverse",
      "outputs": [
        {
          "name": "",
          "type": "address"
        }
      ],
      "payable": false,
      "stateMutability": "view",
      "type": "function"
    },
    {
      "constant": true,
      "inputs": [],
      "name": "getNumMarkets",
      "outputs": [
        {
          "name": "",
          "type": "uint256"
        }
      ],
      "payable": false,
      "stateMutability": "view",
      "type": "function"
    },
    {
      "constant": true,
      "inputs": [],
      "name": "getReputationToken",
      "outputs": [
        {
          "name": "",
          "type": "address"
        }
      ],
      "payable": false,
      "stateMutability": "view",
      "type": "function"
    },
    {
      "constant": true,
      "inputs": [],
      "name": "getStartTime",
      "outputs": [
        {
          "name": "",
          "type": "uint256"
        }
      ],
      "payable": false,
      "stateMutability": "view",
      "type": "function"
    },
    {
      "constant": true,
      "inputs": [],
      "name": "getEndTime",
      "outputs": [
        {
          "name": "",
          "type": "uint256"
        }
      ],
      "payable": false,
      "stateMutability": "view",
      "type": "function"
    },
    {
      "constant": true,
      "inputs": [],
      "name": "getFeeToken",
      "outputs": [
        {
          "name": "",
          "type": "address"
        }
      ],
      "payable": false,
      "stateMutability": "view",
      "type": "function"
    },
    {
      "constant": true,
      "inputs": [],
      "name": "getNumInvalidMarkets",
      "outputs": [
        {
          "name": "",
          "type": "uint256"
        }
      ],
      "payable": false,
      "stateMutability": "view",
      "type": "function"
    },
    {
      "constant": true,
      "inputs": [],
      "name": "getNumIncorrectDesignatedReportMarkets",
      "outputs": [
        {
          "name": "",
          "type": "uint256"
        }
      ],
      "payable": false,
      "stateMutability": "view",
      "type": "function"
    },
    {
      "constant": true,
      "inputs": [],
      "name": "getNumDesignatedReportNoShows",
      "outputs": [
        {
          "name": "",
          "type": "uint256"
        }
      ],
      "payable": false,
      "stateMutability": "view",
      "type": "function"
    },
    {
      "constant": true,
      "inputs": [],
      "name": "isActive",
      "outputs": [
        {
          "name": "",
          "type": "bool"
        }
      ],
      "payable": false,
      "stateMutability": "view",
      "type": "function"
    },
    {
      "constant": true,
      "inputs": [],
      "name": "isOver",
      "outputs": [
        {
          "name": "",
          "type": "bool"
        }
      ],
      "payable": false,
      "stateMutability": "view",
      "type": "function"
    }
  ],
  "bytecode": "0x60806040526000600560006101000a81548160ff021916908315150217905550336000806101000a81548173ffffffffffffffffffffffffffffffffffffffff021916908373ffffffffffffffffffffffffffffffffffffffff1602179055506140798061006e6000396000f3006080604052600436106101cd576000357c0100000000000000000000000000000000000000000000000000000000900463ffffffff16806306fdde03146101d2578063095ea7b31461026257806318160ddd146102c757806322f3e2d4146102f257806323b872dd14610321578063295c39a5146103a65780633018205f146103d1578063313ce56714610428578063439f5ac2146104595780635c3cdec814610484578063634eaff1146104af57806366188463146104da57806370a082311461053f5780637303ed1814610596578063870c426d146105fb5780638dc6e2f11461065257806392eefe9b1461068157806395a2251f146106dc57806395d89b4114610737578063a52c0512146107c7578063a7eb685b146107f2578063a9059cbb14610837578063b4bd9e271461089c578063b80907f2146108cb578063b97a6c1214610922578063bef72fa214610951578063c4c0698d14610984578063c828371e146109b3578063ca709a25146109de578063cd6dc68714610a35578063cf3d384914610a9a578063d73dd62314610ac5578063d96a094a14610b2a578063da0b0c3614610b6f578063db0a087c14610b9a578063dd62ed3e14610bcd578063ee89dab414610c44575b600080fd5b3480156101de57600080fd5b506101e7610c73565b6040518080602001828103825283818151815260200191508051906020019080838360005b8381101561022757808201518184015260208101905061020c565b50505050905090810190601f1680156102545780820380516001836020036101000a031916815260200191505b509250505060405180910390f35b34801561026e57600080fd5b506102ad600480360381019080803573ffffffffffffffffffffffffffffffffffffffff16906020019092919080359060200190929190505050610cac565b604051808215151515815260200191505060405180910390f35b3480156102d357600080fd5b506102dc610cc4565b6040518082815260200191505060405180910390f35b3480156102fe57600080fd5b50610307610cce565b604051808215151515815260200191505060405180910390f35b34801561032d57600080fd5b5061038c600480360381019080803573ffffffffffffffffffffffffffffffffffffffff169060200190929190803573ffffffffffffffffffffffffffffffffffffffff16906020019092919080359060200190929190505050610ea3565b604051808215151515815260200191505060405180910390f35b3480156103b257600080fd5b506103bb610ffa565b6040518082815260200191505060405180910390f35b3480156103dd57600080fd5b506103e661101f565b604051808273ffffffffffffffffffffffffffffffffffffffff1673ffffffffffffffffffffffffffffffffffffffff16815260200191505060405180910390f35b34801561043457600080fd5b5061043d611048565b604051808260ff1660ff16815260200191505060405180910390f35b34801561046557600080fd5b5061046e61104d565b6040518082815260200191505060405180910390f35b34801561049057600080fd5b50610499611090565b6040518082815260200191505060405180910390f35b3480156104bb57600080fd5b506104c461117c565b6040518082815260200191505060405180910390f35b3480156104e657600080fd5b50610525600480360381019080803573ffffffffffffffffffffffffffffffffffffffff169060200190929190803590602001909291905050506111a0565b604051808215151515815260200191505060405180910390f35b34801561054b57600080fd5b50610580600480360381019080803573ffffffffffffffffffffffffffffffffffffffff169060200190929190505050611266565b6040518082815260200191505060405180910390f35b3480156105a257600080fd5b506105e1600480360381019080803573ffffffffffffffffffffffffffffffffffffffff169060200190929190803590602001909291905050506112af565b604051808215151515815260200191505060405180910390f35b34801561060757600080fd5b50610610611408565b604051808273ffffffffffffffffffffffffffffffffffffffff1673ffffffffffffffffffffffffffffffffffffffff16815260200191505060405180910390f35b34801561065e57600080fd5b5061066761144d565b604051808215151515815260200191505060405180910390f35b34801561068d57600080fd5b506106c2600480360381019080803573ffffffffffffffffffffffffffffffffffffffff169060200190929190505050611879565b604051808215151515815260200191505060405180910390f35b3480156106e857600080fd5b5061071d600480360381019080803573ffffffffffffffffffffffffffffffffffffffff16906020019092919050505061191f565b604051808215151515815260200191505060405180910390f35b34801561074357600080fd5b5061074c611936565b6040518080602001828103825283818151815260200191508051906020019080838360005b8381101561078c578082015181840152602081019050610771565b50505050905090810190601f1680156107b95780820380516001836020036101000a031916815260200191505b509250505060405180910390f35b3480156107d357600080fd5b506107dc61196f565b6040518082815260200191505060405180910390f35b3480156107fe57600080fd5b5061081d60048036038101908080359060200190929190505050611979565b604051808215151515815260200191505060405180910390f35b34801561084357600080fd5b50610882600480360381019080803573ffffffffffffffffffffffffffffffffffffffff16906020019092919080359060200190929190505050611b88565b604051808215151515815260200191505060405180910390f35b3480156108a857600080fd5b506108b1611b9d565b604051808215151515815260200191505060405180910390f35b3480156108d757600080fd5b506108e0611c89565b604051808273ffffffffffffffffffffffffffffffffffffffff1673ffffffffffffffffffffffffffffffffffffffff16815260200191505060405180910390f35b34801561092e57600080fd5b50610937611d6c565b604051808215151515815260200191505060405180910390f35b34801561095d57600080fd5b50610966611d81565b60405180826000191660001916815260200191505060405180910390f35b34801561099057600080fd5b50610999611d87565b604051808215151515815260200191505060405180910390f35b3480156109bf57600080fd5b506109c8611fa5565b6040518082815260200191505060405180910390f35b3480156109ea57600080fd5b506109f3611fca565b604051808273ffffffffffffffffffffffffffffffffffffffff1673ffffffffffffffffffffffffffffffffffffffff16815260200191505060405180910390f35b348015610a4157600080fd5b50610a80600480360381019080803573ffffffffffffffffffffffffffffffffffffffff1690602001909291908035906020019092919050505061200f565b604051808215151515815260200191505060405180910390f35b348015610aa657600080fd5b50610aaf61247a565b6040518082815260200191505060405180910390f35b348015610ad157600080fd5b50610b10600480360381019080803573ffffffffffffffffffffffffffffffffffffffff1690602001909291908035906020019092919050505061249f565b604051808215151515815260200191505060405180910390f35b348015610b3657600080fd5b50610b5560048036038101908080359060200190929190505050612545565b604051808215151515815260200191505060405180910390f35b348015610b7b57600080fd5b50610b84612641565b6040518082815260200191505060405180910390f35b348015610ba657600080fd5b50610baf61264b565b60405180826000191660001916815260200191505060405180910390f35b348015610bd957600080fd5b50610c2e600480360381019080803573ffffffffffffffffffffffffffffffffffffffff169060200190929190803573ffffffffffffffffffffffffffffffffffffffff16906020019092919050505061268e565b6040518082815260200191505060405180910390f35b348015610c5057600080fd5b50610c59612715565b604051808215151515815260200191505060405180910390f35b6040805190810160405280601381526020017f50617274696369706174696f6e20546f6b656e0000000000000000000000000081525081565b6000610cb933848461272c565b506001905092915050565b6000600254905090565b6000600560009054906101000a900460ff161515610ceb57600080fd5b610cf3611fa5565b6000809054906101000a900473ffffffffffffffffffffffffffffffffffffffff1673ffffffffffffffffffffffffffffffffffffffff1663188ec3566040518163ffffffff167c0100000000000000000000000000000000000000000000000000000000028152600401602060405180830381600087803b158015610d7857600080fd5b505af1158015610d8c573d6000803e3d6000fd5b505050506040513d6020811015610da257600080fd5b8101908080519060200190929190505050111515610dc35760009050610ea0565b610dcb61104d565b6000809054906101000a900473ffffffffffffffffffffffffffffffffffffffff1673ffffffffffffffffffffffffffffffffffffffff1663188ec3566040518163ffffffff167c0100000000000000000000000000000000000000000000000000000000028152600401602060405180830381600087803b158015610e5057600080fd5b505af1158015610e64573d6000803e3d6000fd5b505050506040513d6020811015610e7a57600080fd5b8101908080519060200190929190505050101515610e9b5760009050610ea0565b600190505b90565b600080600460008673ffffffffffffffffffffffffffffffffffffffff1673ffffffffffffffffffffffffffffffffffffffff16815260200190815260200160002060003373ffffffffffffffffffffffffffffffffffffffff1673ffffffffffffffffffffffffffffffffffffffff1681526020019081526020016000205490507fffffffffffffffffffffffffffffffffffffffffffffffffffffffffffffffff81141515610fe257610f61838261281f90919063ffffffff16565b600460008773ffffffffffffffffffffffffffffffffffffffff1673ffffffffffffffffffffffffffffffffffffffff16815260200190815260200160002060003373ffffffffffffffffffffffffffffffffffffffff1673ffffffffffffffffffffffffffffffffffffffff168152602001908152602001600020819055505b610fed85858561283b565b5060019150509392505050565b6000600560009054906101000a900460ff16151561101757600080fd5b600754905090565b60008060009054906101000a900473ffffffffffffffffffffffffffffffffffffffff16905090565b600081565b6000600560009054906101000a900460ff16151561106a57600080fd5b61108b6110756129e3565b61107d611fa5565b6129ee90919063ffffffff16565b905090565b600080600061109d610cc4565b9150600d60009054906101000a900473ffffffffffffffffffffffffffffffffffffffff1673ffffffffffffffffffffffffffffffffffffffff166318160ddd6040518163ffffffff167c0100000000000000000000000000000000000000000000000000000000028152600401602060405180830381600087803b15801561112557600080fd5b505af1158015611139573d6000803e3d6000fd5b505050506040513d602081101561114f57600080fd5b8101908080519060200190929190505050905061117581836129ee90919063ffffffff16565b9250505090565b7fffffffffffffffffffffffffffffffffffffffffffffffffffffffffffffffff81565b600080600460003373ffffffffffffffffffffffffffffffffffffffff1673ffffffffffffffffffffffffffffffffffffffff16815260200190815260200160002060008573ffffffffffffffffffffffffffffffffffffffff1673ffffffffffffffffffffffffffffffffffffffff1681526020019081526020016000205490508083111561123c576112363385600061272c565b5061125b565b6112593385611254868561281f90919063ffffffff16565b61272c565b505b600191505092915050565b6000600360008373ffffffffffffffffffffffffffffffffffffffff1673ffffffffffffffffffffffffffffffffffffffff168152602001908152602001600020549050919050565b60008060009054906101000a900473ffffffffffffffffffffffffffffffffffffffff1673ffffffffffffffffffffffffffffffffffffffff166322763ae16040518163ffffffff167c0100000000000000000000000000000000000000000000000000000000028152600401602060405180830381600087803b15801561133657600080fd5b505af115801561134a573d6000803e3d6000fd5b505050506040513d602081101561136057600080fd5b8101908080519060200190929190505050151561137c57600080fd5b600560009054906101000a900460ff16151561139757600080fd5b600560019054906101000a900473ffffffffffffffffffffffffffffffffffffffff1673ffffffffffffffffffffffffffffffffffffffff163373ffffffffffffffffffffffffffffffffffffffff161415156113f357600080fd5b6113fd8383612a0f565b506001905092915050565b6000600560009054906101000a900460ff16151561142557600080fd5b600560019054906101000a900473ffffffffffffffffffffffffffffffffffffffff16905090565b6000806000809054906101000a900473ffffffffffffffffffffffffffffffffffffffff1673ffffffffffffffffffffffffffffffffffffffff166322763ae16040518163ffffffff167c0100000000000000000000000000000000000000000000000000000000028152600401602060405180830381600087803b1580156114d557600080fd5b505af11580156114e9573d6000803e3d6000fd5b505050506040513d60208110156114ff57600080fd5b8101908080519060200190929190505050151561151b57600080fd5b600560009054906101000a900460ff16151561153657600080fd5b339050600560019054906101000a900473ffffffffffffffffffffffffffffffffffffffff1673ffffffffffffffffffffffffffffffffffffffff16639f7e1bf6826040518263ffffffff167c0100000000000000000000000000000000000000000000000000000000028152600401808273ffffffffffffffffffffffffffffffffffffffff1673ffffffffffffffffffffffffffffffffffffffff168152602001915050602060405180830381600087803b1580156115f657600080fd5b505af115801561160a573d6000803e3d6000fd5b505050506040513d602081101561162057600080fd5b8101908080519060200190929190505050151561163c57600080fd5b60016007600082825401925050819055508073ffffffffffffffffffffffffffffffffffffffff166304be2f506040518163ffffffff167c0100000000000000000000000000000000000000000000000000000000028152600401602060405180830381600087803b1580156116b157600080fd5b505af11580156116c5573d6000803e3d6000fd5b505050506040513d60208110156116db57600080fd5b8101908080519060200190929190505050156117035760016008600082825401925050819055505b8073ffffffffffffffffffffffffffffffffffffffff16638ed882c56040518163ffffffff167c0100000000000000000000000000000000000000000000000000000000028152600401602060405180830381600087803b15801561176757600080fd5b505af115801561177b573d6000803e3d6000fd5b505050506040513d602081101561179157600080fd5b810190808051906020019092919050505015156117ba5760016009600082825401925050819055505b8073ffffffffffffffffffffffffffffffffffffffff16633bf8f34a6040518163ffffffff167c0100000000000000000000000000000000000000000000000000000000028152600401602060405180830381600087803b15801561181e57600080fd5b505af1158015611832573d6000803e3d6000fd5b505050506040513d602081101561184857600080fd5b81019080805190602001909291905050501515611871576001600a600082825401925050819055505b600191505090565b60008060009054906101000a900473ffffffffffffffffffffffffffffffffffffffff1673ffffffffffffffffffffffffffffffffffffffff163373ffffffffffffffffffffffffffffffffffffffff161415156118d657600080fd5b816000806101000a81548173ffffffffffffffffffffffffffffffffffffffff021916908373ffffffffffffffffffffffffffffffffffffffff16021790555060019050919050565b600061192c826000612d15565b5060019050919050565b6040805190810160405280600281526020017f505400000000000000000000000000000000000000000000000000000000000081525081565b6000600954905090565b6000600560019054906101000a900473ffffffffffffffffffffffffffffffffffffffff1673ffffffffffffffffffffffffffffffffffffffff1663f76514c7336040518263ffffffff167c0100000000000000000000000000000000000000000000000000000000028152600401808273ffffffffffffffffffffffffffffffffffffffff1673ffffffffffffffffffffffffffffffffffffffff168152602001915050602060405180830381600087803b158015611a3857600080fd5b505af1158015611a4c573d6000803e3d6000fd5b505050506040513d6020811015611a6257600080fd5b81019080805190602001909291905050501515611a7e57600080fd5b600d60009054906101000a900473ffffffffffffffffffffffffffffffffffffffff1673ffffffffffffffffffffffffffffffffffffffff1663a00ce6a533846040518363ffffffff167c0100000000000000000000000000000000000000000000000000000000028152600401808373ffffffffffffffffffffffffffffffffffffffff1673ffffffffffffffffffffffffffffffffffffffff16815260200182815260200192505050602060405180830381600087803b158015611b4357600080fd5b505af1158015611b57573d6000803e3d6000fd5b505050506040513d6020811015611b6d57600080fd5b81019080805190602001909291905050505060019050919050565b6000611b9533848461283b565b905092915050565b6000600560009054906101000a900460ff161515611bba57600080fd5b611bc261104d565b6000809054906101000a900473ffffffffffffffffffffffffffffffffffffffff1673ffffffffffffffffffffffffffffffffffffffff1663188ec3566040518163ffffffff167c0100000000000000000000000000000000000000000000000000000000028152600401602060405180830381600087803b158015611c4757600080fd5b505af1158015611c5b573d6000803e3d6000fd5b505050506040513d6020811015611c7157600080fd5b81019080805190602001909291905050501015905090565b6000600560009054906101000a900460ff161515611ca657600080fd5b600560019054906101000a900473ffffffffffffffffffffffffffffffffffffffff1673ffffffffffffffffffffffffffffffffffffffff1663b80907f26040518163ffffffff167c0100000000000000000000000000000000000000000000000000000000028152600401602060405180830381600087803b158015611d2c57600080fd5b505af1158015611d40573d6000803e3d6000fd5b505050506040513d6020811015611d5657600080fd5b8101908080519060200190929190505050905090565b6000611d79336001612d15565b506001905090565b60015481565b6000806000809054906101000a900473ffffffffffffffffffffffffffffffffffffffff1673ffffffffffffffffffffffffffffffffffffffff16633b0481236040518163ffffffff167c0100000000000000000000000000000000000000000000000000000000028152600401602060405180830381600087803b158015611e0f57600080fd5b505af1158015611e23573d6000803e3d6000fd5b505050506040513d6020811015611e3957600080fd5b81019080805190602001909291905050501515611e5557600080fd5b600360003373ffffffffffffffffffffffffffffffffffffffff1673ffffffffffffffffffffffffffffffffffffffff168152602001908152602001600020549050600081141515611f9d57611eab338261375d565b50611eb4611c89565b73ffffffffffffffffffffffffffffffffffffffff1663a9059cbb33836040518363ffffffff167c0100000000000000000000000000000000000000000000000000000000028152600401808373ffffffffffffffffffffffffffffffffffffffff1673ffffffffffffffffffffffffffffffffffffffff16815260200182815260200192505050602060405180830381600087803b158015611f5657600080fd5b505af1158015611f6a573d6000803e3d6000fd5b505050506040513d6020811015611f8057600080fd5b81019080805190602001909291905050501515611f9c57600080fd5b5b600191505090565b6000600560009054906101000a900460ff161515611fc257600080fd5b600654905090565b6000600560009054906101000a900460ff161515611fe757600080fd5b600d60009054906101000a900473ffffffffffffffffffffffffffffffffffffffff16905090565b60008060009054906101000a900473ffffffffffffffffffffffffffffffffffffffff1673ffffffffffffffffffffffffffffffffffffffff166322763ae16040518163ffffffff167c0100000000000000000000000000000000000000000000000000000000028152600401602060405180830381600087803b15801561209657600080fd5b505af11580156120aa573d6000803e3d6000fd5b505050506040513d60208110156120c057600080fd5b810190808051906020019092919050505015156120dc57600080fd5b600560009054906101000a900460ff161515156120f857600080fd5b612100613872565b5082600560016101000a81548173ffffffffffffffffffffffffffffffffffffffff021916908373ffffffffffffffffffffffffffffffffffffffff160217905550612215600560019054906101000a900473ffffffffffffffffffffffffffffffffffffffff1673ffffffffffffffffffffffffffffffffffffffff1663331172f36040518163ffffffff167c0100000000000000000000000000000000000000000000000000000000028152600401602060405180830381600087803b1580156121cb57600080fd5b505af11580156121df573d6000803e3d6000fd5b505050506040513d60208110156121f557600080fd5b8101908080519060200190929190505050836138b290919063ffffffff16565b6006819055506000809054906101000a900473ffffffffffffffffffffffffffffffffffffffff1673ffffffffffffffffffffffffffffffffffffffff1663f39ec1f76040518163ffffffff167c010000000000000000000000000000000000000000000000000000000002815260040180807f466565546f6b656e466163746f727900000000000000000000000000000000008152506020019050602060405180830381600087803b1580156122cb57600080fd5b505af11580156122df573d6000803e3d6000fd5b505050506040513d60208110156122f557600080fd5b810190808051906020019092919050505073ffffffffffffffffffffffffffffffffffffffff16631e9e9dd46000809054906101000a900473ffffffffffffffffffffffffffffffffffffffff16306040518363ffffffff167c0100000000000000000000000000000000000000000000000000000000028152600401808373ffffffffffffffffffffffffffffffffffffffff1673ffffffffffffffffffffffffffffffffffffffff1681526020018273ffffffffffffffffffffffffffffffffffffffff1673ffffffffffffffffffffffffffffffffffffffff16815260200192505050602060405180830381600087803b1580156123f557600080fd5b505af1158015612409573d6000803e3d6000fd5b505050506040513d602081101561241f57600080fd5b8101908080519060200190929190505050600d60006101000a81548173ffffffffffffffffffffffffffffffffffffffff021916908373ffffffffffffffffffffffffffffffffffffffff1602179055506001905092915050565b6000600560009054906101000a900460ff16151561249757600080fd5b600854905090565b600061253a338461253585600460003373ffffffffffffffffffffffffffffffffffffffff1673ffffffffffffffffffffffffffffffffffffffff16815260200190815260200160002060008973ffffffffffffffffffffffffffffffffffffffff1673ffffffffffffffffffffffffffffffffffffffff168152602001908152602001600020546129ee90919063ffffffff16565b61272c565b506001905092915050565b60008060009054906101000a900473ffffffffffffffffffffffffffffffffffffffff1673ffffffffffffffffffffffffffffffffffffffff166322763ae16040518163ffffffff167c0100000000000000000000000000000000000000000000000000000000028152600401602060405180830381600087803b1580156125cc57600080fd5b505af11580156125e0573d6000803e3d6000fd5b505050506040513d60208110156125f657600080fd5b8101908080519060200190929190505050151561261257600080fd5b600560009054906101000a900460ff16151561262d57600080fd5b6126373383612a0f565b5060019050919050565b6000600a54905090565b6000600560009054906101000a900460ff16151561266857600080fd5b7f46656557696e646f770000000000000000000000000000000000000000000000905090565b6000600460008473ffffffffffffffffffffffffffffffffffffffff1673ffffffffffffffffffffffffffffffffffffffff16815260200190815260200160002060008373ffffffffffffffffffffffffffffffffffffffff1673ffffffffffffffffffffffffffffffffffffffff16815260200190815260200160002054905092915050565b6000600560009054906101000a900460ff16905090565b600081600460008673ffffffffffffffffffffffffffffffffffffffff1673ffffffffffffffffffffffffffffffffffffffff16815260200190815260200160002060008573ffffffffffffffffffffffffffffffffffffffff1673ffffffffffffffffffffffffffffffffffffffff168152602001908152602001600020819055508273ffffffffffffffffffffffffffffffffffffffff168473ffffffffffffffffffffffffffffffffffffffff167f8c5be1e5ebec7d5bd14f71427d1e84f3dd0314c0f7b2291e5b200ac8c7c3b925846040518082815260200191505060405180910390a3600190509392505050565b600082821115151561283057600080fd5b818303905092915050565b600061288f82600360008773ffffffffffffffffffffffffffffffffffffffff1673ffffffffffffffffffffffffffffffffffffffff1681526020019081526020016000205461281f90919063ffffffff16565b600360008673ffffffffffffffffffffffffffffffffffffffff1673ffffffffffffffffffffffffffffffffffffffff1681526020019081526020016000208190555061292482600360008673ffffffffffffffffffffffffffffffffffffffff1673ffffffffffffffffffffffffffffffffffffffff168152602001908152602001600020546129ee90919063ffffffff16565b600360008573ffffffffffffffffffffffffffffffffffffffff1673ffffffffffffffffffffffffffffffffffffffff168152602001908152602001600020819055508273ffffffffffffffffffffffffffffffffffffffff168473ffffffffffffffffffffffffffffffffffffffff167fddf252ad1be2c89b69c2b068fc378daa952ba7f163c4a11628f55a4df523b3ef846040518082815260200191505060405180910390a36129d78484846138e8565b50600190509392505050565b600062093a80905090565b6000808284019050838110151515612a0557600080fd5b8091505092915050565b60008060009054906101000a900473ffffffffffffffffffffffffffffffffffffffff1673ffffffffffffffffffffffffffffffffffffffff166322763ae16040518163ffffffff167c0100000000000000000000000000000000000000000000000000000000028152600401602060405180830381600087803b158015612a9657600080fd5b505af1158015612aaa573d6000803e3d6000fd5b505050506040513d6020811015612ac057600080fd5b81019080805190602001909291905050501515612adc57600080fd5b600560009054906101000a900460ff161515612af757600080fd5b600082111515612b0657600080fd5b612b0e610cce565b1515612b1957600080fd5b600560019054906101000a900473ffffffffffffffffffffffffffffffffffffffff1673ffffffffffffffffffffffffffffffffffffffff1663becb1f356040518163ffffffff167c0100000000000000000000000000000000000000000000000000000000028152600401602060405180830381600087803b158015612b9f57600080fd5b505af1158015612bb3573d6000803e3d6000fd5b505050506040513d6020811015612bc957600080fd5b8101908080519060200190929190505050151515612be657600080fd5b612bee611c89565b73ffffffffffffffffffffffffffffffffffffffff166390fbf84e8430856040518463ffffffff167c0100000000000000000000000000000000000000000000000000000000028152600401808473ffffffffffffffffffffffffffffffffffffffff1673ffffffffffffffffffffffffffffffffffffffff1681526020018373ffffffffffffffffffffffffffffffffffffffff1673ffffffffffffffffffffffffffffffffffffffff1681526020018281526020019350505050602060405180830381600087803b158015612cc457600080fd5b505af1158015612cd8573d6000803e3d6000fd5b505050506040513d6020811015612cee57600080fd5b810190808051906020019092919050505050612d0a8383613b1d565b506001905092915050565b600080600080600080600080612d29611b9d565b80612df15750600560019054906101000a900473ffffffffffffffffffffffffffffffffffffffff1673ffffffffffffffffffffffffffffffffffffffff1663becb1f356040518163ffffffff167c0100000000000000000000000000000000000000000000000000000000028152600401602060405180830381600087803b158015612db557600080fd5b505af1158015612dc9573d6000803e3d6000fd5b505050506040513d6020811015612ddf57600080fd5b81019080805190602001909291905050505b1515612dfc57600080fd5b600360008b73ffffffffffffffffffffffffffffffffffffffff1673ffffffffffffffffffffffffffffffffffffffff168152602001908152602001600020549650600d60009054906101000a900473ffffffffffffffffffffffffffffffffffffffff1673ffffffffffffffffffffffffffffffffffffffff166370a082318b6040518263ffffffff167c0100000000000000000000000000000000000000000000000000000000028152600401808273ffffffffffffffffffffffffffffffffffffffff1673ffffffffffffffffffffffffffffffffffffffff168152602001915050602060405180830381600087803b158015612efb57600080fd5b505af1158015612f0f573d6000803e3d6000fd5b505050506040513d6020811015612f2557600080fd5b81019080805190602001909291905050509550612f4b86886129ee90919063ffffffff16565b9450612f55611090565b935060008714151561305d57612f6b8a8861375d565b50612f74611c89565b73ffffffffffffffffffffffffffffffffffffffff1663a9059cbb8b896040518363ffffffff167c0100000000000000000000000000000000000000000000000000000000028152600401808373ffffffffffffffffffffffffffffffffffffffff1673ffffffffffffffffffffffffffffffffffffffff16815260200182815260200192505050602060405180830381600087803b15801561301657600080fd5b505af115801561302a573d6000803e3d6000fd5b505050506040513d602081101561304057600080fd5b8101908080519060200190929190505050151561305c57600080fd5b5b60008614151561316957600d60009054906101000a900473ffffffffffffffffffffffffffffffffffffffff1673ffffffffffffffffffffffffffffffffffffffff1663f7862ec28b886040518363ffffffff167c0100000000000000000000000000000000000000000000000000000000028152600401808373ffffffffffffffffffffffffffffffffffffffff1673ffffffffffffffffffffffffffffffffffffffff16815260200182815260200192505050602060405180830381600087803b15801561312c57600080fd5b505af1158015613140573d6000803e3d6000fd5b505050506040513d602081101561315657600080fd5b8101908080519060200190929190505050505b600084141561317b5760019750613750565b6000809054906101000a900473ffffffffffffffffffffffffffffffffffffffff1673ffffffffffffffffffffffffffffffffffffffff1663f39ec1f76040518163ffffffff167c010000000000000000000000000000000000000000000000000000000002815260040180807f43617368000000000000000000000000000000000000000000000000000000008152506020019050602060405180830381600087803b15801561322b57600080fd5b505af115801561323f573d6000803e3d6000fd5b505050506040513d602081101561325557600080fd5b810190808051906020019092919050505092508273ffffffffffffffffffffffffffffffffffffffff166370a08231306040518263ffffffff167c0100000000000000000000000000000000000000000000000000000000028152600401808273ffffffffffffffffffffffffffffffffffffffff1673ffffffffffffffffffffffffffffffffffffffff168152602001915050602060405180830381600087803b15801561330357600080fd5b505af1158015613317573d6000803e3d6000fd5b505050506040513d602081101561332d57600080fd5b810190808051906020019092919050505091506133658461335787856138b290919063ffffffff16565b613c3290919063ffffffff16565b90506000811115613545578815613464578273ffffffffffffffffffffffffffffffffffffffff1663a9059cbb8b836040518363ffffffff167c0100000000000000000000000000000000000000000000000000000000028152600401808373ffffffffffffffffffffffffffffffffffffffff1673ffffffffffffffffffffffffffffffffffffffff16815260200182815260200192505050602060405180830381600087803b15801561341957600080fd5b505af115801561342d573d6000803e3d6000fd5b505050506040513d602081101561344357600080fd5b8101908080519060200190929190505050151561345f57600080fd5b613544565b8273ffffffffffffffffffffffffffffffffffffffff16631baffe388b836040518363ffffffff167c0100000000000000000000000000000000000000000000000000000000028152600401808373ffffffffffffffffffffffffffffffffffffffff1673ffffffffffffffffffffffffffffffffffffffff16815260200182815260200192505050602060405180830381600087803b15801561350757600080fd5b505af115801561351b573d6000803e3d6000fd5b505050506040513d602081101561353157600080fd5b8101908080519060200190929190505050505b5b600087111561374b576000809054906101000a900473ffffffffffffffffffffffffffffffffffffffff1673ffffffffffffffffffffffffffffffffffffffff16634e94c8296040518163ffffffff167c0100000000000000000000000000000000000000000000000000000000028152600401602060405180830381600087803b1580156135d357600080fd5b505af11580156135e7573d6000803e3d6000fd5b505050506040513d60208110156135fd57600080fd5b810190808051906020019092919050505073ffffffffffffffffffffffffffffffffffffffff16633b186bfc600560019054906101000a900473ffffffffffffffffffffffffffffffffffffffff168c8a856040518563ffffffff167c0100000000000000000000000000000000000000000000000000000000028152600401808573ffffffffffffffffffffffffffffffffffffffff1673ffffffffffffffffffffffffffffffffffffffff1681526020018473ffffffffffffffffffffffffffffffffffffffff1673ffffffffffffffffffffffffffffffffffffffff168152602001838152602001828152602001945050505050602060405180830381600087803b15801561370e57600080fd5b505af1158015613722573d6000803e3d6000fd5b505050506040513d602081101561373857600080fd5b8101908080519060200190929190505050505b600197505b5050505050505092915050565b60006137b182600360008673ffffffffffffffffffffffffffffffffffffffff1673ffffffffffffffffffffffffffffffffffffffff1681526020019081526020016000205461281f90919063ffffffff16565b600360008573ffffffffffffffffffffffffffffffffffffffff1673ffffffffffffffffffffffffffffffffffffffff168152602001908152602001600020819055506138098260025461281f90919063ffffffff16565b6002819055508273ffffffffffffffffffffffffffffffffffffffff167fcc16f5dbb4873280815c1ee09dbd06736cffcc184412cf7a71a0fdb75d397ca5836040518082815260200191505060405180910390a26138678383613c4d565b506001905092915050565b6000600560009054906101000a900460ff1615151561389057600080fd5b6001600560006101000a81548160ff0219169083151502179055506001905090565b600080828402905060008414806138d357508284828115156138d057fe5b04145b15156138de57600080fd5b8091505092915050565b60008060009054906101000a900473ffffffffffffffffffffffffffffffffffffffff1673ffffffffffffffffffffffffffffffffffffffff16634e94c8296040518163ffffffff167c0100000000000000000000000000000000000000000000000000000000028152600401602060405180830381600087803b15801561396f57600080fd5b505af1158015613983573d6000803e3d6000fd5b505050506040513d602081101561399957600080fd5b810190808051906020019092919050505073ffffffffffffffffffffffffffffffffffffffff1663788873ea600560019054906101000a900473ffffffffffffffffffffffffffffffffffffffff168686866040518563ffffffff167c0100000000000000000000000000000000000000000000000000000000028152600401808573ffffffffffffffffffffffffffffffffffffffff1673ffffffffffffffffffffffffffffffffffffffff1681526020018473ffffffffffffffffffffffffffffffffffffffff1673ffffffffffffffffffffffffffffffffffffffff1681526020018373ffffffffffffffffffffffffffffffffffffffff1673ffffffffffffffffffffffffffffffffffffffff168152602001828152602001945050505050602060405180830381600087803b158015613ad657600080fd5b505af1158015613aea573d6000803e3d6000fd5b505050506040513d6020811015613b0057600080fd5b810190808051906020019092919050505050600190509392505050565b6000613b7182600360008673ffffffffffffffffffffffffffffffffffffffff1673ffffffffffffffffffffffffffffffffffffffff168152602001908152602001600020546129ee90919063ffffffff16565b600360008573ffffffffffffffffffffffffffffffffffffffff1673ffffffffffffffffffffffffffffffffffffffff16815260200190815260200160002081905550613bc9826002546129ee90919063ffffffff16565b6002819055508273ffffffffffffffffffffffffffffffffffffffff167f0f6798a560793a54c3bcfe86a93cde1e73087d944c0ea20544137d4121396885836040518082815260200191505060405180910390a2613c278383613e4d565b506001905092915050565b6000808284811515613c4057fe5b0490508091505092915050565b60008060009054906101000a900473ffffffffffffffffffffffffffffffffffffffff1673ffffffffffffffffffffffffffffffffffffffff16634e94c8296040518163ffffffff167c0100000000000000000000000000000000000000000000000000000000028152600401602060405180830381600087803b158015613cd457600080fd5b505af1158015613ce8573d6000803e3d6000fd5b505050506040513d6020811015613cfe57600080fd5b810190808051906020019092919050505073ffffffffffffffffffffffffffffffffffffffff1663542e9b18600560019054906101000a900473ffffffffffffffffffffffffffffffffffffffff1685856040518463ffffffff167c0100000000000000000000000000000000000000000000000000000000028152600401808473ffffffffffffffffffffffffffffffffffffffff1673ffffffffffffffffffffffffffffffffffffffff1681526020018373ffffffffffffffffffffffffffffffffffffffff1673ffffffffffffffffffffffffffffffffffffffff1681526020018281526020019350505050602060405180830381600087803b158015613e0757600080fd5b505af1158015613e1b573d6000803e3d6000fd5b505050506040513d6020811015613e3157600080fd5b8101908080519060200190929190505050506001905092915050565b60008060009054906101000a900473ffffffffffffffffffffffffffffffffffffffff1673ffffffffffffffffffffffffffffffffffffffff16634e94c8296040518163ffffffff167c0100000000000000000000000000000000000000000000000000000000028152600401602060405180830381600087803b158015613ed457600080fd5b505af1158015613ee8573d6000803e3d6000fd5b505050506040513d6020811015613efe57600080fd5b810190808051906020019092919050505073ffffffffffffffffffffffffffffffffffffffff166360fe103e600560019054906101000a900473ffffffffffffffffffffffffffffffffffffffff1685856040518463ffffffff167c0100000000000000000000000000000000000000000000000000000000028152600401808473ffffffffffffffffffffffffffffffffffffffff1673ffffffffffffffffffffffffffffffffffffffff1681526020018373ffffffffffffffffffffffffffffffffffffffff1673ffffffffffffffffffffffffffffffffffffffff1681526020018281526020019350505050602060405180830381600087803b15801561400757600080fd5b505af115801561401b573d6000803e3d6000fd5b505050506040513d602081101561403157600080fd5b81019080805190602001909291905050505060019050929150505600a165627a7a7230582028b34e3a9bd21bd6b12f139929bbb3deda647c5aba50ec948f9013b6451955d50029",
  "source": "// Copyright (C) 2015 Forecast Foundation OU, full GPL notice in LICENSE\n\npragma solidity ^0.4.22;\n\n\nimport './../reporting/IFeeWindow.sol';\nimport './../libraries/DelegationTarget.sol';\nimport './../libraries/Initializable.sol';\nimport './../reporting/IUniverse.sol';\nimport './../reporting/IReputationToken.sol';\nimport './../reporting/IMarket.sol';\nimport './../trading/ICash.sol';\nimport './../factories/MarketFactory.sol';\nimport './../reporting/Reporting.sol';\nimport './../libraries/math/SafeMathUint256.sol';\nimport './../reporting/IFeeWindow.sol';\nimport './../libraries/token/VariableSupplyToken.sol';\nimport './../reporting/IFeeToken.sol';\nimport './../factories/FeeTokenFactory.sol';\n\n\ncontract FeeWindow is DelegationTarget, VariableSupplyToken, Initializable, IFeeWindow {\n    using SafeMathUint256 for uint256;\n\n    string constant public name = \"Participation Token\";\n    string constant public symbol = \"PT\";\n    uint8 constant public decimals = 0;\n\n    IUniverse private universe;\n    uint256 private startTime;\n    uint256 private numMarkets;\n    uint256 private invalidMarketsCount;\n    uint256 private incorrectDesignatedReportMarketCount;\n    uint256 private designatedReportNoShows;\n    uint256 private totalWinningStake;\n    uint256 private totalStake;\n    IFeeToken private feeToken;\n\n    function initialize(IUniverse _universe, uint256 _feeWindowId) public onlyInGoodTimes beforeInitialized returns (bool) {\n        endInitialization();\n        universe = _universe;\n        startTime = _feeWindowId.mul(universe.getDisputeRoundDurationInSeconds());\n        feeToken = FeeTokenFactory(controller.lookup(\"FeeTokenFactory\")).createFeeToken(controller, this);\n        return true;\n    }\n\n    function onMarketFinalized() public onlyInGoodTimes afterInitialized returns (bool) {\n        IMarket _market = IMarket(msg.sender);\n        require(universe.isContainerForMarket(_market));\n        numMarkets += 1;\n        if (_market.isInvalid()) {\n            invalidMarketsCount += 1;\n        }\n        if (!_market.designatedReporterWasCorrect()) {\n            incorrectDesignatedReportMarketCount += 1;\n        }\n        if (!_market.designatedReporterShowed()) {\n            designatedReportNoShows += 1;\n        }\n        return true;\n    }\n\n    function buy(uint256 _attotokens) public onlyInGoodTimes afterInitialized returns (bool) {\n        buyInternal(msg.sender, _attotokens);\n        return true;\n    }\n\n    function trustedUniverseBuy(address _buyer, uint256 _attotokens) public onlyInGoodTimes afterInitialized returns (bool) {\n        require(IUniverse(msg.sender) == universe);\n        buyInternal(_buyer, _attotokens);\n        return true;\n    }\n\n    function buyInternal(address _buyer, uint256 _attotokens) private onlyInGoodTimes afterInitialized returns (bool) {\n        require(_attotokens > 0);\n        require(isActive());\n        require(!universe.isForking());\n        getReputationToken().trustedFeeWindowTransfer(_buyer, this, _attotokens);\n        mint(_buyer, _attotokens);\n        return true;\n    }\n\n    function redeemForReportingParticipant() public returns (bool) {\n        redeemInternal(msg.sender, true);\n        return true;\n    }\n\n    function redeem(address _sender) public returns (bool) {\n        redeemInternal(_sender, false);\n        return true;\n    }\n\n    function redeemInternal(address _sender, bool _isReportingParticipant) private returns (bool) {\n        require(isOver() || universe.isForking());\n\n        uint256 _attoParticipationTokens = balances[_sender];\n        uint256 _attoFeeTokens = feeToken.balanceOf(_sender);\n        uint256 _totalTokens = _attoParticipationTokens.add(_attoFeeTokens);\n\n        uint256 _totalFeeStake = getTotalFeeStake();\n\n        if (_attoParticipationTokens != 0) {\n            burn(_sender, _attoParticipationTokens);\n            require(getReputationToken().transfer(_sender, _attoParticipationTokens));\n        }\n\n        if (_attoFeeTokens != 0) {\n            feeToken.feeWindowBurn(_sender, _attoFeeTokens);\n        }\n\n        if (_totalFeeStake == 0) {\n            return true;\n        }\n\n        // CASH\n        ICash _cash = ICash(controller.lookup(\"Cash\"));\n        uint256 _balance = _cash.balanceOf(this);\n        uint256 _feePayoutShare = _balance.mul(_totalTokens).div(_totalFeeStake);\n\n        if (_feePayoutShare > 0) {\n            // We can't use the cash.withdrawEtherTo method as the ReportingParticipants are delegated and the fallback function has special behavior that will fail\n            if (_isReportingParticipant) {\n                require(_cash.transfer(_sender, _feePayoutShare));\n            } else {\n                _cash.withdrawEtherTo(_sender, _feePayoutShare);\n            }\n        }\n        if (_attoParticipationTokens > 0) {\n            controller.getAugur().logFeeWindowRedeemed(universe, _sender, _attoParticipationTokens, _feePayoutShare);\n        }\n        return true;\n    }\n\n    function withdrawInEmergency() public onlyInBadTimes returns (bool) {\n        uint256 _attotokens = balances[msg.sender];\n        if (_attotokens != 0) {\n            burn(msg.sender, _attotokens);\n            require(getReputationToken().transfer(msg.sender, _attotokens));\n        }\n        return true;\n    }\n\n    function mintFeeTokens(uint256 _amount) public returns (bool) {\n        require(universe.isContainerForReportingParticipant(IReportingParticipant(msg.sender)));\n        feeToken.mintForReportingParticipant(msg.sender, _amount);\n        return true;\n    }\n\n    function getTotalFeeStake() public view returns (uint256) {\n        uint256 _totalParticipationSupply = totalSupply();\n        uint256 _totalFeeSupply = feeToken.totalSupply();\n        return _totalParticipationSupply.add(_totalFeeSupply);\n    }\n\n    function getTypeName() public afterInitialized view returns (bytes32) {\n        return \"FeeWindow\";\n    }\n\n    function getUniverse() public afterInitialized view returns (IUniverse) {\n        return universe;\n    }\n\n    function getNumMarkets() public afterInitialized view returns (uint256) {\n        return numMarkets;\n    }\n\n    function getReputationToken() public afterInitialized view returns (IReputationToken) {\n        return universe.getReputationToken();\n    }\n\n    function getStartTime() public afterInitialized view returns (uint256) {\n        return startTime;\n    }\n\n    function getEndTime() public afterInitialized view returns (uint256) {\n        return getStartTime().add(Reporting.getDisputeRoundDurationSeconds());\n    }\n\n    function getFeeToken() public afterInitialized view returns (IFeeToken) {\n        return feeToken;\n    }\n\n    function getNumInvalidMarkets() public afterInitialized view returns (uint256) {\n        return invalidMarketsCount;\n    }\n\n    function getNumIncorrectDesignatedReportMarkets() public view returns (uint256) {\n        return incorrectDesignatedReportMarketCount;\n    }\n\n    function getNumDesignatedReportNoShows() public view returns (uint256) {\n        return designatedReportNoShows;\n    }\n\n    function isActive() public afterInitialized view returns (bool) {\n        if (controller.getTimestamp() <= getStartTime()) {\n            return false;\n        }\n        if (controller.getTimestamp() >= getEndTime()) {\n            return false;\n        }\n        return true;\n    }\n\n    function isOver() public afterInitialized view returns (bool) {\n        return controller.getTimestamp() >= getEndTime();\n    }\n\n    function onTokenTransfer(address _from, address _to, uint256 _value) internal returns (bool) {\n        controller.getAugur().logFeeWindowTransferred(universe, _from, _to, _value);\n        return true;\n    }\n\n    function onMint(address _target, uint256 _amount) internal returns (bool) {\n        controller.getAugur().logFeeWindowMinted(universe, _target, _amount);\n        return true;\n    }\n\n    function onBurn(address _target, uint256 _amount) internal returns (bool) {\n        controller.getAugur().logFeeWindowBurned(universe, _target, _amount);\n        return true;\n    }\n}\n",
  "sourcePath": "/Users/jasperdegooijer/Documents/flux/augurSets/AugurSets/libraries/augur/source/contracts/reporting/FeeWindow.sol",
  "compiler": {
    "name": "solc",
    "version": "0.4.22+commit.4cb486ee.Emscripten.clang"
  },
  "schemaVersion": "3.0.1",
  "updatedAt": "2019-07-15T12:03:29.506Z",
  "devdoc": {
    "methods": {
      "allowance(address,address)": {
        "details": "Function to check the amount of tokens that an owner allowed to a spender.",
        "params": {
          "_owner": "address The address which owns the funds.",
          "_spender": "address The address which will spend the funds."
        },
        "return": "A uint256 specifing the amount of tokens still avaible for the spender."
      },
      "approve(address,uint256)": {
        "details": "Aprove the passed address to spend the specified amount of tokens on behalf of msg.sender.",
        "params": {
          "_spender": "The address which will spend the funds.",
          "_value": "The amount of tokens to be spent."
        }
      },
      "balanceOf(address)": {
        "details": "Gets the balance of the specified address.",
        "params": {
          "_owner": "The address to query the the balance of."
        },
        "return": "An uint256 representing the amount owned by the passed address."
      },
      "decreaseApproval(address,uint256)": {
        "details": "Decrease the amount of tokens that an owner allowed to a spender.   * approve should be called when allowed[_spender] == 0. To decrement allowed value is better to use this function to avoid 2 calls (and wait until the first transaction is mined)",
        "params": {
          "_spender": "The address which will spend the funds.",
          "_subtractedValue": "The amount of tokens to decrease the allowance by."
        }
      },
      "increaseApproval(address,uint256)": {
        "details": "Increase the amount of tokens that an owner allowed to a spender.   * Approve should be called when allowed[_spender] == 0. To increment allowed value is better to use this function to avoid 2 calls (and wait until the first transaction is mined)",
        "params": {
          "_addedValue": "The amount of tokens to increase the allowance by.",
          "_spender": "The address which will spend the funds."
        }
      },
      "transfer(address,uint256)": {
        "details": "transfer token for a specified address",
        "params": {
          "_to": "The address to transfer to.",
          "_value": "The amount to be transferred."
        }
      },
      "transferFrom(address,address,uint256)": {
        "details": "Transfer tokens from one address to another",
        "params": {
          "_from": "address The address which you want to send tokens from",
          "_to": "address The address which you want to transfer to",
          "_value": "uint256 the amout of tokens to be transfered"
        }
      }
    }
  },
  "userdoc": {
    "methods": {}
  }
}