{
  "contractName": "Map",
  "abi": [
    {
      "constant": true,
      "inputs": [],
      "name": "getController",
      "outputs": [
        {
          "name": "",
          "type": "address"
        }
      ],
      "payable": false,
      "stateMutability": "view",
      "type": "function"
    },
    {
      "constant": true,
      "inputs": [],
      "name": "getOwner",
      "outputs": [
        {
          "name": "",
          "type": "address"
        }
      ],
      "payable": false,
      "stateMutability": "view",
      "type": "function"
    },
    {
      "constant": false,
      "inputs": [
        {
          "name": "_controller",
          "type": "address"
        }
      ],
      "name": "setController",
      "outputs": [
        {
          "name": "",
          "type": "bool"
        }
      ],
      "payable": false,
      "stateMutability": "nonpayable",
      "type": "function"
    },
    {
      "constant": true,
      "inputs": [],
      "name": "controllerLookupName",
      "outputs": [
        {
          "name": "",
          "type": "bytes32"
        }
      ],
      "payable": false,
      "stateMutability": "view",
      "type": "function"
    },
    {
      "constant": true,
      "inputs": [],
      "name": "getInitialized",
      "outputs": [
        {
          "name": "",
          "type": "bool"
        }
      ],
      "payable": false,
      "stateMutability": "view",
      "type": "function"
    },
    {
      "constant": false,
      "inputs": [
        {
          "name": "_newOwner",
          "type": "address"
        }
      ],
      "name": "transferOwnership",
      "outputs": [
        {
          "name": "",
          "type": "bool"
        }
      ],
      "payable": false,
      "stateMutability": "nonpayable",
      "type": "function"
    },
    {
      "constant": false,
      "inputs": [
        {
          "name": "_owner",
          "type": "address"
        }
      ],
      "name": "initialize",
      "outputs": [
        {
          "name": "",
          "type": "bool"
        }
      ],
      "payable": false,
      "stateMutability": "nonpayable",
      "type": "function"
    },
    {
      "constant": false,
      "inputs": [
        {
          "name": "_key",
          "type": "bytes32"
        },
        {
          "name": "_value",
          "type": "address"
        }
      ],
      "name": "add",
      "outputs": [
        {
          "name": "",
          "type": "bool"
        }
      ],
      "payable": false,
      "stateMutability": "nonpayable",
      "type": "function"
    },
    {
      "constant": false,
      "inputs": [
        {
          "name": "_key",
          "type": "bytes32"
        },
        {
          "name": "_value",
          "type": "bytes32"
        }
      ],
      "name": "add",
      "outputs": [
        {
          "name": "",
          "type": "bool"
        }
      ],
      "payable": false,
      "stateMutability": "nonpayable",
      "type": "function"
    },
    {
      "constant": false,
      "inputs": [
        {
          "name": "_key",
          "type": "bytes32"
        }
      ],
      "name": "remove",
      "outputs": [
        {
          "name": "",
          "type": "bool"
        }
      ],
      "payable": false,
      "stateMutability": "nonpayable",
      "type": "function"
    },
    {
      "constant": true,
      "inputs": [
        {
          "name": "_key",
          "type": "bytes32"
        }
      ],
      "name": "getValueOrZero",
      "outputs": [
        {
          "name": "",
          "type": "bytes32"
        }
      ],
      "payable": false,
      "stateMutability": "view",
      "type": "function"
    },
    {
      "constant": true,
      "inputs": [
        {
          "name": "_key",
          "type": "bytes32"
        }
      ],
      "name": "get",
      "outputs": [
        {
          "name": "",
          "type": "bytes32"
        }
      ],
      "payable": false,
      "stateMutability": "view",
      "type": "function"
    },
    {
      "constant": true,
      "inputs": [
        {
          "name": "_key",
          "type": "bytes32"
        }
      ],
      "name": "getAsAddressOrZero",
      "outputs": [
        {
          "name": "",
          "type": "address"
        }
      ],
      "payable": false,
      "stateMutability": "view",
      "type": "function"
    },
    {
      "constant": true,
      "inputs": [
        {
          "name": "_key",
          "type": "bytes32"
        }
      ],
      "name": "getAsAddress",
      "outputs": [
        {
          "name": "",
          "type": "address"
        }
      ],
      "payable": false,
      "stateMutability": "view",
      "type": "function"
    },
    {
      "constant": true,
      "inputs": [
        {
          "name": "_key",
          "type": "bytes32"
        }
      ],
      "name": "contains",
      "outputs": [
        {
          "name": "",
          "type": "bool"
        }
      ],
      "payable": false,
      "stateMutability": "view",
      "type": "function"
    },
    {
      "constant": true,
      "inputs": [],
      "name": "getCount",
      "outputs": [
        {
          "name": "",
          "type": "uint256"
        }
      ],
      "payable": false,
      "stateMutability": "view",
      "type": "function"
    }
  ],
  "bytecode": "0x60806040526000600260146101000a81548160ff021916908315150217905550336000806101000a81548173ffffffffffffffffffffffffffffffffffffffff021916908373ffffffffffffffffffffffffffffffffffffffff16021790555033600260006101000a81548173ffffffffffffffffffffffffffffffffffffffff021916908373ffffffffffffffffffffffffffffffffffffffff160217905550610bd1806100af6000396000f3006080604052600436106100e6576000357c0100000000000000000000000000000000000000000000000000000000900463ffffffff1680631d1a696d146100eb5780633018205f1461013457806361641bdc1461018b57806379f57e68146101f45780638196b8c714610265578063893d20e8146102b25780638eaa6ac01461030957806392eefe9b1461035657806395bc2673146103b1578063a87d942c146103fa578063bef72fa214610425578063c4d66de814610458578063d1de592a146104b3578063d8e5e64e1461050a578063ee89dab41461057b578063f2fde38b146105aa575b600080fd5b3480156100f757600080fd5b5061011a6004803603810190808035600019169060200190929190505050610605565b604051808215151515815260200191505060405180910390f35b34801561014057600080fd5b50610149610638565b604051808273ffffffffffffffffffffffffffffffffffffffff1673ffffffffffffffffffffffffffffffffffffffff16815260200191505060405180910390f35b34801561019757600080fd5b506101da6004803603810190808035600019169060200190929190803573ffffffffffffffffffffffffffffffffffffffff169060200190929190505050610661565b604051808215151515815260200191505060405180910390f35b34801561020057600080fd5b5061022360048036038101908080356000191690602001909291905050506106ea565b604051808273ffffffffffffffffffffffffffffffffffffffff1673ffffffffffffffffffffffffffffffffffffffff16815260200191505060405180910390f35b34801561027157600080fd5b506102946004803603810190808035600019169060200190929190505050610700565b60405180826000191660001916815260200191505060405180910390f35b3480156102be57600080fd5b506102c7610725565b604051808273ffffffffffffffffffffffffffffffffffffffff1673ffffffffffffffffffffffffffffffffffffffff16815260200191505060405180910390f35b34801561031557600080fd5b50610338600480360381019080803560001916906020019092919050505061074f565b60405180826000191660001916815260200191505060405180910390f35b34801561036257600080fd5b50610397600480360381019080803573ffffffffffffffffffffffffffffffffffffffff169060200190929190505050610794565b604051808215151515815260200191505060405180910390f35b3480156103bd57600080fd5b506103e0600480360381019080803560001916906020019092919050505061083a565b604051808215151515815260200191505060405180910390f35b34801561040657600080fd5b5061040f6108ea565b6040518082815260200191505060405180910390f35b34801561043157600080fd5b5061043a6108f4565b60405180826000191660001916815260200191505060405180910390f35b34801561046457600080fd5b50610499600480360381019080803573ffffffffffffffffffffffffffffffffffffffff1690602001909291905050506108fa565b604051808215151515815260200191505060405180910390f35b3480156104bf57600080fd5b506104f06004803603810190808035600019169060200190929190803560001916906020019092919050505061096b565b604051808215151515815260200191505060405180910390f35b34801561051657600080fd5b506105396004803603810190808035600019169060200190929190505050610a20565b604051808273ffffffffffffffffffffffffffffffffffffffff1673ffffffffffffffffffffffffffffffffffffffff16815260200191505060405180910390f35b34801561058757600080fd5b50610590610a36565b604051808215151515815260200191505060405180910390f35b3480156105b657600080fd5b506105eb600480360381019080803573ffffffffffffffffffffffffffffffffffffffff169060200190929190505050610a4d565b604051808215151515815260200191505060405180910390f35b60008060010260001916600360008460001916600019168152602001908152602001600020546000191614159050919050565b60008060009054906101000a900473ffffffffffffffffffffffffffffffffffffffff16905090565b6000600260009054906101000a900473ffffffffffffffffffffffffffffffffffffffff1673ffffffffffffffffffffffffffffffffffffffff163373ffffffffffffffffffffffffffffffffffffffff161415156106bf57600080fd5b6106e2838373ffffffffffffffffffffffffffffffffffffffff1660010261096b565b905092915050565b60006106f58261074f565b600190049050919050565b6000600360008360001916600019168152602001908152602001600020549050919050565b6000600260009054906101000a900473ffffffffffffffffffffffffffffffffffffffff16905090565b60008060036000846000191660001916815260200190815260200160002054905060006001026000191681600019161415151561078b57600080fd5b80915050919050565b60008060009054906101000a900473ffffffffffffffffffffffffffffffffffffffff1673ffffffffffffffffffffffffffffffffffffffff163373ffffffffffffffffffffffffffffffffffffffff161415156107f157600080fd5b816000806101000a81548173ffffffffffffffffffffffffffffffffffffffff021916908373ffffffffffffffffffffffffffffffffffffffff16021790555060019050919050565b6000600260009054906101000a900473ffffffffffffffffffffffffffffffffffffffff1673ffffffffffffffffffffffffffffffffffffffff163373ffffffffffffffffffffffffffffffffffffffff1614151561089857600080fd5b6108a182610605565b15156108b057600090506108e5565b600360008360001916600019168152602001908152602001600020600090556001600460008282540392505081905550600190505b919050565b6000600454905090565b60015481565b6000600260149054906101000a900460ff1615151561091857600080fd5b610920610b59565b5081600260006101000a81548173ffffffffffffffffffffffffffffffffffffffff021916908373ffffffffffffffffffffffffffffffffffffffff16021790555060019050919050565b6000600260009054906101000a900473ffffffffffffffffffffffffffffffffffffffff1673ffffffffffffffffffffffffffffffffffffffff163373ffffffffffffffffffffffffffffffffffffffff161415156109c957600080fd5b6109d283610605565b156109e05760009050610a1a565b8160036000856000191660001916815260200190815260200160002081600019169055506001600460008282540192505081905550600190505b92915050565b6000610a2b82610700565b600190049050919050565b6000600260149054906101000a900460ff16905090565b6000600260009054906101000a900473ffffffffffffffffffffffffffffffffffffffff1673ffffffffffffffffffffffffffffffffffffffff163373ffffffffffffffffffffffffffffffffffffffff16141515610aab57600080fd5b600073ffffffffffffffffffffffffffffffffffffffff168273ffffffffffffffffffffffffffffffffffffffff16141515610b5057610b0d600260009054906101000a900473ffffffffffffffffffffffffffffffffffffffff1683610b99565b5081600260006101000a81548173ffffffffffffffffffffffffffffffffffffffff021916908373ffffffffffffffffffffffffffffffffffffffff1602179055505b60019050919050565b6000600260149054906101000a900460ff16151515610b7757600080fd5b6001600260146101000a81548160ff0219169083151502179055506001905090565b600060019050929150505600a165627a7a72305820ca026a181e6be0b32b7a04fe1e188f2cc649f7aae61efb42ea4505e4f69865850029",
  "source": "pragma solidity ^0.4.22;\n\nimport './../DelegationTarget.sol';\nimport './../Ownable.sol';\nimport './../Initializable.sol';\n\n\n// Provides a mapping that has a count and more control over the behavior of Key errors. Additionally allows for a clean way to clear an existing map by simply creating a new one on owning contracts.\ncontract Map is DelegationTarget, Ownable, Initializable {\n    mapping(bytes32 => bytes32) private items;\n    uint256 private count;\n\n    function initialize(address _owner) public beforeInitialized returns (bool) {\n        endInitialization();\n        owner = _owner;\n        return true;\n    }\n\n    function add(bytes32 _key, bytes32 _value) public onlyOwner returns (bool) {\n        if (contains(_key)) {\n            return false;\n        }\n        items[_key] = _value;\n        count += 1;\n        return true;\n    }\n\n    function add(bytes32 _key, address _value) public onlyOwner returns (bool) {\n        return add(_key, bytes32(_value));\n    }\n\n    function remove(bytes32 _key) public onlyOwner returns (bool) {\n        if (!contains(_key)) {\n            return false;\n        }\n        delete items[_key];\n        count -= 1;\n        return true;\n    }\n\n    function getValueOrZero(bytes32 _key) public view returns (bytes32) {\n        return items[_key];\n    }\n\n    function get(bytes32 _key) public view returns (bytes32) {\n        bytes32 _value = items[_key];\n        require(_value != bytes32(0));\n        return _value;\n    }\n\n    function getAsAddressOrZero(bytes32 _key) public view returns (address) {\n        return address(getValueOrZero(_key));\n    }\n\n    function getAsAddress(bytes32 _key) public view returns (address) {\n        return address(get(_key));\n    }\n\n    function contains(bytes32 _key) public view returns (bool) {\n        return items[_key] != bytes32(0);\n    }\n\n    function getCount() public view returns (uint256) {\n        return count;\n    }\n\n    function onTransferOwnership(address, address) internal returns (bool) {\n        return true;\n    }\n}\n",
  "sourcePath": "/Users/jasperdegooijer/Documents/flux/augurSets/AugurSets/libraries/augur/source/contracts/libraries/collections/Map.sol",
  "compiler": {
    "name": "solc",
    "version": "0.4.22+commit.4cb486ee.Emscripten.clang"
  },
  "schemaVersion": "3.0.1",
  "updatedAt": "2019-07-15T12:03:29.491Z",
  "devdoc": {
    "methods": {
      "transferOwnership(address)": {
        "details": "Allows the current owner to transfer control of the contract to a newOwner.",
        "params": {
          "_newOwner": "The address to transfer ownership to."
        }
      }
    }
  },
  "userdoc": {
    "methods": {}
  }
}