{
  "contractName": "Market",
  "abi": [
    {
      "constant": true,
      "inputs": [],
      "name": "getController",
      "outputs": [
        {
          "name": "",
          "type": "address"
        }
      ],
      "payable": false,
      "stateMutability": "view",
      "type": "function"
    },
    {
      "constant": true,
      "inputs": [
        {
          "name": "",
          "type": "uint256"
        }
      ],
      "name": "participants",
      "outputs": [
        {
          "name": "",
          "type": "address"
        }
      ],
      "payable": false,
      "stateMutability": "view",
      "type": "function"
    },
    {
      "constant": true,
      "inputs": [],
      "name": "crowdsourcers",
      "outputs": [
        {
          "name": "",
          "type": "address"
        }
      ],
      "payable": false,
      "stateMutability": "view",
      "type": "function"
    },
    {
      "constant": true,
      "inputs": [],
      "name": "getOwner",
      "outputs": [
        {
          "name": "",
          "type": "address"
        }
      ],
      "payable": false,
      "stateMutability": "view",
      "type": "function"
    },
    {
      "constant": false,
      "inputs": [
        {
          "name": "_controller",
          "type": "address"
        }
      ],
      "name": "setController",
      "outputs": [
        {
          "name": "",
          "type": "bool"
        }
      ],
      "payable": false,
      "stateMutability": "nonpayable",
      "type": "function"
    },
    {
      "constant": true,
      "inputs": [],
      "name": "controllerLookupName",
      "outputs": [
        {
          "name": "",
          "type": "bytes32"
        }
      ],
      "payable": false,
      "stateMutability": "view",
      "type": "function"
    },
    {
      "constant": true,
      "inputs": [],
      "name": "getInitialized",
      "outputs": [
        {
          "name": "",
          "type": "bool"
        }
      ],
      "payable": false,
      "stateMutability": "view",
      "type": "function"
    },
    {
      "constant": false,
      "inputs": [
        {
          "name": "_newOwner",
          "type": "address"
        }
      ],
      "name": "transferOwnership",
      "outputs": [
        {
          "name": "",
          "type": "bool"
        }
      ],
      "payable": false,
      "stateMutability": "nonpayable",
      "type": "function"
    },
    {
      "constant": false,
      "inputs": [
        {
          "name": "_universe",
          "type": "address"
        },
        {
          "name": "_endTime",
          "type": "uint256"
        },
        {
          "name": "_feePerEthInAttoeth",
          "type": "uint256"
        },
        {
          "name": "_cash",
          "type": "address"
        },
        {
          "name": "_designatedReporterAddress",
          "type": "address"
        },
        {
          "name": "_creator",
          "type": "address"
        },
        {
          "name": "_numOutcomes",
          "type": "uint256"
        },
        {
          "name": "_numTicks",
          "type": "uint256"
        }
      ],
      "name": "initialize",
      "outputs": [
        {
          "name": "_success",
          "type": "bool"
        }
      ],
      "payable": true,
      "stateMutability": "payable",
      "type": "function"
    },
    {
      "constant": false,
      "inputs": [],
      "name": "approveSpenders",
      "outputs": [
        {
          "name": "",
          "type": "bool"
        }
      ],
      "payable": false,
      "stateMutability": "nonpayable",
      "type": "function"
    },
    {
      "constant": false,
      "inputs": [
        {
          "name": "_payoutNumerators",
          "type": "uint256[]"
        },
        {
          "name": "_invalid",
          "type": "bool"
        }
      ],
      "name": "doInitialReport",
      "outputs": [
        {
          "name": "",
          "type": "bool"
        }
      ],
      "payable": false,
      "stateMutability": "nonpayable",
      "type": "function"
    },
    {
      "constant": false,
      "inputs": [
        {
          "name": "_payoutNumerators",
          "type": "uint256[]"
        },
        {
          "name": "_invalid",
          "type": "bool"
        },
        {
          "name": "_amount",
          "type": "uint256"
        }
      ],
      "name": "contribute",
      "outputs": [
        {
          "name": "",
          "type": "bool"
        }
      ],
      "payable": false,
      "stateMutability": "nonpayable",
      "type": "function"
    },
    {
      "constant": false,
      "inputs": [],
      "name": "finalize",
      "outputs": [
        {
          "name": "",
          "type": "bool"
        }
      ],
      "payable": false,
      "stateMutability": "nonpayable",
      "type": "function"
    },
    {
      "constant": false,
      "inputs": [],
      "name": "finalizeFork",
      "outputs": [
        {
          "name": "",
          "type": "bool"
        }
      ],
      "payable": false,
      "stateMutability": "nonpayable",
      "type": "function"
    },
    {
      "constant": true,
      "inputs": [],
      "name": "getMarketCreatorSettlementFeeDivisor",
      "outputs": [
        {
          "name": "",
          "type": "uint256"
        }
      ],
      "payable": false,
      "stateMutability": "view",
      "type": "function"
    },
    {
      "constant": true,
      "inputs": [
        {
          "name": "_amount",
          "type": "uint256"
        }
      ],
      "name": "deriveMarketCreatorFeeAmount",
      "outputs": [
        {
          "name": "",
          "type": "uint256"
        }
      ],
      "payable": false,
      "stateMutability": "view",
      "type": "function"
    },
    {
      "constant": false,
      "inputs": [],
      "name": "migrateThroughOneFork",
      "outputs": [
        {
          "name": "",
          "type": "bool"
        }
      ],
      "payable": false,
      "stateMutability": "nonpayable",
      "type": "function"
    },
    {
      "constant": false,
      "inputs": [],
      "name": "disavowCrowdsourcers",
      "outputs": [
        {
          "name": "",
          "type": "bool"
        }
      ],
      "payable": false,
      "stateMutability": "nonpayable",
      "type": "function"
    },
    {
      "constant": false,
      "inputs": [],
      "name": "withdrawInEmergency",
      "outputs": [
        {
          "name": "",
          "type": "bool"
        }
      ],
      "payable": false,
      "stateMutability": "nonpayable",
      "type": "function"
    },
    {
      "constant": true,
      "inputs": [],
      "name": "getParticipantStake",
      "outputs": [
        {
          "name": "",
          "type": "uint256"
        }
      ],
      "payable": false,
      "stateMutability": "view",
      "type": "function"
    },
    {
      "constant": true,
      "inputs": [
        {
          "name": "_payoutDistributionHash",
          "type": "bytes32"
        }
      ],
      "name": "getStakeInOutcome",
      "outputs": [
        {
          "name": "",
          "type": "uint256"
        }
      ],
      "payable": false,
      "stateMutability": "view",
      "type": "function"
    },
    {
      "constant": true,
      "inputs": [],
      "name": "getTypeName",
      "outputs": [
        {
          "name": "",
          "type": "bytes32"
        }
      ],
      "payable": false,
      "stateMutability": "view",
      "type": "function"
    },
    {
      "constant": true,
      "inputs": [],
      "name": "getForkingMarket",
      "outputs": [
        {
          "name": "",
          "type": "address"
        }
      ],
      "payable": false,
      "stateMutability": "view",
      "type": "function"
    },
    {
      "constant": true,
      "inputs": [],
      "name": "getWinningPayoutDistributionHash",
      "outputs": [
        {
          "name": "",
          "type": "bytes32"
        }
      ],
      "payable": false,
      "stateMutability": "view",
      "type": "function"
    },
    {
      "constant": true,
      "inputs": [],
      "name": "isFinalized",
      "outputs": [
        {
          "name": "",
          "type": "bool"
        }
      ],
      "payable": false,
      "stateMutability": "view",
      "type": "function"
    },
    {
      "constant": true,
      "inputs": [],
      "name": "getDesignatedReporter",
      "outputs": [
        {
          "name": "",
          "type": "address"
        }
      ],
      "payable": false,
      "stateMutability": "view",
      "type": "function"
    },
    {
      "constant": true,
      "inputs": [],
      "name": "designatedReporterShowed",
      "outputs": [
        {
          "name": "",
          "type": "bool"
        }
      ],
      "payable": false,
      "stateMutability": "view",
      "type": "function"
    },
    {
      "constant": true,
      "inputs": [],
      "name": "designatedReporterWasCorrect",
      "outputs": [
        {
          "name": "",
          "type": "bool"
        }
      ],
      "payable": false,
      "stateMutability": "view",
      "type": "function"
    },
    {
      "constant": true,
      "inputs": [],
      "name": "getEndTime",
      "outputs": [
        {
          "name": "",
          "type": "uint256"
        }
      ],
      "payable": false,
      "stateMutability": "view",
      "type": "function"
    },
    {
      "constant": true,
      "inputs": [],
      "name": "getMarketCreatorMailbox",
      "outputs": [
        {
          "name": "",
          "type": "address"
        }
      ],
      "payable": false,
      "stateMutability": "view",
      "type": "function"
    },
    {
      "constant": true,
      "inputs": [],
      "name": "isInvalid",
      "outputs": [
        {
          "name": "",
          "type": "bool"
        }
      ],
      "payable": false,
      "stateMutability": "view",
      "type": "function"
    },
    {
      "constant": true,
      "inputs": [],
      "name": "getInitialReporter",
      "outputs": [
        {
          "name": "",
          "type": "address"
        }
      ],
      "payable": false,
      "stateMutability": "view",
      "type": "function"
    },
    {
      "constant": true,
      "inputs": [],
      "name": "getInitialReporterAddress",
      "outputs": [
        {
          "name": "",
          "type": "address"
        }
      ],
      "payable": false,
      "stateMutability": "view",
      "type": "function"
    },
    {
      "constant": true,
      "inputs": [
        {
          "name": "_index",
          "type": "uint256"
        }
      ],
      "name": "getReportingParticipant",
      "outputs": [
        {
          "name": "",
          "type": "address"
        }
      ],
      "payable": false,
      "stateMutability": "view",
      "type": "function"
    },
    {
      "constant": true,
      "inputs": [
        {
          "name": "_payoutDistributionHash",
          "type": "bytes32"
        }
      ],
      "name": "getCrowdsourcer",
      "outputs": [
        {
          "name": "",
          "type": "address"
        }
      ],
      "payable": false,
      "stateMutability": "view",
      "type": "function"
    },
    {
      "constant": true,
      "inputs": [],
      "name": "getWinningReportingParticipant",
      "outputs": [
        {
          "name": "",
          "type": "address"
        }
      ],
      "payable": false,
      "stateMutability": "view",
      "type": "function"
    },
    {
      "constant": true,
      "inputs": [
        {
          "name": "_outcome",
          "type": "uint256"
        }
      ],
      "name": "getWinningPayoutNumerator",
      "outputs": [
        {
          "name": "",
          "type": "uint256"
        }
      ],
      "payable": false,
      "stateMutability": "view",
      "type": "function"
    },
    {
      "constant": true,
      "inputs": [],
      "name": "getUniverse",
      "outputs": [
        {
          "name": "",
          "type": "address"
        }
      ],
      "payable": false,
      "stateMutability": "view",
      "type": "function"
    },
    {
      "constant": true,
      "inputs": [],
      "name": "getFeeWindow",
      "outputs": [
        {
          "name": "",
          "type": "address"
        }
      ],
      "payable": false,
      "stateMutability": "view",
      "type": "function"
    },
    {
      "constant": true,
      "inputs": [],
      "name": "getFinalizationTime",
      "outputs": [
        {
          "name": "",
          "type": "uint256"
        }
      ],
      "payable": false,
      "stateMutability": "view",
      "type": "function"
    },
    {
      "constant": true,
      "inputs": [],
      "name": "getReputationToken",
      "outputs": [
        {
          "name": "",
          "type": "address"
        }
      ],
      "payable": false,
      "stateMutability": "view",
      "type": "function"
    },
    {
      "constant": true,
      "inputs": [],
      "name": "getNumberOfOutcomes",
      "outputs": [
        {
          "name": "",
          "type": "uint256"
        }
      ],
      "payable": false,
      "stateMutability": "view",
      "type": "function"
    },
    {
      "constant": true,
      "inputs": [],
      "name": "getNumTicks",
      "outputs": [
        {
          "name": "",
          "type": "uint256"
        }
      ],
      "payable": false,
      "stateMutability": "view",
      "type": "function"
    },
    {
      "constant": true,
      "inputs": [],
      "name": "getDenominationToken",
      "outputs": [
        {
          "name": "",
          "type": "address"
        }
      ],
      "payable": false,
      "stateMutability": "view",
      "type": "function"
    },
    {
      "constant": true,
      "inputs": [
        {
          "name": "_outcome",
          "type": "uint256"
        }
      ],
      "name": "getShareToken",
      "outputs": [
        {
          "name": "",
          "type": "address"
        }
      ],
      "payable": false,
      "stateMutability": "view",
      "type": "function"
    },
    {
      "constant": true,
      "inputs": [],
      "name": "getDesignatedReportingEndTime",
      "outputs": [
        {
          "name": "",
          "type": "uint256"
        }
      ],
      "payable": false,
      "stateMutability": "view",
      "type": "function"
    },
    {
      "constant": true,
      "inputs": [],
      "name": "getNumParticipants",
      "outputs": [
        {
          "name": "",
          "type": "uint256"
        }
      ],
      "payable": false,
      "stateMutability": "view",
      "type": "function"
    },
    {
      "constant": true,
      "inputs": [],
      "name": "getValidityBondAttoeth",
      "outputs": [
        {
          "name": "",
          "type": "uint256"
        }
      ],
      "payable": false,
      "stateMutability": "view",
      "type": "function"
    },
    {
      "constant": true,
      "inputs": [
        {
          "name": "_payoutNumerators",
          "type": "uint256[]"
        },
        {
          "name": "_invalid",
          "type": "bool"
        }
      ],
      "name": "derivePayoutDistributionHash",
      "outputs": [
        {
          "name": "",
          "type": "bytes32"
        }
      ],
      "payable": false,
      "stateMutability": "view",
      "type": "function"
    },
    {
      "constant": true,
      "inputs": [
        {
          "name": "_shadyShareToken",
          "type": "address"
        }
      ],
      "name": "isContainerForShareToken",
      "outputs": [
        {
          "name": "",
          "type": "bool"
        }
      ],
      "payable": false,
      "stateMutability": "view",
      "type": "function"
    },
    {
      "constant": true,
      "inputs": [
        {
          "name": "_shadyReportingParticipant",
          "type": "address"
        }
      ],
      "name": "isContainerForReportingParticipant",
      "outputs": [
        {
          "name": "",
          "type": "bool"
        }
      ],
      "payable": false,
      "stateMutability": "view",
      "type": "function"
    },
    {
      "constant": true,
      "inputs": [],
      "name": "assertBalances",
      "outputs": [
        {
          "name": "",
          "type": "bool"
        }
      ],
      "payable": false,
      "stateMutability": "view",
      "type": "function"
    }
  ],
  "bytecode": "0x60806040526000600260006101000a81548160ff021916908315150217905550336000806101000a81548173ffffffffffffffffffffffffffffffffffffffff021916908373ffffffffffffffffffffffffffffffffffffffff16021790555033600260016101000a81548173ffffffffffffffffffffffffffffffffffffffff021916908373ffffffffffffffffffffffffffffffffffffffff16021790555061a08880620000b06000396000f300608060405260043610610272576000357c0100000000000000000000000000000000000000000000000000000000900463ffffffff16806304be2f5014610277578063069b559c146102a65780630ea9e4f1146102d55780631a3739ec1461035f5780631c7f3a96146103b657806322115ef0146103e15780632443f0ae146104b757806327ce5b8c146105455780632c154345146105705780633018205f1461059b57806335c1d349146105f25780633bf8f34a1461065f5780633c2648201461068e578063439f5ac2146106cf578063449d0f29146106fa5780634bb278f314610729578063509a10611461075857806358e61e12146107b35780635b6e24921461084757806365957bf51461089e57806366d12fad1461090b57806366e20b51146109505780636e106628146109a75780637e94cf0c146109fe57806382100be614610a29578063870c426d14610a5c578063893d20e814610ab35780638d4e408314610b0a5780638d7e8a5714610b395780638ed882c514610b6857806392eefe9b14610b975780639f941f6914610bf2578063a0695f2414610c1d578063a0e16fed14610c4c578063b80907f214610c77578063bad84c9e14610cce578063bbd37ef314610cf9578063bef72fa214610d66578063c35c08bd14610d99578063c3fc478714610e0a578063c4c0698d14610e39578063c7600cde14610e68578063cb1d841814610ebf578063db0a087c14610f16578063df2a29da14610f49578063ed23378b14610fa0578063ee89dab414610ff7578063f2fde38b14611026578063f76514c714611081578063f77f29b1146110dc578063f8c5212514611133578063fd478ca914611174575b600080fd5b34801561028357600080fd5b5061028c61119f565b604051808215151515815260200191505060405180910390f35b3480156102b257600080fd5b506102bb61125f565b604051808215151515815260200191505060405180910390f35b3480156102e157600080fd5b506103456004803603810190808035906020019082018035906020019080806020026020016040519081016040528093929190818152602001838360200280828437820191505050505050919291929080351515906020019092919050505061216e565b604051808215151515815260200191505060405180910390f35b34801561036b57600080fd5b50610374612cf7565b604051808273ffffffffffffffffffffffffffffffffffffffff1673ffffffffffffffffffffffffffffffffffffffff16815260200191505060405180910390f35b3480156103c257600080fd5b506103cb612d39565b6040518082815260200191505060405180910390f35b61049d600480360381019080803573ffffffffffffffffffffffffffffffffffffffff1690602001909291908035906020019092919080359060200190929190803573ffffffffffffffffffffffffffffffffffffffff169060200190929190803573ffffffffffffffffffffffffffffffffffffffff169060200190929190803573ffffffffffffffffffffffffffffffffffffffff1690602001909291908035906020019092919080359060200190929190505050612d43565b604051808215151515815260200191505060405180910390f35b3480156104c357600080fd5b5061052760048036038101908080359060200190820180359060200190808060200260200160405190810160405280939291908181526020018383602002808284378201915050505050509192919290803515159060200190929190505050613bad565b60405180826000191660001916815260200191505060405180910390f35b34801561055157600080fd5b5061055a613cfe565b6040518082815260200191505060405180910390f35b34801561057c57600080fd5b50610585613d08565b6040518082815260200191505060405180910390f35b3480156105a757600080fd5b506105b0613e0d565b604051808273ffffffffffffffffffffffffffffffffffffffff1673ffffffffffffffffffffffffffffffffffffffff16815260200191505060405180910390f35b3480156105fe57600080fd5b5061061d60048036038101908080359060200190929190505050613e36565b604051808273ffffffffffffffffffffffffffffffffffffffff1673ffffffffffffffffffffffffffffffffffffffff16815260200191505060405180910390f35b34801561066b57600080fd5b50610674613e74565b604051808215151515815260200191505060405180910390f35b34801561069a57600080fd5b506106b960048036038101908080359060200190929190505050613f21565b6040518082815260200191505060405180910390f35b3480156106db57600080fd5b506106e4613fee565b6040518082815260200191505060405180910390f35b34801561070657600080fd5b5061070f613ff8565b604051808215151515815260200191505060405180910390f35b34801561073557600080fd5b5061073e614681565b604051808215151515815260200191505060405180910390f35b34801561076457600080fd5b50610799600480360381019080803573ffffffffffffffffffffffffffffffffffffffff1690602001909291905050506150b8565b604051808215151515815260200191505060405180910390f35b3480156107bf57600080fd5b5061082d6004803603810190808035906020019082018035906020019080806020026020016040519081016040528093929190818152602001838360200280828437820191505050505050919291929080351515906020019092919080359060200190929190505050615196565b604051808215151515815260200191505060405180910390f35b34801561085357600080fd5b5061085c61596e565b604051808273ffffffffffffffffffffffffffffffffffffffff1673ffffffffffffffffffffffffffffffffffffffff16815260200191505060405180910390f35b3480156108aa57600080fd5b506108c960048036038101908080359060200190929190505050615a1b565b604051808273ffffffffffffffffffffffffffffffffffffffff1673ffffffffffffffffffffffffffffffffffffffff16815260200191505060405180910390f35b34801561091757600080fd5b5061093a6004803603810190808035600019169060200190929190505050615a5e565b6040518082815260200191505060405180910390f35b34801561095c57600080fd5b50610965615c53565b604051808273ffffffffffffffffffffffffffffffffffffffff1673ffffffffffffffffffffffffffffffffffffffff16815260200191505060405180910390f35b3480156109b357600080fd5b506109bc615c79565b604051808273ffffffffffffffffffffffffffffffffffffffff1673ffffffffffffffffffffffffffffffffffffffff16815260200191505060405180910390f35b348015610a0a57600080fd5b50610a13615cc2565b6040518082815260200191505060405180910390f35b348015610a3557600080fd5b50610a3e615ccc565b60405180826000191660001916815260200191505060405180910390f35b348015610a6857600080fd5b50610a71615cd6565b604051808273ffffffffffffffffffffffffffffffffffffffff1673ffffffffffffffffffffffffffffffffffffffff16815260200191505060405180910390f35b348015610abf57600080fd5b50610ac8615d00565b604051808273ffffffffffffffffffffffffffffffffffffffff1673ffffffffffffffffffffffffffffffffffffffff16815260200191505060405180910390f35b348015610b1657600080fd5b50610b1f615d2a565b604051808215151515815260200191505060405180910390f35b348015610b4557600080fd5b50610b4e615d42565b604051808215151515815260200191505060405180910390f35b348015610b7457600080fd5b50610b7d616388565b604051808215151515815260200191505060405180910390f35b348015610ba357600080fd5b50610bd8600480360381019080803573ffffffffffffffffffffffffffffffffffffffff169060200190929190505050616435565b604051808215151515815260200191505060405180910390f35b348015610bfe57600080fd5b50610c076164db565b6040518082815260200191505060405180910390f35b348015610c2957600080fd5b50610c326164fe565b604051808215151515815260200191505060405180910390f35b348015610c5857600080fd5b50610c61616ab4565b6040518082815260200191505060405180910390f35b348015610c8357600080fd5b50610c8c616abe565b604051808273ffffffffffffffffffffffffffffffffffffffff1673ffffffffffffffffffffffffffffffffffffffff16815260200191505060405180910390f35b348015610cda57600080fd5b50610ce3616b86565b6040518082815260200191505060405180910390f35b348015610d0557600080fd5b50610d2460048036038101908080359060200190929190505050616b90565b604051808273ffffffffffffffffffffffffffffffffffffffff1673ffffffffffffffffffffffffffffffffffffffff16815260200191505060405180910390f35b348015610d7257600080fd5b50610d7b616bd3565b60405180826000191660001916815260200191505060405180910390f35b348015610da557600080fd5b50610dc86004803603810190808035600019169060200190929190505050616bd9565b604051808273ffffffffffffffffffffffffffffffffffffffff1673ffffffffffffffffffffffffffffffffffffffff16815260200191505060405180910390f35b348015610e1657600080fd5b50610e1f616cb6565b604051808215151515815260200191505060405180910390f35b348015610e4557600080fd5b50610e4e61728c565b604051808215151515815260200191505060405180910390f35b348015610e7457600080fd5b50610e7d61760b565b604051808273ffffffffffffffffffffffffffffffffffffffff1673ffffffffffffffffffffffffffffffffffffffff16815260200191505060405180910390f35b348015610ecb57600080fd5b50610ed461764d565b604051808273ffffffffffffffffffffffffffffffffffffffff1673ffffffffffffffffffffffffffffffffffffffff16815260200191505060405180910390f35b348015610f2257600080fd5b50610f2b617715565b60405180826000191660001916815260200191505060405180910390f35b348015610f5557600080fd5b50610f5e61773d565b604051808273ffffffffffffffffffffffffffffffffffffffff1673ffffffffffffffffffffffffffffffffffffffff16815260200191505060405180910390f35b348015610fac57600080fd5b50610fb5617767565b604051808273ffffffffffffffffffffffffffffffffffffffff1673ffffffffffffffffffffffffffffffffffffffff16815260200191505060405180910390f35b34801561100357600080fd5b5061100c617791565b604051808215151515815260200191505060405180910390f35b34801561103257600080fd5b50611067600480360381019080803573ffffffffffffffffffffffffffffffffffffffff1690602001909291905050506177a8565b604051808215151515815260200191505060405180910390f35b34801561108d57600080fd5b506110c2600480360381019080803573ffffffffffffffffffffffffffffffffffffffff1690602001909291905050506178b4565b604051808215151515815260200191505060405180910390f35b3480156110e857600080fd5b506110f1617b05565b604051808273ffffffffffffffffffffffffffffffffffffffff1673ffffffffffffffffffffffffffffffffffffffff16815260200191505060405180910390f35b34801561113f57600080fd5b5061115e60048036038101908080359060200190929190505050617b2f565b6040518082815260200191505060405180910390f35b34801561118057600080fd5b50611189617b5a565b6040518082815260200191505060405180910390f35b60006111a9615d2a565b15156111b457600080fd5b6111bc615c79565b73ffffffffffffffffffffffffffffffffffffffff166304be2f506040518163ffffffff167c0100000000000000000000000000000000000000000000000000000000028152600401602060405180830381600087803b15801561121f57600080fd5b505af1158015611233573d6000803e3d6000fd5b505050506040513d602081101561124957600080fd5b8101908080519060200190929190505050905090565b6000806000806000806000806000806000809054906101000a900473ffffffffffffffffffffffffffffffffffffffff1673ffffffffffffffffffffffffffffffffffffffff166322763ae16040518163ffffffff167c0100000000000000000000000000000000000000000000000000000000028152600401602060405180830381600087803b1580156112f357600080fd5b505af1158015611307573d6000803e3d6000fd5b505050506040513d602081101561131d57600080fd5b8101908080519060200190929190505050151561133957600080fd5b600360009054906101000a900473ffffffffffffffffffffffffffffffffffffffff1673ffffffffffffffffffffffffffffffffffffffff1663cb1d84186040518163ffffffff167c0100000000000000000000000000000000000000000000000000000000028152600401602060405180830381600087803b1580156113bf57600080fd5b505af11580156113d3573d6000803e3d6000fd5b505050506040513d60208110156113e957600080fd5b810190808051906020019092919050505098508873ffffffffffffffffffffffffffffffffffffffff16638d4e40836040518163ffffffff167c0100000000000000000000000000000000000000000000000000000000028152600401602060405180830381600087803b15801561146057600080fd5b505af1158015611474573d6000803e3d6000fd5b505050506040513d602081101561148a57600080fd5b810190808051906020019092919050505015156114a657600080fd5b6114ae615d2a565b1515156114ba57600080fd5b600360009054906101000a900473ffffffffffffffffffffffffffffffffffffffff1697508873ffffffffffffffffffffffffffffffffffffffff166382100be66040518163ffffffff167c0100000000000000000000000000000000000000000000000000000000028152600401602060405180830381600087803b15801561154357600080fd5b505af1158015611557573d6000803e3d6000fd5b505050506040513d602081101561156d57600080fd5b810190808051906020019092919050505096508773ffffffffffffffffffffffffffffffffffffffff1663eceba876886040518263ffffffff167c0100000000000000000000000000000000000000000000000000000000028152600401808260001916600019168152602001915050602060405180830381600087803b1580156115f757600080fd5b505af115801561160b573d6000803e3d6000fd5b505050506040513d602081101561162157600080fd5b810190808051906020019092919050505095506117216006546010600081548110151561164a57fe5b9060005260206000200160009054906101000a900473ffffffffffffffffffffffffffffffffffffffff1673ffffffffffffffffffffffffffffffffffffffff166318160ddd6040518163ffffffff167c0100000000000000000000000000000000000000000000000000000000028152600401602060405180830381600087803b1580156116d857600080fd5b505af11580156116ec573d6000803e3d6000fd5b505050506040513d602081101561170257600080fd5b8101908080519060200190929190505050617b6790919063ffffffff16565b9450600360009054906101000a900473ffffffffffffffffffffffffffffffffffffffff1673ffffffffffffffffffffffffffffffffffffffff16630db3be6a866040518263ffffffff167c010000000000000000000000000000000000000000000000000000000002815260040180828152602001915050602060405180830381600087803b1580156117b457600080fd5b505af11580156117c8573d6000803e3d6000fd5b505050506040513d60208110156117de57600080fd5b810190808051906020019092919050505050600073ffffffffffffffffffffffffffffffffffffffff16600460009054906101000a900473ffffffffffffffffffffffffffffffffffffffff1673ffffffffffffffffffffffffffffffffffffffff16141515611928578573ffffffffffffffffffffffffffffffffffffffff16630cc8c9af6040518163ffffffff167c0100000000000000000000000000000000000000000000000000000000028152600401602060405180830381600087803b1580156118ac57600080fd5b505af11580156118c0573d6000803e3d6000fd5b505050506040513d60208110156118d657600080fd5b8101908080519060200190929190505050600460006101000a81548173ffffffffffffffffffffffffffffffffffffffff021916908373ffffffffffffffffffffffffffffffffffffffff1602179055505b8573ffffffffffffffffffffffffffffffffffffffff1663feeda3676040518163ffffffff167c0100000000000000000000000000000000000000000000000000000000028152600401602060405180830381600087803b15801561198c57600080fd5b505af11580156119a0573d6000803e3d6000fd5b505050506040513d60208110156119b657600080fd5b8101908080519060200190929190505050508773ffffffffffffffffffffffffffffffffffffffff166377a3a0a26040518163ffffffff167c0100000000000000000000000000000000000000000000000000000000028152600401602060405180830381600087803b158015611a2c57600080fd5b505af1158015611a40573d6000803e3d6000fd5b505050506040513d6020811015611a5657600080fd5b810190808051906020019092919050505050611a70616abe565b935085600360006101000a81548173ffffffffffffffffffffffffffffffffffffffff021916908373ffffffffffffffffffffffffffffffffffffffff160217905550600360009054906101000a900473ffffffffffffffffffffffffffffffffffffffff1673ffffffffffffffffffffffffffffffffffffffff1663061777ed866040518263ffffffff167c010000000000000000000000000000000000000000000000000000000002815260040180828152602001915050602060405180830381600087803b158015611b4457600080fd5b505af1158015611b58573d6000803e3d6000fd5b505050506040513d6020811015611b6e57600080fd5b810190808051906020019092919050505050611b88612cf7565b9250600e6000611b989190619ff3565b600e8390806001815401808255809150509060018203906000526020600020016000909192909190916101000a81548173ffffffffffffffffffffffffffffffffffffffff021916908373ffffffffffffffffffffffffffffffffffffffff160217905550508273ffffffffffffffffffffffffffffffffffffffff1663a00413bd6040518163ffffffff167c0100000000000000000000000000000000000000000000000000000000028152600401602060405180830381600087803b158015611c6257600080fd5b505af1158015611c76573d6000803e3d6000fd5b505050506040513d6020811015611c8c57600080fd5b8101908080519060200190929190505050508273ffffffffffffffffffffffffffffffffffffffff16632628803f6040518163ffffffff167c0100000000000000000000000000000000000000000000000000000000028152600401602060405180830381600087803b158015611d0257600080fd5b505af1158015611d16573d6000803e3d6000fd5b505050506040513d6020811015611d2c57600080fd5b810190808051906020019092919050505050611d46616abe565b91508373ffffffffffffffffffffffffffffffffffffffff166370a08231306040518263ffffffff167c0100000000000000000000000000000000000000000000000000000000028152600401808273ffffffffffffffffffffffffffffffffffffffff1673ffffffffffffffffffffffffffffffffffffffff168152602001915050602060405180830381600087803b158015611de357600080fd5b505af1158015611df7573d6000803e3d6000fd5b505050506040513d6020811015611e0d57600080fd5b810190808051906020019092919050505090506000811115611f09578373ffffffffffffffffffffffffffffffffffffffff16636e7ce59183836040518363ffffffff167c0100000000000000000000000000000000000000000000000000000000028152600401808373ffffffffffffffffffffffffffffffffffffffff1673ffffffffffffffffffffffffffffffffffffffff16815260200182815260200192505050602060405180830381600087803b158015611ecc57600080fd5b505af1158015611ee0573d6000803e3d6000fd5b505050506040513d6020811015611ef657600080fd5b8101908080519060200190929190505050505b6000809054906101000a900473ffffffffffffffffffffffffffffffffffffffff1673ffffffffffffffffffffffffffffffffffffffff1663f39ec1f76040518163ffffffff167c010000000000000000000000000000000000000000000000000000000002815260040180807f4d6170466163746f7279000000000000000000000000000000000000000000008152506020019050602060405180830381600087803b158015611fb957600080fd5b505af1158015611fcd573d6000803e3d6000fd5b505050506040513d6020811015611fe357600080fd5b810190808051906020019092919050505073ffffffffffffffffffffffffffffffffffffffff1663b782f6136000809054906101000a900473ffffffffffffffffffffffffffffffffffffffff16306040518363ffffffff167c0100000000000000000000000000000000000000000000000000000000028152600401808373ffffffffffffffffffffffffffffffffffffffff1673ffffffffffffffffffffffffffffffffffffffff1681526020018273ffffffffffffffffffffffffffffffffffffffff1673ffffffffffffffffffffffffffffffffffffffff16815260200192505050602060405180830381600087803b1580156120e357600080fd5b505af11580156120f7573d6000803e3d6000fd5b505050506040513d602081101561210d57600080fd5b8101908080519060200190929190505050600f60006101000a81548173ffffffffffffffffffffffffffffffffffffffff021916908373ffffffffffffffffffffffffffffffffffffffff1602179055506001995050505050505050505090565b60008060008060008060008060009054906101000a900473ffffffffffffffffffffffffffffffffffffffff1673ffffffffffffffffffffffffffffffffffffffff166322763ae16040518163ffffffff167c0100000000000000000000000000000000000000000000000000000000028152600401602060405180830381600087803b1580156121fe57600080fd5b505af1158015612212573d6000803e3d6000fd5b505050506040513d602081101561222857600080fd5b8101908080519060200190929190505050151561224457600080fd5b61224c612cf7565b95506000809054906101000a900473ffffffffffffffffffffffffffffffffffffffff1673ffffffffffffffffffffffffffffffffffffffff1663188ec3566040518163ffffffff167c0100000000000000000000000000000000000000000000000000000000028152600401602060405180830381600087803b1580156122d357600080fd5b505af11580156122e7573d6000803e3d6000fd5b505050506040513d60208110156122fd57600080fd5b8101908080519060200190929190505050945060008673ffffffffffffffffffffffffffffffffffffffff166394a771d76040518163ffffffff167c0100000000000000000000000000000000000000000000000000000000028152600401602060405180830381600087803b15801561237657600080fd5b505af115801561238a573d6000803e3d6000fd5b505050506040513d60208110156123a057600080fd5b81019080805190602001909291905050501415156123bd57600080fd5b600854851115156123cd57600080fd5b8573ffffffffffffffffffffffffffffffffffffffff16635b6e24926040518163ffffffff167c0100000000000000000000000000000000000000000000000000000000028152600401602060405180830381600087803b15801561243157600080fd5b505af1158015612445573d6000803e3d6000fd5b505050506040513d602081101561245b57600080fd5b810190808051906020019092919050505073ffffffffffffffffffffffffffffffffffffffff163373ffffffffffffffffffffffffffffffffffffffff161493506124a46164db565b8511925082806124b15750835b15156124bc57600080fd5b6124c68633617b9d565b508573ffffffffffffffffffffffffffffffffffffffff16635b6e24926040518163ffffffff167c0100000000000000000000000000000000000000000000000000000000028152600401602060405180830381600087803b15801561252b57600080fd5b505af115801561253f573d6000803e3d6000fd5b505050506040513d602081101561255557600080fd5b810190808051906020019092919050505073ffffffffffffffffffffffffffffffffffffffff163373ffffffffffffffffffffffffffffffffffffffff161415612777576125a1616abe565b91508173ffffffffffffffffffffffffffffffffffffffff1663f22b258a3388600360009054906101000a900473ffffffffffffffffffffffffffffffffffffffff1673ffffffffffffffffffffffffffffffffffffffff1663e79609e26040518163ffffffff167c0100000000000000000000000000000000000000000000000000000000028152600401602060405180830381600087803b15801561264757600080fd5b505af115801561265b573d6000803e3d6000fd5b505050506040513d602081101561267157600080fd5b81019080805190602001909291905050506040518463ffffffff167c0100000000000000000000000000000000000000000000000000000000028152600401808473ffffffffffffffffffffffffffffffffffffffff1673ffffffffffffffffffffffffffffffffffffffff1681526020018373ffffffffffffffffffffffffffffffffffffffff1673ffffffffffffffffffffffffffffffffffffffff1681526020018281526020019350505050602060405180830381600087803b15801561273a57600080fd5b505af115801561274e573d6000803e3d6000fd5b505050506040513d602081101561276457600080fd5b8101908080519060200190929190505050505b6127818989613bad565b9050600360009054906101000a900473ffffffffffffffffffffffffffffffffffffffff1673ffffffffffffffffffffffffffffffffffffffff16630cc8c9af6040518163ffffffff167c0100000000000000000000000000000000000000000000000000000000028152600401602060405180830381600087803b15801561280957600080fd5b505af115801561281d573d6000803e3d6000fd5b505050506040513d602081101561283357600080fd5b8101908080519060200190929190505050600460006101000a81548173ffffffffffffffffffffffffffffffffffffffff021916908373ffffffffffffffffffffffffffffffffffffffff1602179055508573ffffffffffffffffffffffffffffffffffffffff166341c3e7c733838c8c6040518563ffffffff167c0100000000000000000000000000000000000000000000000000000000028152600401808573ffffffffffffffffffffffffffffffffffffffff1673ffffffffffffffffffffffffffffffffffffffff16815260200184600019166000191681526020018060200183151515158152602001828103825284818151815260200191508051906020019060200280838360005b8381101561295c578082015181840152602081019050612941565b5050505090500195505050505050602060405180830381600087803b15801561298457600080fd5b505af1158015612998573d6000803e3d6000fd5b505050506040513d60208110156129ae57600080fd5b8101908080519060200190929190505050506000809054906101000a900473ffffffffffffffffffffffffffffffffffffffff1673ffffffffffffffffffffffffffffffffffffffff16634e94c8296040518163ffffffff167c0100000000000000000000000000000000000000000000000000000000028152600401602060405180830381600087803b158015612a4557600080fd5b505af1158015612a59573d6000803e3d6000fd5b505050506040513d6020811015612a6f57600080fd5b810190808051906020019092919050505073ffffffffffffffffffffffffffffffffffffffff1663779d6fc7600360009054906101000a900473ffffffffffffffffffffffffffffffffffffffff1633308a73ffffffffffffffffffffffffffffffffffffffff1663fc0e3d906040518163ffffffff167c0100000000000000000000000000000000000000000000000000000000028152600401602060405180830381600087803b158015612b2457600080fd5b505af1158015612b38573d6000803e3d6000fd5b505050506040513d6020811015612b4e57600080fd5b8101908080519060200190929190505050898f8f6040518863ffffffff167c0100000000000000000000000000000000000000000000000000000000028152600401808873ffffffffffffffffffffffffffffffffffffffff1673ffffffffffffffffffffffffffffffffffffffff1681526020018773ffffffffffffffffffffffffffffffffffffffff1673ffffffffffffffffffffffffffffffffffffffff1681526020018673ffffffffffffffffffffffffffffffffffffffff1673ffffffffffffffffffffffffffffffffffffffff168152602001858152602001841515151581526020018060200183151515158152602001828103825284818151815260200191508051906020019060200280838360005b83811015612c80578082015181840152602081019050612c65565b5050505090500198505050505050505050602060405180830381600087803b158015612cab57600080fd5b505af1158015612cbf573d6000803e3d6000fd5b505050506040513d6020811015612cd557600080fd5b8101908080519060200190929190505050506001965050505050505092915050565b6000600e6000815481101515612d0957fe5b9060005260206000200160009054906101000a900473ffffffffffffffffffffffffffffffffffffffff16905090565b6000600754905090565b6000806000806000809054906101000a900473ffffffffffffffffffffffffffffffffffffffff1673ffffffffffffffffffffffffffffffffffffffff166322763ae16040518163ffffffff167c0100000000000000000000000000000000000000000000000000000000028152600401602060405180830381600087803b158015612dce57600080fd5b505af1158015612de2573d6000803e3d6000fd5b505050506040513d6020811015612df857600080fd5b81019080805190602001909291905050501515612e1457600080fd5b600260009054906101000a900460ff16151515612e3057600080fd5b612e38617f5c565b5085600211158015612e4b575060088611155b1515612e5657600080fd5b600085111515612e6557600080fd5b600073ffffffffffffffffffffffffffffffffffffffff168873ffffffffffffffffffffffffffffffffffffffff1614151515612ea157600080fd5b858510151515612eb057600080fd5b6706f05b59d3b200008a11151515612ec757600080fd5b600073ffffffffffffffffffffffffffffffffffffffff168773ffffffffffffffffffffffffffffffffffffffff1614151515612f0357600080fd5b8a6000809054906101000a900473ffffffffffffffffffffffffffffffffffffffff1673ffffffffffffffffffffffffffffffffffffffff1663188ec3566040518163ffffffff167c0100000000000000000000000000000000000000000000000000000000028152600401602060405180830381600087803b158015612f8957600080fd5b505af1158015612f9d573d6000803e3d6000fd5b505050506040513d6020811015612fb357600080fd5b8101908080519060200190929190505050101515612fd057600080fd5b6000809054906101000a900473ffffffffffffffffffffffffffffffffffffffff1673ffffffffffffffffffffffffffffffffffffffff1663f39ec1f76040518163ffffffff167c010000000000000000000000000000000000000000000000000000000002815260040180807f43617368000000000000000000000000000000000000000000000000000000008152506020019050602060405180830381600087803b15801561308057600080fd5b505af1158015613094573d6000803e3d6000fd5b505050506040513d60208110156130aa57600080fd5b810190808051906020019092919050505073ffffffffffffffffffffffffffffffffffffffff168973ffffffffffffffffffffffffffffffffffffffff161415156130f457600080fd5b8b600360006101000a81548173ffffffffffffffffffffffffffffffffffffffff021916908373ffffffffffffffffffffffffffffffffffffffff160217905550600360009054906101000a900473ffffffffffffffffffffffffffffffffffffffff1673ffffffffffffffffffffffffffffffffffffffff1663becb1f356040518163ffffffff167c0100000000000000000000000000000000000000000000000000000000028152600401602060405180830381600087803b1580156131bb57600080fd5b505af11580156131cf573d6000803e3d6000fd5b505050506040513d60208110156131e557600080fd5b810190808051906020019092919050505015151561320257600080fd5b86600260016101000a81548173ffffffffffffffffffffffffffffffffffffffff021916908373ffffffffffffffffffffffffffffffffffffffff16021790555061324b617f9c565b508a600881905550856009819055508460068190555060008a146132825789670de0b6b3a764000081151561327c57fe5b04613285565b60005b60078190555088600560006101000a81548173ffffffffffffffffffffffffffffffffffffffff021916908373ffffffffffffffffffffffffffffffffffffffff1602179055506000809054906101000a900473ffffffffffffffffffffffffffffffffffffffff1673ffffffffffffffffffffffffffffffffffffffff1663f39ec1f76040518163ffffffff167c010000000000000000000000000000000000000000000000000000000002815260040180807f496e697469616c5265706f72746572466163746f7279000000000000000000008152506020019050602060405180830381600087803b15801561337c57600080fd5b505af1158015613390573d6000803e3d6000fd5b505050506040513d60208110156133a657600080fd5b81019080805190602001909291905050509250600e8373ffffffffffffffffffffffffffffffffffffffff1663b30949d96000809054906101000a900473ffffffffffffffffffffffffffffffffffffffff16308c6040518463ffffffff167c0100000000000000000000000000000000000000000000000000000000028152600401808473ffffffffffffffffffffffffffffffffffffffff1673ffffffffffffffffffffffffffffffffffffffff1681526020018373ffffffffffffffffffffffffffffffffffffffff1673ffffffffffffffffffffffffffffffffffffffff1681526020018273ffffffffffffffffffffffffffffffffffffffff1673ffffffffffffffffffffffffffffffffffffffff1681526020019350505050602060405180830381600087803b1580156134df57600080fd5b505af11580156134f3573d6000803e3d6000fd5b505050506040513d602081101561350957600080fd5b810190808051906020019092919050505090806001815401808255809150509060018203906000526020600020016000909192909190916101000a81548173ffffffffffffffffffffffffffffffffffffffff021916908373ffffffffffffffffffffffffffffffffffffffff160217905550506000809054906101000a900473ffffffffffffffffffffffffffffffffffffffff1673ffffffffffffffffffffffffffffffffffffffff1663f39ec1f76040518163ffffffff167c010000000000000000000000000000000000000000000000000000000002815260040180807f4d61696c626f78466163746f72790000000000000000000000000000000000008152506020019050602060405180830381600087803b15801561362d57600080fd5b505af1158015613641573d6000803e3d6000fd5b505050506040513d602081101561365757600080fd5b810190808051906020019092919050505073ffffffffffffffffffffffffffffffffffffffff1663a73b24b46000809054906101000a900473ffffffffffffffffffffffffffffffffffffffff16600260019054906101000a900473ffffffffffffffffffffffffffffffffffffffff16306040518463ffffffff167c0100000000000000000000000000000000000000000000000000000000028152600401808473ffffffffffffffffffffffffffffffffffffffff1673ffffffffffffffffffffffffffffffffffffffff1681526020018373ffffffffffffffffffffffffffffffffffffffff1673ffffffffffffffffffffffffffffffffffffffff1681526020018273ffffffffffffffffffffffffffffffffffffffff1673ffffffffffffffffffffffffffffffffffffffff1681526020019350505050602060405180830381600087803b1580156137ad57600080fd5b505af11580156137c1573d6000803e3d6000fd5b505050506040513d60208110156137d757600080fd5b8101908080519060200190929190505050600c60006101000a81548173ffffffffffffffffffffffffffffffffffffffff021916908373ffffffffffffffffffffffffffffffffffffffff1602179055506000809054906101000a900473ffffffffffffffffffffffffffffffffffffffff1673ffffffffffffffffffffffffffffffffffffffff1663f39ec1f76040518163ffffffff167c010000000000000000000000000000000000000000000000000000000002815260040180807f4d6170466163746f7279000000000000000000000000000000000000000000008152506020019050602060405180830381600087803b1580156138d857600080fd5b505af11580156138ec573d6000803e3d6000fd5b505050506040513d602081101561390257600080fd5b810190808051906020019092919050505073ffffffffffffffffffffffffffffffffffffffff1663b782f6136000809054906101000a900473ffffffffffffffffffffffffffffffffffffffff16306040518363ffffffff167c0100000000000000000000000000000000000000000000000000000000028152600401808373ffffffffffffffffffffffffffffffffffffffff1673ffffffffffffffffffffffffffffffffffffffff1681526020018273ffffffffffffffffffffffffffffffffffffffff1673ffffffffffffffffffffffffffffffffffffffff16815260200192505050602060405180830381600087803b158015613a0257600080fd5b505af1158015613a16573d6000803e3d6000fd5b505050506040513d6020811015613a2c57600080fd5b8101908080519060200190929190505050600f60006101000a81548173ffffffffffffffffffffffffffffffffffffffff021916908373ffffffffffffffffffffffffffffffffffffffff160217905550600091505b600954821015613b07576010613a97836182e2565b90806001815401808255809150509060018203906000526020600020016000909192909190916101000a81548173ffffffffffffffffffffffffffffffffffffffff021916908373ffffffffffffffffffffffffffffffffffffffff160217905550508180600101925050613a82565b613b0f615d42565b50613b25600b54346185d390919063ffffffff16565b90506000811115613b9a57600260019054906101000a900473ffffffffffffffffffffffffffffffffffffffff1673ffffffffffffffffffffffffffffffffffffffff166108fc829081150290604051600060405180830381858888f19350505050158015613b98573d6000803e3d6000fd5b505b6001935050505098975050505050505050565b6000806000806000809350866000815181101515613bc757fe5b9060200190602002015192506009548751141515613be457600080fd5b600091505b8651821015613c48578682815181101515613c0057fe5b906020019060200201519050613c1f81856185ef90919063ffffffff16565b9350851580613c2d57508281145b1515613c3857600080fd5b8092508180600101925050613be9565b8515613c7057600954600654811515613c5d57fe5b0483141515613c6b57600080fd5b613c81565b60065484141515613c8057600080fd5b5b868660405180838051906020019060200280838360005b83811015613cb3578082015181840152602081019050613c98565b5050505090500182151515157f010000000000000000000000000000000000000000000000000000000000000002815260010192505050604051809103902094505050505092915050565b6000600954905090565b60008060008090505b600e80549050811015613e0557600e81815481101515613d2d57fe5b9060005260206000200160009054906101000a900473ffffffffffffffffffffffffffffffffffffffff1673ffffffffffffffffffffffffffffffffffffffff1663fc0e3d906040518163ffffffff167c0100000000000000000000000000000000000000000000000000000000028152600401602060405180830381600087803b158015613dbb57600080fd5b505af1158015613dcf573d6000803e3d6000fd5b505050506040513d6020811015613de557600080fd5b810190808051906020019092919050505082019150806001019050613d11565b819250505090565b60008060009054906101000a900473ffffffffffffffffffffffffffffffffffffffff16905090565b600e81815481101515613e4557fe5b906000526020600020016000915054906101000a900473ffffffffffffffffffffffffffffffffffffffff1681565b6000613e7e612cf7565b73ffffffffffffffffffffffffffffffffffffffff16633bf8f34a6040518163ffffffff167c0100000000000000000000000000000000000000000000000000000000028152600401602060405180830381600087803b158015613ee157600080fd5b505af1158015613ef5573d6000803e3d6000fd5b505050506040513d6020811015613f0b57600080fd5b8101908080519060200190929190505050905090565b6000613f2b615d2a565b1515613f3657600080fd5b613f3e615c79565b73ffffffffffffffffffffffffffffffffffffffff1663da834ac4836040518263ffffffff167c010000000000000000000000000000000000000000000000000000000002815260040180828152602001915050602060405180830381600087803b158015613fac57600080fd5b505af1158015613fc0573d6000803e3d6000fd5b505050506040513d6020811015613fd657600080fd5b81019080805190602001909291905050509050919050565b6000600854905090565b60008060008060009054906101000a900473ffffffffffffffffffffffffffffffffffffffff1673ffffffffffffffffffffffffffffffffffffffff166322763ae16040518163ffffffff167c0100000000000000000000000000000000000000000000000000000000028152600401602060405180830381600087803b15801561408257600080fd5b505af1158015614096573d6000803e3d6000fd5b505050506040513d60208110156140ac57600080fd5b810190808051906020019092919050505015156140c857600080fd5b600360009054906101000a900473ffffffffffffffffffffffffffffffffffffffff1673ffffffffffffffffffffffffffffffffffffffff1663becb1f356040518163ffffffff167c0100000000000000000000000000000000000000000000000000000000028152600401602060405180830381600087803b15801561414e57600080fd5b505af1158015614162573d6000803e3d6000fd5b505050506040513d602081101561417857600080fd5b8101908080519060200190929190505050151561419457600080fd5b61419c61764d565b91503073ffffffffffffffffffffffffffffffffffffffff168273ffffffffffffffffffffffffffffffffffffffff16141515156141d957600080fd5b6141e1615d2a565b1515156141ed57600080fd5b6141f5612cf7565b9050600e60006142059190619ff3565b600e8190806001815401808255809150509060018203906000526020600020016000909192909190916101000a81548173ffffffffffffffffffffffffffffffffffffffff021916908373ffffffffffffffffffffffffffffffffffffffff160217905550506000809054906101000a900473ffffffffffffffffffffffffffffffffffffffff1673ffffffffffffffffffffffffffffffffffffffff1663f39ec1f76040518163ffffffff167c010000000000000000000000000000000000000000000000000000000002815260040180807f4d6170466163746f7279000000000000000000000000000000000000000000008152506020019050602060405180830381600087803b15801561431b57600080fd5b505af115801561432f573d6000803e3d6000fd5b505050506040513d602081101561434557600080fd5b810190808051906020019092919050505073ffffffffffffffffffffffffffffffffffffffff1663b782f6136000809054906101000a900473ffffffffffffffffffffffffffffffffffffffff16306040518363ffffffff167c0100000000000000000000000000000000000000000000000000000000028152600401808373ffffffffffffffffffffffffffffffffffffffff1673ffffffffffffffffffffffffffffffffffffffff1681526020018273ffffffffffffffffffffffffffffffffffffffff1673ffffffffffffffffffffffffffffffffffffffff16815260200192505050602060405180830381600087803b15801561444557600080fd5b505af1158015614459573d6000803e3d6000fd5b505050506040513d602081101561446f57600080fd5b8101908080519060200190929190505050600f60006101000a81548173ffffffffffffffffffffffffffffffffffffffff021916908373ffffffffffffffffffffffffffffffffffffffff1602179055506000809054906101000a900473ffffffffffffffffffffffffffffffffffffffff1673ffffffffffffffffffffffffffffffffffffffff16634e94c8296040518163ffffffff167c0100000000000000000000000000000000000000000000000000000000028152600401602060405180830381600087803b15801561454557600080fd5b505af1158015614559573d6000803e3d6000fd5b505050506040513d602081101561456f57600080fd5b810190808051906020019092919050505073ffffffffffffffffffffffffffffffffffffffff1663c67af5cc600360009054906101000a900473ffffffffffffffffffffffffffffffffffffffff166040518263ffffffff167c0100000000000000000000000000000000000000000000000000000000028152600401808273ffffffffffffffffffffffffffffffffffffffff1673ffffffffffffffffffffffffffffffffffffffff168152602001915050602060405180830381600087803b15801561463c57600080fd5b505af1158015614650573d6000803e3d6000fd5b505050506040513d602081101561466657600080fd5b81019080805190602001909291905050505060019250505090565b60008060009054906101000a900473ffffffffffffffffffffffffffffffffffffffff1673ffffffffffffffffffffffffffffffffffffffff166322763ae16040518163ffffffff167c0100000000000000000000000000000000000000000000000000000000028152600401602060405180830381600087803b15801561470857600080fd5b505af115801561471c573d6000803e3d6000fd5b505050506040513d602081101561473257600080fd5b8101908080519060200190929190505050151561474e57600080fd5b3073ffffffffffffffffffffffffffffffffffffffff16600360009054906101000a900473ffffffffffffffffffffffffffffffffffffffff1673ffffffffffffffffffffffffffffffffffffffff1663cb1d84186040518163ffffffff167c0100000000000000000000000000000000000000000000000000000000028152600401602060405180830381600087803b1580156147eb57600080fd5b505af11580156147ff573d6000803e3d6000fd5b505050506040513d602081101561481557600080fd5b810190808051906020019092919050505073ffffffffffffffffffffffffffffffffffffffff1614156148515761484a616cb6565b90506150b5565b600060010260001916600a546000191614151561486d57600080fd5b6000614877612cf7565b73ffffffffffffffffffffffffffffffffffffffff166394a771d76040518163ffffffff167c0100000000000000000000000000000000000000000000000000000000028152600401602060405180830381600087803b1580156148da57600080fd5b505af11580156148ee573d6000803e3d6000fd5b505050506040513d602081101561490457600080fd5b81019080805190602001909291905050501415151561492257600080fd5b600460009054906101000a900473ffffffffffffffffffffffffffffffffffffffff1673ffffffffffffffffffffffffffffffffffffffff1663b4bd9e276040518163ffffffff167c0100000000000000000000000000000000000000000000000000000000028152600401602060405180830381600087803b1580156149a857600080fd5b505af11580156149bc573d6000803e3d6000fd5b505050506040513d60208110156149d257600080fd5b810190808051906020019092919050505015156149ee57600080fd5b600360009054906101000a900473ffffffffffffffffffffffffffffffffffffffff1673ffffffffffffffffffffffffffffffffffffffff1663becb1f356040518163ffffffff167c0100000000000000000000000000000000000000000000000000000000028152600401602060405180830381600087803b158015614a7457600080fd5b505af1158015614a88573d6000803e3d6000fd5b505050506040513d6020811015614a9e57600080fd5b8101908080519060200190929190505050151515614abb57600080fd5b600e6001600e8054905003815481101515614ad257fe5b9060005260206000200160009054906101000a900473ffffffffffffffffffffffffffffffffffffffff1673ffffffffffffffffffffffffffffffffffffffff1663dd62f6f36040518163ffffffff167c0100000000000000000000000000000000000000000000000000000000028152600401602060405180830381600087803b158015614b6057600080fd5b505af1158015614b74573d6000803e3d6000fd5b505050506040513d6020811015614b8a57600080fd5b8101908080519060200190929190505050600a8160001916905550600460009054906101000a900473ffffffffffffffffffffffffffffffffffffffff1673ffffffffffffffffffffffffffffffffffffffff16638dc6e2f16040518163ffffffff167c0100000000000000000000000000000000000000000000000000000000028152600401602060405180830381600087803b158015614c2b57600080fd5b505af1158015614c3f573d6000803e3d6000fd5b505050506040513d6020811015614c5557600080fd5b810190808051906020019092919050505050600360009054906101000a900473ffffffffffffffffffffffffffffffffffffffff1673ffffffffffffffffffffffffffffffffffffffff16630db3be6a614d9260065460106000815481101515614cbb57fe5b9060005260206000200160009054906101000a900473ffffffffffffffffffffffffffffffffffffffff1673ffffffffffffffffffffffffffffffffffffffff166318160ddd6040518163ffffffff167c0100000000000000000000000000000000000000000000000000000000028152600401602060405180830381600087803b158015614d4957600080fd5b505af1158015614d5d573d6000803e3d6000fd5b505050506040513d6020811015614d7357600080fd5b8101908080519060200190929190505050617b6790919063ffffffff16565b6040518263ffffffff167c010000000000000000000000000000000000000000000000000000000002815260040180828152602001915050602060405180830381600087803b158015614de457600080fd5b505af1158015614df8573d6000803e3d6000fd5b505050506040513d6020811015614e0e57600080fd5b810190808051906020019092919050505050614e28618610565b50614e31618a98565b506000809054906101000a900473ffffffffffffffffffffffffffffffffffffffff1673ffffffffffffffffffffffffffffffffffffffff1663188ec3566040518163ffffffff167c0100000000000000000000000000000000000000000000000000000000028152600401602060405180830381600087803b158015614eb757600080fd5b505af1158015614ecb573d6000803e3d6000fd5b505050506040513d6020811015614ee157600080fd5b8101908080519060200190929190505050600d819055506000809054906101000a900473ffffffffffffffffffffffffffffffffffffffff1673ffffffffffffffffffffffffffffffffffffffff16634e94c8296040518163ffffffff167c0100000000000000000000000000000000000000000000000000000000028152600401602060405180830381600087803b158015614f7d57600080fd5b505af1158015614f91573d6000803e3d6000fd5b505050506040513d6020811015614fa757600080fd5b810190808051906020019092919050505073ffffffffffffffffffffffffffffffffffffffff166327816ffc600360009054906101000a900473ffffffffffffffffffffffffffffffffffffffff166040518263ffffffff167c0100000000000000000000000000000000000000000000000000000000028152600401808273ffffffffffffffffffffffffffffffffffffffff1673ffffffffffffffffffffffffffffffffffffffff168152602001915050602060405180830381600087803b15801561507457600080fd5b505af1158015615088573d6000803e3d6000fd5b505050506040513d602081101561509e57600080fd5b810190808051906020019092919050505050600190505b90565b60008173ffffffffffffffffffffffffffffffffffffffff166151788373ffffffffffffffffffffffffffffffffffffffff16637e7e4b476040518163ffffffff167c0100000000000000000000000000000000000000000000000000000000028152600401602060405180830381600087803b15801561513857600080fd5b505af115801561514c573d6000803e3d6000fd5b505050506040513d602081101561516257600080fd5b8101908080519060200190929190505050615a1b565b73ffffffffffffffffffffffffffffffffffffffff16149050919050565b6000806000806000809054906101000a900473ffffffffffffffffffffffffffffffffffffffff1673ffffffffffffffffffffffffffffffffffffffff166322763ae16040518163ffffffff167c0100000000000000000000000000000000000000000000000000000000028152600401602060405180830381600087803b15801561522157600080fd5b505af1158015615235573d6000803e3d6000fd5b505050506040513d602081101561524b57600080fd5b8101908080519060200190929190505050151561526757600080fd5b600460009054906101000a900473ffffffffffffffffffffffffffffffffffffffff1673ffffffffffffffffffffffffffffffffffffffff166322f3e2d46040518163ffffffff167c0100000000000000000000000000000000000000000000000000000000028152600401602060405180830381600087803b1580156152ed57600080fd5b505af1158015615301573d6000803e3d6000fd5b505050506040513d602081101561531757600080fd5b8101908080519060200190929190505050151561533357600080fd5b600360009054906101000a900473ffffffffffffffffffffffffffffffffffffffff1673ffffffffffffffffffffffffffffffffffffffff1663becb1f356040518163ffffffff167c0100000000000000000000000000000000000000000000000000000000028152600401602060405180830381600087803b1580156153b957600080fd5b505af11580156153cd573d6000803e3d6000fd5b505050506040513d60208110156153e357600080fd5b810190808051906020019092919050505015151561540057600080fd5b61540a8787613bad565b9250615414615c79565b73ffffffffffffffffffffffffffffffffffffffff1663dd62f6f36040518163ffffffff167c0100000000000000000000000000000000000000000000000000000000028152600401602060405180830381600087803b15801561547757600080fd5b505af115801561548b573d6000803e3d6000fd5b505050506040513d60208110156154a157600080fd5b8101908080519060200190929190505050600019168360001916141515156154c857600080fd5b6154d3838888618d36565b91508173ffffffffffffffffffffffffffffffffffffffff16638418cd9933876040518363ffffffff167c0100000000000000000000000000000000000000000000000000000000028152600401808373ffffffffffffffffffffffffffffffffffffffff1673ffffffffffffffffffffffffffffffffffffffff16815260200182815260200192505050602060405180830381600087803b15801561557857600080fd5b505af115801561558c573d6000803e3d6000fd5b505050506040513d60208110156155a257600080fd5b810190808051906020019092919050505090506000809054906101000a900473ffffffffffffffffffffffffffffffffffffffff1673ffffffffffffffffffffffffffffffffffffffff16634e94c8296040518163ffffffff167c0100000000000000000000000000000000000000000000000000000000028152600401602060405180830381600087803b15801561563a57600080fd5b505af115801561564e573d6000803e3d6000fd5b505050506040513d602081101561566457600080fd5b810190808051906020019092919050505073ffffffffffffffffffffffffffffffffffffffff166350f93381600360009054906101000a900473ffffffffffffffffffffffffffffffffffffffff16333086866040518663ffffffff167c0100000000000000000000000000000000000000000000000000000000028152600401808673ffffffffffffffffffffffffffffffffffffffff1673ffffffffffffffffffffffffffffffffffffffff1681526020018573ffffffffffffffffffffffffffffffffffffffff1673ffffffffffffffffffffffffffffffffffffffff1681526020018473ffffffffffffffffffffffffffffffffffffffff1673ffffffffffffffffffffffffffffffffffffffff1681526020018373ffffffffffffffffffffffffffffffffffffffff1673ffffffffffffffffffffffffffffffffffffffff16815260200182815260200195505050505050602060405180830381600087803b1580156157d557600080fd5b505af11580156157e9573d6000803e3d6000fd5b505050506040513d60208110156157ff57600080fd5b8101908080519060200190929190505050508173ffffffffffffffffffffffffffffffffffffffff1663de8fa4316040518163ffffffff167c0100000000000000000000000000000000000000000000000000000000028152600401602060405180830381600087803b15801561587557600080fd5b505af1158015615889573d6000803e3d6000fd5b505050506040513d602081101561589f57600080fd5b81019080805190602001909291905050508273ffffffffffffffffffffffffffffffffffffffff166318160ddd6040518163ffffffff167c0100000000000000000000000000000000000000000000000000000000028152600401602060405180830381600087803b15801561591457600080fd5b505af1158015615928573d6000803e3d6000fd5b505050506040513d602081101561593e57600080fd5b810190808051906020019092919050505014156159605761595e826194ac565b505b600193505050509392505050565b6000615978612cf7565b73ffffffffffffffffffffffffffffffffffffffff16635b6e24926040518163ffffffff167c0100000000000000000000000000000000000000000000000000000000028152600401602060405180830381600087803b1580156159db57600080fd5b505af11580156159ef573d6000803e3d6000fd5b505050506040513d6020811015615a0557600080fd5b8101908080519060200190929190505050905090565b6000601082815481101515615a2c57fe5b9060005260206000200160009054906101000a900473ffffffffffffffffffffffffffffffffffffffff169050919050565b60008060008090505b600e80549050811015615c49578360001916600e82815481101515615a8857fe5b9060005260206000200160009054906101000a900473ffffffffffffffffffffffffffffffffffffffff1673ffffffffffffffffffffffffffffffffffffffff1663dd62f6f36040518163ffffffff167c0100000000000000000000000000000000000000000000000000000000028152600401602060405180830381600087803b158015615b1657600080fd5b505af1158015615b2a573d6000803e3d6000fd5b505050506040513d6020811015615b4057600080fd5b810190808051906020019092919050505060001916141515615b6157615c3e565b600e81815481101515615b7057fe5b9060005260206000200160009054906101000a900473ffffffffffffffffffffffffffffffffffffffff1673ffffffffffffffffffffffffffffffffffffffff1663fc0e3d906040518163ffffffff167c0100000000000000000000000000000000000000000000000000000000028152600401602060405180830381600087803b158015615bfe57600080fd5b505af1158015615c12573d6000803e3d6000fd5b505050506040513d6020811015615c2857600080fd5b8101908080519060200190929190505050820191505b806001019050615a67565b8192505050919050565b600f60009054906101000a900473ffffffffffffffffffffffffffffffffffffffff1681565b6000600e6001600e8054905003815481101515615c9257fe5b9060005260206000200160009054906101000a900473ffffffffffffffffffffffffffffffffffffffff16905090565b6000600b54905090565b6000600a54905090565b6000600360009054906101000a900473ffffffffffffffffffffffffffffffffffffffff16905090565b6000600260019054906101000a900473ffffffffffffffffffffffffffffffffffffffff16905090565b60008060010260001916600a54600019161415905090565b6000615d4c61a014565b6000806000809054906101000a900473ffffffffffffffffffffffffffffffffffffffff1673ffffffffffffffffffffffffffffffffffffffff166322763ae16040518163ffffffff167c0100000000000000000000000000000000000000000000000000000000028152600401602060405180830381600087803b158015615dd457600080fd5b505af1158015615de8573d6000803e3d6000fd5b505050506040513d6020811015615dfe57600080fd5b81019080805190602001909291905050501515615e1a57600080fd5b60a0604051908101604052807f43616e63656c4f72646572000000000000000000000000000000000000000000600019166000191681526020017f436f6d706c657465536574730000000000000000000000000000000000000000600019166000191681526020017f46696c6c4f726465720000000000000000000000000000000000000000000000600019166000191681526020017f54726164696e6745736361706548617463680000000000000000000000000000600019166000191681526020017f436c61696d54726164696e6750726f636565647300000000000000000000000060001916600019168152509250600091505b600582101561613657600560009054906101000a900473ffffffffffffffffffffffffffffffffffffffff1673ffffffffffffffffffffffffffffffffffffffff1663095ea7b36000809054906101000a900473ffffffffffffffffffffffffffffffffffffffff1673ffffffffffffffffffffffffffffffffffffffff1663f39ec1f78686600581101515615fa357fe5b60200201516040518263ffffffff167c0100000000000000000000000000000000000000000000000000000000028152600401808260001916600019168152602001915050602060405180830381600087803b15801561600257600080fd5b505af1158015616016573d6000803e3d6000fd5b505050506040513d602081101561602c57600080fd5b81019080805190602001909291905050507fffffffffffffffffffffffffffffffffffffffffffffffffffffffffffffffff6040518363ffffffff167c0100000000000000000000000000000000000000000000000000000000028152600401808373ffffffffffffffffffffffffffffffffffffffff1673ffffffffffffffffffffffffffffffffffffffff16815260200182815260200192505050602060405180830381600087803b1580156160e357600080fd5b505af11580156160f7573d6000803e3d6000fd5b505050506040513d602081101561610d57600080fd5b8101908080519060200190929190505050151561612957600080fd5b8180600101925050615f11565b600090505b60095481101561637e5760108181548110151561615457fe5b9060005260206000200160009054906101000a900473ffffffffffffffffffffffffffffffffffffffff1673ffffffffffffffffffffffffffffffffffffffff1663095ea7b36000809054906101000a900473ffffffffffffffffffffffffffffffffffffffff1673ffffffffffffffffffffffffffffffffffffffff1663f39ec1f76040518163ffffffff167c010000000000000000000000000000000000000000000000000000000002815260040180807f46696c6c4f7264657200000000000000000000000000000000000000000000008152506020019050602060405180830381600087803b15801561624a57600080fd5b505af115801561625e573d6000803e3d6000fd5b505050506040513d602081101561627457600080fd5b81019080805190602001909291905050507fffffffffffffffffffffffffffffffffffffffffffffffffffffffffffffffff6040518363ffffffff167c0100000000000000000000000000000000000000000000000000000000028152600401808373ffffffffffffffffffffffffffffffffffffffff1673ffffffffffffffffffffffffffffffffffffffff16815260200182815260200192505050602060405180830381600087803b15801561632b57600080fd5b505af115801561633f573d6000803e3d6000fd5b505050506040513d602081101561635557600080fd5b8101908080519060200190929190505050151561637157600080fd5b808060010191505061613b565b6001935050505090565b6000616392612cf7565b73ffffffffffffffffffffffffffffffffffffffff16638ed882c56040518163ffffffff167c0100000000000000000000000000000000000000000000000000000000028152600401602060405180830381600087803b1580156163f557600080fd5b505af1158015616409573d6000803e3d6000fd5b505050506040513d602081101561641f57600080fd5b8101908080519060200190929190505050905090565b60008060009054906101000a900473ffffffffffffffffffffffffffffffffffffffff1673ffffffffffffffffffffffffffffffffffffffff163373ffffffffffffffffffffffffffffffffffffffff1614151561649257600080fd5b816000806101000a81548173ffffffffffffffffffffffffffffffffffffffff021916908373ffffffffffffffffffffffffffffffffffffffff16021790555060019050919050565b60006164f96164e8619dbc565b6008546185ef90919063ffffffff16565b905090565b6000806000806000809054906101000a900473ffffffffffffffffffffffffffffffffffffffff1673ffffffffffffffffffffffffffffffffffffffff1663f39ec1f76040518163ffffffff167c010000000000000000000000000000000000000000000000000000000002815260040180807f4f726465727300000000000000000000000000000000000000000000000000008152506020019050602060405180830381600087803b1580156165b457600080fd5b505af11580156165c8573d6000803e3d6000fd5b505050506040513d60208110156165de57600080fd5b810190808051906020019092919050505073ffffffffffffffffffffffffffffffffffffffff166337ec114d306040518263ffffffff167c0100000000000000000000000000000000000000000000000000000000028152600401808273ffffffffffffffffffffffffffffffffffffffff1673ffffffffffffffffffffffffffffffffffffffff168152602001915050602060405180830381600087803b15801561668957600080fd5b505af115801561669d573d6000803e3d6000fd5b505050506040513d60208110156166b357600080fd5b810190808051906020019092919050505092506166ce615d2a565b156168a5576166db615c79565b9150600090505b6009548110156168a0576168916168828373ffffffffffffffffffffffffffffffffffffffff1663da834ac4846040518263ffffffff167c010000000000000000000000000000000000000000000000000000000002815260040180828152602001915050602060405180830381600087803b15801561676157600080fd5b505af1158015616775573d6000803e3d6000fd5b505050506040513d602081101561678b57600080fd5b81019080805190602001909291905050506010848154811015156167ab57fe5b9060005260206000200160009054906101000a900473ffffffffffffffffffffffffffffffffffffffff1673ffffffffffffffffffffffffffffffffffffffff166318160ddd6040518163ffffffff167c0100000000000000000000000000000000000000000000000000000000028152600401602060405180830381600087803b15801561683957600080fd5b505af115801561684d573d6000803e3d6000fd5b505050506040513d602081101561686357600080fd5b8101908080519060200190929190505050617b6790919063ffffffff16565b846185ef90919063ffffffff16565b925080806001019150506166e2565b6169a7565b6169a4616995600654601060008154811015156168be57fe5b9060005260206000200160009054906101000a900473ffffffffffffffffffffffffffffffffffffffff1673ffffffffffffffffffffffffffffffffffffffff166318160ddd6040518163ffffffff167c0100000000000000000000000000000000000000000000000000000000028152600401602060405180830381600087803b15801561694c57600080fd5b505af1158015616960573d6000803e3d6000fd5b505050506040513d602081101561697657600080fd5b8101908080519060200190929190505050617b6790919063ffffffff16565b846185ef90919063ffffffff16565b92505b82600560009054906101000a900473ffffffffffffffffffffffffffffffffffffffff1673ffffffffffffffffffffffffffffffffffffffff166370a08231306040518263ffffffff167c0100000000000000000000000000000000000000000000000000000000028152600401808273ffffffffffffffffffffffffffffffffffffffff1673ffffffffffffffffffffffffffffffffffffffff168152602001915050602060405180830381600087803b158015616a6557600080fd5b505af1158015616a79573d6000803e3d6000fd5b505050506040513d6020811015616a8f57600080fd5b810190808051906020019092919050505010151515616aaa57fe5b6001935050505090565b6000600d54905090565b6000600360009054906101000a900473ffffffffffffffffffffffffffffffffffffffff1673ffffffffffffffffffffffffffffffffffffffff1663b80907f26040518163ffffffff167c0100000000000000000000000000000000000000000000000000000000028152600401602060405180830381600087803b158015616b4657600080fd5b505af1158015616b5a573d6000803e3d6000fd5b505050506040513d6020811015616b7057600080fd5b8101908080519060200190929190505050905090565b6000600654905090565b6000600e82815481101515616ba157fe5b9060005260206000200160009054906101000a900473ffffffffffffffffffffffffffffffffffffffff169050919050565b60015481565b6000600f60009054906101000a900473ffffffffffffffffffffffffffffffffffffffff1673ffffffffffffffffffffffffffffffffffffffff1663d8e5e64e836040518263ffffffff167c0100000000000000000000000000000000000000000000000000000000028152600401808260001916600019168152602001915050602060405180830381600087803b158015616c7457600080fd5b505af1158015616c88573d6000803e3d6000fd5b505050506040513d6020811015616c9e57600080fd5b81019080805190602001909291905050509050919050565b6000806000809054906101000a900473ffffffffffffffffffffffffffffffffffffffff1673ffffffffffffffffffffffffffffffffffffffff166322763ae16040518163ffffffff167c0100000000000000000000000000000000000000000000000000000000028152600401602060405180830381600087803b158015616d3e57600080fd5b505af1158015616d52573d6000803e3d6000fd5b505050506040513d6020811015616d6857600080fd5b81019080805190602001909291905050501515616d8457600080fd5b3073ffffffffffffffffffffffffffffffffffffffff16600360009054906101000a900473ffffffffffffffffffffffffffffffffffffffff1673ffffffffffffffffffffffffffffffffffffffff1663cb1d84186040518163ffffffff167c0100000000000000000000000000000000000000000000000000000000028152600401602060405180830381600087803b158015616e2157600080fd5b505af1158015616e35573d6000803e3d6000fd5b505050506040513d6020811015616e4b57600080fd5b810190808051906020019092919050505073ffffffffffffffffffffffffffffffffffffffff16141515616e7e57600080fd5b600060010260001916600a5460001916141515616e9a57600080fd5b600360009054906101000a900473ffffffffffffffffffffffffffffffffffffffff1673ffffffffffffffffffffffffffffffffffffffff16636f70b9cb6040518163ffffffff167c0100000000000000000000000000000000000000000000000000000000028152600401602060405180830381600087803b158015616f2057600080fd5b505af1158015616f34573d6000803e3d6000fd5b505050506040513d6020811015616f4a57600080fd5b810190808051906020019092919050505090508073ffffffffffffffffffffffffffffffffffffffff1663c38c0fa76040518163ffffffff167c0100000000000000000000000000000000000000000000000000000000028152600401602060405180830381600087803b158015616fc157600080fd5b505af1158015616fd5573d6000803e3d6000fd5b505050506040513d6020811015616feb57600080fd5b8101908080519060200190929190505050600a81600019169055506000809054906101000a900473ffffffffffffffffffffffffffffffffffffffff1673ffffffffffffffffffffffffffffffffffffffff1663188ec3566040518163ffffffff167c0100000000000000000000000000000000000000000000000000000000028152600401602060405180830381600087803b15801561708b57600080fd5b505af115801561709f573d6000803e3d6000fd5b505050506040513d60208110156170b557600080fd5b8101908080519060200190929190505050600d819055506000809054906101000a900473ffffffffffffffffffffffffffffffffffffffff1673ffffffffffffffffffffffffffffffffffffffff16634e94c8296040518163ffffffff167c0100000000000000000000000000000000000000000000000000000000028152600401602060405180830381600087803b15801561715157600080fd5b505af1158015617165573d6000803e3d6000fd5b505050506040513d602081101561717b57600080fd5b810190808051906020019092919050505073ffffffffffffffffffffffffffffffffffffffff166327816ffc600360009054906101000a900473ffffffffffffffffffffffffffffffffffffffff166040518263ffffffff167c0100000000000000000000000000000000000000000000000000000000028152600401808273ffffffffffffffffffffffffffffffffffffffff1673ffffffffffffffffffffffffffffffffffffffff168152602001915050602060405180830381600087803b15801561724857600080fd5b505af115801561725c573d6000803e3d6000fd5b505050506040513d602081101561727257600080fd5b810190808051906020019092919050505050600191505090565b60008060008060009054906101000a900473ffffffffffffffffffffffffffffffffffffffff1673ffffffffffffffffffffffffffffffffffffffff16633b0481236040518163ffffffff167c0100000000000000000000000000000000000000000000000000000000028152600401602060405180830381600087803b15801561731657600080fd5b505af115801561732a573d6000803e3d6000fd5b505050506040513d602081101561734057600080fd5b8101908080519060200190929190505050151561735c57600080fd5b600260019054906101000a900473ffffffffffffffffffffffffffffffffffffffff1673ffffffffffffffffffffffffffffffffffffffff163373ffffffffffffffffffffffffffffffffffffffff161415156173b857600080fd5b6173c0616abe565b91508173ffffffffffffffffffffffffffffffffffffffff166370a08231306040518263ffffffff167c0100000000000000000000000000000000000000000000000000000000028152600401808273ffffffffffffffffffffffffffffffffffffffff1673ffffffffffffffffffffffffffffffffffffffff168152602001915050602060405180830381600087803b15801561745d57600080fd5b505af1158015617471573d6000803e3d6000fd5b505050506040513d602081101561748757600080fd5b810190808051906020019092919050505090508173ffffffffffffffffffffffffffffffffffffffff1663a9059cbb33836040518363ffffffff167c0100000000000000000000000000000000000000000000000000000000028152600401808373ffffffffffffffffffffffffffffffffffffffff1673ffffffffffffffffffffffffffffffffffffffff16815260200182815260200192505050602060405180830381600087803b15801561753d57600080fd5b505af1158015617551573d6000803e3d6000fd5b505050506040513d602081101561756757600080fd5b8101908080519060200190929190505050151561758357600080fd5b60003073ffffffffffffffffffffffffffffffffffffffff16311115617602573373ffffffffffffffffffffffffffffffffffffffff166108fc3073ffffffffffffffffffffffffffffffffffffffff16319081150290604051600060405180830381858888f19350505050158015617600573d6000803e3d6000fd5b505b60019250505090565b6000600e600081548110151561761d57fe5b9060005260206000200160009054906101000a900473ffffffffffffffffffffffffffffffffffffffff16905090565b6000600360009054906101000a900473ffffffffffffffffffffffffffffffffffffffff1673ffffffffffffffffffffffffffffffffffffffff1663cb1d84186040518163ffffffff167c0100000000000000000000000000000000000000000000000000000000028152600401602060405180830381600087803b1580156176d557600080fd5b505af11580156176e9573d6000803e3d6000fd5b505050506040513d60208110156176ff57600080fd5b8101908080519060200190929190505050905090565b60007f4d61726b65740000000000000000000000000000000000000000000000000000905090565b6000600560009054906101000a900473ffffffffffffffffffffffffffffffffffffffff16905090565b6000600c60009054906101000a900473ffffffffffffffffffffffffffffffffffffffff16905090565b6000600260009054906101000a900460ff16905090565b6000600260019054906101000a900473ffffffffffffffffffffffffffffffffffffffff1673ffffffffffffffffffffffffffffffffffffffff163373ffffffffffffffffffffffffffffffffffffffff1614151561780657600080fd5b600073ffffffffffffffffffffffffffffffffffffffff168273ffffffffffffffffffffffffffffffffffffffff161415156178ab57617868600260019054906101000a900473ffffffffffffffffffffffffffffffffffffffff1683619dc7565b5081600260016101000a81548173ffffffffffffffffffffffffffffffffffffffff021916908373ffffffffffffffffffffffffffffffffffffffff1602179055505b60019050919050565b6000808273ffffffffffffffffffffffffffffffffffffffff16600f60009054906101000a900473ffffffffffffffffffffffffffffffffffffffff1673ffffffffffffffffffffffffffffffffffffffff1663d8e5e64e8573ffffffffffffffffffffffffffffffffffffffff1663dd62f6f36040518163ffffffff167c0100000000000000000000000000000000000000000000000000000000028152600401602060405180830381600087803b15801561797057600080fd5b505af1158015617984573d6000803e3d6000fd5b505050506040513d602081101561799a57600080fd5b81019080805190602001909291905050506040518263ffffffff167c0100000000000000000000000000000000000000000000000000000000028152600401808260001916600019168152602001915050602060405180830381600087803b158015617a0557600080fd5b505af1158015617a19573d6000803e3d6000fd5b505050506040513d6020811015617a2f57600080fd5b810190808051906020019092919050505073ffffffffffffffffffffffffffffffffffffffff161415617a655760019150617aff565b600090505b600e80549050811015617afa57600e81815481101515617a8657fe5b9060005260206000200160009054906101000a900473ffffffffffffffffffffffffffffffffffffffff1673ffffffffffffffffffffffffffffffffffffffff168373ffffffffffffffffffffffffffffffffffffffff161415617aed5760019150617aff565b8080600101915050617a6a565b600091505b50919050565b6000600460009054906101000a900473ffffffffffffffffffffffffffffffffffffffff16905090565b6000806007541415617b445760009050617b55565b60075482811515617b5157fe5b0490505b919050565b6000600e80549050905090565b60008082840290506000841480617b885750828482811515617b8557fe5b04145b1515617b9357600080fd5b8091505092915050565b6000806000617baa616abe565b91508173ffffffffffffffffffffffffffffffffffffffff166370a08231306040518263ffffffff167c0100000000000000000000000000000000000000000000000000000000028152600401808273ffffffffffffffffffffffffffffffffffffffff1673ffffffffffffffffffffffffffffffffffffffff168152602001915050602060405180830381600087803b158015617c4757600080fd5b505af1158015617c5b573d6000803e3d6000fd5b505050506040513d6020811015617c7157600080fd5b810190808051906020019092919050505090508473ffffffffffffffffffffffffffffffffffffffff16635b6e24926040518163ffffffff167c0100000000000000000000000000000000000000000000000000000000028152600401602060405180830381600087803b158015617ce857600080fd5b505af1158015617cfc573d6000803e3d6000fd5b505050506040513d6020811015617d1257600080fd5b810190808051906020019092919050505073ffffffffffffffffffffffffffffffffffffffff168473ffffffffffffffffffffffffffffffffffffffff161415617e66578173ffffffffffffffffffffffffffffffffffffffff1663a9059cbb600260019054906101000a900473ffffffffffffffffffffffffffffffffffffffff16836040518363ffffffff167c0100000000000000000000000000000000000000000000000000000000028152600401808373ffffffffffffffffffffffffffffffffffffffff1673ffffffffffffffffffffffffffffffffffffffff16815260200182815260200192505050602060405180830381600087803b158015617e1b57600080fd5b505af1158015617e2f573d6000803e3d6000fd5b505050506040513d6020811015617e4557600080fd5b81019080805190602001909291905050501515617e6157600080fd5b617f50565b8173ffffffffffffffffffffffffffffffffffffffff1663a9059cbb86836040518363ffffffff167c0100000000000000000000000000000000000000000000000000000000028152600401808373ffffffffffffffffffffffffffffffffffffffff1673ffffffffffffffffffffffffffffffffffffffff16815260200182815260200192505050602060405180830381600087803b158015617f0957600080fd5b505af1158015617f1d573d6000803e3d6000fd5b505050506040513d6020811015617f3357600080fd5b81019080805190602001909291905050501515617f4f57600080fd5b5b60019250505092915050565b6000600260009054906101000a900460ff16151515617f7a57600080fd5b6001600260006101000a81548160ff0219169083151502179055506001905090565b60008060009054906101000a900473ffffffffffffffffffffffffffffffffffffffff1673ffffffffffffffffffffffffffffffffffffffff166322763ae16040518163ffffffff167c0100000000000000000000000000000000000000000000000000000000028152600401602060405180830381600087803b15801561802357600080fd5b505af1158015618037573d6000803e3d6000fd5b505050506040513d602081101561804d57600080fd5b8101908080519060200190929190505050151561806957600080fd5b600360009054906101000a900473ffffffffffffffffffffffffffffffffffffffff1673ffffffffffffffffffffffffffffffffffffffff1663fd1e5e7a6040518163ffffffff167c0100000000000000000000000000000000000000000000000000000000028152600401602060405180830381600087803b1580156180ef57600080fd5b505af1158015618103573d6000803e3d6000fd5b505050506040513d602081101561811957600080fd5b8101908080519060200190929190505050618132616abe565b73ffffffffffffffffffffffffffffffffffffffff166370a08231306040518263ffffffff167c0100000000000000000000000000000000000000000000000000000000028152600401808273ffffffffffffffffffffffffffffffffffffffff1673ffffffffffffffffffffffffffffffffffffffff168152602001915050602060405180830381600087803b1580156181cc57600080fd5b505af11580156181e0573d6000803e3d6000fd5b505050506040513d60208110156181f657600080fd5b81019080805190602001909291905050501015151561821457600080fd5b600360009054906101000a900473ffffffffffffffffffffffffffffffffffffffff1673ffffffffffffffffffffffffffffffffffffffff1663af4cd4576040518163ffffffff167c0100000000000000000000000000000000000000000000000000000000028152600401602060405180830381600087803b15801561829a57600080fd5b505af11580156182ae573d6000803e3d6000fd5b505050506040513d60208110156182c457600080fd5b8101908080519060200190929190505050600b819055506001905090565b60008060009054906101000a900473ffffffffffffffffffffffffffffffffffffffff1673ffffffffffffffffffffffffffffffffffffffff166322763ae16040518163ffffffff167c0100000000000000000000000000000000000000000000000000000000028152600401602060405180830381600087803b15801561836957600080fd5b505af115801561837d573d6000803e3d6000fd5b505050506040513d602081101561839357600080fd5b810190808051906020019092919050505015156183af57600080fd5b6000809054906101000a900473ffffffffffffffffffffffffffffffffffffffff1673ffffffffffffffffffffffffffffffffffffffff1663f39ec1f76040518163ffffffff167c010000000000000000000000000000000000000000000000000000000002815260040180807f5368617265546f6b656e466163746f72790000000000000000000000000000008152506020019050602060405180830381600087803b15801561845f57600080fd5b505af1158015618473573d6000803e3d6000fd5b505050506040513d602081101561848957600080fd5b810190808051906020019092919050505073ffffffffffffffffffffffffffffffffffffffff16635f97709a6000809054906101000a900473ffffffffffffffffffffffffffffffffffffffff1630856040518463ffffffff167c0100000000000000000000000000000000000000000000000000000000028152600401808473ffffffffffffffffffffffffffffffffffffffff1673ffffffffffffffffffffffffffffffffffffffff1681526020018373ffffffffffffffffffffffffffffffffffffffff1673ffffffffffffffffffffffffffffffffffffffff1681526020018281526020019350505050602060405180830381600087803b15801561859157600080fd5b505af11580156185a5573d6000803e3d6000fd5b505050506040513d60208110156185bb57600080fd5b81019080805190602001909291905050509050919050565b60008282111515156185e457600080fd5b818303905092915050565b600080828401905083811015151561860657600080fd5b8091505092915050565b60008060008060006001600e80549050141561862f5760019450618a91565b600092505b600e805490508310156187dc57600e8381548110151561865057fe5b9060005260206000200160009054906101000a900473ffffffffffffffffffffffffffffffffffffffff169350600a54600019168473ffffffffffffffffffffffffffffffffffffffff1663dd62f6f36040518163ffffffff167c0100000000000000000000000000000000000000000000000000000000028152600401602060405180830381600087803b1580156186e857600080fd5b505af11580156186fc573d6000803e3d6000fd5b505050506040513d602081101561871257600080fd5b8101908080519060200190929190505050600019161415156187cf578373ffffffffffffffffffffffffffffffffffffffff166322b152a36040518163ffffffff167c0100000000000000000000000000000000000000000000000000000000028152600401602060405180830381600087803b15801561879257600080fd5b505af11580156187a6573d6000803e3d6000fd5b505050506040513d60208110156187bc57600080fd5b8101908080519060200190929190505050505b8280600101935050618634565b6187e4616abe565b9150600090505b600e80549050811015618a8c57600e8181548110151561880757fe5b9060005260206000200160009054906101000a900473ffffffffffffffffffffffffffffffffffffffff169350600a54600019168473ffffffffffffffffffffffffffffffffffffffff1663dd62f6f36040518163ffffffff167c0100000000000000000000000000000000000000000000000000000000028152600401602060405180830381600087803b15801561889f57600080fd5b505af11580156188b3573d6000803e3d6000fd5b505050506040513d60208110156188c957600080fd5b8101908080519060200190929190505050600019161415618a7f578173ffffffffffffffffffffffffffffffffffffffff1663a9059cbb856189b360028873ffffffffffffffffffffffffffffffffffffffff1663de8fa4316040518163ffffffff167c0100000000000000000000000000000000000000000000000000000000028152600401602060405180830381600087803b15801561896a57600080fd5b505af115801561897e573d6000803e3d6000fd5b505050506040513d602081101561899457600080fd5b8101908080519060200190929190505050619fd890919063ffffffff16565b6040518363ffffffff167c0100000000000000000000000000000000000000000000000000000000028152600401808373ffffffffffffffffffffffffffffffffffffffff1673ffffffffffffffffffffffffffffffffffffffff16815260200182815260200192505050602060405180830381600087803b158015618a3857600080fd5b505af1158015618a4c573d6000803e3d6000fd5b505050506040513d6020811015618a6257600080fd5b81019080805190602001909291905050501515618a7e57600080fd5b5b80806001019150506187eb565b600194505b5050505090565b6000618aa261119f565b1515618b7257600c60009054906101000a900473ffffffffffffffffffffffffffffffffffffffff1673ffffffffffffffffffffffffffffffffffffffff166398ea5fca600b546040518263ffffffff167c01000000000000000000000000000000000000000000000000000000000281526004016020604051808303818588803b158015618b3057600080fd5b505af1158015618b44573d6000803e3d6000fd5b50505050506040513d6020811015618b5b57600080fd5b810190808051906020019092919050505050618d2f565b600560009054906101000a900473ffffffffffffffffffffffffffffffffffffffff1673ffffffffffffffffffffffffffffffffffffffff16634faa8a26600b54600360009054906101000a900473ffffffffffffffffffffffffffffffffffffffff1673ffffffffffffffffffffffffffffffffffffffff166379f966006040518163ffffffff167c0100000000000000000000000000000000000000000000000000000000028152600401602060405180830381600087803b158015618c3957600080fd5b505af1158015618c4d573d6000803e3d6000fd5b505050506040513d6020811015618c6357600080fd5b81019080805190602001909291905050506040518363ffffffff167c0100000000000000000000000000000000000000000000000000000000028152600401808273ffffffffffffffffffffffffffffffffffffffff1673ffffffffffffffffffffffffffffffffffffffff1681526020019150506020604051808303818588803b158015618cf157600080fd5b505af1158015618d05573d6000803e3d6000fd5b50505050506040513d6020811015618d1c57600080fd5b8101908080519060200190929190505050505b6001905090565b600080600080600f60009054906101000a900473ffffffffffffffffffffffffffffffffffffffff1673ffffffffffffffffffffffffffffffffffffffff1663d8e5e64e886040518263ffffffff167c0100000000000000000000000000000000000000000000000000000000028152600401808260001916600019168152602001915050602060405180830381600087803b158015618dd557600080fd5b505af1158015618de9573d6000803e3d6000fd5b505050506040513d6020811015618dff57600080fd5b81019080805190602001909291905050509250600073ffffffffffffffffffffffffffffffffffffffff168373ffffffffffffffffffffffffffffffffffffffff16141561949f57618e8f618e666003618e588a615a5e565b617b6790919063ffffffff16565b618e816002618e73613d08565b617b6790919063ffffffff16565b6185d390919063ffffffff16565b91506000809054906101000a900473ffffffffffffffffffffffffffffffffffffffff1673ffffffffffffffffffffffffffffffffffffffff1663f39ec1f76040518163ffffffff167c010000000000000000000000000000000000000000000000000000000002815260040180807f4469737075746543726f7764736f7572636572466163746f72790000000000008152506020019050602060405180830381600087803b158015618f4157600080fd5b505af1158015618f55573d6000803e3d6000fd5b505050506040513d6020811015618f6b57600080fd5b810190808051906020019092919050505090508073ffffffffffffffffffffffffffffffffffffffff16634b841ddf6000809054906101000a900473ffffffffffffffffffffffffffffffffffffffff1630858b8b8b6040518763ffffffff167c0100000000000000000000000000000000000000000000000000000000028152600401808773ffffffffffffffffffffffffffffffffffffffff1673ffffffffffffffffffffffffffffffffffffffff1681526020018673ffffffffffffffffffffffffffffffffffffffff1673ffffffffffffffffffffffffffffffffffffffff16815260200185815260200184600019166000191681526020018060200183151515158152602001828103825284818151815260200191508051906020019060200280838360005b838110156190b1578082015181840152602081019050619096565b50505050905001975050505050505050602060405180830381600087803b1580156190db57600080fd5b505af11580156190ef573d6000803e3d6000fd5b505050506040513d602081101561910557600080fd5b81019080805190602001909291905050509250600f60009054906101000a900473ffffffffffffffffffffffffffffffffffffffff1673ffffffffffffffffffffffffffffffffffffffff166361641bdc88856040518363ffffffff167c01000000000000000000000000000000000000000000000000000000000281526004018083600019166000191681526020018273ffffffffffffffffffffffffffffffffffffffff1673ffffffffffffffffffffffffffffffffffffffff16815260200192505050602060405180830381600087803b1580156191e557600080fd5b505af11580156191f9573d6000803e3d6000fd5b505050506040513d602081101561920f57600080fd5b8101908080519060200190929190505050506000809054906101000a900473ffffffffffffffffffffffffffffffffffffffff1673ffffffffffffffffffffffffffffffffffffffff16634e94c8296040518163ffffffff167c0100000000000000000000000000000000000000000000000000000000028152600401602060405180830381600087803b1580156192a657600080fd5b505af11580156192ba573d6000803e3d6000fd5b505050506040513d60208110156192d057600080fd5b810190808051906020019092919050505073ffffffffffffffffffffffffffffffffffffffff16637d4c7806600360009054906101000a900473ffffffffffffffffffffffffffffffffffffffff1630868a878b6040518763ffffffff167c0100000000000000000000000000000000000000000000000000000000028152600401808773ffffffffffffffffffffffffffffffffffffffff1673ffffffffffffffffffffffffffffffffffffffff1681526020018673ffffffffffffffffffffffffffffffffffffffff1673ffffffffffffffffffffffffffffffffffffffff1681526020018573ffffffffffffffffffffffffffffffffffffffff1673ffffffffffffffffffffffffffffffffffffffff1681526020018060200184815260200183151515158152602001828103825285818151815260200191508051906020019060200280838360005b8381101561943857808201518184015260208101905061941d565b50505050905001975050505050505050602060405180830381600087803b15801561946257600080fd5b505af1158015619476573d6000803e3d6000fd5b505050506040513d602081101561948c57600080fd5b8101908080519060200190929190505050505b8293505050509392505050565b600080600e8390806001815401808255809150509060018203906000526020600020016000909192909190916101000a81548173ffffffffffffffffffffffffffffffffffffffff021916908373ffffffffffffffffffffffffffffffffffffffff160217905550506000809054906101000a900473ffffffffffffffffffffffffffffffffffffffff1673ffffffffffffffffffffffffffffffffffffffff1663f39ec1f76040518163ffffffff167c010000000000000000000000000000000000000000000000000000000002815260040180807f4d6170466163746f7279000000000000000000000000000000000000000000008152506020019050602060405180830381600087803b1580156195c557600080fd5b505af11580156195d9573d6000803e3d6000fd5b505050506040513d60208110156195ef57600080fd5b810190808051906020019092919050505073ffffffffffffffffffffffffffffffffffffffff1663b782f6136000809054906101000a900473ffffffffffffffffffffffffffffffffffffffff16306040518363ffffffff167c0100000000000000000000000000000000000000000000000000000000028152600401808373ffffffffffffffffffffffffffffffffffffffff1673ffffffffffffffffffffffffffffffffffffffff1681526020018273ffffffffffffffffffffffffffffffffffffffff1673ffffffffffffffffffffffffffffffffffffffff16815260200192505050602060405180830381600087803b1580156196ef57600080fd5b505af1158015619703573d6000803e3d6000fd5b505050506040513d602081101561971957600080fd5b8101908080519060200190929190505050600f60006101000a81548173ffffffffffffffffffffffffffffffffffffffff021916908373ffffffffffffffffffffffffffffffffffffffff160217905550600360009054906101000a900473ffffffffffffffffffffffffffffffffffffffff1673ffffffffffffffffffffffffffffffffffffffff1663fb03eaea6040518163ffffffff167c0100000000000000000000000000000000000000000000000000000000028152600401602060405180830381600087803b1580156197f057600080fd5b505af1158015619804573d6000803e3d6000fd5b505050506040513d602081101561981a57600080fd5b81019080805190602001909291905050508373ffffffffffffffffffffffffffffffffffffffff1663de8fa4316040518163ffffffff167c0100000000000000000000000000000000000000000000000000000000028152600401602060405180830381600087803b15801561988f57600080fd5b505af11580156198a3573d6000803e3d6000fd5b505050506040513d60208110156198b957600080fd5b810190808051906020019092919050505010151561999857600360009054906101000a900473ffffffffffffffffffffffffffffffffffffffff1673ffffffffffffffffffffffffffffffffffffffff16634591c0606040518163ffffffff167c0100000000000000000000000000000000000000000000000000000000028152600401602060405180830381600087803b15801561995757600080fd5b505af115801561996b573d6000803e3d6000fd5b505050506040513d602081101561998157600080fd5b810190808051906020019092919050505050619b92565b600360009054906101000a900473ffffffffffffffffffffffffffffffffffffffff1673ffffffffffffffffffffffffffffffffffffffff16630cc8c9af6040518163ffffffff167c0100000000000000000000000000000000000000000000000000000000028152600401602060405180830381600087803b158015619a1e57600080fd5b505af1158015619a32573d6000803e3d6000fd5b505050506040513d6020811015619a4857600080fd5b8101908080519060200190929190505050600460006101000a81548173ffffffffffffffffffffffffffffffffffffffff021916908373ffffffffffffffffffffffffffffffffffffffff160217905550600090505b600e80549050811015619b9157600e81815481101515619aba57fe5b9060005260206000200160009054906101000a900473ffffffffffffffffffffffffffffffffffffffff1673ffffffffffffffffffffffffffffffffffffffff16638fd3ab806040518163ffffffff167c0100000000000000000000000000000000000000000000000000000000028152600401602060405180830381600087803b158015619b4857600080fd5b505af1158015619b5c573d6000803e3d6000fd5b505050506040513d6020811015619b7257600080fd5b8101908080519060200190929190505050508080600101915050619a9e565b5b6000809054906101000a900473ffffffffffffffffffffffffffffffffffffffff1673ffffffffffffffffffffffffffffffffffffffff16634e94c8296040518163ffffffff167c0100000000000000000000000000000000000000000000000000000000028152600401602060405180830381600087803b158015619c1757600080fd5b505af1158015619c2b573d6000803e3d6000fd5b505050506040513d6020811015619c4157600080fd5b810190808051906020019092919050505073ffffffffffffffffffffffffffffffffffffffff16634c0019c3600360009054906101000a900473ffffffffffffffffffffffffffffffffffffffff1630866040518463ffffffff167c0100000000000000000000000000000000000000000000000000000000028152600401808473ffffffffffffffffffffffffffffffffffffffff1673ffffffffffffffffffffffffffffffffffffffff1681526020018373ffffffffffffffffffffffffffffffffffffffff1673ffffffffffffffffffffffffffffffffffffffff1681526020018273ffffffffffffffffffffffffffffffffffffffff1673ffffffffffffffffffffffffffffffffffffffff1681526020019350505050602060405180830381600087803b158015619d7657600080fd5b505af1158015619d8a573d6000803e3d6000fd5b505050506040513d6020811015619da057600080fd5b8101908080519060200190929190505050506001915050919050565b60006203f480905090565b60008060009054906101000a900473ffffffffffffffffffffffffffffffffffffffff1673ffffffffffffffffffffffffffffffffffffffff16634e94c8296040518163ffffffff167c0100000000000000000000000000000000000000000000000000000000028152600401602060405180830381600087803b158015619e4e57600080fd5b505af1158015619e62573d6000803e3d6000fd5b505050506040513d6020811015619e7857600080fd5b810190808051906020019092919050505073ffffffffffffffffffffffffffffffffffffffff166323290737619eac615cd6565b85856040518463ffffffff167c0100000000000000000000000000000000000000000000000000000000028152600401808473ffffffffffffffffffffffffffffffffffffffff1673ffffffffffffffffffffffffffffffffffffffff1681526020018373ffffffffffffffffffffffffffffffffffffffff1673ffffffffffffffffffffffffffffffffffffffff1681526020018273ffffffffffffffffffffffffffffffffffffffff1673ffffffffffffffffffffffffffffffffffffffff1681526020019350505050602060405180830381600087803b158015619f9257600080fd5b505af1158015619fa6573d6000803e3d6000fd5b505050506040513d6020811015619fbc57600080fd5b8101908080519060200190929190505050506001905092915050565b6000808284811515619fe657fe5b0490508091505092915050565b508054600082559060005260206000209081019061a011919061a037565b50565b60a060405190810160405280600590602082028038833980820191505090505090565b61a05991905b8082111561a05557600081600090555060010161a03d565b5090565b905600a165627a7a723058209c84107dadffa348b01821cc140ba79254fcec96e6da9584eb54a4cb8033adb90029",
  "source": "pragma solidity ^0.4.22;\n\nimport './../reporting/IMarket.sol';\nimport './../libraries/DelegationTarget.sol';\nimport './../libraries/ITyped.sol';\nimport './../libraries/Initializable.sol';\nimport './../libraries/Ownable.sol';\nimport './../libraries/collections/Map.sol';\nimport './../reporting/IUniverse.sol';\nimport './../reporting/IReportingParticipant.sol';\nimport './../reporting/IDisputeCrowdsourcer.sol';\nimport './../reporting/IReputationToken.sol';\nimport './../factories/DisputeCrowdsourcerFactory.sol';\nimport './../trading/ICash.sol';\nimport './../trading/IShareToken.sol';\nimport './../factories/ShareTokenFactory.sol';\nimport './../factories/InitialReporterFactory.sol';\nimport './../factories/MapFactory.sol';\nimport './../libraries/token/ERC20Basic.sol';\nimport './../libraries/math/SafeMathUint256.sol';\nimport './../libraries/math/SafeMathInt256.sol';\nimport './../factories/MailboxFactory.sol';\nimport './../reporting/IMailbox.sol';\nimport './../reporting/Reporting.sol';\nimport './../reporting/IInitialReporter.sol';\n\n\ncontract Market is DelegationTarget, ITyped, Initializable, Ownable, IMarket {\n    using SafeMathUint256 for uint256;\n    using SafeMathInt256 for int256;\n\n    // Constants\n    uint256 private constant MAX_FEE_PER_ETH_IN_ATTOETH = 1 ether / 2;\n    uint256 private constant APPROVAL_AMOUNT = 2 ** 256 - 1;\n    address private constant NULL_ADDRESS = address(0);\n    uint256 private constant MIN_OUTCOMES = 2;\n    uint256 private constant MAX_OUTCOMES = 8;\n\n    // Contract Refs\n    IUniverse private universe;\n    IFeeWindow private feeWindow;\n    ICash private cash;\n\n    // Attributes\n    uint256 private numTicks;\n    uint256 private feeDivisor;\n    uint256 private endTime;\n    uint256 private numOutcomes;\n    bytes32 private winningPayoutDistributionHash;\n    uint256 private validityBondAttoeth;\n    IMailbox private marketCreatorMailbox;\n    uint256 private finalizationTime;\n\n    // Collections\n    IReportingParticipant[] public participants;\n    Map public crowdsourcers;\n    IShareToken[] private shareTokens;\n\n    function initialize(IUniverse _universe, uint256 _endTime, uint256 _feePerEthInAttoeth, ICash _cash, address _designatedReporterAddress, address _creator, uint256 _numOutcomes, uint256 _numTicks) public onlyInGoodTimes payable beforeInitialized returns (bool _success) {\n        endInitialization();\n        require(MIN_OUTCOMES <= _numOutcomes && _numOutcomes <= MAX_OUTCOMES);\n        require(_numTicks > 0);\n        require(_designatedReporterAddress != NULL_ADDRESS);\n        require((_numTicks >= _numOutcomes));\n        require(_feePerEthInAttoeth <= MAX_FEE_PER_ETH_IN_ATTOETH);\n        require(_creator != NULL_ADDRESS);\n        require(controller.getTimestamp() < _endTime);\n        require(address(_cash) == controller.lookup(\"Cash\"));\n        universe = _universe;\n        require(!universe.isForking());\n        owner = _creator;\n        assessFees();\n        endTime = _endTime;\n        numOutcomes = _numOutcomes;\n        numTicks = _numTicks;\n        feeDivisor = _feePerEthInAttoeth == 0 ? 0 : 1 ether / _feePerEthInAttoeth;\n        cash = _cash;\n        InitialReporterFactory _initialReporterFactory = InitialReporterFactory(controller.lookup(\"InitialReporterFactory\"));\n        participants.push(_initialReporterFactory.createInitialReporter(controller, this, _designatedReporterAddress));\n        marketCreatorMailbox = MailboxFactory(controller.lookup(\"MailboxFactory\")).createMailbox(controller, owner, this);\n        crowdsourcers = MapFactory(controller.lookup(\"MapFactory\")).createMap(controller, this);\n        for (uint256 _outcome = 0; _outcome < numOutcomes; _outcome++) {\n            shareTokens.push(createShareToken(_outcome));\n        }\n        approveSpenders();\n        // If the value was not at least equal to this fee this will throw. The addition here cannot overflow as these fees are capped\n        uint256 _refund = msg.value.sub(validityBondAttoeth);\n        if (_refund > 0) {\n            owner.transfer(_refund);\n        }\n        return true;\n    }\n\n    function assessFees() private onlyInGoodTimes returns (bool) {\n        require(getReputationToken().balanceOf(this) >= universe.getOrCacheDesignatedReportNoShowBond());\n        validityBondAttoeth = universe.getOrCacheValidityBond();\n        return true;\n    }\n\n    function createShareToken(uint256 _outcome) private onlyInGoodTimes returns (IShareToken) {\n        return ShareTokenFactory(controller.lookup(\"ShareTokenFactory\")).createShareToken(controller, this, _outcome);\n    }\n\n    // This will need to be called manually for each open market if a spender contract is updated\n    function approveSpenders() public onlyInGoodTimes returns (bool) {\n        bytes32[5] memory _names = [bytes32(\"CancelOrder\"), bytes32(\"CompleteSets\"), bytes32(\"FillOrder\"), bytes32(\"TradingEscapeHatch\"), bytes32(\"ClaimTradingProceeds\")];\n        for (uint256 i = 0; i < _names.length; i++) {\n            require(cash.approve(controller.lookup(_names[i]), APPROVAL_AMOUNT));\n        }\n        for (uint256 j = 0; j < numOutcomes; j++) {\n            require(shareTokens[j].approve(controller.lookup(\"FillOrder\"), APPROVAL_AMOUNT));\n        }\n        return true;\n    }\n\n    function doInitialReport(uint256[] _payoutNumerators, bool _invalid) public onlyInGoodTimes returns (bool) {\n        IInitialReporter _initialReporter = getInitialReporter();\n        uint256 _timestamp = controller.getTimestamp();\n        require(_initialReporter.getReportTimestamp() == 0);\n        require(_timestamp > endTime);\n        bool _isDesignatedReporter = msg.sender == _initialReporter.getDesignatedReporter();\n        bool _designatedReportingExpired = _timestamp > getDesignatedReportingEndTime();\n        require(_designatedReportingExpired || _isDesignatedReporter);\n        distributeNoShowBond(_initialReporter, msg.sender);\n        // The designated reporter must actually pay the required REP stake to report\n        if (msg.sender == _initialReporter.getDesignatedReporter()) {\n            IReputationToken _reputationToken = getReputationToken();\n            _reputationToken.trustedMarketTransfer(msg.sender, _initialReporter, universe.getOrCacheDesignatedReportStake());\n        }\n        bytes32 _payoutDistributionHash = derivePayoutDistributionHash(_payoutNumerators, _invalid);\n        feeWindow = universe.getOrCreateNextFeeWindow();\n        _initialReporter.report(msg.sender, _payoutDistributionHash, _payoutNumerators, _invalid);\n        controller.getAugur().logInitialReportSubmitted(universe, msg.sender, this, _initialReporter.getStake(), _isDesignatedReporter, _payoutNumerators, _invalid);\n        return true;\n    }\n\n    function contribute(uint256[] _payoutNumerators, bool _invalid, uint256 _amount) public onlyInGoodTimes returns (bool) {\n        require(feeWindow.isActive());\n        require(!universe.isForking());\n        bytes32 _payoutDistributionHash = derivePayoutDistributionHash(_payoutNumerators, _invalid);\n        require(_payoutDistributionHash != getWinningReportingParticipant().getPayoutDistributionHash());\n        IDisputeCrowdsourcer _crowdsourcer = getOrCreateDisputeCrowdsourcer(_payoutDistributionHash, _payoutNumerators, _invalid);\n        uint256 _actualAmount = _crowdsourcer.contribute(msg.sender, _amount);\n        controller.getAugur().logDisputeCrowdsourcerContribution(universe, msg.sender, this, _crowdsourcer, _actualAmount);\n        if (_crowdsourcer.totalSupply() == _crowdsourcer.getSize()) {\n            finishedCrowdsourcingDisputeBond(_crowdsourcer);\n        }\n        return true;\n    }\n\n    function finishedCrowdsourcingDisputeBond(IReportingParticipant _reportingParticipant) private returns (bool) {\n        participants.push(_reportingParticipant);\n        crowdsourcers = MapFactory(controller.lookup(\"MapFactory\")).createMap(controller, this); // disavow other crowdsourcers\n        if (IDisputeCrowdsourcer(_reportingParticipant).getSize() >= universe.getDisputeThresholdForFork()) {\n            universe.fork();\n        } else {\n            feeWindow = universe.getOrCreateNextFeeWindow();\n            // Participants is implicitly bounded by the floor of the initial report REP cost to be no more than 21\n            for (uint256 i = 0; i < participants.length; i++) {\n                participants[i].migrate();\n            }\n        }\n        controller.getAugur().logDisputeCrowdsourcerCompleted(universe, this, _reportingParticipant);\n        return true;\n    }\n\n    function finalize() public onlyInGoodTimes returns (bool) {\n        if (universe.getForkingMarket() == this) {\n            return finalizeFork();\n        }\n\n        require(winningPayoutDistributionHash == bytes32(0));\n\n        require(getInitialReporter().getReportTimestamp() != 0);\n        require(feeWindow.isOver());\n        require(!universe.isForking());\n        winningPayoutDistributionHash = participants[participants.length-1].getPayoutDistributionHash();\n        feeWindow.onMarketFinalized();\n        universe.decrementOpenInterestFromMarket(shareTokens[0].totalSupply().mul(numTicks));\n        redistributeLosingReputation();\n        distributeValidityBond();\n        finalizationTime = controller.getTimestamp();\n        controller.getAugur().logMarketFinalized(universe);\n        return true;\n    }\n\n    function finalizeFork() public onlyInGoodTimes returns (bool) {\n        require(universe.getForkingMarket() == this);\n        require(winningPayoutDistributionHash == bytes32(0));\n        IUniverse _winningUniverse = universe.getWinningChildUniverse();\n        winningPayoutDistributionHash = _winningUniverse.getParentPayoutDistributionHash();\n        finalizationTime = controller.getTimestamp();\n        controller.getAugur().logMarketFinalized(universe);\n        return true;\n    }\n\n    function redistributeLosingReputation() private returns (bool) {\n        // If no disputes occured early exit\n        if (participants.length == 1) {\n            return true;\n        }\n\n        IReportingParticipant _reportingParticipant;\n\n        // Initial pass is to liquidate losers so we have sufficient REP to pay the winners. Participants is implicitly bounded by the floor of the initial report REP cost to be no more than 21\n        for (uint256 i = 0; i < participants.length; i++) {\n            _reportingParticipant = participants[i];\n            if (_reportingParticipant.getPayoutDistributionHash() != winningPayoutDistributionHash) {\n                _reportingParticipant.liquidateLosing();\n            }\n        }\n\n        IReputationToken _reputationToken = getReputationToken();\n\n        // Now redistribute REP. Participants is implicitly bounded by the floor of the initial report REP cost to be no more than 21\n        for (uint256 j = 0; j < participants.length; j++) {\n            _reportingParticipant = participants[j];\n            if (_reportingParticipant.getPayoutDistributionHash() == winningPayoutDistributionHash) {\n                require(_reputationToken.transfer(_reportingParticipant, _reportingParticipant.getSize().div(2)));\n            }\n        }\n        return true;\n    }\n\n    function distributeNoShowBond(IInitialReporter _initialReporter, address _reporter) private returns (bool) {\n        IReputationToken _reputationToken = getReputationToken();\n        uint256 _repBalance = _reputationToken.balanceOf(this);\n        // If the designated reporter showed up return the no show bond to the market creator. Otherwise it will be used as stake in the first report.\n        if (_reporter == _initialReporter.getDesignatedReporter()) {\n            require(_reputationToken.transfer(owner, _repBalance));\n        } else {\n            require(_reputationToken.transfer(_initialReporter, _repBalance));\n        }\n        return true;\n    }\n\n    function getMarketCreatorSettlementFeeDivisor() public view returns (uint256) {\n        return feeDivisor;\n    }\n\n    function deriveMarketCreatorFeeAmount(uint256 _amount) public view returns (uint256) {\n        if (feeDivisor == 0) {\n            return 0;\n        }\n        return _amount / feeDivisor;\n    }\n\n    function distributeValidityBond() private returns (bool) {\n        // If the market resolved to invalid the bond gets sent to the fee window. Otherwise it gets returned to the market creator mailbox.\n        if (!isInvalid()) {\n            marketCreatorMailbox.depositEther.value(validityBondAttoeth)();\n        } else {\n            cash.depositEtherFor.value(validityBondAttoeth)(universe.getCurrentFeeWindow());\n        }\n        return true;\n    }\n\n    function getOrCreateDisputeCrowdsourcer(bytes32 _payoutDistributionHash, uint256[] _payoutNumerators, bool _invalid) private returns (IDisputeCrowdsourcer) {\n        IDisputeCrowdsourcer _crowdsourcer = IDisputeCrowdsourcer(crowdsourcers.getAsAddressOrZero(_payoutDistributionHash));\n        if (_crowdsourcer == IDisputeCrowdsourcer(0)) {\n            uint256 _size = getParticipantStake().mul(2).sub(getStakeInOutcome(_payoutDistributionHash).mul(3));\n            DisputeCrowdsourcerFactory _disputeCrowdsourcerFactory = DisputeCrowdsourcerFactory(controller.lookup(\"DisputeCrowdsourcerFactory\"));\n            _crowdsourcer = _disputeCrowdsourcerFactory.createDisputeCrowdsourcer(controller, this, _size, _payoutDistributionHash, _payoutNumerators, _invalid);\n            crowdsourcers.add(_payoutDistributionHash, address(_crowdsourcer));\n            controller.getAugur().disputeCrowdsourcerCreated(universe, this, _crowdsourcer, _payoutNumerators, _size, _invalid);\n        }\n        return _crowdsourcer;\n    }\n\n    function migrateThroughOneFork() public onlyInGoodTimes returns (bool) {\n        // only proceed if the forking market is finalized\n        IMarket _forkingMarket = universe.getForkingMarket();\n        require(_forkingMarket.isFinalized());\n        require(!isFinalized());\n\n        IUniverse _currentUniverse = universe;\n        bytes32 _winningForkPayoutDistributionHash = _forkingMarket.getWinningPayoutDistributionHash();\n        IUniverse _destinationUniverse = _currentUniverse.getChildUniverse(_winningForkPayoutDistributionHash);\n\n        uint256 _marketOI = shareTokens[0].totalSupply().mul(numTicks);\n\n        universe.decrementOpenInterestFromMarket(_marketOI);\n\n        // follow the forking market to its universe\n        if (feeWindow != IFeeWindow(0)) {\n            feeWindow = _destinationUniverse.getOrCreateNextFeeWindow();\n        }\n        _destinationUniverse.addMarketTo();\n        _currentUniverse.removeMarketFrom();\n        IReputationToken _oldReputationToken = getReputationToken();\n        universe = _destinationUniverse;\n\n        universe.incrementOpenInterestFromMarket(_marketOI);\n\n        // reset state back to Initial Reporter\n        IInitialReporter _initialParticipant = getInitialReporter();\n\n        delete participants;\n        participants.push(_initialParticipant);\n        _initialParticipant.resetReportTimestamp();\n\n        // Migrate REP\n        _initialParticipant.migrateREP();\n        IReputationToken _newReputationToken = getReputationToken();\n        uint256 _balance = _oldReputationToken.balanceOf(this);\n        if (_balance > 0) {\n            _oldReputationToken.migrateOut(_newReputationToken, _balance);\n        }\n\n        // Disavow crowdsourcers\n        crowdsourcers = MapFactory(controller.lookup(\"MapFactory\")).createMap(controller, this);\n        return true;\n    }\n\n    function disavowCrowdsourcers() public onlyInGoodTimes returns (bool) {\n        require(universe.isForking());\n        IMarket _forkingMarket = getForkingMarket();\n        require(_forkingMarket != this);\n        require(!isFinalized());\n        IInitialReporter _initialParticipant = getInitialReporter();\n        delete participants;\n        participants.push(_initialParticipant);\n        crowdsourcers = MapFactory(controller.lookup(\"MapFactory\")).createMap(controller, this);\n        controller.getAugur().logMarketParticipantsDisavowed(universe);\n        return true;\n    }\n\n    function withdrawInEmergency() public onlyInBadTimes onlyOwner returns (bool) {\n        IReputationToken _reputationToken = getReputationToken();\n        uint256 _repBalance = _reputationToken.balanceOf(this);\n        require(_reputationToken.transfer(msg.sender, _repBalance));\n        if (this.balance > 0) {\n            msg.sender.transfer(this.balance);\n        }\n        return true;\n    }\n\n    function getParticipantStake() public view returns (uint256) {\n        uint256 _sum;\n        // Participants is implicitly bounded by the floor of the initial report REP cost to be no more than 21\n        for (uint256 i = 0; i < participants.length; ++i) {\n            _sum += participants[i].getStake();\n        }\n        return _sum;\n    }\n\n    function getStakeInOutcome(bytes32 _payoutDistributionHash) public view returns (uint256) {\n        uint256 _sum;\n        // Participants is implicitly bounded by the floor of the initial report REP cost to be no more than 21\n        for (uint256 i = 0; i < participants.length; ++i) {\n            if (participants[i].getPayoutDistributionHash() != _payoutDistributionHash) {\n                continue;\n            }\n            _sum += participants[i].getStake();\n        }\n        return _sum;\n    }\n\n    function getTypeName() public view returns (bytes32) {\n        return \"Market\";\n    }\n\n    function getForkingMarket() public view returns (IMarket) {\n        return universe.getForkingMarket();\n    }\n\n    function getWinningPayoutDistributionHash() public view returns (bytes32) {\n        return winningPayoutDistributionHash;\n    }\n\n    function isFinalized() public view returns (bool) {\n        return winningPayoutDistributionHash != bytes32(0);\n    }\n\n    function getDesignatedReporter() public view returns (address) {\n        return getInitialReporter().getDesignatedReporter();\n    }\n\n    function designatedReporterShowed() public view returns (bool) {\n        return getInitialReporter().designatedReporterShowed();\n    }\n\n    function designatedReporterWasCorrect() public view returns (bool) {\n        return getInitialReporter().designatedReporterWasCorrect();\n    }\n\n    function getEndTime() public view returns (uint256) {\n        return endTime;\n    }\n\n    function getMarketCreatorMailbox() public view returns (IMailbox) {\n        return marketCreatorMailbox;\n    }\n\n    function isInvalid() public view returns (bool) {\n        require(isFinalized());\n        return getWinningReportingParticipant().isInvalid();\n    }\n\n    function getInitialReporter() public view returns (IInitialReporter) {\n        return IInitialReporter(participants[0]);\n    }\n\n    function getInitialReporterAddress() public view returns (address) {\n        return address(participants[0]);\n    }\n\n    function getReportingParticipant(uint256 _index) public view returns (IReportingParticipant) {\n        return participants[_index];\n    }\n\n    function getCrowdsourcer(bytes32 _payoutDistributionHash) public view returns (IDisputeCrowdsourcer) {\n        return  IDisputeCrowdsourcer(crowdsourcers.getAsAddressOrZero(_payoutDistributionHash));\n    }\n\n    function getWinningReportingParticipant() public view returns (IReportingParticipant) {\n        return participants[participants.length-1];\n    }\n\n    function getWinningPayoutNumerator(uint256 _outcome) public view returns (uint256) {\n        require(isFinalized());\n        return getWinningReportingParticipant().getPayoutNumerator(_outcome);\n    }\n\n    function getUniverse() public view returns (IUniverse) {\n        return universe;\n    }\n\n    function getFeeWindow() public view returns (IFeeWindow) {\n        return feeWindow;\n    }\n\n    function getFinalizationTime() public view returns (uint256) {\n        return finalizationTime;\n    }\n\n    function getReputationToken() public view returns (IReputationToken) {\n        return universe.getReputationToken();\n    }\n\n    function getNumberOfOutcomes() public view returns (uint256) {\n        return numOutcomes;\n    }\n\n    function getNumTicks() public view returns (uint256) {\n        return numTicks;\n    }\n\n    function getDenominationToken() public view returns (ICash) {\n        return cash;\n    }\n\n    function getShareToken(uint256 _outcome) public view returns (IShareToken) {\n        return shareTokens[_outcome];\n    }\n\n    function getDesignatedReportingEndTime() public view returns (uint256) {\n        return endTime.add(Reporting.getDesignatedReportingDurationSeconds());\n    }\n\n    function getNumParticipants() public view returns (uint256) {\n        return participants.length;\n    }\n\n    function getValidityBondAttoeth() public view returns (uint256) {\n        return validityBondAttoeth;\n    }\n\n    function derivePayoutDistributionHash(uint256[] _payoutNumerators, bool _invalid) public view returns (bytes32) {\n        uint256 _sum = 0;\n        uint256 _previousValue = _payoutNumerators[0];\n        require(_payoutNumerators.length == numOutcomes);\n        for (uint256 i = 0; i < _payoutNumerators.length; i++) {\n            uint256 _value = _payoutNumerators[i];\n            _sum = _sum.add(_value);\n            require(!_invalid || _value == _previousValue);\n            _previousValue = _value;\n        }\n        if (_invalid) {\n            require(_previousValue == numTicks / numOutcomes);\n        } else {\n            require(_sum == numTicks);\n        }\n        return keccak256(_payoutNumerators, _invalid);\n    }\n\n    function isContainerForShareToken(IShareToken _shadyShareToken) public view returns (bool) {\n        return getShareToken(_shadyShareToken.getOutcome()) == _shadyShareToken;\n    }\n\n    function isContainerForReportingParticipant(IReportingParticipant _shadyReportingParticipant) public view returns (bool) {\n        if (crowdsourcers.getAsAddressOrZero(_shadyReportingParticipant.getPayoutDistributionHash()) == address(_shadyReportingParticipant)) {\n            return true;\n        }\n        // Participants is implicitly bounded by the floor of the initial report REP cost to be no more than 21\n        for (uint256 i = 0; i < participants.length; i++) {\n            if (_shadyReportingParticipant == participants[i]) {\n                return true;\n            }\n        }\n        return false;\n    }\n\n    function onTransferOwnership(address _owner, address _newOwner) internal returns (bool) {\n        controller.getAugur().logMarketTransferred(getUniverse(), _owner, _newOwner);\n        return true;\n    }\n\n    function assertBalances() public view returns (bool) {\n        // Escrowed funds for open orders\n        uint256 _expectedBalance = IOrders(controller.lookup(\"Orders\")).getTotalEscrowed(this);\n        // Market Open Interest. If we're finalized we need actually calculate the value\n        if (isFinalized()) {\n            IReportingParticipant _winningReportingPartcipant = getWinningReportingParticipant();\n            for (uint256 i = 0; i < numOutcomes; i++) {\n                _expectedBalance = _expectedBalance.add(shareTokens[i].totalSupply().mul(_winningReportingPartcipant.getPayoutNumerator(i)));\n            }\n        } else {\n            _expectedBalance = _expectedBalance.add(shareTokens[0].totalSupply().mul(numTicks));\n        }\n\n        assert(cash.balanceOf(this) >= _expectedBalance);\n        return true;\n    }\n}\n",
  "sourcePath": "/Users/jasperdegooijer/Documents/flux/augurSets/AugurSets/libraries/augur/source/contracts/reporting/Market.sol",
  "compiler": {
    "name": "solc",
    "version": "0.4.22+commit.4cb486ee.Emscripten.clang"
  },
  "schemaVersion": "3.0.1",
  "updatedAt": "2019-07-15T12:03:29.512Z",
  "devdoc": {
    "methods": {
      "transferOwnership(address)": {
        "details": "Allows the current owner to transfer control of the contract to a newOwner.",
        "params": {
          "_newOwner": "The address to transfer ownership to."
        }
      }
    }
  },
  "userdoc": {
    "methods": {}
  }
}