{
  "contractName": "TimeControlled",
  "abi": [
    {
      "constant": true,
      "inputs": [],
      "name": "getController",
      "outputs": [
        {
          "name": "",
          "type": "address"
        }
      ],
      "payable": false,
      "stateMutability": "view",
      "type": "function"
    },
    {
      "constant": true,
      "inputs": [],
      "name": "getOwner",
      "outputs": [
        {
          "name": "",
          "type": "address"
        }
      ],
      "payable": false,
      "stateMutability": "view",
      "type": "function"
    },
    {
      "constant": false,
      "inputs": [
        {
          "name": "_controller",
          "type": "address"
        }
      ],
      "name": "setController",
      "outputs": [
        {
          "name": "",
          "type": "bool"
        }
      ],
      "payable": false,
      "stateMutability": "nonpayable",
      "type": "function"
    },
    {
      "constant": false,
      "inputs": [
        {
          "name": "_newOwner",
          "type": "address"
        }
      ],
      "name": "transferOwnership",
      "outputs": [
        {
          "name": "",
          "type": "bool"
        }
      ],
      "payable": false,
      "stateMutability": "nonpayable",
      "type": "function"
    },
    {
      "inputs": [],
      "payable": false,
      "stateMutability": "nonpayable",
      "type": "constructor"
    },
    {
      "constant": true,
      "inputs": [],
      "name": "getTimestamp",
      "outputs": [
        {
          "name": "",
          "type": "uint256"
        }
      ],
      "payable": false,
      "stateMutability": "view",
      "type": "function"
    },
    {
      "constant": false,
      "inputs": [
        {
          "name": "_amount",
          "type": "uint256"
        }
      ],
      "name": "incrementTimestamp",
      "outputs": [
        {
          "name": "",
          "type": "bool"
        }
      ],
      "payable": false,
      "stateMutability": "nonpayable",
      "type": "function"
    },
    {
      "constant": false,
      "inputs": [
        {
          "name": "_timestamp",
          "type": "uint256"
        }
      ],
      "name": "setTimestamp",
      "outputs": [
        {
          "name": "",
          "type": "bool"
        }
      ],
      "payable": false,
      "stateMutability": "nonpayable",
      "type": "function"
    },
    {
      "constant": true,
      "inputs": [],
      "name": "getTypeName",
      "outputs": [
        {
          "name": "",
          "type": "bytes32"
        }
      ],
      "payable": false,
      "stateMutability": "view",
      "type": "function"
    }
  ],
  "bytecode": "0x6080604052600160025534801561001557600080fd5b50336000806101000a81548173ffffffffffffffffffffffffffffffffffffffff021916908373ffffffffffffffffffffffffffffffffffffffff16021790555033600160006101000a81548173ffffffffffffffffffffffffffffffffffffffff021916908373ffffffffffffffffffffffffffffffffffffffff1602179055506100dd73e94327d07fc17907b4db788e5adf2ed424addff673ffffffffffffffffffffffffffffffffffffffff166100f5640100000000026108df176401000000009004565b1515156100e957600080fd5b42600281905550610108565b600080823b905060008111915050919050565b61091e806101176000396000f30060806040526004361061008e576000357c0100000000000000000000000000000000000000000000000000000000900463ffffffff168063188ec356146100935780633018205f146100be578063893d20e81461011557806392eefe9b1461016c578063a0a2b573146101c7578063b610c75e1461020c578063db0a087c14610251578063f2fde38b14610284575b600080fd5b34801561009f57600080fd5b506100a86102df565b6040518082815260200191505060405180910390f35b3480156100ca57600080fd5b506100d36102e9565b604051808273ffffffffffffffffffffffffffffffffffffffff1673ffffffffffffffffffffffffffffffffffffffff16815260200191505060405180910390f35b34801561012157600080fd5b5061012a610312565b604051808273ffffffffffffffffffffffffffffffffffffffff1673ffffffffffffffffffffffffffffffffffffffff16815260200191505060405180910390f35b34801561017857600080fd5b506101ad600480360381019080803573ffffffffffffffffffffffffffffffffffffffff16906020019092919050505061033c565b604051808215151515815260200191505060405180910390f35b3480156101d357600080fd5b506101f2600480360381019080803590602001909291905050506103e2565b604051808215151515815260200191505060405180910390f35b34801561021857600080fd5b50610237600480360381019080803590602001909291905050506105bc565b604051808215151515815260200191505060405180910390f35b34801561025d57600080fd5b5061026661079f565b60405180826000191660001916815260200191505060405180910390f35b34801561029057600080fd5b506102c5600480360381019080803573ffffffffffffffffffffffffffffffffffffffff1690602001909291905050506107c7565b604051808215151515815260200191505060405180910390f35b6000600254905090565b60008060009054906101000a900473ffffffffffffffffffffffffffffffffffffffff16905090565b6000600160009054906101000a900473ffffffffffffffffffffffffffffffffffffffff16905090565b60008060009054906101000a900473ffffffffffffffffffffffffffffffffffffffff1673ffffffffffffffffffffffffffffffffffffffff163373ffffffffffffffffffffffffffffffffffffffff1614151561039957600080fd5b816000806101000a81548173ffffffffffffffffffffffffffffffffffffffff021916908373ffffffffffffffffffffffffffffffffffffffff16021790555060019050919050565b6000600160009054906101000a900473ffffffffffffffffffffffffffffffffffffffff1673ffffffffffffffffffffffffffffffffffffffff163373ffffffffffffffffffffffffffffffffffffffff1614151561044057600080fd5b816002819055506000809054906101000a900473ffffffffffffffffffffffffffffffffffffffff1673ffffffffffffffffffffffffffffffffffffffff16634e94c8296040518163ffffffff167c0100000000000000000000000000000000000000000000000000000000028152600401602060405180830381600087803b1580156104cc57600080fd5b505af11580156104e0573d6000803e3d6000fd5b505050506040513d60208110156104f657600080fd5b810190808051906020019092919050505073ffffffffffffffffffffffffffffffffffffffff1663c8e6b2a86002546040518263ffffffff167c010000000000000000000000000000000000000000000000000000000002815260040180828152602001915050602060405180830381600087803b15801561057757600080fd5b505af115801561058b573d6000803e3d6000fd5b505050506040513d60208110156105a157600080fd5b81019080805190602001909291905050505060019050919050565b6000600160009054906101000a900473ffffffffffffffffffffffffffffffffffffffff1673ffffffffffffffffffffffffffffffffffffffff163373ffffffffffffffffffffffffffffffffffffffff1614151561061a57600080fd5b816002600082825401925050819055506000809054906101000a900473ffffffffffffffffffffffffffffffffffffffff1673ffffffffffffffffffffffffffffffffffffffff16634e94c8296040518163ffffffff167c0100000000000000000000000000000000000000000000000000000000028152600401602060405180830381600087803b1580156106af57600080fd5b505af11580156106c3573d6000803e3d6000fd5b505050506040513d60208110156106d957600080fd5b810190808051906020019092919050505073ffffffffffffffffffffffffffffffffffffffff1663c8e6b2a86002546040518263ffffffff167c010000000000000000000000000000000000000000000000000000000002815260040180828152602001915050602060405180830381600087803b15801561075a57600080fd5b505af115801561076e573d6000803e3d6000fd5b505050506040513d602081101561078457600080fd5b81019080805190602001909291905050505060019050919050565b60007f54696d65436f6e74726f6c6c6564000000000000000000000000000000000000905090565b6000600160009054906101000a900473ffffffffffffffffffffffffffffffffffffffff1673ffffffffffffffffffffffffffffffffffffffff163373ffffffffffffffffffffffffffffffffffffffff1614151561082557600080fd5b600073ffffffffffffffffffffffffffffffffffffffff168273ffffffffffffffffffffffffffffffffffffffff161415156108ca57610887600160009054906101000a900473ffffffffffffffffffffffffffffffffffffffff16836108d3565b5081600160006101000a81548173ffffffffffffffffffffffffffffffffffffffff021916908373ffffffffffffffffffffffffffffffffffffffff1602179055505b60019050919050565b60006001905092915050565b600080823b9050600081119150509190505600a165627a7a72305820d94c24534508f3d16d56d58500ca7953d8130f2a2097f31623cd0c2ec51522460029",
  "source": "pragma solidity ^0.4.22;\n\nimport './ITime.sol';\nimport './libraries/ContractExists.sol';\nimport './libraries/Ownable.sol';\nimport './Controller.sol';\n\n\ncontract TimeControlled is ITime, Ownable {\n    using ContractExists for address;\n\n    uint256 private timestamp = 1;\n    address private constant FOUNDATION_REP_ADDRESS = address(0xE94327D07Fc17907b4DB788E5aDf2ed424adDff6);\n\n    function TimeControlled() public {\n        // This is to confirm we are not on foundation network\n        require(!FOUNDATION_REP_ADDRESS.exists());\n        timestamp = block.timestamp;\n    }\n\n    function getTimestamp() external view returns (uint256) {\n        return timestamp;\n    }\n\n    function incrementTimestamp(uint256 _amount) external onlyOwner returns (bool) {\n        timestamp += _amount;\n        controller.getAugur().logTimestampSet(timestamp);\n        return true;\n    }\n\n    function setTimestamp(uint256 _timestamp) external onlyOwner returns (bool) {\n        timestamp = _timestamp;\n        controller.getAugur().logTimestampSet(timestamp);\n        return true;\n    }\n\n    function getTypeName() public view returns (bytes32) {\n        return \"TimeControlled\";\n    }\n\n    function onTransferOwnership(address, address) internal returns (bool) {\n        return true;\n    }\n}\n",
  "sourcePath": "/Users/jasperdegooijer/Documents/flux/augurSets/AugurSets/libraries/augur/source/contracts/TimeControlled.sol",
  "compiler": {
    "name": "solc",
    "version": "0.4.22+commit.4cb486ee.Emscripten.clang"
  },
  "schemaVersion": "3.0.1",
  "updatedAt": "2019-07-15T12:03:29.483Z",
  "devdoc": {
    "methods": {
      "transferOwnership(address)": {
        "details": "Allows the current owner to transfer control of the contract to a newOwner.",
        "params": {
          "_newOwner": "The address to transfer ownership to."
        }
      }
    }
  },
  "userdoc": {
    "methods": {}
  }
}