{
  "contractName": "AugurSet",
  "abi": [
    {
      "constant": true,
      "inputs": [
        {
          "name": "",
          "type": "uint256"
        }
      ],
      "name": "outcomeIndexTokens",
      "outputs": [
        {
          "name": "",
          "type": "address"
        }
      ],
      "payable": false,
      "stateMutability": "view",
      "type": "function"
    },
    {
      "constant": false,
      "inputs": [
        {
          "name": "_spender",
          "type": "address"
        },
        {
          "name": "_value",
          "type": "uint256"
        }
      ],
      "name": "approve",
      "outputs": [
        {
          "name": "",
          "type": "bool"
        }
      ],
      "payable": false,
      "stateMutability": "nonpayable",
      "type": "function"
    },
    {
      "constant": true,
      "inputs": [],
      "name": "totalSupply",
      "outputs": [
        {
          "name": "",
          "type": "uint256"
        }
      ],
      "payable": false,
      "stateMutability": "view",
      "type": "function"
    },
    {
      "constant": false,
      "inputs": [
        {
          "name": "_from",
          "type": "address"
        },
        {
          "name": "_to",
          "type": "address"
        },
        {
          "name": "_value",
          "type": "uint256"
        }
      ],
      "name": "transferFrom",
      "outputs": [
        {
          "name": "",
          "type": "bool"
        }
      ],
      "payable": false,
      "stateMutability": "nonpayable",
      "type": "function"
    },
    {
      "constant": true,
      "inputs": [
        {
          "name": "_owner",
          "type": "address"
        }
      ],
      "name": "balanceOf",
      "outputs": [
        {
          "name": "",
          "type": "uint256"
        }
      ],
      "payable": false,
      "stateMutability": "view",
      "type": "function"
    },
    {
      "constant": false,
      "inputs": [
        {
          "name": "_to",
          "type": "address"
        },
        {
          "name": "_value",
          "type": "uint256"
        }
      ],
      "name": "transfer",
      "outputs": [
        {
          "name": "",
          "type": "bool"
        }
      ],
      "payable": false,
      "stateMutability": "nonpayable",
      "type": "function"
    },
    {
      "constant": true,
      "inputs": [
        {
          "name": "_owner",
          "type": "address"
        },
        {
          "name": "_spender",
          "type": "address"
        }
      ],
      "name": "allowance",
      "outputs": [
        {
          "name": "",
          "type": "uint256"
        }
      ],
      "payable": false,
      "stateMutability": "view",
      "type": "function"
    },
    {
      "inputs": [
        {
          "name": "_markets",
          "type": "address[]"
        },
        {
          "name": "_weights",
          "type": "uint256[]"
        },
        {
          "name": "_numOutcomes",
          "type": "uint256"
        },
        {
          "name": "_completeSets",
          "type": "address"
        },
        {
          "name": "_cash",
          "type": "address"
        },
        {
          "name": "_claimTradingProceeds",
          "type": "address"
        },
        {
          "name": "_augur",
          "type": "address"
        }
      ],
      "payable": false,
      "stateMutability": "nonpayable",
      "type": "constructor"
    },
    {
      "payable": true,
      "stateMutability": "payable",
      "type": "fallback"
    },
    {
      "anonymous": false,
      "inputs": [
        {
          "indexed": true,
          "name": "_from",
          "type": "address"
        },
        {
          "indexed": true,
          "name": "_to",
          "type": "address"
        },
        {
          "indexed": false,
          "name": "_value",
          "type": "uint256"
        }
      ],
      "name": "Transfer",
      "type": "event"
    },
    {
      "anonymous": false,
      "inputs": [
        {
          "indexed": true,
          "name": "_owner",
          "type": "address"
        },
        {
          "indexed": true,
          "name": "_spender",
          "type": "address"
        },
        {
          "indexed": false,
          "name": "_value",
          "type": "uint256"
        }
      ],
      "name": "Approval",
      "type": "event"
    },
    {
      "constant": false,
      "inputs": [],
      "name": "buyCompleteSet",
      "outputs": [],
      "payable": true,
      "stateMutability": "payable",
      "type": "function"
    },
    {
      "constant": true,
      "inputs": [],
      "name": "indexMarketsFinalized",
      "outputs": [
        {
          "name": "resolved",
          "type": "bool"
        }
      ],
      "payable": false,
      "stateMutability": "view",
      "type": "function"
    },
    {
      "constant": false,
      "inputs": [],
      "name": "finalize",
      "outputs": [],
      "payable": false,
      "stateMutability": "nonpayable",
      "type": "function"
    },
    {
      "constant": false,
      "inputs": [],
      "name": "claimProceeds",
      "outputs": [],
      "payable": false,
      "stateMutability": "nonpayable",
      "type": "function"
    },
    {
      "constant": true,
      "inputs": [],
      "name": "getPayoutDistribution",
      "outputs": [
        {
          "name": "",
          "type": "uint256[]"
        }
      ],
      "payable": false,
      "stateMutability": "view",
      "type": "function"
    },
    {
      "constant": true,
      "inputs": [
        {
          "name": "_outcome",
          "type": "uint256"
        },
        {
          "name": "_market",
          "type": "address"
        }
      ],
      "name": "getMarketBalance",
      "outputs": [
        {
          "name": "balances",
          "type": "uint256"
        }
      ],
      "payable": false,
      "stateMutability": "view",
      "type": "function"
    }
  ],
  "bytecode": "0x60806040526127106007556000600d60006101000a81548160ff0219169083151502179055503480156200003257600080fd5b506040516200462038038062004620833981018060405262000058919081019062000b55565b60008060008060008a518c511415156200007157600080fd5b6200008b8b620005bf640100000000026401000000009004565b15156200009757600080fd5b620000b18c6200062e640100000000026401000000009004565b1515620000bd57600080fd5b600094505b89851015620002eb57620000d562000830565b604051809103906000f080158015620000f2573d6000803e3d6000fd5b509350600a8490806001815401808255809150509060018203906000526020600020016000909192909190916101000a81548173ffffffffffffffffffffffffffffffffffffffff021916908373ffffffffffffffffffffffffffffffffffffffff16021790555050600091505b8b51821015620002a157828c838151811015156200017a57fe5b9060200190602002015173ffffffffffffffffffffffffffffffffffffffff166365957bf5876040518263ffffffff167c0100000000000000000000000000000000000000000000000000000000028152600401620001da919062000d07565b602060405180830381600087803b158015620001f557600080fd5b505af11580156200020a573d6000803e3d6000fd5b505050506040513d601f19601f8201168201806040525062000230919081019062000c60565b90806001815401808255809150509060018203906000526020600020016000909192909190916101000a81548173ffffffffffffffffffffffffffffffffffffffff021916908373ffffffffffffffffffffffffffffffffffffffff16021790555050818060010192505062000160565b600c83908060018154018082558091505090600182039060005260206000200160009091929091909150908054620002db92919062000841565b50508480600101955050620000c2565b600090505b8b518110156200037c578a818151811015156200030957fe5b90602001906020020151600860008e848151811015156200032657fe5b9060200190602002015173ffffffffffffffffffffffffffffffffffffffff1673ffffffffffffffffffffffffffffffffffffffff168152602001908152602001600020819055508080600101915050620002f0565b88600360006101000a81548173ffffffffffffffffffffffffffffffffffffffff021916908373ffffffffffffffffffffffffffffffffffffffff16021790555087600460006101000a81548173ffffffffffffffffffffffffffffffffffffffff021916908373ffffffffffffffffffffffffffffffffffffffff16021790555086600560006101000a81548173ffffffffffffffffffffffffffffffffffffffff021916908373ffffffffffffffffffffffffffffffffffffffff16021790555085600660006101000a81548173ffffffffffffffffffffffffffffffffffffffff021916908373ffffffffffffffffffffffffffffffffffffffff160217905550600460009054906101000a900473ffffffffffffffffffffffffffffffffffffffff1673ffffffffffffffffffffffffffffffffffffffff1663095ea7b3600660009054906101000a900473ffffffffffffffffffffffffffffffffffffffff167fffffffffffffffffffffffffffffffffffffffffffffffffffffffffffffffff6040518363ffffffff167c01000000000000000000000000000000000000000000000000000000000281526004016200053d92919062000cda565b602060405180830381600087803b1580156200055857600080fd5b505af11580156200056d573d6000803e3d6000fd5b505050506040513d601f19601f8201168201806040525062000593919081019062000c34565b508b600b9080519060200190620005ac92919062000898565b5050505050505050505050505062000e40565b6000806000809150600090505b83518110156200062157620006118482815181101515620005e957fe5b9060200190602002015183620008136401000000000262001c4e179091906401000000009004565b91508080600101915050620005cc565b6064821492505050919050565b6000806000808460008151811015156200064457fe5b9060200190602002015173ffffffffffffffffffffffffffffffffffffffff1663870c426d6040518163ffffffff167c0100000000000000000000000000000000000000000000000000000000028152600401602060405180830381600087803b158015620006b257600080fd5b505af1158015620006c7573d6000803e3d6000fd5b505050506040513d601f19601f82011682018060405250620006ed919081019062000c8c565b9250600191505b8451821015620008065784828151811015156200070d57fe5b9060200190602002015173ffffffffffffffffffffffffffffffffffffffff1663870c426d6040518163ffffffff167c0100000000000000000000000000000000000000000000000000000000028152600401602060405180830381600087803b1580156200077b57600080fd5b505af115801562000790573d6000803e3d6000fd5b505050506040513d601f19601f82011682018060405250620007b6919081019062000c8c565b90508273ffffffffffffffffffffffffffffffffffffffff168173ffffffffffffffffffffffffffffffffffffffff16141515620007f857600093506200080b565b8180600101925050620006f4565b600193505b505050919050565b600081830190508281101515156200082757fe5b80905092915050565b6040516114d9806200314783390190565b828054828255906000526020600020908101928215620008855760005260206000209182015b828111156200088457825482559160010191906001019062000867565b5b50905062000894919062000927565b5090565b82805482825590600052602060002090810192821562000914579160200282015b82811115620009135782518260006101000a81548173ffffffffffffffffffffffffffffffffffffffff021916908373ffffffffffffffffffffffffffffffffffffffff16021790555091602001919060010190620008b9565b5b5090506200092391906200096d565b5090565b6200096a91905b808211156200096657600081816101000a81549073ffffffffffffffffffffffffffffffffffffffff0219169055506001016200092e565b5090565b90565b620009b091905b80821115620009ac57600081816101000a81549073ffffffffffffffffffffffffffffffffffffffff02191690555060010162000974565b5090565b90565b6000620009c1825162000dce565b905092915050565b600082601f8301121515620009dd57600080fd5b8151620009f4620009ee8262000d52565b62000d24565b9150818183526020840193506020810190508385602084028201111562000a1a57600080fd5b60005b8381101562000a4e578162000a33888262000afd565b84526020840193506020830192505060018101905062000a1d565b5050505092915050565b600082601f830112151562000a6c57600080fd5b815162000a8362000a7d8262000d7b565b62000d24565b9150818183526020840193506020810190508385602084028201111562000aa957600080fd5b60005b8381101562000add578162000ac2888262000b3f565b84526020840193506020830192505060018101905062000aac565b5050505092915050565b600062000af5825162000dee565b905092915050565b600062000b0b825162000dfa565b905092915050565b600062000b21825162000e0e565b905092915050565b600062000b37825162000e22565b905092915050565b600062000b4d825162000e36565b905092915050565b600080600080600080600060e0888a03121562000b7157600080fd5b600088015167ffffffffffffffff81111562000b8c57600080fd5b62000b9a8a828b01620009c9565b975050602088015167ffffffffffffffff81111562000bb857600080fd5b62000bc68a828b0162000a58565b965050604062000bd98a828b0162000b3f565b955050606062000bec8a828b01620009b3565b945050608062000bff8a828b01620009b3565b93505060a062000c128a828b01620009b3565b92505060c062000c258a828b01620009b3565b91505092959891949750929550565b60006020828403121562000c4757600080fd5b600062000c578482850162000ae7565b91505092915050565b60006020828403121562000c7357600080fd5b600062000c838482850162000b13565b91505092915050565b60006020828403121562000c9f57600080fd5b600062000caf8482850162000b29565b91505092915050565b62000cc38162000da4565b82525050565b62000cd48162000dc4565b82525050565b600060408201905062000cf1600083018562000cb8565b62000d00602083018462000cc9565b9392505050565b600060208201905062000d1e600083018462000cc9565b92915050565b6000604051905081810181811067ffffffffffffffff8211171562000d4857600080fd5b8060405250919050565b600067ffffffffffffffff82111562000d6a57600080fd5b602082029050602081019050919050565b600067ffffffffffffffff82111562000d9357600080fd5b602082029050602081019050919050565b600073ffffffffffffffffffffffffffffffffffffffff82169050919050565b6000819050919050565b600073ffffffffffffffffffffffffffffffffffffffff82169050919050565b60008115159050919050565b600062000e078262000da4565b9050919050565b600062000e1b8262000da4565b9050919050565b600062000e2f8262000da4565b9050919050565b6000819050919050565b6122f78062000e506000396000f3006080604052600436106100c5576000357c0100000000000000000000000000000000000000000000000000000000900463ffffffff16806304d552da146100c7578063095ea7b31461010457806318160ddd1461014157806323b872dd1461016c5780632dc0b462146101a95780634bb278f3146101d457806370a08231146101eb5780638c3b0ca8146102285780639c3bfdc81461023f578063a9059cbb1461027c578063c9d59d8c146102b9578063dd62ed3e146102e4578063e351c4d214610321575b005b3480156100d357600080fd5b506100ee60048036036100e99190810190611e90565b61032b565b6040516100fb919061213c565b60405180910390f35b34801561011057600080fd5b5061012b60048036036101269190810190611dd9565b610369565b60405161013891906120cf565b60405180910390f35b34801561014d57600080fd5b5061015661045b565b60405161016391906121b7565b60405180910390f35b34801561017857600080fd5b50610193600480360361018e9190810190611d8a565b610465565b6040516101a091906120cf565b60405180910390f35b3480156101b557600080fd5b506101be61082e565b6040516101cb91906120ad565b60405180910390f35b3480156101e057600080fd5b506101e9610886565b005b3480156101f757600080fd5b50610212600480360361020d9190810190611d25565b610a01565b60405161021f91906121b7565b60405180910390f35b34801561023457600080fd5b5061023d610a49565b005b34801561024b57600080fd5b5061026660048036036102619190810190611ee2565b610d08565b60405161027391906121b7565b60405180910390f35b34801561028857600080fd5b506102a3600480360361029e9190810190611dd9565b610e5f565b6040516102b091906120cf565b60405180910390f35b3480156102c557600080fd5b506102ce6110ae565b6040516102db91906120cf565b60405180910390f35b3480156102f057600080fd5b5061030b60048036036103069190810190611d4e565b6111c3565b60405161031891906121b7565b60405180910390f35b61032961124a565b005b600a8181548110151561033a57fe5b906000526020600020016000915054906101000a900473ffffffffffffffffffffffffffffffffffffffff1681565b600081600160003373ffffffffffffffffffffffffffffffffffffffff1673ffffffffffffffffffffffffffffffffffffffff16815260200190815260200160002060008573ffffffffffffffffffffffffffffffffffffffff1673ffffffffffffffffffffffffffffffffffffffff168152602001908152602001600020819055508273ffffffffffffffffffffffffffffffffffffffff163373ffffffffffffffffffffffffffffffffffffffff167f8c5be1e5ebec7d5bd14f71427d1e84f3dd0314c0f7b2291e5b200ac8c7c3b9258460405161044991906121b7565b60405180910390a36001905092915050565b6000600254905090565b600080600160008673ffffffffffffffffffffffffffffffffffffffff1673ffffffffffffffffffffffffffffffffffffffff16815260200190815260200160002060003373ffffffffffffffffffffffffffffffffffffffff1673ffffffffffffffffffffffffffffffffffffffff168152602001908152602001600020549050826000808773ffffffffffffffffffffffffffffffffffffffff1673ffffffffffffffffffffffffffffffffffffffff168152602001908152602001600020541015151561056a576040517f08c379a000000000000000000000000000000000000000000000000000000000815260040161056190612157565b60405180910390fd5b8281101515156105af576040517f08c379a00000000000000000000000000000000000000000000000000000000081526004016105a690612177565b60405180910390fd5b6000808573ffffffffffffffffffffffffffffffffffffffff1673ffffffffffffffffffffffffffffffffffffffff16815260200190815260200160002054836000808773ffffffffffffffffffffffffffffffffffffffff1673ffffffffffffffffffffffffffffffffffffffff168152602001908152602001600020540110151515610672576040517f08c379a000000000000000000000000000000000000000000000000000000000815260040161066990612197565b60405180910390fd5b826000808673ffffffffffffffffffffffffffffffffffffffff1673ffffffffffffffffffffffffffffffffffffffff16815260200190815260200160002060008282540192505081905550826000808773ffffffffffffffffffffffffffffffffffffffff1673ffffffffffffffffffffffffffffffffffffffff168152602001908152602001600020600082825403925050819055507fffffffffffffffffffffffffffffffffffffffffffffffffffffffffffffffff8110156107bd5782600160008773ffffffffffffffffffffffffffffffffffffffff1673ffffffffffffffffffffffffffffffffffffffff16815260200190815260200160002060003373ffffffffffffffffffffffffffffffffffffffff1673ffffffffffffffffffffffffffffffffffffffff168152602001908152602001600020600082825403925050819055505b8373ffffffffffffffffffffffffffffffffffffffff168573ffffffffffffffffffffffffffffffffffffffff167fddf252ad1be2c89b69c2b068fc378daa952ba7f163c4a11628f55a4df523b3ef8560405161081a91906121b7565b60405180910390a360019150509392505050565b6060600980548060200260200160405190810160405280929190818152602001828054801561087c57602002820191906000526020600020905b815481526020019060010190808311610868575b5050505050905090565b60006108906110ae565b151561089b57600080fd5b600d60009054906101000a900460ff161515156108b757600080fd5b6108bf611769565b600090505b600b805490508110156109e357600560009054906101000a900473ffffffffffffffffffffffffffffffffffffffff1673ffffffffffffffffffffffffffffffffffffffff1663b53709af600b8381548110151561091e57fe5b9060005260206000200160009054906101000a900473ffffffffffffffffffffffffffffffffffffffff16306040518363ffffffff167c01000000000000000000000000000000000000000000000000000000000281526004016109839291906120ea565b602060405180830381600087803b15801561099d57600080fd5b505af11580156109b1573d6000803e3d6000fd5b505050506040513d601f19601f820116820180604052506109d59190810190611e15565b5080806001019150506108c4565b6001600d60006101000a81548160ff02191690831515021790555050565b60008060008373ffffffffffffffffffffffffffffffffffffffff1673ffffffffffffffffffffffffffffffffffffffff168152602001908152602001600020549050919050565b6000806000806000600d60009054906101000a900460ff161515610a6c57600080fd5b60009450600093505b600a80549050841015610cba57600a84815481101515610a9157fe5b9060005260206000200160009054906101000a900473ffffffffffffffffffffffffffffffffffffffff1673ffffffffffffffffffffffffffffffffffffffff166370a08231336040518263ffffffff167c0100000000000000000000000000000000000000000000000000000000028152600401610b109190612069565b602060405180830381600087803b158015610b2a57600080fd5b505af1158015610b3e573d6000803e3d6000fd5b505050506040513d601f19601f82011682018060405250610b629190810190611eb9565b92506000831115610cad57600984815481101515610b7c57fe5b90600052602060002001549150600082141515610bea57610bae610ba9838561195490919063ffffffff16565b61198c565b9050610be781610bd9610bca858761195490919063ffffffff16565b88611c4e90919063ffffffff16565b611c6a90919063ffffffff16565b94505b600a84815481101515610bf957fe5b9060005260206000200160009054906101000a900473ffffffffffffffffffffffffffffffffffffffff1673ffffffffffffffffffffffffffffffffffffffff16639dc29fac33856040518363ffffffff167c0100000000000000000000000000000000000000000000000000000000028152600401610c7a929190612084565b600060405180830381600087803b158015610c9457600080fd5b505af1158015610ca8573d6000803e3d6000fd5b505050505b8380600101945050610a75565b3373ffffffffffffffffffffffffffffffffffffffff166108fc869081150290604051600060405180830381858888f19350505050158015610d00573d6000803e3d6000fd5b505050505050565b60008173ffffffffffffffffffffffffffffffffffffffff166365957bf5846040518263ffffffff167c0100000000000000000000000000000000000000000000000000000000028152600401610d5f91906121b7565b602060405180830381600087803b158015610d7957600080fd5b505af1158015610d8d573d6000803e3d6000fd5b505050506040513d601f19601f82011682018060405250610db19190810190611e3e565b73ffffffffffffffffffffffffffffffffffffffff166370a08231306040518263ffffffff167c0100000000000000000000000000000000000000000000000000000000028152600401610e059190612069565b602060405180830381600087803b158015610e1f57600080fd5b505af1158015610e33573d6000803e3d6000fd5b505050506040513d601f19601f82011682018060405250610e579190810190611eb9565b905092915050565b6000816000803373ffffffffffffffffffffffffffffffffffffffff1673ffffffffffffffffffffffffffffffffffffffff1681526020019081526020016000205410151515610ee4576040517f08c379a0000000000000000000000000000000000000000000000000000000008152600401610edb90612157565b60405180910390fd5b6000808473ffffffffffffffffffffffffffffffffffffffff1673ffffffffffffffffffffffffffffffffffffffff16815260200190815260200160002054826000808673ffffffffffffffffffffffffffffffffffffffff1673ffffffffffffffffffffffffffffffffffffffff168152602001908152602001600020540110151515610fa7576040517f08c379a0000000000000000000000000000000000000000000000000000000008152600401610f9e90612197565b60405180910390fd5b816000803373ffffffffffffffffffffffffffffffffffffffff1673ffffffffffffffffffffffffffffffffffffffff16815260200190815260200160002060008282540392505081905550816000808573ffffffffffffffffffffffffffffffffffffffff1673ffffffffffffffffffffffffffffffffffffffff168152602001908152602001600020600082825401925050819055508273ffffffffffffffffffffffffffffffffffffffff163373ffffffffffffffffffffffffffffffffffffffff167fddf252ad1be2c89b69c2b068fc378daa952ba7f163c4a11628f55a4df523b3ef8460405161109c91906121b7565b60405180910390a36001905092915050565b600080600090505b600b805490508110156111ba5760001515600b828154811015156110d657fe5b9060005260206000200160009054906101000a900473ffffffffffffffffffffffffffffffffffffffff1673ffffffffffffffffffffffffffffffffffffffff16638d4e40836040518163ffffffff167c0100000000000000000000000000000000000000000000000000000000028152600401602060405180830381600087803b15801561116457600080fd5b505af1158015611178573d6000803e3d6000fd5b505050506040513d601f19601f8201168201806040525061119c9190810190611e15565b151514156111ad57600091506111bf565b80806001019150506110b6565b600191505b5090565b6000600160008473ffffffffffffffffffffffffffffffffffffffff1673ffffffffffffffffffffffffffffffffffffffff16815260200190815260200160002060008373ffffffffffffffffffffffffffffffffffffffff1673ffffffffffffffffffffffffffffffffffffffff16815260200190815260200160002054905092915050565b6000806000806000803411151561126057600080fd5b6000151561126c6110ae565b151514151561127a57600080fd5b60009450600093505b600b805490508410156116245761132e606461132060086000600b898154811015156112ab57fe5b9060005260206000200160009054906101000a900473ffffffffffffffffffffffffffffffffffffffff1673ffffffffffffffffffffffffffffffffffffffff1673ffffffffffffffffffffffffffffffffffffffff168152602001908152602001600020543461195490919063ffffffff16565b611c8390919063ffffffff16565b9250611417600b8581548110151561134257fe5b9060005260206000200160009054906101000a900473ffffffffffffffffffffffffffffffffffffffff1673ffffffffffffffffffffffffffffffffffffffff1663bad84c9e6040518163ffffffff167c0100000000000000000000000000000000000000000000000000000000028152600401602060405180830381600087803b1580156113d057600080fd5b505af11580156113e4573d6000803e3d6000fd5b505050506040513d601f19601f820116820180604052506114089190810190611eb9565b84611c8390919063ffffffff16565b915061142c8286611c4e90919063ffffffff16565b9450600b8481548110151561143d57fe5b9060005260206000200160009054906101000a900473ffffffffffffffffffffffffffffffffffffffff1673ffffffffffffffffffffffffffffffffffffffff1663bad84c9e6040518163ffffffff167c0100000000000000000000000000000000000000000000000000000000028152600401602060405180830381600087803b1580156114cb57600080fd5b505af11580156114df573d6000803e3d6000fd5b505050506040513d601f19601f820116820180604052506115039190810190611eb9565b831015151561151157600080fd5b600360009054906101000a900473ffffffffffffffffffffffffffffffffffffffff1673ffffffffffffffffffffffffffffffffffffffff1663abb60c8084600b8781548110151561155f57fe5b9060005260206000200160009054906101000a900473ffffffffffffffffffffffffffffffffffffffff16856040518463ffffffff167c01000000000000000000000000000000000000000000000000000000000281526004016115c4929190612113565b6020604051808303818588803b1580156115dd57600080fd5b505af11580156115f1573d6000803e3d6000fd5b50505050506040513d601f19601f820116820180604052506116169190810190611e15565b508380600101945050611283565b600090505b600a8054905081101561170557600a8181548110151561164557fe5b9060005260206000200160009054906101000a900473ffffffffffffffffffffffffffffffffffffffff1673ffffffffffffffffffffffffffffffffffffffff166340c10f1933876040518363ffffffff167c01000000000000000000000000000000000000000000000000000000000281526004016116c6929190612084565b600060405180830381600087803b1580156116e057600080fd5b505af11580156116f4573d6000803e3d6000fd5b505050508080600101915050611629565b3373ffffffffffffffffffffffffffffffffffffffff166108fc6117346007548861195490919063ffffffff16565b34039081150290604051600060405180830381858888f19350505050158015611761573d6000803e3d6000fd5b505050505050565b600080600080600080600095505b600a8054905086101561194c5760009450600093505b600b8054905084101561191357600b848154811015156117a957fe5b9060005260206000200160009054906101000a900473ffffffffffffffffffffffffffffffffffffffff1692508273ffffffffffffffffffffffffffffffffffffffff16633c264820876040518263ffffffff167c010000000000000000000000000000000000000000000000000000000002815260040161182b91906121b7565b602060405180830381600087803b15801561184557600080fd5b505af1158015611859573d6000803e3d6000fd5b505050506040513d601f19601f8201168201806040525061187d9190810190611eb9565b9150600082141515611906576118ee60646118e0600860008773ffffffffffffffffffffffffffffffffffffffff1673ffffffffffffffffffffffffffffffffffffffff168152602001908152602001600020548561195490919063ffffffff16565b611c8390919063ffffffff16565b90506119038186611c4e90919063ffffffff16565b94505b838060010194505061178d565b60098590806001815401808255809150509060018203906000526020600020016000909192909190915055508580600101965050611777565b505050505050565b6000808314156119675760009050611986565b818302905081838281151561197857fe5b0414151561198257fe5b8090505b92915050565b60008060008060009250600091505b600b80549050821015611aa957611a9a600b838154811015156119ba57fe5b9060005260206000200160009054906101000a900473ffffffffffffffffffffffffffffffffffffffff1673ffffffffffffffffffffffffffffffffffffffff1663f8c52125876040518263ffffffff167c0100000000000000000000000000000000000000000000000000000000028152600401611a3991906121b7565b602060405180830381600087803b158015611a5357600080fd5b505af1158015611a67573d6000803e3d6000fd5b505050506040513d601f19601f82011682018060405250611a8b9190810190611eb9565b84611c4e90919063ffffffff16565b9250818060010192505061199b565b600b6000815481101515611ab957fe5b9060005260206000200160009054906101000a900473ffffffffffffffffffffffffffffffffffffffff1673ffffffffffffffffffffffffffffffffffffffff1663870c426d6040518163ffffffff167c0100000000000000000000000000000000000000000000000000000000028152600401602060405180830381600087803b158015611b4757600080fd5b505af1158015611b5b573d6000803e3d6000fd5b505050506040513d601f19601f82011682018060405250611b7f9190810190611e67565b73ffffffffffffffffffffffffffffffffffffffff16638f93bffe6040518163ffffffff167c0100000000000000000000000000000000000000000000000000000000028152600401602060405180830381600087803b158015611be257600080fd5b505af1158015611bf6573d6000803e3d6000fd5b505050506040513d601f19601f82011682018060405250611c1a9190810190611eb9565b9050611c41611c328287611c8390919063ffffffff16565b84611c4e90919063ffffffff16565b9250829350505050919050565b60008183019050828110151515611c6157fe5b80905092915050565b6000828211151515611c7857fe5b818303905092915050565b60008183811515611c9057fe5b04905092915050565b6000611ca5823561222d565b905092915050565b6000611cb9825161224d565b905092915050565b6000611ccd8235612259565b905092915050565b6000611ce1825161226b565b905092915050565b6000611cf5825161227d565b905092915050565b6000611d09823561228f565b905092915050565b6000611d1d825161228f565b905092915050565b600060208284031215611d3757600080fd5b6000611d4584828501611c99565b91505092915050565b60008060408385031215611d6157600080fd5b6000611d6f85828601611c99565b9250506020611d8085828601611c99565b9150509250929050565b600080600060608486031215611d9f57600080fd5b6000611dad86828701611c99565b9350506020611dbe86828701611c99565b9250506040611dcf86828701611cfd565b9150509250925092565b60008060408385031215611dec57600080fd5b6000611dfa85828601611c99565b9250506020611e0b85828601611cfd565b9150509250929050565b600060208284031215611e2757600080fd5b6000611e3584828501611cad565b91505092915050565b600060208284031215611e5057600080fd5b6000611e5e84828501611cd5565b91505092915050565b600060208284031215611e7957600080fd5b6000611e8784828501611ce9565b91505092915050565b600060208284031215611ea257600080fd5b6000611eb084828501611cfd565b91505092915050565b600060208284031215611ecb57600080fd5b6000611ed984828501611d11565b91505092915050565b60008060408385031215611ef557600080fd5b6000611f0385828601611cfd565b9250506020611f1485828601611cc1565b9150509250929050565b611f27816121f7565b82525050565b6000611f38826121df565b808452602084019350611f4a836121d2565b60005b82811015611f7c57611f6086835161205a565b611f69826121ea565b9150602086019550600181019050611f4d565b50849250505092915050565b611f9181612217565b82525050565b611fa081612299565b82525050565b611faf816122ab565b82525050565b6000601a82527f45524332305f494e53554646494349454e545f42414c414e43450000000000006020830152604082019050919050565b6000601c82527f45524332305f494e53554646494349454e545f414c4c4f57414e4345000000006020830152604082019050919050565b6000601082527f55494e543235365f4f564552464c4f57000000000000000000000000000000006020830152604082019050919050565b61206381612223565b82525050565b600060208201905061207e6000830184611f1e565b92915050565b60006040820190506120996000830185611f1e565b6120a6602083018461205a565b9392505050565b600060208201905081810360008301526120c78184611f2d565b905092915050565b60006020820190506120e46000830184611f88565b92915050565b60006040820190506120ff6000830185611f97565b61210c6020830184611f1e565b9392505050565b60006040820190506121286000830185611f97565b612135602083018461205a565b9392505050565b60006020820190506121516000830184611fa6565b92915050565b6000602082019050818103600083015261217081611fb5565b9050919050565b6000602082019050818103600083015261219081611fec565b9050919050565b600060208201905081810360008301526121b081612023565b9050919050565b60006020820190506121cc600083018461205a565b92915050565b6000602082019050919050565b600081519050919050565b6000602082019050919050565b600073ffffffffffffffffffffffffffffffffffffffff82169050919050565b60008115159050919050565b6000819050919050565b600073ffffffffffffffffffffffffffffffffffffffff82169050919050565b60008115159050919050565b6000612264826121f7565b9050919050565b6000612276826121f7565b9050919050565b6000612288826121f7565b9050919050565b6000819050919050565b60006122a4826121f7565b9050919050565b60006122b6826121f7565b90509190505600a265627a7a7230582062fdb1cbfaf0026e885392e07f4abe0f201e1d2b58ca9817d6dac5e754b5b3e26c6578706572696d656e74616cf5003760806040526040805190810160405280600881526020017f41756775725365740000000000000000000000000000000000000000000000008152506003908051906020019062000051929190620000fa565b506040805190810160405280600281526020017f4153000000000000000000000000000000000000000000000000000000000000815250600490805190602001906200009f929190620000fa565b506012600555348015620000b257600080fd5b5033600660006101000a81548173ffffffffffffffffffffffffffffffffffffffff021916908373ffffffffffffffffffffffffffffffffffffffff160217905550620001a9565b828054600181600116156101000203166002900490600052602060002090601f016020900481019282601f106200013d57805160ff19168380011785556200016e565b828001600101855582156200016e579182015b828111156200016d57825182559160200191906001019062000150565b5b5090506200017d919062000181565b5090565b620001a691905b80821115620001a257600081600090555060010162000188565b5090565b90565b61132080620001b96000396000f3006080604052600436106100af576000357c0100000000000000000000000000000000000000000000000000000000900463ffffffff16806306fdde03146100b4578063095ea7b31461014457806318160ddd146101a957806323b872dd146101d4578063313ce5671461025957806340c10f191461028457806370a08231146102d157806395d89b41146103285780639dc29fac146103b8578063a9059cbb14610405578063dd62ed3e1461046a575b600080fd5b3480156100c057600080fd5b506100c96104e1565b6040518080602001828103825283818151815260200191508051906020019080838360005b838110156101095780820151818401526020810190506100ee565b50505050905090810190601f1680156101365780820380516001836020036101000a031916815260200191505b509250505060405180910390f35b34801561015057600080fd5b5061018f600480360381019080803573ffffffffffffffffffffffffffffffffffffffff1690602001909291908035906020019092919050505061057f565b604051808215151515815260200191505060405180910390f35b3480156101b557600080fd5b506101be610671565b6040518082815260200191505060405180910390f35b3480156101e057600080fd5b5061023f600480360381019080803573ffffffffffffffffffffffffffffffffffffffff169060200190929190803573ffffffffffffffffffffffffffffffffffffffff1690602001909291908035906020019092919050505061067b565b604051808215151515815260200191505060405180910390f35b34801561026557600080fd5b5061026e610add565b6040518082815260200191505060405180910390f35b34801561029057600080fd5b506102cf600480360381019080803573ffffffffffffffffffffffffffffffffffffffff16906020019092919080359060200190929190505050610ae3565b005b3480156102dd57600080fd5b50610312600480360381019080803573ffffffffffffffffffffffffffffffffffffffff169060200190929190505050610b4d565b6040518082815260200191505060405180910390f35b34801561033457600080fd5b5061033d610b95565b6040518080602001828103825283818151815260200191508051906020019080838360005b8381101561037d578082015181840152602081019050610362565b50505050905090810190601f1680156103aa5780820380516001836020036101000a031916815260200191505b509250505060405180910390f35b3480156103c457600080fd5b50610403600480360381019080803573ffffffffffffffffffffffffffffffffffffffff16906020019092919080359060200190929190505050610c33565b005b34801561041157600080fd5b50610450600480360381019080803573ffffffffffffffffffffffffffffffffffffffff16906020019092919080359060200190929190505050610c9d565b604051808215151515815260200191505060405180910390f35b34801561047657600080fd5b506104cb600480360381019080803573ffffffffffffffffffffffffffffffffffffffff169060200190929190803573ffffffffffffffffffffffffffffffffffffffff169060200190929190505050610f52565b6040518082815260200191505060405180910390f35b60038054600181600116156101000203166002900480601f0160208091040260200160405190810160405280929190818152602001828054600181600116156101000203166002900480156105775780601f1061054c57610100808354040283529160200191610577565b820191906000526020600020905b81548152906001019060200180831161055a57829003601f168201915b505050505081565b600081600160003373ffffffffffffffffffffffffffffffffffffffff1673ffffffffffffffffffffffffffffffffffffffff16815260200190815260200160002060008573ffffffffffffffffffffffffffffffffffffffff1673ffffffffffffffffffffffffffffffffffffffff168152602001908152602001600020819055508273ffffffffffffffffffffffffffffffffffffffff163373ffffffffffffffffffffffffffffffffffffffff167f8c5be1e5ebec7d5bd14f71427d1e84f3dd0314c0f7b2291e5b200ac8c7c3b925846040518082815260200191505060405180910390a36001905092915050565b6000600254905090565b600080600160008673ffffffffffffffffffffffffffffffffffffffff1673ffffffffffffffffffffffffffffffffffffffff16815260200190815260200160002060003373ffffffffffffffffffffffffffffffffffffffff1673ffffffffffffffffffffffffffffffffffffffff168152602001908152602001600020549050826000808773ffffffffffffffffffffffffffffffffffffffff1673ffffffffffffffffffffffffffffffffffffffff16815260200190815260200160002054101515156107b3576040517f08c379a000000000000000000000000000000000000000000000000000000000815260040180806020018281038252601a8152602001807f45524332305f494e53554646494349454e545f42414c414e434500000000000081525060200191505060405180910390fd5b82811015151561082b576040517f08c379a000000000000000000000000000000000000000000000000000000000815260040180806020018281038252601c8152602001807f45524332305f494e53554646494349454e545f414c4c4f57414e43450000000081525060200191505060405180910390fd5b6000808573ffffffffffffffffffffffffffffffffffffffff1673ffffffffffffffffffffffffffffffffffffffff16815260200190815260200160002054836000808773ffffffffffffffffffffffffffffffffffffffff1673ffffffffffffffffffffffffffffffffffffffff168152602001908152602001600020540110151515610921576040517f08c379a00000000000000000000000000000000000000000000000000000000081526004018080602001828103825260108152602001807f55494e543235365f4f564552464c4f570000000000000000000000000000000081525060200191505060405180910390fd5b826000808673ffffffffffffffffffffffffffffffffffffffff1673ffffffffffffffffffffffffffffffffffffffff16815260200190815260200160002060008282540192505081905550826000808773ffffffffffffffffffffffffffffffffffffffff1673ffffffffffffffffffffffffffffffffffffffff168152602001908152602001600020600082825403925050819055507fffffffffffffffffffffffffffffffffffffffffffffffffffffffffffffffff811015610a6c5782600160008773ffffffffffffffffffffffffffffffffffffffff1673ffffffffffffffffffffffffffffffffffffffff16815260200190815260200160002060003373ffffffffffffffffffffffffffffffffffffffff1673ffffffffffffffffffffffffffffffffffffffff168152602001908152602001600020600082825403925050819055505b8373ffffffffffffffffffffffffffffffffffffffff168573ffffffffffffffffffffffffffffffffffffffff167fddf252ad1be2c89b69c2b068fc378daa952ba7f163c4a11628f55a4df523b3ef856040518082815260200191505060405180910390a360019150509392505050565b60055481565b600660009054906101000a900473ffffffffffffffffffffffffffffffffffffffff1673ffffffffffffffffffffffffffffffffffffffff163373ffffffffffffffffffffffffffffffffffffffff16141515610b3f57600080fd5b610b498282610fd9565b5050565b60008060008373ffffffffffffffffffffffffffffffffffffffff1673ffffffffffffffffffffffffffffffffffffffff168152602001908152602001600020549050919050565b60048054600181600116156101000203166002900480601f016020809104026020016040519081016040528092919081815260200182805460018160011615610100020316600290048015610c2b5780601f10610c0057610100808354040283529160200191610c2b565b820191906000526020600020905b815481529060010190602001808311610c0e57829003601f168201915b505050505081565b600660009054906101000a900473ffffffffffffffffffffffffffffffffffffffff1673ffffffffffffffffffffffffffffffffffffffff163373ffffffffffffffffffffffffffffffffffffffff16141515610c8f57600080fd5b610c9982826110df565b5050565b6000816000803373ffffffffffffffffffffffffffffffffffffffff1673ffffffffffffffffffffffffffffffffffffffff1681526020019081526020016000205410151515610d55576040517f08c379a000000000000000000000000000000000000000000000000000000000815260040180806020018281038252601a8152602001807f45524332305f494e53554646494349454e545f42414c414e434500000000000081525060200191505060405180910390fd5b6000808473ffffffffffffffffffffffffffffffffffffffff1673ffffffffffffffffffffffffffffffffffffffff16815260200190815260200160002054826000808673ffffffffffffffffffffffffffffffffffffffff1673ffffffffffffffffffffffffffffffffffffffff168152602001908152602001600020540110151515610e4b576040517f08c379a00000000000000000000000000000000000000000000000000000000081526004018080602001828103825260108152602001807f55494e543235365f4f564552464c4f570000000000000000000000000000000081525060200191505060405180910390fd5b816000803373ffffffffffffffffffffffffffffffffffffffff1673ffffffffffffffffffffffffffffffffffffffff16815260200190815260200160002060008282540392505081905550816000808573ffffffffffffffffffffffffffffffffffffffff1673ffffffffffffffffffffffffffffffffffffffff168152602001908152602001600020600082825401925050819055508273ffffffffffffffffffffffffffffffffffffffff163373ffffffffffffffffffffffffffffffffffffffff167fddf252ad1be2c89b69c2b068fc378daa952ba7f163c4a11628f55a4df523b3ef846040518082815260200191505060405180910390a36001905092915050565b6000600160008473ffffffffffffffffffffffffffffffffffffffff1673ffffffffffffffffffffffffffffffffffffffff16815260200190815260200160002060008373ffffffffffffffffffffffffffffffffffffffff1673ffffffffffffffffffffffffffffffffffffffff16815260200190815260200160002054905092915050565b611021816000808573ffffffffffffffffffffffffffffffffffffffff1673ffffffffffffffffffffffffffffffffffffffff168152602001908152602001600020546111e5565b6000808473ffffffffffffffffffffffffffffffffffffffff1673ffffffffffffffffffffffffffffffffffffffff1681526020019081526020016000208190555061106f600254826111e5565b6002819055508173ffffffffffffffffffffffffffffffffffffffff16600073ffffffffffffffffffffffffffffffffffffffff167fddf252ad1be2c89b69c2b068fc378daa952ba7f163c4a11628f55a4df523b3ef836040518082815260200191505060405180910390a35050565b6111276000808473ffffffffffffffffffffffffffffffffffffffff1673ffffffffffffffffffffffffffffffffffffffff168152602001908152602001600020548261126f565b6000808473ffffffffffffffffffffffffffffffffffffffff1673ffffffffffffffffffffffffffffffffffffffff168152602001908152602001600020819055506111756002548261126f565b600281905550600073ffffffffffffffffffffffffffffffffffffffff168273ffffffffffffffffffffffffffffffffffffffff167fddf252ad1be2c89b69c2b068fc378daa952ba7f163c4a11628f55a4df523b3ef836040518082815260200191505060405180910390a35050565b6000808284019050838110151515611265576040517f08c379a00000000000000000000000000000000000000000000000000000000081526004018080602001828103825260108152602001807f55494e543235365f4f564552464c4f570000000000000000000000000000000081525060200191505060405180910390fd5b8091505092915050565b60008282111515156112e9576040517f08c379a00000000000000000000000000000000000000000000000000000000081526004018080602001828103825260118152602001807f55494e543235365f554e444552464c4f5700000000000000000000000000000081525060200191505060405180910390fd5b8183039050929150505600a165627a7a72305820adfad3257b9be92448ebdbcb421b5b97a9bb7c99fe5bd76d405a9abe3c262e8d0029",
  "source": "pragma solidity >= 0.4.22;\npragma experimental ABIEncoderV2;\n\nimport \"./OutcomeIndexToken.sol\";\n\nimport \"./../libraries/0x/contracts/erc20/contracts/src/MintableERC20Token.sol\";\n\nimport \"./../libraries/augur/source/contracts/trading/IShareToken.sol\";\nimport \"./../libraries/augur/source/contracts/reporting/IMarket.sol\";\n\nimport \"./../libraries/augur/source/contracts/TimeControlled.sol\";\nimport \"./../libraries/augur/source/contracts/Augur.sol\";\nimport \"./../libraries/augur/source/contracts/reporting/Market.sol\";\nimport \"./../libraries/augur/source/contracts/reporting/Reporting.sol\";\nimport \"./../libraries/augur/source/contracts/reporting/IUniverse.sol\";\n\nimport \"./../libraries/augur/source/contracts/reporting/Universe.sol\";\nimport \"./../libraries/augur/source/contracts/reporting/FeeWindow.sol\";\nimport \"./../libraries/augur/source/contracts/trading/CompleteSets.sol\";\nimport \"./../libraries/augur/source/contracts/trading/ICash.sol\";\nimport \"./../libraries/augur/source/contracts/trading/ClaimTradingProceeds.sol\";\n\nimport \"./../libraries/openzeppelin-solidity/SafeMathLib.sol\";\n \ncontract AugurSet is MintableERC20Token {\n\tusing SafeMathLib for uint256;\n\n\tCompleteSets internal completeSets;\n\tICash internal cash;\n\tClaimTradingProceeds internal claimTradingProceeds;\n\taddress internal augur;\n\n\tuint256 NUM_TICKS = 10000;\n\n\tmapping(address => uint256) marketsToWeight;\n\tuint256[] internal payoutDistribution;\n\n\tOutcomeIndexToken[] public outcomeIndexTokens;\n\tIMarket[] markets;\n\tIShareToken[][] indexes;\n\tbool augurSetFinalized = false;\n\n\tconstructor (\n\t\tIMarket[] _markets,\n\t\tuint256[] _weights,\n\t\tuint256 _numOutcomes,\n\t\taddress _completeSets,\n\t\taddress _cash,\n\t\taddress _claimTradingProceeds,\n\t\taddress _augur\n\t)  \n\tpublic \n\t{\n\t\t// For each market there needs to be a decision on how weight it carries\n\t\trequire(_markets.length == _weights.length);\n\t\trequire(validateWeights(_weights));\n\t\trequire(validateMarketUniverses(_markets));\n\n\t\tfor (uint256 outcome = 0; outcome < _numOutcomes; outcome++) {\n\t\t\t// Create ERC20 token representing an index of outcomes\n\t\t\tOutcomeIndexToken outcomeIndexToken = new OutcomeIndexToken();\n\t\t\toutcomeIndexTokens.push(outcomeIndexToken);\n\n\t\t\t// Create an array with all ShareTokens\n\t\t\tIShareToken[] storage index;\n\t\t\tfor (uint256 x = 0; x < _markets.length; x++) {\n\t\t\t\tindex.push(_markets[x].getShareToken(outcome));\n\t\t\t}\n\t\t\t// Push the index array to an array containing all indexes\n\t\t\tindexes.push(index);\n\t\t}\n\n\t\t// Map weights to market\n\t\tfor (uint256 y = 0; y < _markets.length; y++) {\n\t\t\tmarketsToWeight[_markets[y]] = _weights[y];\n\t\t}\n\t\t\n\t\t// Set contract addresses to network instances\n\t\tcompleteSets = CompleteSets(_completeSets);\n\t\tcash = ICash(_cash);\n\t\tclaimTradingProceeds = ClaimTradingProceeds(_claimTradingProceeds);\n\t\taugur = _augur;\n\t\t\n\t\t// Approve augur to trade Cash for this contract\n\t\tcash.approve(augur, uint256(-1));\n\n\t\tmarkets = _markets;\n\t}\n\n\tfunction () payable {}\n\n\tfunction buyCompleteSet()\n\tpublic\n\tpayable {\n\t\trequire(msg.value > 0);\n\t\trequire(indexMarketsFinalized() == false);\n\n\t\tuint256 totalSharesBought = 0;\n\t\t// Buy a complete set of shares for each market\n\t\tfor (uint256 i = 0; i < markets.length; i++) {\n\t\t// Calculate the amount of shares that have to be bought \n\t\t\tuint256 weightedAmount = msg.value.mul(marketsToWeight[markets[i]]).div(100);\n\t\t\tuint256 totalSharesToBuy = weightedAmount.div(markets[i].getNumTicks());\n\t\t\ttotalSharesBought = totalSharesBought.add(totalSharesToBuy);\n\t\t\trequire(weightedAmount >= markets[i].getNumTicks());\n\t\t\tcompleteSets.publicBuyCompleteSets.value(weightedAmount)(markets[i], totalSharesToBuy);\n\t\t}\n\t\t// For each existing index token mint the amount in eth for the sender\n\t\tfor (uint256 x = 0; x < outcomeIndexTokens.length; x++){\n\n\t\t\toutcomeIndexTokens[x].mint(msg.sender, totalSharesBought);\n\t\t}\n\n\t\t// Transfer back all eth that's left over\n\t\tmsg.sender.transfer(msg.value - totalSharesBought.mul(NUM_TICKS));\n\t}\n\n\t// Check if each market in the index is finalized\n\tfunction indexMarketsFinalized() \n\tpublic \n\tview \n\treturns (bool resolved) \n\t{\n\t\tfor (uint i = 0; i < markets.length; i++) {\n\t\t\tif (markets[i].isFinalized() == false) {\n\t\t\t\treturn false;\n\t\t\t}\n\t\t}\n\t\treturn true;\n\t}\n\n\t// If each market is finalized, this Index can be finalized, the contract will claim all winnings and distribute to the winning outcome holders\n\tfunction finalize() \n\tpublic \n\t{\n\t\trequire(indexMarketsFinalized());\n\t\trequire(!augurSetFinalized);\n\t\tcalculatePayoutDistribution();\n\t\tfor (uint i = 0; i < markets.length; i++) {\n\t\t\tclaimTradingProceeds.claimTradingProceeds(markets[i], address(this));\n\t\t}\t\t\n\t\taugurSetFinalized = true;\n\t}\n\n\tfunction calculatePayoutDistribution()\n\tprivate \n\t{\n\t\tfor (uint256 outcome = 0; outcome < outcomeIndexTokens.length; outcome++) {\n\t\t\tuint256 payoutForOutcome = 0;\n\t\t\tfor (uint256 i = 0; i <  markets.length; i++) {\n\t\t\t\tIMarket market = markets[i];\n\t\t\t\tuint256 payoutNumerator = market.getWinningPayoutNumerator(outcome);\n\t\t\t\tif(payoutNumerator != 0) {\n\t\t\t\t\t\tuint256 weightedValue = payoutNumerator.mul(marketsToWeight[address(market)]).div(100);\n\t\t\t\t\t\tpayoutForOutcome = payoutForOutcome.add(weightedValue);\n\t\t\t\t}\n\t\t\t}\n\t\t\tpayoutDistribution.push(payoutForOutcome);\n\t\t}\n\t}\n\n\tfunction calculateFees(uint256 proceeds) \n\tinternal \n\treturns(uint256) \n\t{\n\t\tuint256 flatFee = 0;\n\t\tfor (uint256 i = 0; i < markets.length; i++) {\n\t\t\tflatFee = flatFee.add(markets[i].deriveMarketCreatorFeeAmount(proceeds));\n\t\t}\n\t\tuint256 reportingFeeDevisor = markets[0].getUniverse().getOrCacheReportingFeeDivisor();\n\t\tflatFee = flatFee.add(proceeds.div(reportingFeeDevisor));\n\t\treturn flatFee;\n\t}\n\n\tfunction claimProceeds() \n\tpublic \n\t{\n\t\trequire(augurSetFinalized);\n\t\tuint256 totalProceeds = 0;\n\t\t\n\t\tfor (uint256 i = 0; i < outcomeIndexTokens.length; i++) {\n\t\t\tuint256 balance = outcomeIndexTokens[i].balanceOf(msg.sender);\n\t\t\tif (balance > 0) {\n\t\t\t\tuint256 payoutNumerator = payoutDistribution[i];\n\t\t\t\tif (payoutNumerator != 0) {\n\t\t\t\t\tuint256 totalFee = calculateFees(balance.mul(payoutNumerator));\n\t\t\t\t\ttotalProceeds = totalProceeds.add(balance.mul(payoutNumerator)).sub(totalFee);\n\t\t\t\t}\n\t\t\t\toutcomeIndexTokens[i].burn(msg.sender, balance);\n\t\t\t}\n\t\t}\n\t\tmsg.sender.transfer(totalProceeds);\n\t}\n\n\tfunction getPayoutDistribution() \n\tpublic\n\tview \n\treturns(uint256[])\n\t{\n\t\treturn payoutDistribution;\n\t}\n\n\tfunction validateMarketUniverses(IMarket[] _markets) \n\tprivate \n\tview \n\treturns (bool) \n\t{\n\t\taddress universe = address(_markets[0].getUniverse());\n\t\tfor (uint256 i = 1; i < _markets.length; i++) {\n\t\t\taddress marketUniverse = address(_markets[i].getUniverse());\n\t\t\tif (marketUniverse != universe) return false;\n\t\t}\n\t\treturn true;\n\t}\n\n\tfunction validateWeights(uint256[] _weights) \n\tprivate \n\tview \n\treturns(bool) \n\t{\n\t\tuint256 totalWeight = 0;\n\t\tfor (uint256 i = 0; i < _weights.length; i++) {\n\t\t\ttotalWeight = totalWeight.add(_weights[i]);\n\t\t}\n\t\treturn totalWeight == 100;\n\t}\n\t\t\n\n\tfunction getMarketBalance(\n\t\tuint256 _outcome,\n\t\tIMarket _market\n\t) \n\tpublic \n\tview \n\treturns(uint256 balances)\n\t{\n\t\treturn _market.getShareToken(_outcome).balanceOf(address(this));\n\t}\n\n\n}",
  "sourcePath": "/Users/jasperdegooijer/Documents/flux/augurSets/AugurSets/contracts/AugurSet.sol",
  "compiler": {
    "name": "solc",
    "version": "0.4.22+commit.4cb486ee.Emscripten.clang"
  },
  "schemaVersion": "3.0.1",
  "updatedAt": "2019-07-21T10:01:13.634Z",
  "devdoc": {
    "methods": {
      "allowance(address,address)": {
        "params": {
          "_owner": "The address of the account owning tokens",
          "_spender": "The address of the account able to transfer the tokens"
        },
        "return": "Amount of remaining tokens allowed to spent"
      },
      "approve(address,uint256)": {
        "details": "`msg.sender` approves `_spender` to spend `_value` tokens",
        "params": {
          "_spender": "The address of the account able to transfer the tokens",
          "_value": "The amount of wei to be approved for transfer"
        },
        "return": "Always true if the call has enough gas to complete execution"
      },
      "balanceOf(address)": {
        "details": "Query the balance of owner",
        "params": {
          "_owner": "The address from which the balance will be retrieved"
        },
        "return": "Balance of owner"
      },
      "totalSupply()": {
        "details": "Query total supply of token",
        "return": "Total supply of token"
      },
      "transfer(address,uint256)": {
        "details": "send `value` token to `to` from `msg.sender`",
        "params": {
          "_to": "The address of the recipient",
          "_value": "The amount of token to be transferred"
        },
        "return": "True if transfer was successful"
      },
      "transferFrom(address,address,uint256)": {
        "details": "ERC20 transferFrom, modified such that an allowance of MAX_UINT represents an unlimited allowance. See https://github.com/ethereum/EIPs/issues/717",
        "params": {
          "_from": "Address to transfer from.",
          "_to": "Address to transfer to.",
          "_value": "Amount to transfer."
        },
        "return": "Success of transfer."
      }
    }
  },
  "userdoc": {
    "methods": {}
  }
}