{
  "contractName": "CompleteSetOfOutcomeIndexTokens",
  "abi": [
    {
      "constant": true,
      "inputs": [
        {
          "name": "",
          "type": "uint256"
        }
      ],
      "name": "outcomeIndexTokens",
      "outputs": [
        {
          "name": "",
          "type": "address"
        }
      ],
      "payable": false,
      "stateMutability": "view",
      "type": "function"
    },
    {
      "constant": false,
      "inputs": [
        {
          "name": "_spender",
          "type": "address"
        },
        {
          "name": "_value",
          "type": "uint256"
        }
      ],
      "name": "approve",
      "outputs": [
        {
          "name": "",
          "type": "bool"
        }
      ],
      "payable": false,
      "stateMutability": "nonpayable",
      "type": "function"
    },
    {
      "constant": true,
      "inputs": [],
      "name": "totalSupply",
      "outputs": [
        {
          "name": "",
          "type": "uint256"
        }
      ],
      "payable": false,
      "stateMutability": "view",
      "type": "function"
    },
    {
      "constant": false,
      "inputs": [
        {
          "name": "_from",
          "type": "address"
        },
        {
          "name": "_to",
          "type": "address"
        },
        {
          "name": "_value",
          "type": "uint256"
        }
      ],
      "name": "transferFrom",
      "outputs": [
        {
          "name": "",
          "type": "bool"
        }
      ],
      "payable": false,
      "stateMutability": "nonpayable",
      "type": "function"
    },
    {
      "constant": true,
      "inputs": [
        {
          "name": "_owner",
          "type": "address"
        }
      ],
      "name": "balanceOf",
      "outputs": [
        {
          "name": "",
          "type": "uint256"
        }
      ],
      "payable": false,
      "stateMutability": "view",
      "type": "function"
    },
    {
      "constant": false,
      "inputs": [
        {
          "name": "_to",
          "type": "address"
        },
        {
          "name": "_value",
          "type": "uint256"
        }
      ],
      "name": "transfer",
      "outputs": [
        {
          "name": "",
          "type": "bool"
        }
      ],
      "payable": false,
      "stateMutability": "nonpayable",
      "type": "function"
    },
    {
      "constant": true,
      "inputs": [
        {
          "name": "_owner",
          "type": "address"
        },
        {
          "name": "_spender",
          "type": "address"
        }
      ],
      "name": "allowance",
      "outputs": [
        {
          "name": "",
          "type": "uint256"
        }
      ],
      "payable": false,
      "stateMutability": "view",
      "type": "function"
    },
    {
      "inputs": [
        {
          "name": "_markets",
          "type": "address[]"
        },
        {
          "name": "_index",
          "type": "address[][]"
        },
        {
          "name": "_weights",
          "type": "uint256[]"
        }
      ],
      "payable": false,
      "stateMutability": "nonpayable",
      "type": "constructor"
    },
    {
      "anonymous": false,
      "inputs": [
        {
          "indexed": true,
          "name": "_from",
          "type": "address"
        },
        {
          "indexed": true,
          "name": "_to",
          "type": "address"
        },
        {
          "indexed": false,
          "name": "_value",
          "type": "uint256"
        }
      ],
      "name": "Transfer",
      "type": "event"
    },
    {
      "anonymous": false,
      "inputs": [
        {
          "indexed": true,
          "name": "_owner",
          "type": "address"
        },
        {
          "indexed": true,
          "name": "_spender",
          "type": "address"
        },
        {
          "indexed": false,
          "name": "_value",
          "type": "uint256"
        }
      ],
      "name": "Approval",
      "type": "event"
    },
    {
      "constant": false,
      "inputs": [
        {
          "name": "_amountOfShares",
          "type": "uint256"
        }
      ],
      "name": "buyCompleteSet",
      "outputs": [],
      "payable": true,
      "stateMutability": "payable",
      "type": "function"
    }
  ],
  "bytecode": "0x60806040523480156200001157600080fd5b506040516200390838038062003908833981018060405262000037919081019062000529565b600080825185511415156200004b57600080fd5b600091505b8351821015620001205760038585848151811015156200006c57fe5b90602001906020020151858562000082620001d5565b6200009194939291906200072c565b604051809103906000f080158015620000ae573d6000803e3d6000fd5b5090806001815401808255809150509060018203906000526020600020016000909192909190916101000a81548173ffffffffffffffffffffffffffffffffffffffff021916908373ffffffffffffffffffffffffffffffffffffffff16021790555050818060010192505062000050565b600090505b8451811015620001b15782818151811015156200013e57fe5b906020019060200201516005600087848151811015156200015b57fe5b9060200190602002015173ffffffffffffffffffffffffffffffffffffffff1673ffffffffffffffffffffffffffffffffffffffff16815260200190815260200160002081905550808060010191505062000125565b8460049080519060200190620001c9929190620001e6565b5050505050506200094b565b604051611e2c8062001adc83390190565b82805482825590600052602060002090810192821562000262579160200282015b82811115620002615782518260006101000a81548173ffffffffffffffffffffffffffffffffffffffff021916908373ffffffffffffffffffffffffffffffffffffffff1602179055509160200191906001019062000207565b5b50905062000271919062000275565b5090565b620002b891905b80821115620002b457600081816101000a81549073ffffffffffffffffffffffffffffffffffffffff0219169055506001016200027c565b5090565b90565b6000620002c98251620008f9565b905092915050565b600082601f8301121515620002e557600080fd5b8151620002fc620002f682620007bc565b6200078e565b915081818352602084019350602081019050838560208402820111156200032257600080fd5b60005b838110156200035657816200033b8882620002bb565b84526020840193506020830192505060018101905062000325565b5050505092915050565b600082601f83011215156200037457600080fd5b81516200038b6200038582620007e5565b6200078e565b9150818183526020840193506020810190508360005b83811015620003d55781518601620003ba8882620002d1565b845260208401935060208301925050600181019050620003a1565b5050505092915050565b600082601f8301121515620003f357600080fd5b81516200040a62000404826200080e565b6200078e565b915081818352602084019350602081019050838560208402820111156200043057600080fd5b60005b83811015620004645781620004498882620004fd565b84526020840193506020830192505060018101905062000433565b5050505092915050565b600082601f83011215156200048257600080fd5b815162000499620004938262000837565b6200078e565b91508181835260208401935060208101905083856020840282011115620004bf57600080fd5b60005b83811015620004f35781620004d8888262000513565b845260208401935060208301925050600181019050620004c2565b5050505092915050565b60006200050b825162000919565b905092915050565b60006200052182516200092d565b905092915050565b6000806000606084860312156200053f57600080fd5b600084015167ffffffffffffffff8111156200055a57600080fd5b6200056886828701620003df565b935050602084015167ffffffffffffffff8111156200058657600080fd5b620005948682870162000360565b925050604084015167ffffffffffffffff811115620005b257600080fd5b620005c0868287016200046e565b9150509250925092565b620005d581620008cf565b82525050565b6000620005e88262000887565b808452602084019350620005fc8362000860565b60005b82811015620006345762000615868351620005ca565b6200062082620008a8565b9150602086019550600181019050620005ff565b50849250505092915050565b60006200064d8262000892565b80845260208401935062000661836200086d565b60005b8281101562000699576200067a8683516200070a565b6200068582620008b5565b915060208601955060018101905062000664565b50849250505092915050565b6000620006b2826200089d565b808452602084019350620006c6836200087a565b60005b82811015620006fe57620006df8683516200071b565b620006ea82620008c2565b9150602086019550600181019050620006c9565b50849250505092915050565b620007158162000937565b82525050565b6200072681620008ef565b82525050565b6000608082019050818103600083015262000748818762000640565b905081810360208301526200075e8186620005db565b90508181036040830152620007748185620006a5565b90506200078560608301846200071b565b95945050505050565b6000604051905081810181811067ffffffffffffffff82111715620007b257600080fd5b8060405250919050565b600067ffffffffffffffff821115620007d457600080fd5b602082029050602081019050919050565b600067ffffffffffffffff821115620007fd57600080fd5b602082029050602081019050919050565b600067ffffffffffffffff8211156200082657600080fd5b602082029050602081019050919050565b600067ffffffffffffffff8211156200084f57600080fd5b602082029050602081019050919050565b6000602082019050919050565b6000602082019050919050565b6000602082019050919050565b600081519050919050565b600081519050919050565b600081519050919050565b6000602082019050919050565b6000602082019050919050565b6000602082019050919050565b600073ffffffffffffffffffffffffffffffffffffffff82169050919050565b6000819050919050565b600073ffffffffffffffffffffffffffffffffffffffff82169050919050565b60006200092682620008cf565b9050919050565b6000819050919050565b60006200094482620008cf565b9050919050565b611181806200095b6000396000f30060806040526004361061008e576000357c0100000000000000000000000000000000000000000000000000000000900463ffffffff16806304d552da14610093578063095ea7b3146100d057806318160ddd1461010d57806323b872dd1461013857806354b9c7951461017557806370a0823114610191578063a9059cbb146101ce578063dd62ed3e1461020b575b600080fd5b34801561009f57600080fd5b506100ba60048036036100b59190810190610e4a565b610248565b6040516100c79190611015565b60405180910390f35b3480156100dc57600080fd5b506100f760048036036100f29190810190610e0e565b610286565b6040516101049190610ffa565b60405180910390f35b34801561011957600080fd5b50610122610378565b60405161012f9190611090565b60405180910390f35b34801561014457600080fd5b5061015f600480360361015a9190810190610dbf565b610382565b60405161016c9190610ffa565b60405180910390f35b61018f600480360361018a9190810190610e4a565b61074b565b005b34801561019d57600080fd5b506101b860048036036101b39190810190610d5a565b6109c6565b6040516101c59190611090565b60405180910390f35b3480156101da57600080fd5b506101f560048036036101f09190810190610e0e565b610a0e565b6040516102029190610ffa565b60405180910390f35b34801561021757600080fd5b50610232600480360361022d9190810190610d83565b610c5d565b60405161023f9190611090565b60405180910390f35b60038181548110151561025757fe5b906000526020600020016000915054906101000a900473ffffffffffffffffffffffffffffffffffffffff1681565b600081600160003373ffffffffffffffffffffffffffffffffffffffff1673ffffffffffffffffffffffffffffffffffffffff16815260200190815260200160002060008573ffffffffffffffffffffffffffffffffffffffff1673ffffffffffffffffffffffffffffffffffffffff168152602001908152602001600020819055508273ffffffffffffffffffffffffffffffffffffffff163373ffffffffffffffffffffffffffffffffffffffff167f8c5be1e5ebec7d5bd14f71427d1e84f3dd0314c0f7b2291e5b200ac8c7c3b925846040516103669190611090565b60405180910390a36001905092915050565b6000600254905090565b600080600160008673ffffffffffffffffffffffffffffffffffffffff1673ffffffffffffffffffffffffffffffffffffffff16815260200190815260200160002060003373ffffffffffffffffffffffffffffffffffffffff1673ffffffffffffffffffffffffffffffffffffffff168152602001908152602001600020549050826000808773ffffffffffffffffffffffffffffffffffffffff1673ffffffffffffffffffffffffffffffffffffffff1681526020019081526020016000205410151515610487576040517f08c379a000000000000000000000000000000000000000000000000000000000815260040161047e90611030565b60405180910390fd5b8281101515156104cc576040517f08c379a00000000000000000000000000000000000000000000000000000000081526004016104c390611050565b60405180910390fd5b6000808573ffffffffffffffffffffffffffffffffffffffff1673ffffffffffffffffffffffffffffffffffffffff16815260200190815260200160002054836000808773ffffffffffffffffffffffffffffffffffffffff1673ffffffffffffffffffffffffffffffffffffffff16815260200190815260200160002054011015151561058f576040517f08c379a000000000000000000000000000000000000000000000000000000000815260040161058690611070565b60405180910390fd5b826000808673ffffffffffffffffffffffffffffffffffffffff1673ffffffffffffffffffffffffffffffffffffffff16815260200190815260200160002060008282540192505081905550826000808773ffffffffffffffffffffffffffffffffffffffff1673ffffffffffffffffffffffffffffffffffffffff168152602001908152602001600020600082825403925050819055507fffffffffffffffffffffffffffffffffffffffffffffffffffffffffffffffff8110156106da5782600160008773ffffffffffffffffffffffffffffffffffffffff1673ffffffffffffffffffffffffffffffffffffffff16815260200190815260200160002060003373ffffffffffffffffffffffffffffffffffffffff1673ffffffffffffffffffffffffffffffffffffffff168152602001908152602001600020600082825403925050819055505b8373ffffffffffffffffffffffffffffffffffffffff168573ffffffffffffffffffffffffffffffffffffffff167fddf252ad1be2c89b69c2b068fc378daa952ba7f163c4a11628f55a4df523b3ef856040516107379190611090565b60405180910390a360019150509392505050565b6000806000803411151561075e57600080fd5b600092505b6004805490508310156108df5761080e60646108006005600060048881548110151561078b57fe5b9060005260206000200160009054906101000a900473ffffffffffffffffffffffffffffffffffffffff1673ffffffffffffffffffffffffffffffffffffffff1673ffffffffffffffffffffffffffffffffffffffff1681526020019081526020016000205434610ce490919063ffffffff16565b610d1c90919063ffffffff16565b915060048381548110151561081f57fe5b9060005260206000200160009054906101000a900473ffffffffffffffffffffffffffffffffffffffff1673ffffffffffffffffffffffffffffffffffffffff1663a48247a78360036040518363ffffffff167c01000000000000000000000000000000000000000000000000000000000281526004016108a09190610fd8565b6000604051808303818588803b1580156108b957600080fd5b505af11580156108cd573d6000803e3d6000fd5b50505050508280600101935050610763565b600090505b6003805490508110156109c05760038181548110151561090057fe5b9060005260206000200160009054906101000a900473ffffffffffffffffffffffffffffffffffffffff1673ffffffffffffffffffffffffffffffffffffffff166340c10f1933346040518363ffffffff167c0100000000000000000000000000000000000000000000000000000000028152600401610981929190610faf565b600060405180830381600087803b15801561099b57600080fd5b505af11580156109af573d6000803e3d6000fd5b5050505080806001019150506108e4565b50505050565b60008060008373ffffffffffffffffffffffffffffffffffffffff1673ffffffffffffffffffffffffffffffffffffffff168152602001908152602001600020549050919050565b6000816000803373ffffffffffffffffffffffffffffffffffffffff1673ffffffffffffffffffffffffffffffffffffffff1681526020019081526020016000205410151515610a93576040517f08c379a0000000000000000000000000000000000000000000000000000000008152600401610a8a90611030565b60405180910390fd5b6000808473ffffffffffffffffffffffffffffffffffffffff1673ffffffffffffffffffffffffffffffffffffffff16815260200190815260200160002054826000808673ffffffffffffffffffffffffffffffffffffffff1673ffffffffffffffffffffffffffffffffffffffff168152602001908152602001600020540110151515610b56576040517f08c379a0000000000000000000000000000000000000000000000000000000008152600401610b4d90611070565b60405180910390fd5b816000803373ffffffffffffffffffffffffffffffffffffffff1673ffffffffffffffffffffffffffffffffffffffff16815260200190815260200160002060008282540392505081905550816000808573ffffffffffffffffffffffffffffffffffffffff1673ffffffffffffffffffffffffffffffffffffffff168152602001908152602001600020600082825401925050819055508273ffffffffffffffffffffffffffffffffffffffff163373ffffffffffffffffffffffffffffffffffffffff167fddf252ad1be2c89b69c2b068fc378daa952ba7f163c4a11628f55a4df523b3ef84604051610c4b9190611090565b60405180910390a36001905092915050565b6000600160008473ffffffffffffffffffffffffffffffffffffffff1673ffffffffffffffffffffffffffffffffffffffff16815260200190815260200160002060008373ffffffffffffffffffffffffffffffffffffffff1673ffffffffffffffffffffffffffffffffffffffff16815260200190815260200160002054905092915050565b600080831415610cf75760009050610d16565b8183029050818382811515610d0857fe5b04141515610d1257fe5b8090505b92915050565b60008183811515610d2957fe5b04905092915050565b6000610d3e823561110b565b905092915050565b6000610d52823561112b565b905092915050565b600060208284031215610d6c57600080fd5b6000610d7a84828501610d32565b91505092915050565b60008060408385031215610d9657600080fd5b6000610da485828601610d32565b9250506020610db585828601610d32565b9150509250929050565b600080600060608486031215610dd457600080fd5b6000610de286828701610d32565b9350506020610df386828701610d32565b9250506040610e0486828701610d46565b9150509250925092565b60008060408385031215610e2157600080fd5b6000610e2f85828601610d32565b9250506020610e4085828601610d46565b9150509250929050565b600060208284031215610e5c57600080fd5b6000610e6a84828501610d46565b91505092915050565b610e7c816110d5565b82525050565b6000610e8d826110bd565b808452602084019350610e9f836110ab565b60005b82811015610ed157610eb5868354610eec565b610ebe826110c8565b9150602086019550600181019050610ea2565b50849250505092915050565b610ee6816110f5565b82525050565b610ef581611135565b82525050565b6000601a82527f45524332305f494e53554646494349454e545f42414c414e43450000000000006020830152604082019050919050565b6000601c82527f45524332305f494e53554646494349454e545f414c4c4f57414e4345000000006020830152604082019050919050565b6000601082527f55494e543235365f4f564552464c4f57000000000000000000000000000000006020830152604082019050919050565b610fa981611101565b82525050565b6000604082019050610fc46000830185610e73565b610fd16020830184610fa0565b9392505050565b60006020820190508181036000830152610ff28184610e82565b905092915050565b600060208201905061100f6000830184610edd565b92915050565b600060208201905061102a6000830184610eec565b92915050565b6000602082019050818103600083015261104981610efb565b9050919050565b6000602082019050818103600083015261106981610f32565b9050919050565b6000602082019050818103600083015261108981610f69565b9050919050565b60006020820190506110a56000830184610fa0565b92915050565b60008160005260206000209050919050565b600081549050919050565b6000600182019050919050565b600073ffffffffffffffffffffffffffffffffffffffff82169050919050565b60008115159050919050565b6000819050919050565b600073ffffffffffffffffffffffffffffffffffffffff82169050919050565b6000819050919050565b6000611140826110d5565b90509190505600a265627a7a72305820d08278c6ca04082d24ad06d980371320e568b5b26f0164eb99e7933a0a721ed86c6578706572696d656e74616cf5003760806040526040805190810160405280601581526020017f4d756c74694d61726b6574496e646578546f6b656e000000000000000000000081525060039080519060200190620000519291906200023c565b506040805190810160405280600481526020017f4d4d495400000000000000000000000000000000000000000000000000000000815250600490805190602001906200009f9291906200023c565b5060126005556000600660146101000a81548160ff021916908315150217905550348015620000cd57600080fd5b5060405162001e2c38038062001e2c833981018060405281019080805182019291906020018051820192919060200180518201929190602001805190602001909291905050506000835183511415156200012657600080fd5b600090505b8351811015620001b75782818151811015156200014457fe5b90602001906020020151600a600086848151811015156200016157fe5b9060200190602002015173ffffffffffffffffffffffffffffffffffffffff1673ffffffffffffffffffffffffffffffffffffffff1681526020019081526020016000208190555080806001019150506200012b565b33600660006101000a81548173ffffffffffffffffffffffffffffffffffffffff021916908373ffffffffffffffffffffffffffffffffffffffff160217905550836008908051906020019062000210929190620002c3565b5084600990805190602001906200022992919062000352565b5081600781905550505050505062000495565b828054600181600116156101000203166002900490600052602060002090601f016020900481019282601f106200027f57805160ff1916838001178555620002b0565b82800160010185558215620002b0579182015b82811115620002af57825182559160200191906001019062000292565b5b509050620002bf9190620003e1565b5090565b8280548282559060005260206000209081019282156200033f579160200282015b828111156200033e5782518260006101000a81548173ffffffffffffffffffffffffffffffffffffffff021916908373ffffffffffffffffffffffffffffffffffffffff16021790555091602001919060010190620002e4565b5b5090506200034e919062000409565b5090565b828054828255906000526020600020908101928215620003ce579160200282015b82811115620003cd5782518260006101000a81548173ffffffffffffffffffffffffffffffffffffffff021916908373ffffffffffffffffffffffffffffffffffffffff1602179055509160200191906001019062000373565b5b509050620003dd91906200044f565b5090565b6200040691905b8082111562000402576000816000905550600101620003e8565b5090565b90565b6200044c91905b808211156200044857600081816101000a81549073ffffffffffffffffffffffffffffffffffffffff02191690555060010162000410565b5090565b90565b6200049291905b808211156200048e57600081816101000a81549073ffffffffffffffffffffffffffffffffffffffff02191690555060010162000456565b5090565b90565b61198780620004a56000396000f300608060405260043610610107576000357c0100000000000000000000000000000000000000000000000000000000900463ffffffff16806306fdde031461010c578063095ea7b31461019c57806318160ddd1461020157806323b872dd1461022c57806327793f87146102b1578063313ce567146102dc578063335932fc1461030757806340c10f19146103745780634bb278f3146103c15780634e71d92d146103d857806370a08231146103ef5780637e7e4b471461044657806395d89b4114610471578063a9059cbb14610501578063b1283e7714610566578063c9d59d8c146105d3578063ccfe7fc914610602578063d0e30db014610659578063dd62ed3e14610663575b600080fd5b34801561011857600080fd5b506101216106da565b6040518080602001828103825283818151815260200191508051906020019080838360005b83811015610161578082015181840152602081019050610146565b50505050905090810190601f16801561018e5780820380516001836020036101000a031916815260200191505b509250505060405180910390f35b3480156101a857600080fd5b506101e7600480360381019080803573ffffffffffffffffffffffffffffffffffffffff16906020019092919080359060200190929190505050610778565b604051808215151515815260200191505060405180910390f35b34801561020d57600080fd5b5061021661086a565b6040518082815260200191505060405180910390f35b34801561023857600080fd5b50610297600480360381019080803573ffffffffffffffffffffffffffffffffffffffff169060200190929190803573ffffffffffffffffffffffffffffffffffffffff16906020019092919080359060200190929190505050610874565b604051808215151515815260200191505060405180910390f35b3480156102bd57600080fd5b506102c6610cd6565b6040518082815260200191505060405180910390f35b3480156102e857600080fd5b506102f1610cdc565b6040518082815260200191505060405180910390f35b34801561031357600080fd5b5061033260048036038101908080359060200190929190505050610ce2565b604051808273ffffffffffffffffffffffffffffffffffffffff1673ffffffffffffffffffffffffffffffffffffffff16815260200191505060405180910390f35b34801561038057600080fd5b506103bf600480360381019080803573ffffffffffffffffffffffffffffffffffffffff16906020019092919080359060200190929190505050610d20565b005b3480156103cd57600080fd5b506103d6610d8a565b005b3480156103e457600080fd5b506103ed610f9c565b005b3480156103fb57600080fd5b50610430600480360381019080803573ffffffffffffffffffffffffffffffffffffffff169060200190929190505050611099565b6040518082815260200191505060405180910390f35b34801561045257600080fd5b5061045b6110e1565b6040518082815260200191505060405180910390f35b34801561047d57600080fd5b506104866110eb565b6040518080602001828103825283818151815260200191508051906020019080838360005b838110156104c65780820151818401526020810190506104ab565b50505050905090810190601f1680156104f35780820380516001836020036101000a031916815260200191505b509250505060405180910390f35b34801561050d57600080fd5b5061054c600480360381019080803573ffffffffffffffffffffffffffffffffffffffff16906020019092919080359060200190929190505050611189565b604051808215151515815260200191505060405180910390f35b34801561057257600080fd5b506105916004803603810190808035906020019092919050505061143e565b604051808273ffffffffffffffffffffffffffffffffffffffff1673ffffffffffffffffffffffffffffffffffffffff16815260200191505060405180910390f35b3480156105df57600080fd5b506105e861147c565b604051808215151515815260200191505060405180910390f35b34801561060e57600080fd5b50610643600480360381019080803573ffffffffffffffffffffffffffffffffffffffff169060200190929190505050611594565b6040518082815260200191505060405180910390f35b610661611673565b005b34801561066f57600080fd5b506106c4600480360381019080803573ffffffffffffffffffffffffffffffffffffffff169060200190929190803573ffffffffffffffffffffffffffffffffffffffff169060200190929190505050611675565b6040518082815260200191505060405180910390f35b60038054600181600116156101000203166002900480601f0160208091040260200160405190810160405280929190818152602001828054600181600116156101000203166002900480156107705780601f1061074557610100808354040283529160200191610770565b820191906000526020600020905b81548152906001019060200180831161075357829003601f168201915b505050505081565b600081600160003373ffffffffffffffffffffffffffffffffffffffff1673ffffffffffffffffffffffffffffffffffffffff16815260200190815260200160002060008573ffffffffffffffffffffffffffffffffffffffff1673ffffffffffffffffffffffffffffffffffffffff168152602001908152602001600020819055508273ffffffffffffffffffffffffffffffffffffffff163373ffffffffffffffffffffffffffffffffffffffff167f8c5be1e5ebec7d5bd14f71427d1e84f3dd0314c0f7b2291e5b200ac8c7c3b925846040518082815260200191505060405180910390a36001905092915050565b6000600254905090565b600080600160008673ffffffffffffffffffffffffffffffffffffffff1673ffffffffffffffffffffffffffffffffffffffff16815260200190815260200160002060003373ffffffffffffffffffffffffffffffffffffffff1673ffffffffffffffffffffffffffffffffffffffff168152602001908152602001600020549050826000808773ffffffffffffffffffffffffffffffffffffffff1673ffffffffffffffffffffffffffffffffffffffff16815260200190815260200160002054101515156109ac576040517f08c379a000000000000000000000000000000000000000000000000000000000815260040180806020018281038252601a8152602001807f45524332305f494e53554646494349454e545f42414c414e434500000000000081525060200191505060405180910390fd5b828110151515610a24576040517f08c379a000000000000000000000000000000000000000000000000000000000815260040180806020018281038252601c8152602001807f45524332305f494e53554646494349454e545f414c4c4f57414e43450000000081525060200191505060405180910390fd5b6000808573ffffffffffffffffffffffffffffffffffffffff1673ffffffffffffffffffffffffffffffffffffffff16815260200190815260200160002054836000808773ffffffffffffffffffffffffffffffffffffffff1673ffffffffffffffffffffffffffffffffffffffff168152602001908152602001600020540110151515610b1a576040517f08c379a00000000000000000000000000000000000000000000000000000000081526004018080602001828103825260108152602001807f55494e543235365f4f564552464c4f570000000000000000000000000000000081525060200191505060405180910390fd5b826000808673ffffffffffffffffffffffffffffffffffffffff1673ffffffffffffffffffffffffffffffffffffffff16815260200190815260200160002060008282540192505081905550826000808773ffffffffffffffffffffffffffffffffffffffff1673ffffffffffffffffffffffffffffffffffffffff168152602001908152602001600020600082825403925050819055507fffffffffffffffffffffffffffffffffffffffffffffffffffffffffffffffff811015610c655782600160008773ffffffffffffffffffffffffffffffffffffffff1673ffffffffffffffffffffffffffffffffffffffff16815260200190815260200160002060003373ffffffffffffffffffffffffffffffffffffffff1673ffffffffffffffffffffffffffffffffffffffff168152602001908152602001600020600082825403925050819055505b8373ffffffffffffffffffffffffffffffffffffffff168573ffffffffffffffffffffffffffffffffffffffff167fddf252ad1be2c89b69c2b068fc378daa952ba7f163c4a11628f55a4df523b3ef856040518082815260200191505060405180910390a360019150509392505050565b60075481565b60055481565b600881815481101515610cf157fe5b906000526020600020016000915054906101000a900473ffffffffffffffffffffffffffffffffffffffff1681565b600660009054906101000a900473ffffffffffffffffffffffffffffffffffffffff1673ffffffffffffffffffffffffffffffffffffffff163373ffffffffffffffffffffffffffffffffffffffff16141515610d7c57600080fd5b610d8682826116fc565b5050565b6000610d9461147c565b1515610d9f57600080fd5b600660149054906101000a900460ff16151515610dbb57600080fd5b600090505b600980549050811015610f7e57600754600982815481101515610ddf57fe5b9060005260206000200160009054906101000a900473ffffffffffffffffffffffffffffffffffffffff1673ffffffffffffffffffffffffffffffffffffffff166327793f876040518163ffffffff167c0100000000000000000000000000000000000000000000000000000000028152600401602060405180830381600087803b158015610e6d57600080fd5b505af1158015610e81573d6000803e3d6000fd5b505050506040513d6020811015610e9757600080fd5b81019080805190602001909291905050501415610f7157600981815481101515610ebd57fe5b9060005260206000200160009054906101000a900473ffffffffffffffffffffffffffffffffffffffff1673ffffffffffffffffffffffffffffffffffffffff1663379607f56007546040518263ffffffff167c010000000000000000000000000000000000000000000000000000000002815260040180828152602001915050600060405180830381600087803b158015610f5857600080fd5b505af1158015610f6c573d6000803e3d6000fd5b505050505b8080600101915050610dc0565b6001600660146101000a81548160ff02191690831515021790555050565b600660149054906101000a900460ff161515610fb757600080fd5b3373ffffffffffffffffffffffffffffffffffffffff166108fc61102360026000803373ffffffffffffffffffffffffffffffffffffffff1673ffffffffffffffffffffffffffffffffffffffff1681526020019081526020016000205461180290919063ffffffff16565b9081150290604051600060405180830381858888f1935050505015801561104e573d6000803e3d6000fd5b50611097336000803373ffffffffffffffffffffffffffffffffffffffff1673ffffffffffffffffffffffffffffffffffffffff16815260200190815260200160002054611818565b565b60008060008373ffffffffffffffffffffffffffffffffffffffff1673ffffffffffffffffffffffffffffffffffffffff168152602001908152602001600020549050919050565b6000600754905090565b60048054600181600116156101000203166002900480601f0160208091040260200160405190810160405280929190818152602001828054600181600116156101000203166002900480156111815780601f1061115657610100808354040283529160200191611181565b820191906000526020600020905b81548152906001019060200180831161116457829003601f168201915b505050505081565b6000816000803373ffffffffffffffffffffffffffffffffffffffff1673ffffffffffffffffffffffffffffffffffffffff1681526020019081526020016000205410151515611241576040517f08c379a000000000000000000000000000000000000000000000000000000000815260040180806020018281038252601a8152602001807f45524332305f494e53554646494349454e545f42414c414e434500000000000081525060200191505060405180910390fd5b6000808473ffffffffffffffffffffffffffffffffffffffff1673ffffffffffffffffffffffffffffffffffffffff16815260200190815260200160002054826000808673ffffffffffffffffffffffffffffffffffffffff1673ffffffffffffffffffffffffffffffffffffffff168152602001908152602001600020540110151515611337576040517f08c379a00000000000000000000000000000000000000000000000000000000081526004018080602001828103825260108152602001807f55494e543235365f4f564552464c4f570000000000000000000000000000000081525060200191505060405180910390fd5b816000803373ffffffffffffffffffffffffffffffffffffffff1673ffffffffffffffffffffffffffffffffffffffff16815260200190815260200160002060008282540392505081905550816000808573ffffffffffffffffffffffffffffffffffffffff1673ffffffffffffffffffffffffffffffffffffffff168152602001908152602001600020600082825401925050819055508273ffffffffffffffffffffffffffffffffffffffff163373ffffffffffffffffffffffffffffffffffffffff167fddf252ad1be2c89b69c2b068fc378daa952ba7f163c4a11628f55a4df523b3ef846040518082815260200191505060405180910390a36001905092915050565b60098181548110151561144d57fe5b906000526020600020016000915054906101000a900473ffffffffffffffffffffffffffffffffffffffff1681565b600080600090505b60088054905081101561158b57600015156009828154811015156114a457fe5b9060005260206000200160009054906101000a900473ffffffffffffffffffffffffffffffffffffffff1673ffffffffffffffffffffffffffffffffffffffff16638d4e40836040518163ffffffff167c0100000000000000000000000000000000000000000000000000000000028152600401602060405180830381600087803b15801561153257600080fd5b505af1158015611546573d6000803e3d6000fd5b505050506040513d602081101561155c57600080fd5b81019080805190602001909291905050501515141561157e5760009150611590565b8080600101915050611484565b600191505b5090565b60008173ffffffffffffffffffffffffffffffffffffffff166370a08231306040518263ffffffff167c0100000000000000000000000000000000000000000000000000000000028152600401808273ffffffffffffffffffffffffffffffffffffffff1673ffffffffffffffffffffffffffffffffffffffff168152602001915050602060405180830381600087803b15801561163157600080fd5b505af1158015611645573d6000803e3d6000fd5b505050506040513d602081101561165b57600080fd5b81019080805190602001909291905050509050919050565b565b6000600160008473ffffffffffffffffffffffffffffffffffffffff1673ffffffffffffffffffffffffffffffffffffffff16815260200190815260200160002060008373ffffffffffffffffffffffffffffffffffffffff1673ffffffffffffffffffffffffffffffffffffffff16815260200190815260200160002054905092915050565b611744816000808573ffffffffffffffffffffffffffffffffffffffff1673ffffffffffffffffffffffffffffffffffffffff1681526020019081526020016000205461191e565b6000808473ffffffffffffffffffffffffffffffffffffffff1673ffffffffffffffffffffffffffffffffffffffff168152602001908152602001600020819055506117926002548261191e565b6002819055508173ffffffffffffffffffffffffffffffffffffffff16600073ffffffffffffffffffffffffffffffffffffffff167fddf252ad1be2c89b69c2b068fc378daa952ba7f163c4a11628f55a4df523b3ef836040518082815260200191505060405180910390a35050565b6000818381151561180f57fe5b04905092915050565b6118606000808473ffffffffffffffffffffffffffffffffffffffff1673ffffffffffffffffffffffffffffffffffffffff168152602001908152602001600020548261193f565b6000808473ffffffffffffffffffffffffffffffffffffffff1673ffffffffffffffffffffffffffffffffffffffff168152602001908152602001600020819055506118ae6002548261193f565b600281905550600073ffffffffffffffffffffffffffffffffffffffff168273ffffffffffffffffffffffffffffffffffffffff167fddf252ad1be2c89b69c2b068fc378daa952ba7f163c4a11628f55a4df523b3ef836040518082815260200191505060405180910390a35050565b600080828401905083811015151561193557600080fd5b8091505092915050565b600082821115151561195057600080fd5b8183039050929150505600a165627a7a723058208f96c9c1fec97351ffd94ab99dd080cbc5f2ed40210c4bd7af10f1b3f903c8890029",
  "source": "pragma solidity >= 0.4.22;\npragma experimental ABIEncoderV2;\nimport \"./../libraries/0x/contracts/erc20/contracts/src/MintableERC20Token.sol\";\nimport \"./OutcomeIndexToken.sol\";\nimport \"./Market.sol\";\n\n// Make mintable unlimited allowance token.\ncontract CompleteSetOfOutcomeIndexTokens is MintableERC20Token {\n\tusing SafeMathLib for uint256;\n\n\tOutcomeIndexToken[] public outcomeIndexTokens;\n\tMarket[] markets;\n\tmapping(address => uint256) marketsToWeight;\n\n\tconstructor (\n\t\tMarket[] _markets,\n\t\taddress[][] _index,\n\t\tuint256[] _weights\n\t)  \n\tpublic \n\t{\n\t\trequire(_markets.length == _weights.length);\n\t\tfor (uint256 i = 0; i < _index.length; i++) {\n\t\t\toutcomeIndexTokens.push(new OutcomeIndexToken(_markets, _index[i], _weights, i));\n\t\t}\n\t\tfor (uint256 x = 0; x < _markets.length; x++) {\n\t\t\tmarketsToWeight[_markets[x]] = _weights[x];\n\t\t}\n\t\tmarkets = _markets;\n\t}\n\n\tfunction buyCompleteSet(\n\t\tuint256 _amountOfShares\n\t)\n\tpublic\n\tpayable {\n\t\trequire(msg.value > 0);\n\t\tfor (uint256 i = 0; i < markets.length; i++) {\n\t\t\tuint256 weightedAmount = msg.value.mul(marketsToWeight[markets[i]]).div(100);\n\t\t\tmarkets[i].buyCompleteSet.value(weightedAmount)(outcomeIndexTokens);\n\t\t}\n\t\tfor (uint256 x = 0; x < outcomeIndexTokens.length; x++){\n\t\t\toutcomeIndexTokens[x].mint(msg.sender, msg.value);\n\t\t}\n\t}\n}",
  "sourcePath": "/Users/jasperdegooijer/Documents/flux/augurSets/AugurSets/contracts/CompleteSetOfOutcomeIndexTokens.sol",
  "compiler": {
    "name": "solc",
    "version": "0.4.22+commit.4cb486ee.Emscripten.clang"
  },
  "schemaVersion": "3.0.1",
  "updatedAt": "2019-06-13T14:55:20.534Z",
  "devdoc": {
    "methods": {
      "allowance(address,address)": {
        "params": {
          "_owner": "The address of the account owning tokens",
          "_spender": "The address of the account able to transfer the tokens"
        },
        "return": "Amount of remaining tokens allowed to spent"
      },
      "approve(address,uint256)": {
        "details": "`msg.sender` approves `_spender` to spend `_value` tokens",
        "params": {
          "_spender": "The address of the account able to transfer the tokens",
          "_value": "The amount of wei to be approved for transfer"
        },
        "return": "Always true if the call has enough gas to complete execution"
      },
      "balanceOf(address)": {
        "details": "Query the balance of owner",
        "params": {
          "_owner": "The address from which the balance will be retrieved"
        },
        "return": "Balance of owner"
      },
      "totalSupply()": {
        "details": "Query total supply of token",
        "return": "Total supply of token"
      },
      "transfer(address,uint256)": {
        "details": "send `value` token to `to` from `msg.sender`",
        "params": {
          "_to": "The address of the recipient",
          "_value": "The amount of token to be transferred"
        },
        "return": "True if transfer was successful"
      },
      "transferFrom(address,address,uint256)": {
        "details": "ERC20 transferFrom, modified such that an allowance of MAX_UINT represents an unlimited allowance. See https://github.com/ethereum/EIPs/issues/717",
        "params": {
          "_from": "Address to transfer from.",
          "_to": "Address to transfer to.",
          "_value": "Amount to transfer."
        },
        "return": "Success of transfer."
      }
    }
  },
  "userdoc": {
    "methods": {}
  }
}