{
  "contractName": "CompleteSetOfOutcomeIndexTokens",
  "abi": [
    {
      "constant": false,
      "inputs": [
        {
          "name": "_spender",
          "type": "address"
        },
        {
          "name": "_value",
          "type": "uint256"
        }
      ],
      "name": "approve",
      "outputs": [
        {
          "name": "",
          "type": "bool"
        }
      ],
      "payable": false,
      "stateMutability": "nonpayable",
      "type": "function"
    },
    {
      "constant": true,
      "inputs": [],
      "name": "totalSupply",
      "outputs": [
        {
          "name": "",
          "type": "uint256"
        }
      ],
      "payable": false,
      "stateMutability": "view",
      "type": "function"
    },
    {
      "constant": false,
      "inputs": [
        {
          "name": "_from",
          "type": "address"
        },
        {
          "name": "_to",
          "type": "address"
        },
        {
          "name": "_value",
          "type": "uint256"
        }
      ],
      "name": "transferFrom",
      "outputs": [
        {
          "name": "",
          "type": "bool"
        }
      ],
      "payable": false,
      "stateMutability": "nonpayable",
      "type": "function"
    },
    {
      "constant": true,
      "inputs": [
        {
          "name": "_owner",
          "type": "address"
        }
      ],
      "name": "balanceOf",
      "outputs": [
        {
          "name": "",
          "type": "uint256"
        }
      ],
      "payable": false,
      "stateMutability": "view",
      "type": "function"
    },
    {
      "constant": false,
      "inputs": [
        {
          "name": "_to",
          "type": "address"
        },
        {
          "name": "_value",
          "type": "uint256"
        }
      ],
      "name": "transfer",
      "outputs": [
        {
          "name": "",
          "type": "bool"
        }
      ],
      "payable": false,
      "stateMutability": "nonpayable",
      "type": "function"
    },
    {
      "constant": true,
      "inputs": [
        {
          "name": "_owner",
          "type": "address"
        },
        {
          "name": "_spender",
          "type": "address"
        }
      ],
      "name": "allowance",
      "outputs": [
        {
          "name": "",
          "type": "uint256"
        }
      ],
      "payable": false,
      "stateMutability": "view",
      "type": "function"
    },
    {
      "inputs": [
        {
          "name": "_markets",
          "type": "address[]"
        },
        {
          "name": "_index",
          "type": "address[][]"
        },
        {
          "name": "_weights",
          "type": "uint256[]"
        }
      ],
      "payable": false,
      "stateMutability": "nonpayable",
      "type": "constructor"
    },
    {
      "anonymous": false,
      "inputs": [
        {
          "indexed": true,
          "name": "_from",
          "type": "address"
        },
        {
          "indexed": true,
          "name": "_to",
          "type": "address"
        },
        {
          "indexed": false,
          "name": "_value",
          "type": "uint256"
        }
      ],
      "name": "Transfer",
      "type": "event"
    },
    {
      "anonymous": false,
      "inputs": [
        {
          "indexed": true,
          "name": "_owner",
          "type": "address"
        },
        {
          "indexed": true,
          "name": "_spender",
          "type": "address"
        },
        {
          "indexed": false,
          "name": "_value",
          "type": "uint256"
        }
      ],
      "name": "Approval",
      "type": "event"
    },
    {
      "constant": false,
      "inputs": [
        {
          "name": "_amountOfShares",
          "type": "uint256"
        }
      ],
      "name": "buyCompleteSet",
      "outputs": [],
      "payable": true,
      "stateMutability": "payable",
      "type": "function"
    }
  ],
  "bytecode": "0x60806040523480156200001157600080fd5b506040516200370738038062003707833981018060405262000037919081019062000529565b600080825185511415156200004b57600080fd5b600091505b8351821015620001205760038585848151811015156200006c57fe5b90602001906020020151858562000082620001d5565b6200009194939291906200072c565b604051809103906000f080158015620000ae573d6000803e3d6000fd5b5090806001815401808255809150509060018203906000526020600020016000909192909190916101000a81548173ffffffffffffffffffffffffffffffffffffffff021916908373ffffffffffffffffffffffffffffffffffffffff16021790555050818060010192505062000050565b600090505b8451811015620001b15782818151811015156200013e57fe5b906020019060200201516005600087848151811015156200015b57fe5b9060200190602002015173ffffffffffffffffffffffffffffffffffffffff1673ffffffffffffffffffffffffffffffffffffffff16815260200190815260200160002081905550808060010191505062000125565b8460049080519060200190620001c9929190620001e6565b5050505050506200094b565b604051611ccc8062001a3b83390190565b82805482825590600052602060002090810192821562000262579160200282015b82811115620002615782518260006101000a81548173ffffffffffffffffffffffffffffffffffffffff021916908373ffffffffffffffffffffffffffffffffffffffff1602179055509160200191906001019062000207565b5b50905062000271919062000275565b5090565b620002b891905b80821115620002b457600081816101000a81549073ffffffffffffffffffffffffffffffffffffffff0219169055506001016200027c565b5090565b90565b6000620002c98251620008f9565b905092915050565b600082601f8301121515620002e557600080fd5b8151620002fc620002f682620007bc565b6200078e565b915081818352602084019350602081019050838560208402820111156200032257600080fd5b60005b838110156200035657816200033b8882620002bb565b84526020840193506020830192505060018101905062000325565b5050505092915050565b600082601f83011215156200037457600080fd5b81516200038b6200038582620007e5565b6200078e565b9150818183526020840193506020810190508360005b83811015620003d55781518601620003ba8882620002d1565b845260208401935060208301925050600181019050620003a1565b5050505092915050565b600082601f8301121515620003f357600080fd5b81516200040a62000404826200080e565b6200078e565b915081818352602084019350602081019050838560208402820111156200043057600080fd5b60005b83811015620004645781620004498882620004fd565b84526020840193506020830192505060018101905062000433565b5050505092915050565b600082601f83011215156200048257600080fd5b815162000499620004938262000837565b6200078e565b91508181835260208401935060208101905083856020840282011115620004bf57600080fd5b60005b83811015620004f35781620004d8888262000513565b845260208401935060208301925050600181019050620004c2565b5050505092915050565b60006200050b825162000919565b905092915050565b60006200052182516200092d565b905092915050565b6000806000606084860312156200053f57600080fd5b600084015167ffffffffffffffff8111156200055a57600080fd5b6200056886828701620003df565b935050602084015167ffffffffffffffff8111156200058657600080fd5b620005948682870162000360565b925050604084015167ffffffffffffffff811115620005b257600080fd5b620005c0868287016200046e565b9150509250925092565b620005d581620008cf565b82525050565b6000620005e88262000887565b808452602084019350620005fc8362000860565b60005b82811015620006345762000615868351620005ca565b6200062082620008a8565b9150602086019550600181019050620005ff565b50849250505092915050565b60006200064d8262000892565b80845260208401935062000661836200086d565b60005b8281101562000699576200067a8683516200070a565b6200068582620008b5565b915060208601955060018101905062000664565b50849250505092915050565b6000620006b2826200089d565b808452602084019350620006c6836200087a565b60005b82811015620006fe57620006df8683516200071b565b620006ea82620008c2565b9150602086019550600181019050620006c9565b50849250505092915050565b620007158162000937565b82525050565b6200072681620008ef565b82525050565b6000608082019050818103600083015262000748818762000640565b905081810360208301526200075e8186620005db565b90508181036040830152620007748185620006a5565b90506200078560608301846200071b565b95945050505050565b6000604051905081810181811067ffffffffffffffff82111715620007b257600080fd5b8060405250919050565b600067ffffffffffffffff821115620007d457600080fd5b602082029050602081019050919050565b600067ffffffffffffffff821115620007fd57600080fd5b602082029050602081019050919050565b600067ffffffffffffffff8211156200082657600080fd5b602082029050602081019050919050565b600067ffffffffffffffff8211156200084f57600080fd5b602082029050602081019050919050565b6000602082019050919050565b6000602082019050919050565b6000602082019050919050565b600081519050919050565b600081519050919050565b600081519050919050565b6000602082019050919050565b6000602082019050919050565b6000602082019050919050565b600073ffffffffffffffffffffffffffffffffffffffff82169050919050565b6000819050919050565b600073ffffffffffffffffffffffffffffffffffffffff82169050919050565b60006200092682620008cf565b9050919050565b6000819050919050565b60006200094482620008cf565b9050919050565b6110e0806200095b6000396000f300608060405260043610610083576000357c0100000000000000000000000000000000000000000000000000000000900463ffffffff168063095ea7b31461008857806318160ddd146100c557806323b872dd146100f057806354b9c7951461012d57806370a0823114610149578063a9059cbb14610186578063dd62ed3e146101c3575b600080fd5b34801561009457600080fd5b506100af60048036036100aa9190810190610d88565b610200565b6040516100bc9190610f74565b60405180910390f35b3480156100d157600080fd5b506100da6102f2565b6040516100e79190610fef565b60405180910390f35b3480156100fc57600080fd5b5061011760048036036101129190810190610d39565b6102fc565b6040516101249190610f74565b60405180910390f35b61014760048036036101429190810190610dc4565b6106c5565b005b34801561015557600080fd5b50610170600480360361016b9190810190610cd4565b610940565b60405161017d9190610fef565b60405180910390f35b34801561019257600080fd5b506101ad60048036036101a89190810190610d88565b610988565b6040516101ba9190610f74565b60405180910390f35b3480156101cf57600080fd5b506101ea60048036036101e59190810190610cfd565b610bd7565b6040516101f79190610fef565b60405180910390f35b600081600160003373ffffffffffffffffffffffffffffffffffffffff1673ffffffffffffffffffffffffffffffffffffffff16815260200190815260200160002060008573ffffffffffffffffffffffffffffffffffffffff1673ffffffffffffffffffffffffffffffffffffffff168152602001908152602001600020819055508273ffffffffffffffffffffffffffffffffffffffff163373ffffffffffffffffffffffffffffffffffffffff167f8c5be1e5ebec7d5bd14f71427d1e84f3dd0314c0f7b2291e5b200ac8c7c3b925846040516102e09190610fef565b60405180910390a36001905092915050565b6000600254905090565b600080600160008673ffffffffffffffffffffffffffffffffffffffff1673ffffffffffffffffffffffffffffffffffffffff16815260200190815260200160002060003373ffffffffffffffffffffffffffffffffffffffff1673ffffffffffffffffffffffffffffffffffffffff168152602001908152602001600020549050826000808773ffffffffffffffffffffffffffffffffffffffff1673ffffffffffffffffffffffffffffffffffffffff1681526020019081526020016000205410151515610401576040517f08c379a00000000000000000000000000000000000000000000000000000000081526004016103f890610f8f565b60405180910390fd5b828110151515610446576040517f08c379a000000000000000000000000000000000000000000000000000000000815260040161043d90610faf565b60405180910390fd5b6000808573ffffffffffffffffffffffffffffffffffffffff1673ffffffffffffffffffffffffffffffffffffffff16815260200190815260200160002054836000808773ffffffffffffffffffffffffffffffffffffffff1673ffffffffffffffffffffffffffffffffffffffff168152602001908152602001600020540110151515610509576040517f08c379a000000000000000000000000000000000000000000000000000000000815260040161050090610fcf565b60405180910390fd5b826000808673ffffffffffffffffffffffffffffffffffffffff1673ffffffffffffffffffffffffffffffffffffffff16815260200190815260200160002060008282540192505081905550826000808773ffffffffffffffffffffffffffffffffffffffff1673ffffffffffffffffffffffffffffffffffffffff168152602001908152602001600020600082825403925050819055507fffffffffffffffffffffffffffffffffffffffffffffffffffffffffffffffff8110156106545782600160008773ffffffffffffffffffffffffffffffffffffffff1673ffffffffffffffffffffffffffffffffffffffff16815260200190815260200160002060003373ffffffffffffffffffffffffffffffffffffffff1673ffffffffffffffffffffffffffffffffffffffff168152602001908152602001600020600082825403925050819055505b8373ffffffffffffffffffffffffffffffffffffffff168573ffffffffffffffffffffffffffffffffffffffff167fddf252ad1be2c89b69c2b068fc378daa952ba7f163c4a11628f55a4df523b3ef856040516106b19190610fef565b60405180910390a360019150509392505050565b600080600080341115156106d857600080fd5b600092505b60048054905083101561085957610788606461077a6005600060048881548110151561070557fe5b9060005260206000200160009054906101000a900473ffffffffffffffffffffffffffffffffffffffff1673ffffffffffffffffffffffffffffffffffffffff1673ffffffffffffffffffffffffffffffffffffffff1681526020019081526020016000205434610c5e90919063ffffffff16565b610c9690919063ffffffff16565b915060048381548110151561079957fe5b9060005260206000200160009054906101000a900473ffffffffffffffffffffffffffffffffffffffff1673ffffffffffffffffffffffffffffffffffffffff1663a48247a78360036040518363ffffffff167c010000000000000000000000000000000000000000000000000000000002815260040161081a9190610f52565b6000604051808303818588803b15801561083357600080fd5b505af1158015610847573d6000803e3d6000fd5b505050505082806001019350506106dd565b600090505b60038054905081101561093a5760038181548110151561087a57fe5b9060005260206000200160009054906101000a900473ffffffffffffffffffffffffffffffffffffffff1673ffffffffffffffffffffffffffffffffffffffff166340c10f1933346040518363ffffffff167c01000000000000000000000000000000000000000000000000000000000281526004016108fb929190610f29565b600060405180830381600087803b15801561091557600080fd5b505af1158015610929573d6000803e3d6000fd5b50505050808060010191505061085e565b50505050565b60008060008373ffffffffffffffffffffffffffffffffffffffff1673ffffffffffffffffffffffffffffffffffffffff168152602001908152602001600020549050919050565b6000816000803373ffffffffffffffffffffffffffffffffffffffff1673ffffffffffffffffffffffffffffffffffffffff1681526020019081526020016000205410151515610a0d576040517f08c379a0000000000000000000000000000000000000000000000000000000008152600401610a0490610f8f565b60405180910390fd5b6000808473ffffffffffffffffffffffffffffffffffffffff1673ffffffffffffffffffffffffffffffffffffffff16815260200190815260200160002054826000808673ffffffffffffffffffffffffffffffffffffffff1673ffffffffffffffffffffffffffffffffffffffff168152602001908152602001600020540110151515610ad0576040517f08c379a0000000000000000000000000000000000000000000000000000000008152600401610ac790610fcf565b60405180910390fd5b816000803373ffffffffffffffffffffffffffffffffffffffff1673ffffffffffffffffffffffffffffffffffffffff16815260200190815260200160002060008282540392505081905550816000808573ffffffffffffffffffffffffffffffffffffffff1673ffffffffffffffffffffffffffffffffffffffff168152602001908152602001600020600082825401925050819055508273ffffffffffffffffffffffffffffffffffffffff163373ffffffffffffffffffffffffffffffffffffffff167fddf252ad1be2c89b69c2b068fc378daa952ba7f163c4a11628f55a4df523b3ef84604051610bc59190610fef565b60405180910390a36001905092915050565b6000600160008473ffffffffffffffffffffffffffffffffffffffff1673ffffffffffffffffffffffffffffffffffffffff16815260200190815260200160002060008373ffffffffffffffffffffffffffffffffffffffff1673ffffffffffffffffffffffffffffffffffffffff16815260200190815260200160002054905092915050565b600080831415610c715760009050610c90565b8183029050818382811515610c8257fe5b04141515610c8c57fe5b8090505b92915050565b60008183811515610ca357fe5b04905092915050565b6000610cb8823561106a565b905092915050565b6000610ccc823561108a565b905092915050565b600060208284031215610ce657600080fd5b6000610cf484828501610cac565b91505092915050565b60008060408385031215610d1057600080fd5b6000610d1e85828601610cac565b9250506020610d2f85828601610cac565b9150509250929050565b600080600060608486031215610d4e57600080fd5b6000610d5c86828701610cac565b9350506020610d6d86828701610cac565b9250506040610d7e86828701610cc0565b9150509250925092565b60008060408385031215610d9b57600080fd5b6000610da985828601610cac565b9250506020610dba85828601610cc0565b9150509250929050565b600060208284031215610dd657600080fd5b6000610de484828501610cc0565b91505092915050565b610df681611034565b82525050565b6000610e078261101c565b808452602084019350610e198361100a565b60005b82811015610e4b57610e2f868354610e66565b610e3882611027565b9150602086019550600181019050610e1c565b50849250505092915050565b610e6081611054565b82525050565b610e6f81611094565b82525050565b6000601a82527f45524332305f494e53554646494349454e545f42414c414e43450000000000006020830152604082019050919050565b6000601c82527f45524332305f494e53554646494349454e545f414c4c4f57414e4345000000006020830152604082019050919050565b6000601082527f55494e543235365f4f564552464c4f57000000000000000000000000000000006020830152604082019050919050565b610f2381611060565b82525050565b6000604082019050610f3e6000830185610ded565b610f4b6020830184610f1a565b9392505050565b60006020820190508181036000830152610f6c8184610dfc565b905092915050565b6000602082019050610f896000830184610e57565b92915050565b60006020820190508181036000830152610fa881610e75565b9050919050565b60006020820190508181036000830152610fc881610eac565b9050919050565b60006020820190508181036000830152610fe881610ee3565b9050919050565b60006020820190506110046000830184610f1a565b92915050565b60008160005260206000209050919050565b600081549050919050565b6000600182019050919050565b600073ffffffffffffffffffffffffffffffffffffffff82169050919050565b60008115159050919050565b6000819050919050565b600073ffffffffffffffffffffffffffffffffffffffff82169050919050565b6000819050919050565b600061109f82611034565b90509190505600a265627a7a7230582075e4c6b6abbf2ef41119d612897bc5da2d1b9e194cc558087bfc07e6a645df826c6578706572696d656e74616cf5003760806040526040805190810160405280601581526020017f4d756c74694d61726b6574496e646578546f6b656e000000000000000000000081525060039080519060200190620000519291906200023a565b506040805190810160405280600481526020017f4d4d495400000000000000000000000000000000000000000000000000000000815250600490805190602001906200009f9291906200023a565b5060126006556000600760006101000a81548160ff021916908315150217905550348015620000cd57600080fd5b5060405162001ccc38038062001ccc83398101806040528101908080518201929190602001805182019291906020018051820192919060200180519060200190929190505050600080845184511415156200012757600080fd5b600091505b8451821015620001b85783828151811015156200014557fe5b90602001906020020151600b600087858151811015156200016257fe5b9060200190602002015173ffffffffffffffffffffffffffffffffffffffff1673ffffffffffffffffffffffffffffffffffffffff1681526020019081526020016000208190555081806001019250506200012c565b33600560006101000a81548173ffffffffffffffffffffffffffffffffffffffff021916908373ffffffffffffffffffffffffffffffffffffffff160217905550846009908051906020019062000211929190620002c1565b5085600a90805190602001906200022a92919062000350565b5082905050505050505062000493565b828054600181600116156101000203166002900490600052602060002090601f016020900481019282601f106200027d57805160ff1916838001178555620002ae565b82800160010185558215620002ae579182015b82811115620002ad57825182559160200191906001019062000290565b5b509050620002bd9190620003df565b5090565b8280548282559060005260206000209081019282156200033d579160200282015b828111156200033c5782518260006101000a81548173ffffffffffffffffffffffffffffffffffffffff021916908373ffffffffffffffffffffffffffffffffffffffff16021790555091602001919060010190620002e2565b5b5090506200034c919062000407565b5090565b828054828255906000526020600020908101928215620003cc579160200282015b82811115620003cb5782518260006101000a81548173ffffffffffffffffffffffffffffffffffffffff021916908373ffffffffffffffffffffffffffffffffffffffff1602179055509160200191906001019062000371565b5b509050620003db91906200044d565b5090565b6200040491905b8082111562000400576000816000905550600101620003e6565b5090565b90565b6200044a91905b808211156200044657600081816101000a81549073ffffffffffffffffffffffffffffffffffffffff0219169055506001016200040e565b5090565b90565b6200049091905b808211156200048c57600081816101000a81549073ffffffffffffffffffffffffffffffffffffffff02191690555060010162000454565b5090565b90565b61182980620004a36000396000f3006080604052600436106100f1576000357c0100000000000000000000000000000000000000000000000000000000900463ffffffff16806306fdde03146100f6578063095ea7b31461018657806318160ddd146101eb57806323b872dd14610216578063313ce5671461029b578063335932fc146102c657806340c10f19146103335780634bb278f3146103805780634e71d92d1461039757806370a08231146103ae57806395d89b4114610405578063a9059cbb14610495578063b1283e77146104fa578063c9d59d8c14610567578063ccfe7fc914610596578063d0e30db0146105ed578063dd62ed3e146105f7575b600080fd5b34801561010257600080fd5b5061010b61066e565b6040518080602001828103825283818151815260200191508051906020019080838360005b8381101561014b578082015181840152602081019050610130565b50505050905090810190601f1680156101785780820380516001836020036101000a031916815260200191505b509250505060405180910390f35b34801561019257600080fd5b506101d1600480360381019080803573ffffffffffffffffffffffffffffffffffffffff1690602001909291908035906020019092919050505061070c565b604051808215151515815260200191505060405180910390f35b3480156101f757600080fd5b506102006107fe565b6040518082815260200191505060405180910390f35b34801561022257600080fd5b50610281600480360381019080803573ffffffffffffffffffffffffffffffffffffffff169060200190929190803573ffffffffffffffffffffffffffffffffffffffff16906020019092919080359060200190929190505050610808565b604051808215151515815260200191505060405180910390f35b3480156102a757600080fd5b506102b0610c6a565b6040518082815260200191505060405180910390f35b3480156102d257600080fd5b506102f160048036038101908080359060200190929190505050610c70565b604051808273ffffffffffffffffffffffffffffffffffffffff1673ffffffffffffffffffffffffffffffffffffffff16815260200191505060405180910390f35b34801561033f57600080fd5b5061037e600480360381019080803573ffffffffffffffffffffffffffffffffffffffff16906020019092919080359060200190929190505050610cae565b005b34801561038c57600080fd5b50610395610d18565b005b3480156103a357600080fd5b506103ac610e48565b005b3480156103ba57600080fd5b506103ef600480360381019080803573ffffffffffffffffffffffffffffffffffffffff169060200190929190505050610f45565b6040518082815260200191505060405180910390f35b34801561041157600080fd5b5061041a610f8d565b6040518080602001828103825283818151815260200191508051906020019080838360005b8381101561045a57808201518184015260208101905061043f565b50505050905090810190601f1680156104875780820380516001836020036101000a031916815260200191505b509250505060405180910390f35b3480156104a157600080fd5b506104e0600480360381019080803573ffffffffffffffffffffffffffffffffffffffff1690602001909291908035906020019092919050505061102b565b604051808215151515815260200191505060405180910390f35b34801561050657600080fd5b50610525600480360381019080803590602001909291905050506112e0565b604051808273ffffffffffffffffffffffffffffffffffffffff1673ffffffffffffffffffffffffffffffffffffffff16815260200191505060405180910390f35b34801561057357600080fd5b5061057c61131e565b604051808215151515815260200191505060405180910390f35b3480156105a257600080fd5b506105d7600480360381019080803573ffffffffffffffffffffffffffffffffffffffff169060200190929190505050611436565b6040518082815260200191505060405180910390f35b6105f5611515565b005b34801561060357600080fd5b50610658600480360381019080803573ffffffffffffffffffffffffffffffffffffffff169060200190929190803573ffffffffffffffffffffffffffffffffffffffff169060200190929190505050611517565b6040518082815260200191505060405180910390f35b60038054600181600116156101000203166002900480601f0160208091040260200160405190810160405280929190818152602001828054600181600116156101000203166002900480156107045780601f106106d957610100808354040283529160200191610704565b820191906000526020600020905b8154815290600101906020018083116106e757829003601f168201915b505050505081565b600081600160003373ffffffffffffffffffffffffffffffffffffffff1673ffffffffffffffffffffffffffffffffffffffff16815260200190815260200160002060008573ffffffffffffffffffffffffffffffffffffffff1673ffffffffffffffffffffffffffffffffffffffff168152602001908152602001600020819055508273ffffffffffffffffffffffffffffffffffffffff163373ffffffffffffffffffffffffffffffffffffffff167f8c5be1e5ebec7d5bd14f71427d1e84f3dd0314c0f7b2291e5b200ac8c7c3b925846040518082815260200191505060405180910390a36001905092915050565b6000600254905090565b600080600160008673ffffffffffffffffffffffffffffffffffffffff1673ffffffffffffffffffffffffffffffffffffffff16815260200190815260200160002060003373ffffffffffffffffffffffffffffffffffffffff1673ffffffffffffffffffffffffffffffffffffffff168152602001908152602001600020549050826000808773ffffffffffffffffffffffffffffffffffffffff1673ffffffffffffffffffffffffffffffffffffffff1681526020019081526020016000205410151515610940576040517f08c379a000000000000000000000000000000000000000000000000000000000815260040180806020018281038252601a8152602001807f45524332305f494e53554646494349454e545f42414c414e434500000000000081525060200191505060405180910390fd5b8281101515156109b8576040517f08c379a000000000000000000000000000000000000000000000000000000000815260040180806020018281038252601c8152602001807f45524332305f494e53554646494349454e545f414c4c4f57414e43450000000081525060200191505060405180910390fd5b6000808573ffffffffffffffffffffffffffffffffffffffff1673ffffffffffffffffffffffffffffffffffffffff16815260200190815260200160002054836000808773ffffffffffffffffffffffffffffffffffffffff1673ffffffffffffffffffffffffffffffffffffffff168152602001908152602001600020540110151515610aae576040517f08c379a00000000000000000000000000000000000000000000000000000000081526004018080602001828103825260108152602001807f55494e543235365f4f564552464c4f570000000000000000000000000000000081525060200191505060405180910390fd5b826000808673ffffffffffffffffffffffffffffffffffffffff1673ffffffffffffffffffffffffffffffffffffffff16815260200190815260200160002060008282540192505081905550826000808773ffffffffffffffffffffffffffffffffffffffff1673ffffffffffffffffffffffffffffffffffffffff168152602001908152602001600020600082825403925050819055507fffffffffffffffffffffffffffffffffffffffffffffffffffffffffffffffff811015610bf95782600160008773ffffffffffffffffffffffffffffffffffffffff1673ffffffffffffffffffffffffffffffffffffffff16815260200190815260200160002060003373ffffffffffffffffffffffffffffffffffffffff1673ffffffffffffffffffffffffffffffffffffffff168152602001908152602001600020600082825403925050819055505b8373ffffffffffffffffffffffffffffffffffffffff168573ffffffffffffffffffffffffffffffffffffffff167fddf252ad1be2c89b69c2b068fc378daa952ba7f163c4a11628f55a4df523b3ef856040518082815260200191505060405180910390a360019150509392505050565b60065481565b600981815481101515610c7f57fe5b906000526020600020016000915054906101000a900473ffffffffffffffffffffffffffffffffffffffff1681565b600560009054906101000a900473ffffffffffffffffffffffffffffffffffffffff1673ffffffffffffffffffffffffffffffffffffffff163373ffffffffffffffffffffffffffffffffffffffff16141515610d0a57600080fd5b610d14828261159e565b5050565b6000610d2261131e565b1515610d2d57600080fd5b600760009054906101000a900460ff16151515610d4957600080fd5b600090505b600a80549050811015610e2a57600a81815481101515610d6a57fe5b9060005260206000200160009054906101000a900473ffffffffffffffffffffffffffffffffffffffff1673ffffffffffffffffffffffffffffffffffffffff1663379607f56008546040518263ffffffff167c010000000000000000000000000000000000000000000000000000000002815260040180828152602001915050600060405180830381600087803b158015610e0557600080fd5b505af1158015610e19573d6000803e3d6000fd5b505050508080600101915050610d4e565b6001600760006101000a81548160ff02191690831515021790555050565b600760009054906101000a900460ff161515610e6357600080fd5b3373ffffffffffffffffffffffffffffffffffffffff166108fc610ecf60026000803373ffffffffffffffffffffffffffffffffffffffff1673ffffffffffffffffffffffffffffffffffffffff168152602001908152602001600020546116a490919063ffffffff16565b9081150290604051600060405180830381858888f19350505050158015610efa573d6000803e3d6000fd5b50610f43336000803373ffffffffffffffffffffffffffffffffffffffff1673ffffffffffffffffffffffffffffffffffffffff168152602001908152602001600020546116ba565b565b60008060008373ffffffffffffffffffffffffffffffffffffffff1673ffffffffffffffffffffffffffffffffffffffff168152602001908152602001600020549050919050565b60048054600181600116156101000203166002900480601f0160208091040260200160405190810160405280929190818152602001828054600181600116156101000203166002900480156110235780601f10610ff857610100808354040283529160200191611023565b820191906000526020600020905b81548152906001019060200180831161100657829003601f168201915b505050505081565b6000816000803373ffffffffffffffffffffffffffffffffffffffff1673ffffffffffffffffffffffffffffffffffffffff16815260200190815260200160002054101515156110e3576040517f08c379a000000000000000000000000000000000000000000000000000000000815260040180806020018281038252601a8152602001807f45524332305f494e53554646494349454e545f42414c414e434500000000000081525060200191505060405180910390fd5b6000808473ffffffffffffffffffffffffffffffffffffffff1673ffffffffffffffffffffffffffffffffffffffff16815260200190815260200160002054826000808673ffffffffffffffffffffffffffffffffffffffff1673ffffffffffffffffffffffffffffffffffffffff1681526020019081526020016000205401101515156111d9576040517f08c379a00000000000000000000000000000000000000000000000000000000081526004018080602001828103825260108152602001807f55494e543235365f4f564552464c4f570000000000000000000000000000000081525060200191505060405180910390fd5b816000803373ffffffffffffffffffffffffffffffffffffffff1673ffffffffffffffffffffffffffffffffffffffff16815260200190815260200160002060008282540392505081905550816000808573ffffffffffffffffffffffffffffffffffffffff1673ffffffffffffffffffffffffffffffffffffffff168152602001908152602001600020600082825401925050819055508273ffffffffffffffffffffffffffffffffffffffff163373ffffffffffffffffffffffffffffffffffffffff167fddf252ad1be2c89b69c2b068fc378daa952ba7f163c4a11628f55a4df523b3ef846040518082815260200191505060405180910390a36001905092915050565b600a818154811015156112ef57fe5b906000526020600020016000915054906101000a900473ffffffffffffffffffffffffffffffffffffffff1681565b600080600090505b60098054905081101561142d5760001515600a8281548110151561134657fe5b9060005260206000200160009054906101000a900473ffffffffffffffffffffffffffffffffffffffff1673ffffffffffffffffffffffffffffffffffffffff16638d4e40836040518163ffffffff167c0100000000000000000000000000000000000000000000000000000000028152600401602060405180830381600087803b1580156113d457600080fd5b505af11580156113e8573d6000803e3d6000fd5b505050506040513d60208110156113fe57600080fd5b8101908080519060200190929190505050151514156114205760009150611432565b8080600101915050611326565b600191505b5090565b60008173ffffffffffffffffffffffffffffffffffffffff166370a08231306040518263ffffffff167c0100000000000000000000000000000000000000000000000000000000028152600401808273ffffffffffffffffffffffffffffffffffffffff1673ffffffffffffffffffffffffffffffffffffffff168152602001915050602060405180830381600087803b1580156114d357600080fd5b505af11580156114e7573d6000803e3d6000fd5b505050506040513d60208110156114fd57600080fd5b81019080805190602001909291905050509050919050565b565b6000600160008473ffffffffffffffffffffffffffffffffffffffff1673ffffffffffffffffffffffffffffffffffffffff16815260200190815260200160002060008373ffffffffffffffffffffffffffffffffffffffff1673ffffffffffffffffffffffffffffffffffffffff16815260200190815260200160002054905092915050565b6115e6816000808573ffffffffffffffffffffffffffffffffffffffff1673ffffffffffffffffffffffffffffffffffffffff168152602001908152602001600020546117c0565b6000808473ffffffffffffffffffffffffffffffffffffffff1673ffffffffffffffffffffffffffffffffffffffff16815260200190815260200160002081905550611634600254826117c0565b6002819055508173ffffffffffffffffffffffffffffffffffffffff16600073ffffffffffffffffffffffffffffffffffffffff167fddf252ad1be2c89b69c2b068fc378daa952ba7f163c4a11628f55a4df523b3ef836040518082815260200191505060405180910390a35050565b600081838115156116b157fe5b04905092915050565b6117026000808473ffffffffffffffffffffffffffffffffffffffff1673ffffffffffffffffffffffffffffffffffffffff16815260200190815260200160002054826117e1565b6000808473ffffffffffffffffffffffffffffffffffffffff1673ffffffffffffffffffffffffffffffffffffffff16815260200190815260200160002081905550611750600254826117e1565b600281905550600073ffffffffffffffffffffffffffffffffffffffff168273ffffffffffffffffffffffffffffffffffffffff167fddf252ad1be2c89b69c2b068fc378daa952ba7f163c4a11628f55a4df523b3ef836040518082815260200191505060405180910390a35050565b60008082840190508381101515156117d757600080fd5b8091505092915050565b60008282111515156117f257600080fd5b8183039050929150505600a165627a7a72305820d7262f8e016b7f9edd75f603f02e0802c42bf5268b093e46cce469e964eafa7b0029",
  "source": "pragma solidity >= 0.4.22;\npragma experimental ABIEncoderV2;\nimport \"./../libraries/0x/contracts/erc20/contracts/src/MintableERC20Token.sol\";\nimport \"./OutcomeIndexToken.sol\";\nimport \"./Market.sol\";\n\n// Make mintable unlimited allowance token.\ncontract CompleteSetOfOutcomeIndexTokens is MintableERC20Token {\n\tusing SafeMathLib for uint256;\n\n\tOutcomeIndexToken[] outcomeIndexTokens;\n\tMarket[] markets;\n\tmapping(address => uint256) marketsToWeight;\n\n\tconstructor (\n\t\tMarket[] _markets,\n\t\taddress[][] _index,\n\t\tuint256[] _weights\n\t)  \n\tpublic \n\t{\n\t\trequire(_markets.length == _weights.length);\n\t\tfor (uint256 i = 0; i < _index.length; i++) {\n\t\t\toutcomeIndexTokens.push(new OutcomeIndexToken(_markets, _index[i], _weights, i));\n\t\t}\n\t\tfor (uint256 x = 0; x < _markets.length; x++) {\n\t\t\tmarketsToWeight[_markets[x]] = _weights[x];\n\t\t}\n\t\tmarkets = _markets;\n\t}\n\n\tfunction buyCompleteSet(\n\t\tuint256 _amountOfShares\n\t)\n\tpublic\n\tpayable {\n\t\trequire(msg.value > 0);\n\t\tfor (uint256 i = 0; i < markets.length; i++) {\n\t\t\tuint256 weightedAmount = msg.value.mul(marketsToWeight[markets[i]]).div(100);\n\t\t\tmarkets[i].buyCompleteSet.value(weightedAmount)(outcomeIndexTokens);\n\t\t}\n\t\tfor (uint256 x = 0; x < outcomeIndexTokens.length; x++){\n\t\t\toutcomeIndexTokens[x].mint(msg.sender, msg.value);\n\t\t}\n\t}\n}",
  "sourcePath": "/Users/jasperdegooijer/Documents/flux/augurSets/AugurSets/contracts/CompleteSetOfOutcomeIndexTokens.sol",
  "compiler": {
    "name": "solc",
    "version": "0.4.22+commit.4cb486ee.Emscripten.clang"
  },
  "schemaVersion": "3.0.1",
  "updatedAt": "2019-06-12T13:08:50.269Z",
  "devdoc": {
    "methods": {
      "allowance(address,address)": {
        "params": {
          "_owner": "The address of the account owning tokens",
          "_spender": "The address of the account able to transfer the tokens"
        },
        "return": "Amount of remaining tokens allowed to spent"
      },
      "approve(address,uint256)": {
        "details": "`msg.sender` approves `_spender` to spend `_value` tokens",
        "params": {
          "_spender": "The address of the account able to transfer the tokens",
          "_value": "The amount of wei to be approved for transfer"
        },
        "return": "Always true if the call has enough gas to complete execution"
      },
      "balanceOf(address)": {
        "details": "Query the balance of owner",
        "params": {
          "_owner": "The address from which the balance will be retrieved"
        },
        "return": "Balance of owner"
      },
      "totalSupply()": {
        "details": "Query total supply of token",
        "return": "Total supply of token"
      },
      "transfer(address,uint256)": {
        "details": "send `value` token to `to` from `msg.sender`",
        "params": {
          "_to": "The address of the recipient",
          "_value": "The amount of token to be transferred"
        },
        "return": "True if transfer was successful"
      },
      "transferFrom(address,address,uint256)": {
        "details": "ERC20 transferFrom, modified such that an allowance of MAX_UINT represents an unlimited allowance. See https://github.com/ethereum/EIPs/issues/717",
        "params": {
          "_from": "Address to transfer from.",
          "_to": "Address to transfer to.",
          "_value": "Amount to transfer."
        },
        "return": "Success of transfer."
      }
    }
  },
  "userdoc": {
    "methods": {}
  }
}